:0400000012EF00F00B
:100008005E828AA00AEF00F00CEF00F010EF00F01B
:100018008096610EEAEC3AF05E921100D2EF3AF067
:100E00000000000000DCCFD1350000000000C0155C
:100E10003F0000803F0000C03F70A5EC363BAAB801
:100E20003F4F38763F3CAA38338CBEBF3500723115
:100E30003F1872313F4CBB31330EEADDB555B38AF2
:100E400038610B36BBABAA2A3E42F1533E55326C99
:100E50003E05A38B3EABAAAA3EB76DDB3E9A99191D
:100E60003F0000804B00AAB83FC623F6B80040768A
:100E70003F616374696F6E203D202564200D0A0078
:010E80000071
:100E8200DAC068F1DBC069F1DCC06AF1DDC06BF188
:100E9200DEC084F1DFC085F1E0C086F1E1C087F1F8
:100EA200FF0E01016815AC6FFF0E6915AD6FFF0EE5
:100EB2006A15AE6F7F0E6B15AF6FFF0E8415946FC0
:100EC200FF0E8515956FFF0E8615966F7F0E87159F
:100ED200976F9451951196119711D8A473EF07F05B
:100EE20075EF07F080EF07F0000E0001DA6F000ED9
:100EF200DB6F800EDC6F3F0EDD6F80EF19F0800E2E
:100F02006A1909E13F0E6B1968116911D8A48CEFB7
:100F120007F08EEF07F099EF07F0000E0001DA6F8D
:100F2200000EDB6F800EDC6F3F0EDD6F80EF19F07D
:100F3200AFBFAAEF07F0AC05000EAD59800EAE5957
:100F42007F0EAF59D8B0A8EF07F0AAEF07F0BBEFBA
:100F520007F097BFB9EF07F09405000E9559800E80
:100F620096597F0E9759D8A0B9EF07F0BBEF07F05B
:100F7200D7EF07F0DAC002F0DBC003F0DCC004F008
:100F8200DDC005F0DEC006F0DFC007F0E0C008F00B
:100F9200E1C009F05AEC26F002C0DAF003C0DBF03F
:100FA20004C0DCF005C0DDF080EF19F0000E546FD4
:100FB200000E556F000E566F000E576F6BBFE6EFB7
:100FC20007F0E4EF07F0B2EF08F097BFF2EF07F097
:100FD200800E965D4B0E9759D8A0F2EF07F0F4EF12
:100FE20007F0FEEF07F0020E546F000E556F000E71
:100FF200566F000E576FB2EF08F097BF0AEF08F076
:10100200800E965D3F0E9759D8A00AEF08F00CEFBC
:1010120008F0B2EF08F0170E0001E26F94C1E3F09E
:1010220095C1E4F096C1E5F097C1E6F0E2671CEFE6
:1010320008F024EF08F0E635E633E533E433E33332
:10104200E22F17EF08F0810E0001E3250101A46FE2
:10105200FF0E0001E4210101A56FFF0E0001E52151
:101062000101A66FFF0E0001E6210101A76FA45145
:1010720017080001E26F94C1E3F095C1E4F096C154
:10108200E5F097C1E6F0E26749EF08F051EF08F0AA
:10109200E635E633E533E433E333E22F44EF08F099
:1010A200E3C0A8F1E4C0A9F1E5C0AAF1E6C0ABF142
:1010B2000101A45117080001E26FA8C1E3F0A9C120
:1010C200E4F0AAC1E5F0ABC1E6F0E22B6EEF08F066
:1010D200D890E337E437E537E637E22F69EF08F0D7
:1010E200010194510001E31913E10101955100013D
:1010F200E4190EE1010196510001E51909E101012E
:1011020097510001E619D8A489EF08F08BEF08F097
:10111200B2EF08F0010E0101A8150001E26F000E06
:101122000101A9150001E36F000E0101AA150001DA
:10113200E46F000E0101AB150001E56FE2510208F8
:101142000101546F000E0001E3550101556F000EBD
:101152000001E4550101566F000E0001E555010141
:10116200576F800E0101961909E17F0E97199411AC
:101172009511D8A4BFEF08F0C1EF08F02DEF09F0E8
:10118200800EAE1909E13F0EAF19AC11AD11D8A412
:10119200CDEF08F0CFEF08F0DAEF08F0000E000113
:1011A200DA6F000EDB6F800EDC6F3F0EDD6F80EFBB
:1011B20019F0AFBFE9EF08F0AC05000EAD59800E93
:1011C200AE593F0EAF59D8A0E9EF08F0EBEF08F0A7
:1011D20007EF09F087BFF2EF08F0F0EF08F0FDEF3C
:1011E20008F0000E0001DA6F000EDB6F000EDC6FFC
:1011F200000EDD6F80EF19F0DEC0DAF0DFC0DBF049
:10120200E0C0DCF0E1C0DDF080EF19F087BF0EEF47
:1012120009F00CEF09F022EF09F0DEC002F0DFC0A6
:1012220003F0E0C004F0E1C005F0FDEC39F002C0CB
:10123200DAF003C0DBF004C0DCF005C0DDF080EFC3
:1012420019F0000E0001DA6F000EDB6F000EDC6F8A
:10125200000EDD6F80EF19F0800E961909E13F0E46
:10126200971994119511D8A439EF09F03BEF09F0C1
:1012720068EF09F087BF42EF09F040EF09F05EEF37
:1012820009F0000E2B6E000E2C6E800E2D6E3F0E9E
:101292002E6EDAC02FF0DBC030F0DCC031F0DDC0E2
:1012A20032F0BEEC2CF02BC0DAF02CC0DBF02DC0FB
:1012B200DCF02EC0DDF080EF19F0DAC0DAF0DBC02E
:1012C200DBF0DCC0DCF0DDC0DDF080EF19F0400EB9
:1012D2008719841185118611D8A472EF09F074EF71
:1012E20009F090EF09F0DAC012F0DBC013F0DCC0B5
:1012F20014F0DDC015F0DAC016F0DBC017F0DCC068
:1013020018F0DDC019F0BAEC28F012C0DAF013C000
:10131200DBF014C0DCF015C0DDF080EF19F03F0EF9
:101322008719841185118611D8A49AEF09F09CEFD0
:1013320009F0B7EF09F06BBFA1EF09F0A3EF09F0D5
:10134200B7EF09F0DAC012F0DBC013F0DCC014F022
:10135200DDC015F0CFEC2AF012C0DAF013C0DBF0DA
:1013620014C0DCF015C0DDF080EF19F0ACC178F1EB
:10137200ADC179F1AEC17AF1AFC17BF1800EAE1988
:101382000BE17F0EAF19AC11AD11D8B4CBEF09F060
:10139200CDEF09F0E6EF09F0AC51AD11AE11AF118E
:1013A200D8B4D6EF09F0D8EF09F0E6EF09F0800ED5
:1013B200AE1909E13F0EAF19AC11AD11D8A4E4EF9B
:1013C20009F0E6EF09F081EF0AF078C1B4F179C1D2
:1013D200B5F17AC1B6F17BC1B7F187BFF5EF09F07C
:1013E200F3EF09F00FEF0AF0000E2B6E000E2C6ED9
:1013F200800E2D6E3F0E2E6EB4C12FF0B5C130F0AF
:10140200B6C131F0B7C132F0BEEC2CF02BC0B4F152
:101412002CC0B5F12DC0B6F12EC0B7F101016BBFE2
:1014220017EF0AF015EF0AF077EF0AF0000EAC257D
:101432000001E26F000E0101AD210001E36F800E99
:101442000101AE210001E46FC00E0101AF210001D4
:10145200E56F010154510001E211E66F010155519E
:101462000001E311E76F010156510001E411E86F39
:10147200010157510001E511E96FE651E711E81149
:10148200E911D8A447EF0AF049EF0AF059EF0AF040
:10149200000E0001D16F210ED06FFF0E0101B46F5B
:1014A200FF0EB56FFF0EB66F7F0EB76F77EF0AF0C4
:1014B20001015405551156115711D8A463EF0AF0D2
:1014C20065EF0AF077EF0AF0B4C102F0B5C103F09C
:1014D200B6C104F0B7C105F0FDEC39F002C0B4F1B9
:1014E20003C0B5F104C0B6F105C0B7F1B4C1DAF07A
:1014F200B5C1DBF0B6C1DCF0B7C1DDF080EF19F0A9
:10150200000E646F000E656F000E666F000E676F4F
:101512006BBF90EF0AF08EEF0AF0B0EF0AF0545171
:10152200551156115711D8A499EF0AF09BEF0AF002
:101532009DEF0AF049EF0AF0540555115611571163
:10154200D8A4A6EF0AF0A8EF0AF0B0EF0AF0000E56
:10155200646F000E656F000E666F800E676F97BF37
:10156200BFEF0AF09405000E9559000E96594D0EE4
:101572009759D8A0BFEF0AF0C1EF0AF085EF0CF03F
:10158200AFBFD3EF0AF0F80EAC5DFF0EAD597F0E80
:10159200AE593F0EAF59D8B0D1EF0AF0D3EF0AF0EF
:1015A200F4EF0AF087BFDAEF0AF0D8EF0AF0E9EFBA
:1015B2000AF0000E01016411B46F000E6511B56FDF
:1015C200800E6611B66F7F0E6711B76F77EF0AF064
:1015D200000E0001DA6F000EDB6F000EDC6F000EF2
:1015E200DD6F80EF19F0AFBF04EF0BF0080EAC5DBA
:1015F200000EAD59800EAE593F0EAF59D8A004EF80
:101602000BF006EF0BF022EF0BF087BF13EF0BF09E
:1016120087518611851108E18405D8A013EF0BF0DC
:1016220015EF0BF017EF0BF0DAEF0AF0000E0001E6
:10163200DA6F000EDB6F000EDC6F000EDD6F80EFE5
:1016420019F078C102F079C103F07AC104F07BC1CC
:1016520005F0000E066E000E076E800E086EBF0EBD
:10166200096E5AEC26F002C0B0F103C0B1F104C019
:10167200B2F105C0B3F1000E166E000E176E800EA9
:10168200186E3E0E196EB0C112F0B1C113F0B2C1A4
:1016920014F0B3C115F0BAEC28F012C048F013C030
:1016A20049F014C04AF015C04BF0AB0E446EAA0EBE
:1016B200456EAA0E466E3E0E476E7AEC39F044C075
:1016C20048F145C049F146C04AF147C04BF1B0C1AB
:1016D20016F0B1C117F0B2C118F0B3C119F0B0C120
:1016E20012F0B1C113F0B2C114F0B3C115F0BAECEB
:1016F20028F012C05CF113C05DF114C05EF115C098
:101702005FF1B0C116F0B1C117F0B2C118F0B3C1A8
:1017120019F048C112F049C113F04AC114F04BC18B
:1017220015F0BAEC28F012C048F013C049F014C00A
:101732004AF015C04BF0000E446E000E456E000ECE
:10174200466E3F0E476E7AEC39F044C04CF145C00C
:101752004DF146C04EF147C04FF15CC112F05DC180
:1017620013F05EC114F05FC115F04CC116F04DC10B
:1017720017F04EC118F04FC119F0BAEC28F012C0A0
:1017820044F113C045F114C046F115C047F1B0C190
:1017920012F0B1C113F0B2C114F0B3C115F0000ED2
:1017A200166EAA0E176EB80E186E3F0E196EBAECB0
:1017B20028F012C07CF113C07DF114C07EF115C077
:1017C2007FF1700E166EA50E176EEC0E186E360EA9
:1017D200196EB0C112F0B1C113F0B2C114F0B3C1AD
:1017E20015F0BAEC28F012C044F013C045F014C052
:1017F20046F015C047F03B0E166EAA0E176EB80ED5
:10180200186E3F0E196E44C112F045C113F046C165
:1018120014F047C115F0BAEC28F012C048F013C01A
:1018220049F014C04AF015C04BF07AEC39F044C0CC
:1018320080F145C081F146C082F147C083F17CC18D
:1018420002F07DC103F07EC104F07FC105F080C1CA
:1018520006F081C107F082C108F083C109F05AEC99
:1018620026F002C08CF103C08DF104C08EF105C0D8
:101872008FF18CC198F18DC199F18EC19AF18FC10E
:101882009BF1000E010198158C6FF00E99158D6F6A
:10189200FF0E9A158E6FFF0E9B158F6F7CC148F05D
:1018A2007DC149F07EC14AF07FC14BF08CC144F04A
:1018B2008DC145F08EC146F08FC147F07AEC39F008
:1018C20044C09CF145C09DF146C09EF147C09FF1C6
:1018D20080C144F081C145F082C146F083C147F026
:1018E2009CC148F09DC149F09EC14AF09FC14BF096
:1018F2007AEC39F044C01CF145C01DF146C01EF11E
:1019020047C01FF179EF13F0000E886F000E896F48
:10191200000E8A6F000E8B6FAFBF9BEF0CF0AF51C2
:1019220007E1800EAE5DD8B099EF0CF09BEF0CF0A2
:10193200C6EF0CF078C112F079C113F07AC114F03D
:101942007BC115F0000E166E000E176E800E186E1B
:101952004B0E196EBAEC28F012C078F113C079F16F
:1019620014C07AF115C07BF1E80E01018827FF0E41
:101972008923FF0E8A23FF0E8B2378C1ACF179C134
:10198200ADF17AC1AEF17BC1AFF1170E0001E26F8A
:10199200ACC1E3F0ADC1E4F0AEC1E5F0AFC1E6F039
:1019A200E267D6EF0CF0DEEF0CF0E635E633E53316
:1019B200E433E333E22FD1EF0CF0810E0001E32593
:1019C200E76FFF0EE421E86FFF0EE521E96FFF0EDE
:1019D200E621EA6FE751010188270001E851010180
:1019E20089230001E95101018A230001EA51010121
:1019F2008B23FF0EAC15A86FFF0EAD15A96F7F0EDE
:101A0200AE15AA6F000EAF15AB6F000EA46F000EDD
:101A1200A56F000EA66F000EA76F000EA811AC6F87
:101A2200000EA911AD6F800EAA11AE6F3F0EAB1161
:101A3200AF6FABBF2CEF0DF0AB510BE1720EA85D97
:101A4200C40EA9591C0EAA59D8B02AEF0DF02CEFDA
:101A52000DF02EEF0DF058EF0DF0ABBF40EF0DF093
:101A6200AB510BE1D70EA85DB30EA9595D0EAA5971
:101A7200D8B03EEF0DF040EF0DF04AEF0DF0010E41
:101A8200A46F000EA56F000EA66F000EA76F58EF91
:101A92000DF0010E8827000E89238A238B23000E66
:101AA200AC27000EAD23800EAE23FF0EAF23ACC1D8
:101AB20078F1ADC179F1AEC17AF1AFC17BF178C1F4
:101AC20044F079C145F07AC146F07BC147F0A45198
:101AD200040DF350110F0001E26FE2C0F6FF0E0E8B
:101AE200F76E000EF86E0900F5CF48F00900F5CF49
:101AF20049F00900F5CF4AF00A00F5CF4BF07AEC35
:101B020039F044C07CF145C07DF146C07EF147C04A
:101B12007FF1000E2B6E000E2C6E800E2D6E3F0E8E
:101B22002E6E78C106F079C107F07AC108F07BC148
:101B320009F00101A451040DF350110F0001E26FED
:101B4200E2C0F6FF0E0EF76E000EF86E0900F5CF3A
:101B520002F00900F5CF03F00900F5CF04F00A0006
:101B6200F5CF05F05AEC26F002C02FF003C030F09A
:101B720004C031F005C032F0BEEC2CF02BC080F175
:101B82002CC081F12DC082F12EC083F17CC112F0F4
:101B92007DC113F07EC114F07FC115F080C116F033
:101BA20081C117F082C118F083C119F0BAEC28F094
:101BB20012C058F113C059F114C05AF115C05BF1AB
:101BC20058C174F159C175F15AC176F15BC177F10F
:101BD20074C198F175C199F176C19AF177C19BF1FF
:101BE200000E01019815746FF00E9915756FFF0EB6
:101BF2009A15766FFF0E9B15776FACC1E2F0ADC1FF
:101C0200E3F0AEC1E4F0AFC1E5F00001E535E53344
:101C1200E433E333E233000EE215E66FF00EE31530
:101C2200E76FFF0EE415E86FFF0EE515E96F000E92
:101C3200E6110101986F000E0001E7110101996F91
:101C4200000E0001E81101019A6F200E0001E91156
:101C520001019B6FA4C1E2F0A5C1E3F0A6C1E4F0CB
:101C6200A7C1E5F0150ED8900001E237E337E4375B
:101C7200E537E82E34EF0EF0010198510001E2251C
:101C8200E66F010199510001E321E76F01019A51C9
:101C92000001E421E86F01019B510001E521E96F98
:101CA200000EE6250101706F000E0001E72101011F
:101CB200716F400E0001E8210101726F000E0001F8
:101CC200E9210101736FA451040DF350110F0001BA
:101CD200E26FE2C0F6FF0E0EF76E000EF86E09001C
:101CE200F5CF48F00900F5CF49F00900F5CF4AF0E9
:101CF2000A00F5CF4BF070C144F071C145F072C1DA
:101D020046F073C147F07AEC39F044C09CF145C00B
:101D12009DF146C09EF147C09FF178C144F079C160
:101D220045F07AC146F07BC147F09CC148F09DC1A5
:101D320049F09EC14AF09FC14BF07AEC39F044C0A1
:101D420034F145C035F146C036F147C037F170C1B4
:101D520016F071C117F072C118F073C119F074C195
:101D620012F075C113F076C114F077C115F0BAEC18
:101D720028F012C048F013C049F014C04AF015C050
:101D82004BF07CC144F07DC145F07EC146F07FC17D
:101D920047F07AEC39F044C09CF145C09DF146C051
:101DA2009EF147C09FF134C116F035C117F036C11C
:101DB20018F037C119F074C112F075C113F076C171
:101DC20014F077C115F0BAEC28F012C048F013C035
:101DD20049F014C04AF015C04BF09CC144F09DC1BB
:101DE20045F09EC146F09FC147F07AEC39F044C0FD
:101DF2005CF145C05DF146C05EF147C05FF15CC178
:101E020012F05DC113F05EC114F05FC115F080C124
:101E120016F081C117F082C118F083C119F0BAEC33
:101E220028F012C030F113C031F114C032F115C0E4
:101E320033F158C112F059C113F05AC114F05BC109
:101E420015F058C116F059C117F05AC118F05BC10C
:101E520019F0BAEC28F012C090F113C091F114C03D
:101E620092F115C093F1550E066E320E076E6C0E8E
:101E7200086E3E0E096E420E166EF10E176E530E6E
:101E8200186E3E0E196E90C112F091C113F092C1FC
:101E920014F093C115F0BAEC28F012C002F013C08E
:101EA20003F014C004F015C005F05AEC26F002C08D
:101EB20048F103C049F104C04AF105C04BF1050ED7
:101EC200066EA30E076E8B0E086E3E0E096E90C153
:101ED20016F091C117F092C118F093C119F048C1E0
:101EE20012F049C113F04AC114F04BC115F0BAEC1B
:101EF20028F012C002F013C003F014C004F015C0A1
:101F020005F05AEC26F002C05CF103C05DF104C09A
:101F12005EF105C05FF1AB0E066EAA0E076EAA0E49
:101F2200086E3E0E096E90C116F091C117F092C173
:101F320018F093C119F05CC112F05DC113F05EC1DB
:101F420014F05FC115F0BAEC28F012C002F013C011
:101F520003F014C004F015C005F05AEC26F002C0DC
:101F62004CF103C04DF104C04EF105C04FF1B70E64
:101F7200066E6D0E076EDB0E086E3E0E096E90C188
:101F820016F091C117F092C118F093C119F04CC12B
:101F920012F04DC113F04EC114F04FC115F0BAEC5E
:101FA20028F012C002F013C003F014C004F015C0F0
:101FB20005F05AEC26F002C038F103C039F104C032
:101FC2003AF105C03BF19A0E066E990E076E190E94
:101FD200086E3F0E096E90C116F091C117F092C1C2
:101FE20018F093C119F038C112F039C113F03AC197
:101FF20014F03BC115F0BAEC28F012C002F013C085
:1020020003F014C004F015C005F05AEC26F002C02B
:1020120000F103C001F104C002F105C003F190C157
:1020220016F091C117F092C118F093C119F090C146
:1020320012F091C113F092C114F093C115F0BAECF1
:1020420028F012C004F113C005F114C006F115C046
:1020520007F100C112F001C113F002C114F003C173
:1020620015F004C116F005C117F006C118F007C13A
:1020720019F0BAEC28F012C050F113C051F114C09B
:1020820052F115C053F130C116F031C117F032C10F
:1020920018F033C119F058C106F059C107F05AC1FE
:1020A20008F05BC109F074C102F075C103F076C19A
:1020B20004F077C105F05AEC26F002C012F003C01A
:1020C20013F004C014F005C015F0BAEC28F012C0E9
:1020D20060F113C061F114C062F115C063F150C127
:1020E20002F051C103F052C104F053C105F060C1C6
:1020F20006F061C107F062C108F063C109F05AEC51
:1021020026F002C050F103C051F104C052F105C0E3
:1021120053F174C112F075C113F076C114F077C196
:1021220015F074C116F075C117F076C118F077C1B9
:1021320019F0BAEC28F012C090F113C091F114C05A
:1021420092F115C093F1000E066E000E076E400E5E
:10215200086E400E096E90C102F091C103F092C167
:1021620004F093C105F05AEC26F002C060F103C0FE
:1021720061F104C062F105C063F160C102F061C1A6
:1021820003F062C104F063C105F050C106F051C111
:1021920007F052C108F053C109F05AEC26F002C010
:1021A20070F103C071F104C072F105C073F170C126
:1021B20098F171C199F172C19AF173C19BF1000E4C
:1021C20001019815706FF00E9915716FFF0E9A1537
:1021D200726FFF0E9B15736F000E066E000E076E78
:1021E200400E086EC00E096E70C102F071C103F09C
:1021F20072C104F073C105F05AEC26F002C03CF142
:1022020003C03DF104C03EF105C03FF190C148F06A
:1022120091C149F092C14AF093C14BF03CC144F0E4
:102222003DC145F03EC146F03FC147F07AEC39F07E
:1022320044C040F145C041F146C042F147C043F1BC
:1022420050C144F051C145F052C146F053C147F06C
:1022520040C148F041C149F042C14AF043C14BF08C
:102262007AEC39F044C034F145C035F146C036F15C
:1022720047C037F174C112F075C113F076C114F082
:1022820077C115F070C116F071C117F072C118F064
:1022920073C119F0BAEC28F012C07CF113C07DF1C1
:1022A20014C07EF115C07FF130C116F031C117F0B4
:1022B20032C118F033C119F070C112F071C113F0BC
:1022C20072C114F073C115F0BAEC28F012C002F01A
:1022D20013C003F014C004F015C005F058C116F085
:1022E20059C117F05AC118F05BC119F034C112F08C
:1022F20035C113F036C114F037C115F0BAEC28F02D
:1023020012C006F013C007F014C008F015C009F09F
:102312005AEC26F002C080F103C081F104C082F1C0
:1023220005C083F17CC102F07DC103F07EC104F0DF
:102332007FC105F080C106F081C107F082C108F0BB
:1023420083C109F05AEC26F002C0A0F103C0A1F14A
:1023520004C0A2F105C0A3F1A0C198F1A1C199F1F5
:10236200A2C19AF1A3C19BF1000E01019815A06FC1
:10237200F00E9915A16FFF0E9A15A26FFF0E9B1515
:10238200A36F7CC148F07DC149F07EC14AF07FC194
:102392004BF0A0C144F0A1C145F0A2C146F0A3C1D7
:1023A20047F07AEC39F044C09CF145C09DF146C03B
:1023B2009EF147C09FF180C144F081C145F082C1C6
:1023C20046F083C147F09CC148F09DC149F09EC1CF
:1023D2004AF09FC14BF07AEC39F044C06CF145C031
:1023E2006DF146C06EF147C06FF1A0C112F0A1C1FC
:1023F20013F0A2C114F0A3C115F0000E166E400E28
:10240200176E760E186E3F0E196EBAEC28F012C0D7
:1024120020F113C021F114C022F115C023F14F0E97
:10242200166E380E176E760E186E3F0E196E6CC150
:1024320012F06DC113F06EC114F06FC115F0BAEC59
:1024420028F012C006F013C007F014C008F015C03F
:1024520009F0C60E166E230E176EF60E186EB80E23
:10246200196EA0C112F0A1C113F0A2C114F0A3C150
:1024720015F0BAEC28F012C002F013C003F014C039
:1024820004F015C005F05AEC26F002C060F103C05A
:1024920061F104C062F105C063F160C102F061C183
:1024A20003F062C104F063C105F00101A451040DFF
:1024B200F350010F0001E26FE2C0F6FF0E0EF76E5D
:1024C200000EF86E0900F5CF06F00900F5CF07F00F
:1024D2000900F5CF08F00A00F5CF09F05AEC26F012
:1024E20002C024F103C025F104C026F105C027F182
:1024F20088C102F089C103F08AC104F08BC105F0E2
:10250200010E8AEC30F002C0B0F103C0B1F104C098
:10251200B2F105C0B3F124C106F025C107F026C10E
:1025220008F027C109F020C102F021C103F022C145
:1025320004F023C105F05AEC26F002C060F103C09A
:1025420061F104C062F105C063F10101A451040DFF
:10255200F350090F0001E26FE2C0F6FF0E0EF76EB4
:10256200000EF86E0900F5CF06F00900F5CF07F06E
:102572000900F5CF08F00A00F5CF09F060C102F0BA
:1025820061C103F062C104F063C105F05AEC26F0A8
:1025920002C008F103C009F104C00AF105C00BF141
:1025A20008C102F009C103F00AC104F00BC105F031
:1025B200B0C106F0B1C107F0B2C108F0B3C109F071
:1025C2005AEC26F002C08CF103C08DF104C08EF1EA
:1025D20005C08FF18CC198F18DC199F18EC19AF12C
:1025E2008FC19BF1000E010198158C6FF00E9915A9
:1025F2008D6FFF0E9A158E6FFF0E9B158F6FB0C1F8
:1026020048F0B1C149F0B2C14AF0B3C14BF08CC13C
:1026120044F08DC145F08EC146F08FC147F07AEC8F
:1026220039F044C09CF145C09DF146C09EF147C0BF
:102632009FF10101A451040DF350090F0001E26F53
:10264200E2C0F6FF0E0EF76E000EF86E0900F5CF2F
:1026520048F00900F5CF49F00900F5CF4AF00A0029
:10266200F5CF4BF09CC144F09DC145F09EC146F0B0
:102672009FC147F07AEC39F044C040F145C041F1C6
:1026820046C042F147C043F120C148F021C149F0A0
:1026920022C14AF023C14BF040C144F041C145F090
:1026A20042C146F043C147F07AEC39F044C00CF124
:1026B20045C00DF146C00EF147C00FF124C144F0F0
:1026C20025C145F026C146F027C147F00CC148F0AC
:1026D2000DC149F00EC14AF00FC14BF07AEC39F04E
:1026E20044C01CF145C01DF146C01EF147C01FF198
:1026F200DEC098F1DFC099F1E0C09AF1E1C09BF130
:10270200000E010198152C6FF00E99152D6FFF0E1A
:102712009A152E6FFF0E9B152F6F8CC116F08DC16F
:1027220017F08EC118F08FC119F02CC148F02DC1DD
:1027320049F02EC14AF02FC14BF0DEC044F0DFC099
:1027420045F0E0C046F0E1C047F07AEC39F044C011
:1027520012F045C013F046C014F047C015F0BAECB1
:1027620028F012C010F113C011F114C012F115C0FB
:1027720013F110C102F011C103F012C104F013C130
:1027820005F01CC116F01DC117F01EC118F01FC1C3
:1027920019F0DEC012F0DFC013F0E0C014F0E1C0A7
:1027A20015F0BAEC28F012C006F013C007F014C0FE
:1027B20008F015C009F05AEC26F002C06CF103C013
:1027C2006DF104C06EF105C06FF12CC112F02DC184
:1027D20013F02EC114F02FC115F08CC116F08DC16B
:1027E20017F08EC118F08FC119F0BAEC28F012C0A0
:1027F200A0F113C0A1F114C0A2F115C0A3F1A0C1B0
:1028020002F0A1C103F0A2C104F0A3C105F06CC1A2
:1028120006F06DC107F06EC108F06FC109F05AEC05
:1028220026F002C0B4F103C0B5F104C0B6F105C090
:10283200B7F1B4C1A8F1B5C1A9F1B6C1AAF1B7C146
:10284200ABF10101ABBF32EF14F0A805000EA9599C
:10285200000EAA59430EAB59D8A032EF14F034EF50
:1028620014F036EF14F0DAEF0AF0430EAB19A811A8
:10287200A911AA11D8A440EF14F042EF14F081EF8D
:1028820014F0A0C148F0A1C149F0A2C14AF0A3C10D
:102892004BF0B4C144F0B5C145F0B6C146F0B7C182
:1028A20047F07AEC39F044C04CF045C04DF046C0D8
:1028B2004EF047C04FF03C0E066EAA0E076E380E61
:1028C200086E330E096E6CC102F06DC103F06EC169
:1028D20004F06FC105F05AEC26F002C050F003C0BC
:1028E20051F004C052F005C053F09DEC32F0D8B064
:1028F2007DEF14F07FEF14F0F4EF14F0DAEF0AF04A
:10290200FF0EA8150001E26FFF0E0101A9150001DB
:10291200E36FFF0E0101AA150001E46F7F0E0101B2
:10292200AB150001E56FE5BFA3EF14F0E205000E61
:10293200E359160EE459430EE559D8A0A3EF14F05B
:10294200A5EF14F0AFEF14F0000EDA6F000EDB6F9C
:10295200000EDC6F000EDD6F80EF19F0160E010124
:10296200AA1909E1C30EAB19A811A911D8A4BCEF89
:1029720014F0BEEF14F0F4EF14F0A0C148F0A1C1BE
:1029820049F0A2C14AF0A3C14BF0B4C144F0B5C1B1
:1029920045F0B6C146F0B7C147F07AEC39F044C011
:1029A2004CF045C04DF046C04EF047C04FF06CC1F0
:1029B20050F06DC151F06EC152F06FC153F09DECF9
:1029C20032F0D8A0E7EF14F0E9EF14F0F4EF14F0CE
:1029D200000E0001DA6F000EDB6F000EDC6F000EDE
:1029E200DD6F80EF19F0FF0E0101A815286FFF0EB1
:1029F200A915296FFF0EAA152A6F7F0EAB152B6F33
:102A0200170E0001E26F28C1E3F029C1E4F02AC1E8
:102A1200E5F02BC1E6F0E26711EF15F019EF15F0C2
:102A2200E635E633E533E433E333E22F0CEF15F01A
:102A3200810E0001E3250101A46FFF0E0001E421D4
:102A42000101A56FFF0E0001E5210101A66FFF0E36
:102A52000001E6210101A76F000E886F000E896F49
:102A6200000E8A6F000E8B6F2BBF44EF15F0280506
:102A7200000E2959000E2A593F0E2B59D8A044EFB7
:102A820015F046EF15F042EF16F0A4C1E2F0010E88
:102A92000001E227000EE36F000EE46F800EE56F87
:102AA200000EE66FE26758EF15F060EF15F0E635BD
:102AB200E633E533E433E333E22F53EF15F001015C
:102AC200A8510001E3250101886FA9510001E42109
:102AD2000101896FAA510001E52101018A6FAB5101
:102AE2000001E62101018B6F810E0001E26FFF0EF2
:102AF200E36FFF0EE46FFF0EE56F170EE66F88C1FE
:102B0200E7F089C1E8F08AC1E9F08BC1EAF0E66733
:102B12008DEF15F095EF15F0EA35EA33E933E83336
:102B2200E733E62F88EF15F00001E751E2250101B6
:102B3200A46F000E0001E3210101A56F000E000148
:102B4200E4210101A66F000E0001E5210101A76F3A
:102B5200A4C1E2F0FF0E0001E36FFF0EE46F7F0EEF
:102B6200E56F000EE66FE267B9EF15F0C1EF15F001
:102B7200E635E633E533E433E333E22FB4EF15F021
:102B82000001E31DE76FE41DE86FE51DE96FE61D37
:102B9200EA6F010188510001E7150101B06F895107
:102BA2000001E8150101B16F8A510001E915010127
:102BB200B26F8B510001EA150101B36FA4511708DE
:102BC2000001E26FFF0E010188150001E36FFF0EA5
:102BD200010189150001E46F7F0E01018A150001D0
:102BE200E56F000E01018B150001E66F000EE31187
:102BF200E76F000EE411E86F800EE511E96F000E39
:102C0200E611EA6FE26708EF16F010EF16F0EA3508
:102C1200EA33E933E833E733E22F03EF16F0E7C094
:102C220088F1E8C089F1E9C08AF1EAC08BF10101BB
:102C3200ABBF20EF16F01EEF16F028EF16F08B1F39
:102C42008A1F891F886D000E89238A238B23A0C1C6
:102C520044F0A1C145F0A2C146F0A3C147F0B0C102
:102C620048F0B1C149F0B2C14AF0B3C14BF07AECBD
:102C720039F044C0A0F145C0A1F146C0A2F147C05D
:102C8200A3F1A0C102F0A1C103F0A2C104F0A3C14B
:102C920005F06CC106F06DC107F06EC108F06FC19E
:102CA20009F05AEC26F002C0B0F103C0B1F104C041
:102CB200B2F105C0B3F1B0C198F1B1C199F1B2C19D
:102CC2009AF1B3C19BF1000E01019815B06F800E0D
:102CD2009915B16FFF0E9A15B26FFF0E9B15B36F68
:102CE200B0C112F0B1C113F0B2C114F0B3C115F00A
:102CF200000E166E720E176E310E186E3F0E196EA2
:102D0200BAEC28F012C07CF113C07DF114C07EF140
:102D120015C07FF1A0C148F0A1C149F0A2C14AF09B
:102D2200A3C14BF0B0C144F0B1C145F0B2C146F00D
:102D3200B3C147F07AEC39F044C09CF145C09DF133
:102D420046C09EF147C09FF1180E166E720E176EA6
:102D5200310E186E3F0E196E9CC148F09DC149F0AC
:102D62009EC14AF09FC14BF06CC144F06DC145F069
:102D72006EC146F06FC147F07AEC39F044C012F0F0
:102D820045C013F046C014F047C015F0BAEC28F065
:102D920012C014F113C015F114C016F115C017F1C9
:102DA20014C102F015C103F016C104F017C105F0F9
:102DB2008C0E166EBE0E176EBF0E186E350E196E85
:102DC200B0C112F0B1C113F0B2C114F0B3C115F029
:102DD200BAEC28F012C006F013C007F014C008F0D5
:102DE20015C009F05AEC26F002C080F103C081F14F
:102DF20004C082F105C083F17CC102F07DC103F001
:102E02007EC104F07FC105F080C106F081C107F0E8
:102E120082C108F083C109F05AEC26F002C0B4F175
:102E220003C0B5F104C0B6F105C0B7F17CC148F0EA
:102E32007DC149F07EC14AF07FC14BF0B4C144F07C
:102E4200B5C145F0B6C146F0B7C147F07AEC39F0EA
:102E520044C09CF145C09DF146C09EF147C09FF120
:102E620080C144F081C145F082C146F083C147F080
:102E72009CC148F09DC149F09EC14AF09FC14BF0F0
:102E82007AEC39F044C044F145C045F146C046F100
:102E920047C047F1B4C112F0B5C113F0B6C114F086
:102EA200B7C115F0B4C116F0B5C117F0B6C118F02C
:102EB200B7C119F0BAEC28F012C0B0F113C0B1F1E9
:102EC20014C0B2F115C0B3F10E0E066EEA0E076E13
:102ED200DD0E086EB50E096E4C0E166EBB0E176E29
:102EE200310E186E330E196EB0C112F0B1C113F06B
:102EF200B2C114F0B3C115F0BAEC28F012C002F05E
:102F020013C003F014C004F015C005F05AEC26F00B
:102F120002C048F103C049F104C04AF105C04BF1B7
:102F2200550E066EB30E076E8A0E086E380E096EC7
:102F3200B0C116F0B1C117F0B2C118F0B3C119F0A7
:102F420048C112F049C113F04AC114F04BC115F047
:102F5200BAEC28F012C002F013C003F014C004F05F
:102F620015C005F05AEC26F002C05CF103C05DF119
:102F720004C05EF105C05FF1610E066E0B0E076EB6
:102F8200360E086EBB0E096EB0C116F0B1C117F055
:102F9200B2C118F0B3C119F05CC112F05DC113F0F7
:102FA2005EC114F05FC115F0BAEC28F012C002F055
:102FB20013C003F014C004F015C005F05AEC26F05B
:102FC20002C04CF103C04DF104C04EF105C04FF1F7
:102FD200AB0E066EAA0E076E2A0E086E3E0E096E24
:102FE200B0C116F0B1C117F0B2C118F0B3C119F0F7
:102FF2004CC112F04DC113F04EC114F04FC115F087
:10300200BAEC28F012C002F013C003F014C004F0AE
:1030120015C005F05AEC26F002C038F103C039F1B0
:1030220004C03AF105C03BF1B4C144F0B5C145F06A
:10303200B6C146F0B7C147F0B0C116F0B1C117F042
:10304200B2C118F0B3C119F038C112F039C113F08E
:103052003AC114F03BC115F0BAEC28F012C048F0A6
:1030620013C049F014C04AF015C04BF07AEC39F0A5
:1030720044C08CF145C08DF146C08EF147C08FF13E
:10308200000E066E000E076E000E086EC00E096E70
:103092008CC102F08DC103F08EC104F08FC105F026
:1030A2005AEC26F002C02FF003C030F004C031F019
:1030B20005C032F08CC116F08DC117F08EC118F028
:1030C2008FC119F0B4C112F0B5C113F0B6C114F03A
:1030D200B7C115F0BAEC28F012C02BF013C02CF0D7
:1030E20014C02DF015C02EF0BEEC2CF02BC03CF11C
:1030F2002CC03DF12DC03EF12EC03FF144C106F07F
:1031020045C107F046C108F047C109F044C116F0B5
:1031120045C117F046C118F047C119F0B4C112F009
:10312200B5C113F0B6C114F0B7C115F0BAEC28F06E
:1031320012C002F013C003F014C004F015C005F071
:103142005AEC26F002C018F103C019F104C01AF1BA
:1031520005C01BF13CC144F03DC145F03EC146F003
:103162003FC147F018C148F019C149F01AC14AF0ED
:103172001BC14BF07AEC39F044C050F145C051F11B
:1031820046C052F147C053F1B4C148F0B5C149F04D
:10319200B6C14AF0B7C14BF050C144F051C145F03D
:1031A20052C146F053C147F07AEC39F044C09CF169
:1031B20045C09DF146C09EF147C09FF1000E446E8E
:1031C200000E456E800E466E3F0E476E9CC148F063
:1031D2009DC149F09EC14AF09FC14BF07AEC39F093
:1031E20044C0B4F145C0B5F146C0B6F147C0B7F12D
:1031F200B4C1A8F1B5C1A9F1B6C1AAF1B7C1ABF189
:1032020088C1E2F089C1E3F08AC1E4F08BC1E5F044
:10321200170ED8900001E237E337E437E537E82E9E
:103222000AEF19F0E2510101A8270001E35101015F
:10323200A9230001E4510101AA230001E551010182
:10324200AB23170E0001E26FA8C1E3F0A9C1E4F0BD
:10325200AAC1E5F0ABC1E6F0E26732EF19F03AEF4E
:1032620019F0E635E633E533E433E333E22F2DEFAD
:1032720019F00001E6BF4AEF19F0E651E511E41139
:1032820006E1E305D8B048EF19F04AEF19F062EF12
:1032920019F0B4C12BF0B5C12CF0B6C12DF0B7C1F5
:1032A2002EF088C12FF089C130F08BEC2EF02BC0AC
:1032B200B4F12CC0B5F12DC0B6F12EC0B7F16AEF52
:1032C20019F0A8C1B4F1A9C1B5F1AAC1B6F1ABC157
:1032D200B7F10101B451B511B611B711D8B474EFF9
:1032E20019F076EF19F077EF0AF06451B41B6551CB
:1032F200B51B6651B61B6751B71B77EF0AF0120078
:10330200140E0201506F020E516F280E546F020EFE
:10331200556F3C0E526F020E536FEBC002F0ECC0C1
:1033220003F0046A056A000E8AEC30F002C080F2F3
:1033320003C081F204C082F205C083F2EDC002F044
:10334200EEC003F0046A056A000E8AEC30F002C097
:1033520084F203C085F204C086F205C087F2EFC092
:1033620002F0F0C003F0046A056A000E8AEC30F045
:1033720002C088F203C089F204C08AF205C08BF24F
:1033820080C24CF081C24DF082C24EF083C24FF037
:10339200000E506E800E516E260E526E440E536E0B
:1033A2009DEC32F0D8B0D8EF19F0DAEF19F0E5EF72
:1033B20019F0000E0201806F000E816F000E826F05
:1033C200000E836FFFEF19F080C244F081C245F016
:1033D20082C246F083C247F0000E486EC00E496EAC
:1033E2002E0E4A6E440E4B6E7AEC39F044C080F2D7
:1033F20045C081F246C082F247C083F284C24CF0DB
:1034020085C24DF086C24EF087C24FF0000E506E5C
:10341200000E516EDF0E526E430E536E9DEC32F073
:10342200D8B016EF1AF018EF1AF023EF1AF0000EC8
:103432000201846F000E856F000E866F000E876F8B
:103442003DEF1AF084C244F085C245F086C246F0D0
:1034520087C247F0000E486E800E496EDD0E4A6E3E
:10346200430E4B6E7AEC39F044C084F245C085F2CB
:1034720046C086F247C087F288C24CF089C24DF03E
:103482008AC24EF08BC24FF0000E506E800E516E0B
:10349200930E526E430E536E9DEC32F0D8B054EF41
:1034A2001AF056EF1AF061EF1AF0000E0201886F5F
:1034B200000E896F000E8A6F000E8B6F7BEF1AF081
:1034C20088C244F089C245F08AC246F08BC247F0F6
:1034D200000E486E800E496E9D0E4A6E430E4B6E74
:1034E2007AEC39F044C088F245C089F246C08AF2CB
:1034F20047C08BF280C22BF081C22CF082C22DF029
:1035020083C22EF0000E2F6EA00E306ECA0E316EE8
:10351200440E326EBEEC2CF02BC080F22CC081F235
:103522002DC082F22EC083F284C22BF085C22CF011
:1035320086C22DF087C22EF0000E2F6EE00E306E86
:10354200940E316E440E326EBEEC2CF02BC084F21F
:103552002CC085F22DC086F22EC087F288C22BF0D5
:1035620089C22CF08AC22DF08BC22EF0000E2F6E73
:10357200400E306E5D0E316E440E326EBEEC2CF09B
:103582002BC088F22CC089F22DC08AF22EC08BF299
:1035920084C206F085C207F086C208F087C209F02D
:1035A20080C202F081C203F082C204F083C205F03D
:1035B2005AEC26F002C056F203C057F204C058F289
:1035C20005C059F256C202F057C203F058C204F0C5
:1035D20059C205F088C206F089C207F08AC208F013
:1035E2008BC209F05AEC26F002C07BF203C07CF2D7
:1035F20004C07DF205C07EF280C22BF081C22CF0A5
:1036020082C22DF083C22EF07BC22FF07CC230F03A
:103612007DC231F07EC232F0BEEC2CF02BC08CF2B7
:103622002CC08DF22DC08EF22EC08FF284C22BF0F0
:1036320085C22CF086C22DF087C22EF07BC22FF0FD
:103642007CC230F07DC231F07EC232F0BEEC2CF092
:103652002BC090F22CC091F22DC092F22EC093F2A8
:1036620088C22BF089C22CF08AC22DF08BC22EF0B8
:103672007BC22FF07CC230F07DC231F07EC232F0CC
:10368200BEEC2CF02BC094F22CC095F22DC096F219
:103692002EC097F2730E066E680E076E910E086EBC
:1036A200BD0E096E90C202F091C203F092C204F004
:1036B20093C205F05AEC26F002C098F203C099F2C8
:1036C20004C09AF205C09BF2640E066E3B0E076EB2
:1036D2003F0E086EBF0E096E8CC202F08DC203F05F
:1036E2008EC204F08FC205F05AEC26F002C09CF2A2
:1036F20003C09DF204C09EF205C09FF2000E0001BD
:10370200DE6F000EDF6F000EE06F400EE16F98C2B9
:10371200DAF099C2DBF09AC2DCF09BC2DDF041EC38
:1037220007F0DAC0A0F2DBC0A1F2DCC0A2F2DDC079
:10373200A3F2000E0001DE6F000EDF6F000EE06FDD
:10374200400EE16F9CC2DAF09DC2DBF09EC2DCF05B
:103752009FC2DDF041EC07F0DAC0A4F2DBC0A5F2B3
:10376200DCC0A6F2DDC0A7F2350E066E5E0E076E55
:103772003A0E086EBE0E096E94C202F095C203F0B4
:1037820096C204F097C205F05AEC26F002C0A8F2E5
:1037920003C0A9F204C0AAF205C0ABF2A0C206F0AF
:1037A200A1C207F0A2C208F0A3C209F0A4C202F0AB
:1037B200A5C203F0A6C204F0A7C205F05AEC26F097
:1037C20002C0ACF203C0ADF204C0AEF205C0AFF26B
:1037D200000E0001DE6F000EDF6F000EE06F400E84
:1037E200E16FA8C2DAF0A9C2DBF0AAC2DCF0ABC278
:1037F200DDF041EC07F0DAC0B0F2DBC0B1F2DCC0C0
:10380200B2F2DDC0B3F2ACC202F0ADC203F0AEC29E
:1038120004F0AFC205F0B0C206F0B1C207F0B2C206
:1038220008F0B3C209F05AEC26F002C012F003C04D
:1038320013F004C014F005C015F0CFEC2AF012C04A
:103842005AF213C05BF214C05CF215C05DF2350E81
:10385200066E5E0E076EFA0E086EBE0E096E90C2FE
:1038620002F091C203F092C204F093C205F05AEC46
:1038720026F002C098F203C099F204C09AF205C081
:103882009BF22B0E066E870E076E160E086EBE0E8C
:10389200096E8CC202F08DC203F08EC204F08FC298
:1038A20005F05AEC26F002C09CF203C09DF204C05F
:1038B2009EF205C09FF2000E0001DE6F000EDF6F68
:1038C200000EE06F400EE16F98C2DAF099C2DBF0B1
:1038D2009AC2DCF09BC2DDF041EC07F0DAC0A0F244
:1038E200DBC0A1F2DCC0A2F2DDC0A3F2000E000137
:1038F200DE6F000EDF6F000EE06F400EE16F9CC2C4
:10390200DAF09DC2DBF09EC2DCF09FC2DDF041EC3A
:1039120007F0DAC0A4F2DBC0A5F2DCC0A6F2DDC07B
:10392200A7F2230E066EDB0E076EB90E086EBE0EF0
:10393200096E94C202F095C203F096C204F097C2D7
:1039420005F05AEC26F002C0A8F203C0A9F204C0A6
:10395200AAF205C0ABF2A0C206F0A1C207F0A2C251
:1039620008F0A3C209F0A4C202F0A5C203F0A6C2E5
:1039720004F0A7C205F05AEC26F002C0ACF203C074
:10398200ADF204C0AEF205C0AFF2000E0001DE6F70
:10399200000EDF6F000EE06F400EE16FA8C2DAF09A
:1039A200A9C2DBF0AAC2DCF0ABC2DDF041EC07F049
:1039B200DAC0B0F2DBC0B1F2DCC0B2F2DDC0B3F209
:1039C200ACC202F0ADC203F0AEC204F0AFC205F069
:1039D200B0C206F0B1C207F0B2C208F0B3C209F039
:1039E2005AEC26F002C012F003C013F004C014F027
:1039F20005C015F0CFEC2AF012C05EF213C05FF2E0
:103A020014C060F215C061F2500E066E8D0E076E84
:103A1200D70E086EBE0E096E90C202F091C203F07C
:103A220092C204F093C205F05AEC26F002C098F25A
:103A320003C099F204C09AF205C09BF2AE0E066E64
:103A4200470E076EE10E086EBD0E096E8CC202F0C3
:103A52008DC203F08EC204F08FC205F05AEC26F03C
:103A620002C09CF203C09DF204C09EF205C09FF208
:103A7200000E0001DE6F000EDF6F000EE06F400EE1
:103A8200E16F98C2DAF099C2DBF09AC2DCF09BC215
:103A9200DDF041EC07F0DAC0A0F2DBC0A1F2DCC03D
:103AA200A2F2DDC0A3F2000E0001DE6F000EDF6F96
:103AB200000EE06F400EE16F9CC2DAF09DC2DBF0B7
:103AC2009EC2DCF09FC2DDF041EC07F0DAC0A4F246
:103AD200DBC0A5F2DCC0A6F2DDC0A7F2C50E066E01
:103AE200200E076EF00E086EBE0E096E94C202F032
:103AF20095C203F096C204F097C205F05AEC26F084
:103B020002C0A8F203C0A9F204C0AAF205C0ABF237
:103B1200A0C206F0A1C207F0A2C208F0A3C209F037
:103B2200A4C202F0A5C203F0A6C204F0A7C205F027
:103B32005AEC26F002C0ACF203C0ADF204C0AEF201
:103B420005C0AFF2000E0001DE6F000EDF6F000E47
:103B5200E06F400EE16FA8C2DAF0A9C2DBF0AAC2A0
:103B6200DCF0ABC2DDF041EC07F0DAC0B0F2DBC052
:103B7200B1F2DCC0B2F2DDC0B3F2ACC202F0ADC24F
:103B820003F0AEC204F0AFC205F0B0C206F0B1C29B
:103B920007F0B2C208F0B3C209F05AEC26F002C034
:103BA20012F003C013F004C014F005C015F0CFECFE
:103BB2002AF012C062F213C063F214C064F215C09C
:103BC20065F2660E066E660E076EA60E086EBE0ED5
:103BD200096E90C202F091C203F092C204F093C245
:103BE20005F05AEC26F002C098F203C099F204C024
:103BF2009AF205C09BF2750E066E930E076ED80EF2
:103C0200086EBE0E096E8CC202F08DC203F08EC227
:103C120004F08FC205F05AEC26F002C09CF203C0F9
:103C22009DF204C09EF205C09FF2000E0001DE6FFD
:103C3200000EDF6F000EE06F400EE16F98C2DAF007
:103C420099C2DBF09AC2DCF09BC2DDF041EC07F0D6
:103C5200DAC0A0F2DBC0A1F2DCC0A2F2DDC0A3F2A6
:103C6200000E0001DE6F000EDF6F000EE06F400EEF
:103C7200E16F9CC2DAF09DC2DBF09EC2DCF09FC213
:103C8200DDF041EC07F0DAC0A4F2DBC0A5F2DCC043
:103C9200A6F2DDC0A7F2250E066E060E076E810E95
:103CA200086EBE0E096E94C202F095C203F096C26F
:103CB20004F097C205F05AEC26F002C0A8F203C045
:103CC200A9F204C0AAF205C0ABF2A0C206F0A1C2DA
:103CD20007F0A2C208F0A3C209F0A4C202F0A5C272
:103CE20003F0A6C204F0A7C205F05AEC26F002C007
:103CF200ACF203C0ADF204C0AEF205C0AFF2000EEA
:103D02000001DE6F000EDF6F000EE06F400EE16F0C
:103D1200A8C2DAF0A9C2DBF0AAC2DCF0ABC2DDF0C5
:103D220041EC07F0DAC0B0F2DBC0B1F2DCC0B2F2B3
:103D3200DDC0B3F2ACC202F0ADC203F0AEC204F019
:103D4200AFC205F0B0C206F0B1C207F0B2C208F0CD
:103D5200B3C209F05AEC26F002C012F003C013F00D
:103D620004C014F005C015F0CFEC2AF012C066F2C0
:103D720013C067F214C068F215C069F2F00E066E45
:103D8200A70E076E860E086EBE0E096E90C202F076
:103D920091C203F092C204F093C205F05AEC26F0ED
:103DA20002C098F203C099F204C09AF205C09BF2D5
:103DB200080E066EAC0E076EDC0E086EBE0E096EA5
:103DC2008CC202F08DC203F08EC204F08FC205F0E5
:103DD2005AEC26F002C09CF203C09DF204C09EF28F
:103DE20005C09FF2000E0001DE6F000EDF6F000EB5
:103DF200E06F400EE16F98C2DAF099C2DBF09AC22E
:103E0200DCF09BC2DDF041EC07F0DAC0A0F2DBC0CF
:103E1200A1F2DCC0A2F2DDC0A3F2000E0001DE6F4F
:103E2200000EDF6F000EE06F400EE16F9CC2DAF011
:103E32009DC2DBF09EC2DCF09FC2DDF041EC07F0D8
:103E4200DAC0A4F2DBC0A5F2DCC0A6F2DDC0A7F2A4
:103E5200080E066EAC0E076E9C0E086EBE0E096E44
:103E620094C202F095C203F096C204F097C205F024
:103E72005AEC26F002C0A8F203C0A9F204C0AAF2CA
:103E820005C0ABF2A0C206F0A1C207F0A2C208F0C0
:103E9200A3C209F0A4C202F0A5C203F0A6C204F0B4
:103EA200A7C205F05AEC26F002C0ACF203C0ADF294
:103EB20004C0AEF205C0AFF2000E0001DE6F000ECC
:103EC200DF6F000EE06F400EE16FA8C2DAF0A9C208
:103ED200DBF0AAC2DCF0ABC2DDF041EC07F0DAC0E5
:103EE200B0F2DBC0B1F2DCC0B2F2DDC0B3F2ACC200
:103EF20002F0ADC203F0AEC204F0AFC205F0B0C230
:103F020006F0B1C207F0B2C208F0B3C209F05AEC2F
:103F120026F002C012F003C013F004C014F005C072
:103F220015F0CFEC2AF012C06AF213C06BF214C083
:103F32006CF215C06DF2BA0E066E490E076E0C0ECB
:103F4200086EBE0E096E90C202F091C203F092C2D8
:103F520004F093C205F05AEC26F002C098F203C0B6
:103F620099F204C09AF205C09BF2E70E066EFB0EB0
:103F7200076E290E086EBF0E096E8CC202F08DC24A
:103F820003F08EC204F08FC205F05AEC26F002C094
:103F92009CF203C09DF204C09EF205C09FF2000E87
:103FA2000001DE6F000EDF6F000EE06F400EE16F6A
:103FB20098C2DAF099C2DBF09AC2DCF09BC2DDF063
:103FC20041EC07F0DAC0A0F2DBC0A1F2DCC0A2F241
:103FD200DDC0A3F2000E0001DE6F000EDF6F000EE7
:103FE200E06F400EE16F9CC2DAF09DC2DBF09EC230
:103FF200DCF09FC2DDF041EC07F0DAC0A4F2DBC0D6
:10400200A5F2DCC0A6F2DDC0A7F2830E066EC00EDA
:10401200076E4A0E086EBE0E096E94C202F095C279
:1040220003F096C204F097C205F05AEC26F002C0E3
:10403200A8F203C0A9F204C0AAF205C0ABF2A0C262
:1040420006F0A1C207F0A2C208F0A3C209F0A4C2FE
:1040520002F0A5C203F0A6C204F0A7C205F05AEC12
:1040620026F002C0ACF203C0ADF204C0AEF205C04D
:10407200AFF2000E0001DE6F000EDF6F000EE06F88
:10408200400EE16FA8C2DAF0A9C2DBF0AAC2DCF0EE
:10409200ABC2DDF041EC07F0DAC0B0F2DBC0B1F246
:1040A200DCC0B2F2DDC0B3F2ACC202F0ADC203F0CA
:1040B200AEC204F0AFC205F0B0C206F0B1C207F062
:1040C200B2C208F0B3C209F05AEC26F002C012F0F4
:1040D20003C013F004C014F005C015F0CFEC2AF0B1
:1040E20012C06EF213C06FF214C070F215C071F2FA
:1040F2005A0E066E640E076EBB0E086EBE0E096E79
:1041020090C202F091C203F092C204F093C205F091
:104112005AEC26F002C098F203C099F204C09AF257
:1041220005C09BF2830E066EC00E076E8A0E086EE5
:10413200BE0E096E8CC202F08DC203F08EC204F074
:104142008FC205F05AEC26F002C09CF203C09DF229
:1041520004C09EF205C09FF2000E0001DE6F000E49
:10416200DF6F000EE06F400EE16F98C2DAF099C285
:10417200DBF09AC2DCF09BC2DDF041EC07F0DAC062
:10418200A0F2DBC0A1F2DCC0A2F2DDC0A3F2000EFD
:104192000001DE6F000EDF6F000EE06F400EE16F78
:1041A2009CC2DAF09DC2DBF09EC2DCF09FC2DDF061
:1041B20041EC07F0DAC0A4F2DBC0A5F2DCC0A6F243
:1041C200DDC0A7F2230E066EDB0E076EB90E086E77
:1041D200BE0E096E94C202F095C203F096C204F0BC
:1041E20097C205F05AEC26F002C0A8F203C0A9F269
:1041F20004C0AAF205C0ABF2A0C206F0A1C207F049
:10420200A2C208F0A3C209F0A4C202F0A5C203F040
:10421200A6C204F0A7C205F05AEC26F002C0ACF226
:1042220003C0ADF204C0AEF205C0AFF2000E000151
:10423200DE6F000EDF6F000EE06F400EE16FA8C26E
:10424200DAF0A9C2DBF0AAC2DCF0ABC2DDF041ECCD
:1042520007F0DAC0B0F2DBC0B1F2DCC0B2F2DDC00E
:10426200B3F2ACC202F0ADC203F0AEC204F0AFC210
:1042720005F0B0C206F0B1C207F0B2C208F0B3C294
:1042820009F05AEC26F002C012F003C013F004C089
:1042920014F005C015F0CFEC2AF012C072F213C070
:1042A20073F214C074F215C075F21F0E066E850EFD
:1042B200076EAB0E086EBE0E096E90C202F091C27E
:1042C20003F092C204F093C205F05AEC26F002C049
:1042D20098F203C099F204C09AF205C09BF2B00EA4
:1042E200066E720E076EA80E086EBE0E096E8CC2A6
:1042F20002F08DC203F08EC204F08FC205F05AECB8
:1043020026F002C09CF203C09DF204C09EF205C0DA
:104312009FF2000E0001DE6F000EDF6F000EE06FF5
:10432200400EE16F98C2DAF099C2DBF09AC2DCF07B
:104332009BC2DDF041EC07F0DAC0A0F2DBC0A1F2D3
:10434200DCC0A2F2DDC0A3F2000E0001DE6F000E9F
:10435200DF6F000EE06F400EE16F9CC2DAF09DC28B
:10436200DBF09EC2DCF09FC2DDF041EC07F0DAC068
:10437200A4F2DBC0A5F2DCC0A6F2DDC0A7F21F0EDC
:10438200066E850E076EAB0E086EBE0E096E94C2E7
:1043920002F095C203F096C204F097C205F05AECFF
:1043A20026F002C0A8F203C0A9F204C0AAF205C016
:1043B200ABF2A0C206F0A1C207F0A2C208F0A3C2EB
:1043C20009F0A4C202F0A5C203F0A6C204F0A7C27B
:1043D20005F05AEC26F002C0ACF203C0ADF204C004
:1043E200AEF205C0AFF2000E0001DE6F000EDF6F0D
:1043F200000EE06F400EE16FA8C2DAF0A9C2DBF056
:10440200AAC2DCF0ABC2DDF041EC07F0DAC0B0F2D8
:10441200DBC0B1F2DCC0B2F2DDC0B3F2ACC202F07A
:10442200ADC203F0AEC204F0AFC205F0B0C206F0F6
:10443200B1C207F0B2C208F0B3C209F05AEC26F0DA
:1044420002C012F003C013F004C014F005C015F04E
:10445200CFEC2AF012C076F213C077F214C078F2D1
:1044620015C079F2000E02017A6F000E7F6F070EFF
:104472007F653EEF22F040EF22F042EF22F071EF33
:1044820022F07F51040D5A0EF324D96E020EF4204D
:10449200DA6EDECF4CF0DECF4DF0DECF4EF0DECF67
:1044A2004FF07A51040D5A0EF324D96E020EF42005
:1044B200DA6EDECF50F0DECF51F0DECF52F0DECF3B
:1044C20053F09DEC32F0D8B069EF22F06BEF22F09E
:1044D2006DEF22F07FC27AF202017F2B38EF22F0D9
:1044E200FF0E046E010E87EC3AF0FF0E046E030E0F
:1044F20087EC3AF002017A51120097EC3AF0C5ECDF
:104502003AF0FCEC3AF04BEC3AF055EC39F0000E94
:10451200036E630E026E60EC37F0A7EC3AF082ECA9
:1045220038F08086889686840E01B495000E0301C9
:10453200B46F010EB56F010EB66FAA0EB96F0F0EF2
:10454200BA6FA60EBB6F0F0EBC6F000EB86F630E74
:10455200B76F000EBD6F010EBE6F010EBF6F250E4D
:10456200C26F0F0EC36F210EC46F0F0EC56F000E08
:10457200C16F630EC06FB40EC66F030EC76FBD0E60
:10458200C86F030EC96F640EA86F030EA96F000EE9
:10459200AE6F000EB16F000EB06FA30E596E570EC4
:1045A200586E020EE82EFED7582EFCD7592EFAD797
:1045B20000D005EC39F006C0ACF307C0ADF30A0E2B
:1045C2000301AC25A06F000EAD21A16F0301AE5116
:1045D200D8A4EEEF22F0F0EF22F0FFEF22F002EC8F
:1045E2003BF0C6C315F0C7C316F0C8C317F0C9C362
:1045F20018F04DEC36F0010E0301AE6F05EC39F008
:1046020006C0ACF307C0ADF30301AC51A05DAD51E0
:10461200A159D8B00FEF23F011EF23F0E7EF22F00A
:10462200B6EC3AF002C0AAF303C0ABF3C6C315F06E
:10463200C7C316F0C8C317F0C9C318F0B1EC37F0FE
:10464200150E596E4B0E586EBE0EE82EFED7582E22
:10465200FCD7592EFAD700D005EC39F006C0ACF3DE
:1046620007C0ADF30301AD5107E1500EAC5DD8B008
:104672003DEF23F03FEF23F057EF23F0C6C319F0CD
:10468200C7C31AF0C8C31BF0C9C31CF076EC35F0DF
:10469200090E596E1E0E586EE40EE82EFED7582EE5
:1046A200FCD7592EFAD700D02DEF23F0000EAE6FB3
:1046B200D890B035D96EB135DA6E780ED926030EA0
:1046C200DA22AAC3DEFFABC3DDFFD50E046E010EF4
:1046D20087EC3AF0AB0E046E030E87EC3AF0110E43
:1046E200596E3C0E586ECB0EE82EFED7582EFCD7D4
:1046F200592EFAD70000B5EC38F006C0A2F307C075
:10470200A3F3DDEC38F006C0A4F307C0A5F32DEC4B
:1047120039F006C0A6F307C0A7F3A2C3EBF0A3C308
:10472200ECF0A4C3EDF0A5C3EEF0A6C3EFF0A7C36F
:10473200F0F081EC19F0586E58500301B26FB36B70
:10474200D890B035D96EB135DA6E3C0ED926030E4B
:10475200DA22B2C3DEFFB3C3DDFFB04BB12BB251DD
:10476200B311D8A4B7EF23F0B9EF23F0CFEF23F0C2
:10477200C6C319F0C7C31AF0C8C31BF0C9C31CF0E3
:104782001AEC32F0C6C319F0C7C31AF0C8C31BF043
:10479200C9C31CF08CEC34F0E2EF24F0B205B31183
:1047A200D8A4D6EF23F0D8EF23F0EEEF23F0C6C360
:1047B20019F0C7C31AF0C8C31BF0C9C31CF01AEC26
:1047C20032F0C6C319F0C7C31AF0C8C31BF0C9C37D
:1047D2001CF001EC35F0E2EF24F0020EB219B31135
:1047E200D8A4F6EF23F0F8EF23F018EF24F0C6C3B5
:1047F20019F0C7C31AF0C8C31BF0C9C31CF01AECE6
:1048020032F0C6C319F0C7C31AF0C8C31BF0C9C33C
:104812001CF08CEC34F0C6C319F0C7C31AF0C8C33D
:104822001BF0C9C31CF08CEC34F0E2EF24F0030E51
:10483200B219B311D8A420EF24F022EF24F042EFF2
:1048420024F0C6C319F0C7C31AF0C8C31BF0C9C30A
:104852001CF01AEC32F0C6C319F0C7C31AF0C8C371
:104862001BF0C9C31CF01FEC33F0C6C319F0C7C359
:104872001AF0C8C31BF0C9C31CF08CEC34F0E2EF91
:1048820024F0040EB219B311D8A44AEF24F04CEF6D
:1048920024F06CEF24F0C6C319F0C7C31AF0C8C3E2
:1048A2001BF0C9C31CF01AEC32F0C6C319F0C7C31F
:1048B2001AF0C8C31BF0C9C31CF01FEC33F0C6C307
:1048C20019F0C7C31AF0C8C31BF0C9C31CF001EC2E
:1048D20035F0E2EF24F0050EB219B311D8A474EF4B
:1048E20024F076EF24F08CEF24F0C6C319F0C7C38E
:1048F2001AF0C8C31BF0C9C31CF01AEC32F0C6C3CD
:1049020019F0C7C31AF0C8C31BF0C9C31CF016ECD8
:1049120034F0E2EF24F0060EB219B311D8A494EFEA
:1049220024F096EF24F0ACEF24F0C6C319F0C7C30D
:104932001AF0C8C31BF0C9C31CF01AEC32F0C6C38C
:1049420019F0C7C31AF0C8C31BF0C9C31CF0A0EC0E
:1049520033F0E2EF24F0070EB219B311D8A4B4EF8A
:1049620024F0B6EF24F0E2EF24F0C6C319F0C7C377
:104972001AF0C8C31BF0C9C31CF01AEC32F0C6C34C
:1049820019F0C7C31AF0C8C31BF0C9C31CF08CECE2
:1049920034F0150E596E4B0E586EBE0EE82EFED731
:1049A200582EFCD7592EFAD700D0C6C319F0C7C368
:1049B2001AF0C8C31BF0C9C31CF08CEC34F00AEF28
:1049C20025F0150E596E4B0E586EBE0EE82EFED710
:1049D200582EFCD7592EFAD700D0640E1B6E030E48
:1049E2001C6E710E1D6EB2C31EF0B3C31FF0DFEC5E
:1049F20039F0A8C303F0A9C304F033EC3AF0680E0F
:104A0200586EE40EE82EFED7582EFCD700D0E7EF02
:104A120022F00301B007D8A0B107000EAE6F000E5E
:104A2200AF6F130EAF6518EF25F01AEF25F01CEFEC
:104A320025F046EF26F0AF51020D780EF324D96E21
:104A4200030EF420DA6E820EDE5E000EDD5A070ED1
:104A5200AF652EEF25F030EF25F03CEF25F0AF519A
:104A6200020D780EF324D96E030EF420DA6EFA0EDC
:104A7200DE5E000EDD5AAF2B12EF25F0AE51D8A448
:104A820045EF25F047EF25F056EF25F002EC3BF01D
:104A9200C6C315F0C7C316F0C8C317F0C9C318F0D0
:104AA2004DEC36F0010E0301AE6FB6EC3AF002C0E7
:104AB200AAF303C0ABF3D8900301B035D96EB13578
:104AC200DA6E780ED926030EDA22AA51DE5CAB51D9
:104AD200DE58D8B06FEF25F071EF25F03FEF26F0EA
:104AE200C6C315F0C7C316F0C8C317F0C9C318F080
:104AF200B1EC37F0000E0301AE6FB0C358F0B1C392
:104B020059F0D89058365936FE0E58245A6EFF0E78
:104B120059205B6E3C0E5A24D96E030E5B20DA6E6E
:104B2200DF50FEEC37F05C6E5C500301B26FB36B8A
:104B3200B251B311D8A4A0EF25F0A2EF25F0AEEF49
:104B420025F0C6C319F0C7C31AF0C8C31BF0C9C306
:104B52001CF08CEC34F01DEF26F0B205B311D8A492
:104B6200B5EF25F0B7EF25F0C3EF25F0C6C319F076
:104B7200C7C31AF0C8C31BF0C9C31CF001EC35F05F
:104B82001DEF26F0020EB219B311D8A4CBEF25F017
:104B9200CDEF25F0E5EF25F0C6C319F0C7C31AF033
:104BA200C8C31BF0C9C31CF08CEC34F0150E596E4F
:104BB2004B0E586EBE0EE82EFED7582EFCD7592E3D
:104BC200FAD700D0A2EF25F0050EB219B311D8A47E
:104BD200EDEF25F0EFEF25F0FBEF25F0C6C319F05E
:104BE200C7C31AF0C8C31BF0C9C31CF0A0EC33F052
:104BF2001DEF26F0060EB219B311D8A403EF26F06A
:104C020005EF26F011EF26F0C6C319F0C7C31AF05C
:104C1200C8C31BF0C9C31CF016EC34F01DEF26F01C
:104C2200080EB219B311D8A419EF26F01BEF26F023
:104C32001DEF26F01DEF26F0150E596E4B0E586E25
:104C4200BE0EE82EFED7582EFCD7592EFAD700D02A
:104C5200640E1B6E030E1C6E710E1D6EB2C31EF02F
:104C6200B3C31FF0DFEC39F0A8C303F0A9C304F00B
:104C720033EC3AF00301B007D8A0B107D00E586E5A
:104C8200CA0EE82EFED7582EFCD70301B1BF4EEF55
:104C920026F04CEF26F03FEF25F0C6C315F0C7C350
:104CA20016F0C8C317F0C9C318F0B1EC37F012EF11
:104CB20000F00550800B0E6E05500524106E04AEF8
:104CC20065EF26F067EF26F068EF26F010801050AF
:104CD200D8B46EEF26F070EF26F085EF26F010289C
:104CE200D8A476EF26F078EF26F080EF26F0000EBB
:104CF200026E000E036E000E046E000E056E048E30
:104D0200000E056E8DEF26F0000E026E000E036E91
:104D1200000E046E000E056E0950800B0F6E0E50D1
:104D22000F18D8B497EF26F099EF26F09AEF26F0F5
:104D32000E8C095009240F6E08AEA2EF26F0A4EFE4
:104D420026F0A5EF26F00F800F50D8B4ABEF26F077
:104D5200ADEF26F0C2EF26F00F28D8A4B3EF26F06D
:104D6200B5EF26F0BDEF26F0000E066E000E076EC0
:104D7200000E086E000E096E088E000E096ECAEF54
:104D820026F0000E066E000E076E000E086E000E74
:104D9200096E10500F5CD8B0D1EF26F0D3EF26F099
:104DA200FAEF26F00EACD8EF26F0DAEF26F0DCEFC1
:104DB20026F0800E0E1A10C011F00FC010F011C0B4
:104DC2000FF002C011F006C002F011C006F003C0DD
:104DD20011F007C003F011C007F004C011F008C0C1
:104DE20004F011C008F005C011F009C005F011C0AF
:104DF20009F0000E116E10500FC00AF00B6A0A5E25
:104E0200000E0B5A0BBE0FEF27F00B5009E11A0EE2
:104E12000A5CD8A00FEF27F011EF27F048EF27F038
:104E22000250031004100510D8A41AEF27F01DEF4A
:104E320027F0010E1EEF27F0000E116E000E026E1B
:104E4200000E036E000E046E000E056E0FC010F011
:104E520051EF27F011A030EF27F032EF27F038EFB3
:104E620027F0D89011300109116E3AEF27F0D8904F
:104E7200113202A03FEF27F041EF27F042EF27F077
:104E8200118E05340532043203320232102A0F50D9
:104E9200105CD8A04FEF27F051EF27F02BEF27F04F
:104EA2000EBC56EF27F058EF27F098EF27F010507E
:104EB200D8A45EEF27F060EF27F06AEF27F0000E2C
:104EC200026E000E036E000E046E000E056EB9EF48
:104ED20028F00650022607500322085004220950E7
:104EE200052205A077EF27F079EF27F025EF28F0CC
:104EF20011A07EEF27F080EF27F086EF27F0D89001
:104F020011300109116E88EF27F0D890113202A0FA
:104F12008DEF27F08FEF27F090EF27F0118E0534F9
:104F22000532043203320232102A25EF28F00650ED
:104F3200025C07500358085004580550800A0A6E54
:104F42000950800A0A58D8B0A9EF27F0ABEF27F032
:104F5200D6EF27F00250065C0A6E035007580B6E1C
:104F6200045008580C6E055009580D6EFF0E0A24A5
:104F7200026EFF0E0B20036EFF0E0C20046EFF0E5E
:104F82000D20056E800E0E1A116C1150D8A4CCEFB4
:104F920027F0CEEF27F0DEEF27F0010E0226000EFB
:104FA200032204220522DEEF27F00650025E07509C
:104FB200035A0850045A0950055A025003100410AB
:104FC2000510D8A4E7EF27F0E9EF27F01EEF28F04D
:104FD2001150D8A4EFEF27F0F1EF27F01EEF28F0E1
:104FE200000E026E000E036E000E046E000E056EC1
:104FF200B9EF28F0D890023603360436053611AEE2
:1050020005EF28F007EF28F008EF28F0028011A042
:105012000DEF28F00FEF28F013EF28F0D8801136AB
:1050220015EF28F0D89011361050D8B41BEF28F0A5
:105032001DEF28F01EEF28F0100604AE23EF28F033
:1050420025EF28F0FBEF27F0000E0F6E11AE2CEFCC
:1050520028F02EEF28F046EF28F011C00AF07F0E5C
:105062000A16D8B437EF28F039EF28F03DEF28F0D0
:10507200010E0F6E46EF28F002A042EF28F044EF37
:1050820028F046EF28F039EF28F00F50D8B44CEF53
:1050920028F04EEF28F079EF28F0010E0226000EDC
:1050A20003220422052205A059EF28F05BEF28F025
:1050B20079EF28F002C00AF003C00BF004C00CF034
:1050C20005C00DF00D340D320C320B320A320AC01B
:1050D20002F00BC003F00CC004F00DC005F0102864
:1050E200D8B476EF28F078EF28F079EF28F0102A7C
:1050F2001028D8B47FEF28F081EF28F089EF28F04C
:105102001050D8A487EF28F089EF28F09BEF28F001
:10511200000E026E000E036E000E046E000E056E8F
:105122001050D8A497EF28F099EF28F09BEF28F0C1
:10513200000E0E6E10A0A0EF28F0A2EF28F0A5EF4F
:1051420028F0048EA6EF28F0049ED8901030056E49
:105152000EAEAEEF28F0B0EF28F0B1EF28F0058EDA
:1051620002C002F003C003F004C004F005C005F061
:1051720012001550800B1E6E15501524246E14AEAD
:10518200C5EF28F0C7EF28F0C8EF28F0248024509C
:10519200D8B4CEEF28F0D0EF28F0E3EF28F024289F
:1051A200D8A4D6EF28F0D8EF28F0E0EF28F0000ED0
:1051B200126E000E136E000E146E000E156E148E1B
:1051C200EBEF28F0000E126E000E136E000E146E3E
:1051D200000E156E1950800B1E1A19501924236ED9
:1051E20018AEF6EF28F0F8EF28F0F9EF28F0238058
:1051F2002350D8B4FFEF28F001EF29F014EF29F083
:105202002328D8A407EF29F009EF29F011EF29F09C
:10521200000E166E000E176E000E186E000E196E3E
:10522200188E1CEF29F0000E166E000E176E000E7F
:10523200186E000E196E2350D8B422EF29F024EF15
:1052420029F02CEF29F02450D8A42AEF29F02CEFD2
:1052520029F036EF29F0000E126E000E136E000ECA
:10526200146E000E156ECEEF2AF018501202F3CF14
:1052720029F0F4CF2AF029501F6E206A216A226A8F
:105282002A50256E266A276A286A17501302F3CF1E
:1052920029F0F4CF2AF029501F26000E20222122C5
:1052A20022222A502526000E2622272228221650A4
:1052B2001402F3CF29F0F4CF2AF029501F26000E52
:1052C2002022212222222A502526000E26222722AF
:1052D200282221C022F020C021F01FC020F01F6A26
:1052E20016501302F3CF29F0F4CF2AF029501F26CB
:1052F2002A502022000E2122000E222217501202D2
:10530200F3CF29F0F4CF2AF029501F262A50202269
:10531200000E2122000E222221C022F020C021F004
:105322001FC020F01F6A16501202F3CF29F0F4CFEB
:105332002AF029501F262A502022000E2122000E78
:10534200222218501302F3CF29F0F4CF2AF0295069
:1053520025262A502622000E2722000E2822175028
:105362001402F3CF29F0F4CF2AF0295025262A502F
:105372002622000E2722000E282218501402F3CFF4
:1053820029F0F4CF2AF029501A6E2A501B6E1C6A9B
:105392001D6A1CC01DF01BC01CF01AC01BF01A6A4B
:1053A2001A5025261B5026221C5027221D50282227
:1053B2001FC01AF020C01BF021C01CF022C01DF03B
:1053C200190EE9EF29F0D8901D321C321B321A3225
:1053D200E82EE4EF29F01A5025261B5026221C50F5
:1053E20027221D50282221C022F020C021F01FC0F8
:1053F20020F01F6A235024C01AF01B6A1A26000EDE
:105402001B22820E1A24296EFF0E1B202A6E1FEF0A
:105412002AF0D890253626362736283622AE14EFC3
:105422002AF016EF2AF017EF2AF02580D8901F36BF
:105432002036213622362906D8A02A0627AE24EFA6
:105442002AF026EF2AF00AEF2AF0000E236E22AE8F
:105452002DEF2AF02FEF2AF053EF2AF0FF0E1F1440
:105462001A6EFF0E20141B6EFF0E21141C6E7F0E8F
:1054720022141D6E1A501B101C101D10D8B444EFBC
:105482002AF046EF2AF04AEF2AF0010E236E53EF7C
:105492002AF025A04FEF2AF051EF2AF053EF2AF01D
:1054A20046EF2AF02350D8B459EF2AF05BEF2AF0E6
:1054B2007FEF2AF0010E2526000E2622272228221F
:1054C20028A066EF2AF068EF2AF07FEF2AF025C0C5
:1054D2001AF026C01BF027C01CF028C01DF01D3496
:1054E2001D321C321B321A321AC025F01BC026F0A4
:1054F2001CC027F01DC028F0294A2A2A2ABE8AEF9A
:105502002AF02A5008E12928D8A08AEF2AF08CEF45
:105512002AF096EF2AF0000E256E000E266E800EFF
:10552200276E7F0E286EC4EF2AF02ABEA3EF2AF060
:105532002A5006E12904D8B0A1EF2AF0A3EF2AF0FD
:10554200AFEF2AF0000E256E000E266E000E276EBB
:10555200000E286E000E1E6EC4EF2AF029C024F041
:10556200FF0E2516FF0E26167F0E2716000E281692
:1055720024A0BEEF2AF0C0EF2AF0C1EF2AF0278E56
:10558200D8902430286E1E50281225C012F026C052
:1055920013F027C014F028C015F0120012C033F027
:1055A20013C034F014C035F015C036F0000E3314B9
:1055B200166E000E3414176E800E3514186E7F0EA0
:1055C2003614196E800E181809E17F0E191816107C
:1055D2001710D8A4EFEF2AF0F1EF2AF021EF2BF009
:1055E200FF0E3314166EFF0E3414176E7F0E351431
:1055F200186E000E3614196E165017101810191066
:10560200D8A406EF2BF008EF2BF00FEF2BF036BEED
:105612000FEF2BF00DEF2BF017EF2BF0FF0E3312E5
:10562200FF0E34127F0E3512000E361233C012F006
:1056320034C013F035C014F036C015F0BDEF2CF0B5
:1056420036BE30EF2BF036503510341006E13304FD
:10565200D8B02EEF2BF030EF2BF067EF2BF0FF0ED0
:105662003314166EFF0E3414176EFF0E3514186EB7
:105672007F0E3614196E1650171018101910D8A470
:1056820045EF2BF047EF2BF051EF2BF0000E126E8F
:10569200000E136E000E146E000E156EBDEF2CF090
:1056A20036BE58EF2BF056EF2BF067EF2BF0000EC3
:1056B2000001D16F210ED06FFF0E336EFF0E346EDC
:1056C200FF0E356E7F0E366E17EF2BF0170E166E2D
:1056D20033C017F034C018F035C019F036C01AF0D4
:1056E200166676EF2BF07EEF2BF01A341A3219324F
:1056F20018321732162E71EF2BF017C02BF018C08C
:105702002CF019C02DF01AC02EF02B502C102D1099
:105712002E10D8A48FEF2BF091EF2BF0C1EF2BF0CE
:10572200000E1F6E000E206E000E216E000E226E05
:10573200A6EF2BF0D8903336343635363636010E96
:105742001F26000E20222122222235AEABEF2BF0A3
:10575200ADEF2BF09BEF2BF0FF0E1F24166EFF0E0A
:105762002020176EFF0E2120186EFF0E2220196EC8
:1057720016502B5E17502C5A18502D5A19502E5A6B
:10578200810E2B26FF0E2C22FF0E2D22FF0E2E2223
:10579200FF0E3314166EFF0E3414176E7F0E35147F
:1057A200186E000E3614196E000E1610336E000EAF
:1057B2001710346E800E1810356E000E1910366EEA
:1057C2002BA0E6EF2BF0E8EF2BF0F0EF2BF03350AD
:1057D20033263450342235503522365036222E3478
:1057E2002E322D322C322B32335033263450342287
:1057F2003550352236503622000E1B6E000E1C6EBE
:10580200000E1D6E000E1E6E1BC023F01CC024F085
:105812001DC025F01EC026F0000E2F6E000E306E49
:10582200000E316E010E326E5FEF2CF01B502F24F2
:10583200276E1C503020286E1D503120296E1E50BC
:1058420032202A6E2750335C28503458295035585C
:105852003650800A166E2A50800A1658D8A034EFA5
:105862002CF036EF2CF052EF2CF027502F241B6E29
:10587200285030201C6E295031201D6E2A503220B3
:105882001E6E2750335E2850345A2950355A2A50FA
:10589200365A2F502326305024223150252232509E
:1058A2002622335033263450342235503522365096
:1058B2003622D8903232313230322F322F503010DD
:1058C20031103210D8A468EF2CF06AEF2CF017EFE9
:1058D2002CF03350341035103610D8B473EF2CF04E
:1058E20075EF2CF089EF2CF0010E2314166E000ECA
:1058F2002414176E000E2514186E000E2614196E4D
:1059020016502326175024221850252219502622D9
:1059120023C016F024C017F025C018F026C019F0D5
:1059220019341932183217321632000E1624336E19
:10593200000E1720346E000E1820356E3F0E19200F
:10594200366E2BC016F02CC017F02DC018F02EC0EA
:1059520019F0170ED8901636173618361936E82E63
:10596200ABEF2CF016503326175034221850352244
:105972001950362217EF2BF012002E50800B3B6E7F
:105982002E502E24426E2DAEC9EF2CF0CBEF2CF010
:10599200CCEF2CF042804250D8B4D2EF2CF0D4EFAE
:1059A2002CF0E9EF2CF04228D8A4DAEF2CF0DCEF4F
:1059B2002CF0E4EF2CF0000E2B6E000E2C6E000E7D
:1059C2002D6E000E2E6E2D8E000E2E6EF1EF2CF02F
:1059D200000E2B6E000E2C6E000E2D6E000E2E6E23
:1059E2003250800B3B1A32503224436E31AEFCEF00
:1059F2002CF0FEEF2CF0FFEF2CF043804350D8B494
:105A020005EF2DF007EF2DF01CEF2DF04328D8A461
:105A12000DEF2DF00FEF2DF017EF2DF0000E2F6E82
:105A2200000E306E000E316E000E326E318E000EA0
:105A3200326E24EF2DF0000E2F6E000E306E000E2F
:105A4200316E000E326E2F50301031103210D8A449
:105A52002DEF2DF02FEF2DF047EF2DF0000E2B6ED6
:105A6200000E2C6E000E2D6E000E2E6E800E2D126C
:105A72007F0E2E123B502E122BC02BF02CC02CF07E
:105A82002DC02DF02EC02EF08AEF2EF04250D8A459
:105A92004DEF2DF04FEF2DF059EF2DF0000E2B6E44
:105AA200000E2C6E000E2D6E000E2E6E8AEF2EF062
:105AB200435042C033F0346A335E000E345A7F0ED4
:105AC20033243C6E000E34203D6E2BC037F02CC0C8
:105AD20038F02DC039F02EC03AF0000E2B6E000EB9
:105AE2002C6E000E2D6E000E2E6E000E3E6E000EFF
:105AF2003F6E000E406E000E416E000E436EBAEF16
:105B02002DF04350D8B488EF2DF08AEF2DF0A1EF9D
:105B12002DF0D8903736383639363A36D8902B367B
:105B22002C362D362E3641AE99EF2DF09BEF2DF00F
:105B32009CEF2DF02B80D8903E363F3640364136D2
:105B42002F50375C305038583150395832503A580B
:105B5200D8A0AEEF2DF0B0EF2DF0B9EF2DF0418CC3
:105B62002F50375E3050385A3150395A32503A5AE3
:105B7200432A190E4364C0EF2DF0C2EF2DF082EFDD
:105B82002DF03750381039103A10D8B4CBEF2DF031
:105B9200CDEF2DF0E5EF2DF03E80E5EF2DF0D89022
:105BA2002B362C362D362E3641AEDAEF2DF0DCEFC9
:105BB2002DF0DDEF2DF02B80D8903E363F3640366B
:105BC20041363C06D8A03D062DAEEAEF2DF0ECEFB3
:105BD2002DF0D0EF2DF0000E436E41AEF3EF2DF01D
:105BE200F5EF2DF019EF2EF0FF0E3E14336EFF0E7F
:105BF2003F14346EFF0E4014356E7F0E4114366E24
:105C02003350341035103610D8B40AEF2EF00CEFA2
:105C12002EF010EF2EF0010E436E19EF2EF02BA096
:105C220015EF2EF017EF2EF019EF2EF00CEF2EF0ED
:105C32004350D8B41FEF2EF021EF2EF045EF2EF097
:105C4200010E2B26000E2C222D222E222EA02CEF0E
:105C52002EF02EEF2EF045EF2EF02BC033F02CC09D
:105C620034F02DC035F02EC036F0363436323532AF
:105C72003432333233C02BF034C02CF035C02DF027
:105C820036C02EF03C4A3D2A3DBE50EF2EF03D502C
:105C920008E13C28D8A050EF2EF052EF2EF05DEF35
:105CA2002EF0000E3D6E3C68000E2B6E000E2C6E28
:105CB200000E2D6E000E2E6E3DBE6AEF2EF03D5090
:105CC20006E13C04D8B068EF2EF06AEF2EF078EFD0
:105CD2002EF0000E3D6E000E3C6E000E2B6E000E7E
:105CE2002C6E000E2D6E000E2E6E000E3B6E3CC012
:105CF20042F042A07FEF2EF081EF2EF084EF2EF0E3
:105D02002D8E85EF2EF02D9ED89042302E6E3BEFD9
:105D12002DF012002BC039F02CC03AF02DC03BF010
:105D22002EC03CF030BE9FEF2EF0305009E1800EC5
:105D32002F5CD8A09FEF2EF0A1EF2EF0FFEF2EF0F8
:105D420039C012F03AC013F03BC014F03CC015F059
:105D5200000E166E000E176E000E186E7F0E196E74
:105D6200BAEC28F012C039F013C03AF014C03BF07C
:105D720015C03CF0810E2F26FF0E302230BECBEF35
:105D82002EF0305009E1800E2F5CD8A0CBEF2EF020
:105D9200CDEF2EF069EF2FF039C012F03AC013F0B8
:105DA2003BC014F03CC015F0000E166E000E176ECC
:105DB200000E186E7F0E196EBAEC28F012C039F080
:105DC20013C03AF014C03BF015C03CF0810E2F26F0
:105DD200FF0E302230BEF7EF2EF0305009E1800E78
:105DE2002F5CD8A0F7EF2EF0F9EF2EF069EF2FF02D
:105DF200000E306E7F0E2F6E69EF2FF030AE0BEF7C
:105E02002FF0820E2F5CFF0E3058D8B00BEF2FF020
:105E12000DEF2FF069EF2FF039C012F03AC013F0F6
:105E22003BC014F03CC015F0000E166E000E176E4B
:105E3200800E186E0C0E196EBAEC28F012C039F0F2
:105E420013C03AF014C03BF015C03CF0660E2F268A
:105E5200000E302230AE37EF2FF0820E2F5CFF0E95
:105E62003058D8B037EF2FF039EF2FF069EF2FF01D
:105E720039C012F03AC013F03BC014F03CC015F028
:105E8200000E166E000E176E800E186E0C0E196E36
:105E9200BAEC28F012C039F013C03AF014C03BF04B
:105EA20015C03CF0660E2F26000E302230AE63EF96
:105EB2002FF0820E2F5CFF0E3058D8B063EF2FF018
:105EC20065EF2FF069EF2FF0FF0E306E820E2F6E0E
:105ED2007F0E2F24316E000E3020326E336A346A08
:105EE200170ED8903136323633363436E82E72EF0A
:105EF2002FF031C035F032C036F033C037F034C045
:105F020038F035C012F036C013F037C014F038C084
:105F120015F039C016F03AC017F03BC018F03CC07B
:105F220019F0BAEC28F012C02BF013C02CF014C0F8
:105F32002DF015C02EF02BC02BF02CC02CF02DC054
:105F42002DF02EC02EF012000D50D96EDA6ADFCF7E
:105F5200F6FF0E0EF76E000EF86E0800F550250AD9
:105F6200D8A4B6EF2FF0B8EF2FF076EF30F00D5047
:105F7200D96EDA6ADF2A000E0001D36F000ED26FEB
:105F8200D2C0D6F0D469D5690D50D96EDA6ADF5025
:105F9200116E11C0F6FF0E0EF76E000EF86E0800BD
:105FA200F550640AD8B4D8EF2FF0DAEF2FF0EAEF09
:105FB2002FF011C0F6FF0E0EF76E000EF86E0800FD
:105FC200F550690AD8A4E8EF2FF0EAEF2FF070EF4E
:105FD20030F00E50D96EDA6A020EDF26DF5CD96E1F
:105FE200DA6ADECF12F0DECF13F00D50D96EDA6A24
:105FF2001128DF6E200E166E13BE02EF30F005EF91
:1060020030F0010E06EF30F0000E106E160616503C
:106012009C0FD96EDA6A12C002F013C003F0000EB0
:10602200056E0A0E046E08EC37F002C008F003C0D9
:1060320009F019EC3AF00850300FDF6E12C002F08E
:1060420013C003F0000E056E0A0E046EEBEC35F081
:1060520002C012F003C013F012501310D8B434EF80
:1060620030F036EF30F03EEF30F01650D8A43CEF6F
:1060720030F03EEF30F007EF30F01650D8B444EF76
:1060820030F046EF30F065EF30F01050D8B44CEFFE
:1060920030F04EEF30F065EF30F0160616509C0FE0
:1060A200D96EDA6A2D0EDF6E65EF30F016509C0F56
:1060B200D96EDA6ADF500F6E0F50026E036A0CC09F
:1060C20004F0ABEC36F0162A200E1618D8A46CEFAA
:1060D20030F06EEF30F057EF30F089EF30F00D50C6
:1060E200D96EDA6ADF2A89EF30F00D50D96EDA6A9A
:1060F200DFCFF6FF0E0EF76E000EF86E0800F550B9
:10610200026E036A0CC004F0ABEC36F070EF30F0B4
:1061120012000A6E0A50D8B491EF30F093EF30F0CB
:10612200B5EF30F005BE9AEF30F098EF30F0B5EFF2
:1061320030F002C006F003C007F004C008F005C04A
:1061420009F0061E071E081E091E062A000E072257
:106152000822092206C00CF007C00DF008C00EF09C
:1061620009C00FF0BDEF30F002C00CF003C00DF01B
:1061720004C00EF005C00FF0025003100410051009
:10618200D8A4C6EF30F0C8EF30F0D2EF30F0000EF6
:10619200026E000E036E000E046E000E056E63EFBB
:1061A20031F0960E0B6EDCEF30F00B2AD8900F32E6
:1061B2000E320D320C32000E0C14066E000E0D144F
:1061C200076E000E0E14086EFE0E0F14096E0650B6
:1061D200071008100910D8A4F1EF30F0F3EF30F0F7
:1061E200D6EF30F001EF31F00B2A010E0C26000E33
:1061F2000D220E220F22D8900F320E320D320C32A7
:10620200000E0C14066E000E0D14076E000E0E1416
:10621200086EFF0E0F14096E0650071008100910C1
:10622200D8A416EF31F018EF31F0F5EF30F020EF8F
:1062320031F00B06D8900C360D360E360F360EBEE8
:1062420025EF31F027EF31F02FEF31F0020E0B6026
:106252002DEF31F02FEF31F01AEF31F00BB034EFB8
:1062620031F036EF31F037EF31F00E9ED8900B322D
:106272000BC006F0076A086A096A06C009F0086AD4
:10628200076A066A06500C1207500D1208500E12C9
:1062920009500F120A50D8B451EF31F053EF31F0D8
:1062A2005BEF31F005BE5AEF31F058EF31F05BEFA2
:1062B20031F00F8E0CC002F00DC003F00EC004F0DE
:1062C2000FC005F0120020EE02F00F50D926105038
:1062D200DA22DF50D8B470EF31F072EF31F0A6EF6E
:1062E20031F00FC0D9FF10C0DAFFDF50116E11502C
:1062F200026E036A20EE03F00F50D9261050DA2204
:10630200DECF04F0DDCF05F074EC3AF002C008F005
:1063120003C009F0000E0B6E640E0A6E48EC38F0F2
:1063220020EE03F00F50D9261050DA22DF50126E01
:106332000850125C136E20EE03F00F50D926105055
:10634200DA22DF50146EC9EF31F0000E136E0FC067
:10635200D9FF10C0DAFFDF50116E1150026E036ACE
:1063620020EE03F00F50D9261050DA22DECF04F0CF
:10637200DDCF05F074EC3AF002C008F003C009F07A
:10638200000E0B6E640E0A6E48EC38F00850146E64
:1063920020EE01F00F50D9261050DA22DF50D8B487
:1063A200D5EF31F0D7EF31F0F9EF31F020EE05F013
:1063B2000F50D9261050DA22DECF11F0DDCF12F0C5
:1063C20011C0D9FF12C0DAFF13C0DFFF20EE07F0C1
:1063D2000F50D9261050DA22DECF11F0DDCF12F0A5
:1063E20011C0D9FF12C0DAFF14C0DFFF19EF32F07B
:1063F20020EE05F00F50D9261050DA22DECF11F030
:10640200DDCF12F011C0D9FF12C0DAFF14C0DFFFD6
:1064120020EE07F00F50D9261050DA22DECF11F00D
:10642200DDCF12F011C0D9FF12C0DAFF13C0DFFFB7
:10643200120020EE01F01950D9261A50DA22010E6C
:10644200DF6E20EE01F01B50D9261C50DA22010E1D
:10645200DF6E62EF32F019C0D9FF1AC0DAFF460EC2
:10646200DF6036EF32F038EF32F03DEF32F019C034
:10647200D9FF1AC0DAFFDF2A1BC0D9FF1CC0DAFF1E
:10648200460EDF6047EF32F049EF32F04EEF32F066
:106492001BC0D9FF1CC0DAFFDF2A19C00FF01AC0D7
:1064A20010F064EC31F01BC00FF01CC010F064EC73
:1064B20031F0150E1D6EC60EE82EFED71D2EFCD72E
:1064C20000D019C0D9FF1AC0DAFF450EDF646CEFA5
:1064D20032F06EEF32F02CEF32F01BC0D9FF1CC04D
:1064E200DAFF450EDF6478EF32F07AEF32F02CEF0C
:1064F20032F0150E1E6E4B0E1D6EBE0EE82EFED72E
:106502001D2EFCD71E2EFAD700D019C015F01AC0C6
:1065120016F01BC017F01CC018F0B1EC37F0150EC6
:106522001E6E4B0E1D6EBE0EE82EFED71D2EFCD724
:106532001E2EFAD700D01200000E4C14546E000E1C
:106542004D14556E800E4E14566E7F0E4F14576EBC
:106552005450551056105710D8A4B2EF32F0B4EF81
:1065620032F0BCEF32F0000E4C6E000E4D6E000E9B
:106572004E6E000E4F6E000E5014546E000E5114EB
:10658200556E800E5214566E7F0E5314576E545031
:10659200551056105710D8A4D1EF32F0D3EF32F085
:1065A200DBEF32F0000E506E000E516E000E526E96
:1065B200000E536E4FAEE0EF32F0E2EF32F0EBEF4F
:1065C20032F04C6C4D1ED8B04D2A4E1ED8B04E2A19
:1065D200800E4F5653AEF0EF32F0F2EF32F0FBEF97
:1065E20032F0506C511ED8B0512A521ED8B0522AE5
:1065F200800E5356000E4C1A000E4D1A000E4E1A03
:10660200800E4F1A000E501A000E511A000E521A26
:10661200800E531A50504C5C51504D5852504E58A7
:1066220053504F58D8B018EF33F01AEF33F01DEF34
:1066320033F0D8901EEF33F0D880120020EE01F034
:106642001950D9261A50DA22DF6A20EE01F01B50C7
:10665200D9261C50DA22DF6A65EF33F019C0D9FF60
:106662001AC0DAFF460EDF6039EF33F03BEF33F04A
:1066720040EF33F019C0D9FF1AC0DAFFDF2A1BC07E
:10668200D9FF1CC0DAFF460EDF604AEF33F04CEF51
:1066920033F051EF33F01BC0D9FF1CC0DAFFDF2A01
:1066A20019C00FF01AC010F064EC31F01BC00FF0EB
:1066B2001CC010F064EC31F0150E1D6EC60EE82EF3
:1066C200FED71D2EFCD700D019C0D9FF1AC0DAFFA1
:1066D200450EDF646FEF33F071EF33F02FEF33F0DD
:1066E2001BC0D9FF1CC0DAFF450EDF647BEF33F01D
:1066F2007DEF33F02FEF33F0290E1E6E960E1D6ED6
:106702007F0EE82EFED71D2EFCD71E2EFAD70000D4
:1067120019C015F01AC016F01BC017F01CC018F0F3
:10672200B1EC37F0150E1E6E4B0E1D6EBE0EE82E2E
:10673200FED71D2EFCD71E2EFAD700D0120020EE57
:1067420001F01950D9261A50DA22DF6A20EE01F040
:106752001B50D9261C50DA22010EDF6EE7EF33F010
:1067620019C0D9FF1AC0DAFF460EDF60BBEF33F063
:10677200BDEF33F0C2EF33F019C0D9FF1AC0DAFF10
:10678200DF2A1BC0D9FF1CC0DAFF460EDF60CCEF48
:1067920033F0CEEF33F0D3EF33F01BC0D9FF1CC080
:1067A200DAFFDF2A19C00FF01AC010F064EC31F0E2
:1067B2001BC00FF01CC010F064EC31F0150E1D6E02
:1067C200C60EE82EFED71D2EFCD700D019C0D9FF69
:1067D2001AC0DAFF450EDF64F1EF33F0F3EF33F066
:1067E200B1EF33F01BC0D9FF1CC0DAFF450EDF64E6
:1067F200FDEF33F0FFEF33F0B1EF33F0390E1E6EE1
:10680200D20E1D6E4C0EE82EFED71D2EFCD71E2E6C
:10681200FAD700D019C015F01AC016F01BC017F035
:106822001CC018F0B1EC37F0120020EE01F0195044
:10683200D9261A50DA22010EDF6E20EE01F01B502B
:10684200D9261C50DA22DF6A5DEF34F019C0D9FF75
:106852001AC0DAFF460EDF6031EF34F033EF34F066
:1068620038EF34F019C0D9FF1AC0DAFFDF2A1BC093
:10687200D9FF1CC0DAFF460EDF6042EF34F044EF6E
:1068820034F049EF34F01BC0D9FF1CC0DAFFDF2A15
:1068920019C00FF01AC010F064EC31F01BC00FF0F9
:1068A2001CC010F064EC31F0150E1D6EC60EE82E01
