:0400000012EF00F00B
:1000080049828AA00AEF00F00CEF00F010EF00F030
:100018008096610E1FEC0BF04992110048EF0AF030
:100E00000074696D6531203D202564200D0A007451
:100E1000696D6532203D202564200D0A00000D50CB
:100E2000D96EDA6ADFCFF6FF0800F550250AD8A49C
:100E30001CEF07F01EEF07F0D3EF07F00D50D96E4F
:100E4000DA6ADF2A000E416E000E406E40C044F0A8
:100E5000426843680D50D96EDA6ADF50116E11C0D6
:100E6000F6FF0800F550640AD8B439EF07F03BEFFD
:100E700007F047EF07F011C0F6FF0800F550690AC8
:100E8000D8A445EF07F047EF07F0CDEF07F00E507D
:100E9000D96EDA6A020EDF26DF5CD96EDA6ADECF3F
:100EA00012F0DECF13F00D50D96EDA6A1128DF6E22
:100EB000200E166E13BE5FEF07F062EF07F0010E13
:100EC00063EF07F0000E106E16061650CF0FD96EA6
:100ED000DA6A12C002F013C003F0000E056E0A0EAB
:100EE000046ED5EC08F002C008F003C009F07DECF8
:100EF0000AF00850300FDF6E12C002F013C003F08A
:100F0000000E056E0A0E046E73EC08F002C012F0BB
:100F100003C013F012501310D8B491EF07F093EF01
:100F200007F09BEF07F01650D8A499EF07F09BEF5E
:100F300007F064EF07F01650D8B4A1EF07F0A3EF65
:100F400007F0C2EF07F01050D8B4A9EF07F0ABEFED
:100F500007F0C2EF07F016061650CF0FD96EDA6A07
:100F60002D0EDF6EC2EF07F01650CF0FD96EDA6A82
:100F7000DF500F6E0F50026E036A0CC004F02DECB0
:100F800009F0162A200E1618D8A4C9EF07F0CBEFE7
:100F900007F0B4EF07F0E2EF07F00D50D96EDA6A10
:100FA000DF2AE2EF07F00D50D96EDA6ADFCFF6FFE5
:100FB0000800F550026E036A0CC004F02DEC09F035
:100FC000CDEF07F01200E5EC0AF031EC0BF0ACECE1
:100FD0000AF006EC0AF0000E036E630E026E82EC5D
:100FE00009F0F5EC0AF0D3EC09F080868896868447
:100FF0000E01B495000E0001BD6F010EBE6F010E13
:10100000BF6FAA0EC26F0F0EC36FA60EC46F0F0E76
:10101000C56F000EC16F630EC06F000EC66F010E6C
:10102000C76F010EC86F250ECB6F0F0ECC6F210E50
:10103000CD6F0F0ECE6F000ECA6F630EC96F9C0E80
:10104000BC6F37EC0BF0000E0001B96F000EB86FEB
:101050009C0E1B6E010E1C6E04EC0BF002C01DF00A
:1010600003C01EF063EC0AF0BCC003F097EC0AF07A
:101070000001B84BB92BB9BF47EF08F0B95109E1EE
:10108000050EB85DD8A047EF08F049EF08F028EF4B
:1010900008F037EC0BF0000E0001BB6F000EBA6FCA
:1010A0009C0E1B6E0F0E1C6E04EC0BF002C01DF0AC
:1010B00003C01EF063EC0AF0BCC003F097EC0AF02A
:1010C0000001BA4BBB2BBBBF6FEF08F0BB5109E16E
:1010D000050EBA5DD8A06FEF08F071EF08F050EF81
:1010E00008F012EF00F0000E076E05BE7CEF08F06E
:1010F0007AEF08F082EF08F0046C051ED8B0052ADC
:10110000010E076E03BE89EF08F087EF08F08FEF3E
:1011100008F0026C031ED8B0032A010E071A000E55
:10112000096E000E086E04500510D8B49AEF08F04E
:101130009CEF08F0C4EF08F0010E066EA4EF08F073
:10114000D89004360536062A05AEA9EF08F0ABEFB5
:1011500008F0A0EF08F0D890083609360450025C79
:1011600005500358D8A0B7EF08F0B9EF08F0BEEF6C
:1011700008F00450025E0550035A0880D8900532EA
:101180000432062EABEF08F00750D8B4CAEF08F0CF
:10119000CCEF08F0D0EF08F0086C091ED8B0092A8F
:1011A00008C002F009C003F01200000E076E03BE73
:1011B000DEEF08F0DCEF08F0E4EF08F0026C031E4D
:1011C000D8B0032A010E076E05BEEBEF08F0E9EF79
:1011D00008F0EFEF08F0046C051ED8B0052A0450A3
:1011E0000510D8B4F6EF08F0F8EF08F01CEF09F09E
:1011F000010E066E00EF09F0D89004360536062A77
:1012000005AE05EF09F007EF09F0FCEF08F0045018
:10121000025C05500358D8A010EF09F012EF09F056
:1012200016EF09F00450025E0550035AD8900532BB
:101230000432062E07EF09F00750D8B422EF09F068
:1012400024EF09F028EF09F0026C031ED8B0032A3E
:1012500002C002F003C003F012000450D8B433EF10
:1012600009F035EF09F03DEF09F00450D8A43BEF49
:1012700009F03DEF09F042EF09F0025046EC0BF0A7
:1012800081EF09F00450D96EDA6A0A0ED926DE50D1
:10129000DE10D8B44EEF09F050EF09F069EF09F015
:1012A0000450D96EDA6A0A0ED9260450E16EE26A59
:1012B000030EE126DE50E65CE650800A096EDE5041
:1012C000800A0958D8B067EF09F069EF09F081EF9B
:1012D00009F00450D96EDA6A030ED926DF50056E84
:1012E0000450D96EDA6ADF500524D96EDA6A02C07A
:1012F000DFFF0450D96EDA6A030ED926DE2A000E0B
:10130000DD221200050E0E01746F060E766F070EB9
:10131000696F080E886FBD508F0B4009BD6EE00EDF
:10132000BE16BF50F00B0109BF6E630EBC6EBD8EC2
:10133000000EAA6E000EA66E000E0F01256F000EA5
:10134000216FFC0EAD16F30EAD16CF0EAD163F0E8F
:10135000AD16AB88AB50F00B0C09AB6EAB8EA7880B
:10136000A750F00B0C09A76EA78E26892651F00B0B
:101370000C09266F268F22892251F00B0C09226F4F
:10138000228F050E0E01746F060E766F070E696FC1
:10139000080E886F85948598839E879C7D947B9E9C
:1013A0007D987F9C12007FA0D8EF09F0DCEF09F058
:1013B000026A022ADDEF09F0026A7F500218FE0B72
:1013C00002187F6E79A6E7EF09F0EBEF09F0026AE9
:1013D000022AECEF09F0026A024602460246795000
:1013E0000218F70B0218796E7DAEF9EF09F0FDEFE8
:1013F00009F0026A022AFEEF09F0026A02320232A2
:101400007D5002187F0B02187D6E1200ACEC0AF0C2
:10141000010E046E000ED5EC0AF03F0E066E550E5E
:10142000E82EFED7062EFCD70000030E046E000E39
:10143000D5EC0AF0D50E046E010ED5EC0AF0FF0EC5
:10144000046E030ED5EC0AF07F9079967D9E87900E
:101450008196859E120018C01AF037EF0AF017C067
:101460000CF01A0E0D6E19C00EF00FEC07F01AC03A
:10147000F6FF0800F5500009D8A441EF0AF043EF49
:101480000AF02FEF0AF0000E186E000E176E120011
:1014900001EE00F03C0EEE6AE806FDE100EECFF052
:1014A000200EEE6AE806FDE100EE2CF01D0EEE6A5D
:1014B000E806FDE149904992000EF86E0E0EF76EB7
:1014C0000001E3EF07F01D0E1F6E1BC020F0000EA1
:1014D000246E000E236E000E2B6E000E2A6E200E60
:1014E000176E1CC018F01F0E196E2BEC0AF01B5063
:1014F0002324D96EDA6ADF6A120009BE82EF0AF08D
:1015000084EF0AF08AEF0AF008C008F009C009F079
:1015100096EF0AF008C00AF009C00BF00A1E0B1E75
:101520000A4A0B2A0AC008F00BC009F01200A0EF0B
:101530000AF00350D96EDA6ADF5013EC0BF0032A7D
:101540000350D96EDA6ADF50D8A4A9EF0AF0ABEFE6
:101550000AF099EF0AF012000E01D951F00B0809B8
:10156000D96FD98B9F0ED66F848A848CA79BA79D39
:101570001D0E1D6F1E0E1C6F1C0E6F6F1B0E706FED
:1015800012000E01D8B5C7EF0AF0C9EF0AF0C1EF9B
:101590000AF0DACE02F01F0E0216D8A4D2EF0AF03B
:1015A000D4EF0AF0C1EF0AF01200056E41EC0BF027
:1015B000520E2BEC0BF0055080092BEC0BF0045075
:1015C0002BEC0BF03CEC0BF01200D6501F0B40093B
:1015D000D66ED6880F0ED612F00ED516D5880B0E05
:1015E000D46EDB0ED36ED58E1200120E0E01626F1A
:1015F000110E156FE997E895330EE56F000EE66F53
:10160000E789E88BE78F1200D3CF06F0076AD45042
:10161000056E046A045006120550071206C002F057
:1016200007C003F01200026E0E0137A51AEF0BF08F
:101630001CEF0BF014EF0BF002C0E4FE1200016E81
:101640000E0137A526EF0BF028EF0BF020EF0BF083
:1016500001C0E4FE1200036EC1EC0AF003C0D5FE27
:101660001200F28C0E012B812989F28E1200000EDD
:10167000D46E000ED36E1200C1EC0AF00E01DA85B2
:0E1680001200C1EC0AF00E01DA811200120015
:020000040030CA
:02000000AAFF55
:020004009FFF5C
:00000001FF
