:0400000012EF00F00B
:100008005E828AA00AEF00F00CEF00F010EF00F01B
:100018008096610E59EC42F05E92110096EF41F025
:100E00000000000000DCCFD1350000000000C0155C
:100E10003F0000803F0000C03F70A5EC363BAAB801
:100E20003F4F38763F3CAA38338CBEBF3500723115
:100E30003F1872313F4CBB31330EEADDB555B38AF2
:100E400038610B36BBABAA2A3E42F1533E55326C99
:100E50003E05A38B3EABAAAA3EB76DDB3E9A99191D
:100E60003F0000804B00AAB83FC623F6B80040768A
:100E70003F677265656E72203D202566200D0A0071
:100E8000626C756572203D202566200D0A00726532
:100E90006472203D202566200D0A00696E66006E92
:100EA000616E000060C068F161C069F162C06AF102
:100EB00063C06BF164C084F165C085F166C086F1E2
:100EC00067C087F1FF0E01016815AC6FFF0E691551
:100ED000AD6FFF0E6A15AE6F7F0E6B15AF6FFF0E15
:100EE0008415946FFF0E8515956FFF0E8615966F0E
:100EF0007F0E8715976F9451951196119711D8A46D
:100F000084EF07F086EF07F091EF07F0000E000185
:100F1000606F000E616F800E626F3F0E636F91EF26
:100F200019F0800E6A1909E13F0E6B1968116911F9
:100F3000D8A49DEF07F09FEF07F0AAEF07F0000E8F
:100F40000001606F000E616F800E626F3F0E636F75
:100F500091EF19F0AFBFBBEF07F0AC05000EAD5934
:100F6000800EAE597F0EAF59D8B0B9EF07F0BBEF86
:100F700007F0CCEF07F097BFCAEF07F09405000E1B
:100F80009559800E96597F0E9759D8A0CAEF07F051
:100F9000CCEF07F0E8EF07F060C002F061C003F0AB
:100FA00062C004F063C005F064C006F065C007F0DD
:100FB00066C008F067C009F068EC2BF002C060F072
:100FC00003C061F004C062F005C063F091EF19F056
:100FD000000E546F000E556F000E566F000E576FC7
:100FE0006BBFF7EF07F0F5EF07F0C3EF08F097BF1F
:100FF00003EF08F0800E965D4B0E9759D8A003EFD3
:1010000008F005EF08F00FEF08F0020E546F000E25
:10101000556F000E566F000E576FC3EF08F097BF65
:101020001BEF08F0800E965D3F0E9759D8A01BEF7E
:1010300008F01DEF08F0C3EF08F0170E0001686F0D
:1010400094C169F095C16AF096C16BF097C16CF0DC
:1010500068672DEF08F035EF08F06C356C336B33B3
:101060006A336933682F28EF08F0810E0001692583
:101070000101A46FFF0E00016A210101A56FFF0E9F
:1010800000016B210101A66FFF0E00016C2101011F
:10109000A76FA45117080001686F94C169F095C14A
:1010A0006AF096C16BF097C16CF068675AEF08F070
:1010B00062EF08F06C356C336B336A336933682F39
:1010C00055EF08F069C0A8F16AC0A9F16BC0AAF198
:1010D0006CC0ABF10101A45117080001686FA8C1F1
:1010E00069F0A9C16AF0AAC16BF0ABC16CF0682BC2
:1010F0007FEF08F0D89069376A376B376C37682F05
:101100007AEF08F0010194510001691913E101011E
:10111000955100016A190EE10101965100016B1908
:1011200009E10101975100016C19D8A49AEF08F068
:101130009CEF08F0C3EF08F0010E0101A8150001B3
:10114000686F000E0101A9150001696F000E010111
:10115000AA1500016A6F000E0101AB1500016B6F4B
:10116000685102080101546F000E00016955010128
:10117000556F000E00016A550101566F000E000107
:101180006B550101576F800E0101961909E17F0E21
:10119000971994119511D8A4D0EF08F0D2EF08F068
:1011A0003EEF09F0800EAE1909E13F0EAF19AC1108
:1011B000AD11D8A4DEEF08F0E0EF08F0EBEF08F097
:1011C000000E0001606F000E616F800E626F3F0EB7
:1011D000636F91EF19F0AFBFFAEF08F0AC05000EA6
:1011E000AD59800EAE593F0EAF59D8A0FAEF08F0B6
:1011F000FCEF08F018EF09F087BF03EF09F001EFEB
:1012000009F00EEF09F0000E0001606F000E616F33
:10121000000E626F000E636F91EF19F064C060F012
:1012200065C061F066C062F067C063F091EF19F0CD
:1012300087BF1FEF09F01DEF09F033EF09F064C01D
:1012400002F065C003F066C004F067C005F07AECF8
:1012500041F002C060F003C061F004C062F005C05C
:1012600063F091EF19F0000E0001606F000E616FE6
:10127000000E626F000E636F91EF19F0800E9619E9
:1012800009E13F0E971994119511D8A44AEF09F07E
:101290004CEF09F079EF09F087BF53EF09F051EFF8
:1012A00009F06FEF09F0000E2B6E000E2C6E800E11
:1012B0002D6E3F0E2E6E60C02FF061C030F062C008
:1012C00031F063C032F0CCEC31F02BC060F02CC0B8
:1012D00061F02DC062F02EC063F091EF19F060C094
:1012E00060F061C061F062C062F063C063F091EFD2
:1012F00019F0400E8719841185118611D8A483EF47
:1013000009F085EF09F0A1EF09F060C012F061C0AB
:1013100013F062C014F063C015F060C016F061C035
:1013200017F062C018F063C019F0C8EC2DF012C0BD
:1013300060F013C061F014C062F015C063F091EF6B
:1013400019F03F0E8719841185118611D8A4ABEFCF
:1013500009F0ADEF09F0C8EF09F06BBFB2EF09F08B
:10136000B4EF09F0C8EF09F060C012F061C013F0EB
:1013700062C014F063C015F0DDEC2FF012C060F015
:1013800013C061F014C062F015C063F091EF19F062
:10139000ACC178F1ADC179F1AEC17AF1AFC17BF1E9
:1013A000800EAE190BE17F0EAF19AC11AD11D8B4A0
:1013B000DCEF09F0DEEF09F0F7EF09F0AC51AD1109
:1013C000AE11AF11D8B4E7EF09F0E9EF09F0F7EF8C
:1013D00009F0800EAE1909E13F0EAF19AC11AD1145
:1013E000D8A4F5EF09F0F7EF09F092EF0AF078C111
:1013F000B4F179C1B5F17AC1B6F17BC1B7F187BF5C
:1014000006EF0AF004EF0AF020EF0AF0000E2B6E50
:10141000000E2C6E800E2D6E3F0E2E6EB4C12FF07E
:10142000B5C130F0B6C131F0B7C132F0CCEC31F01B
:101430002BC0B4F12CC0B5F12DC0B6F12EC0B7F160
:1014400001016BBF28EF0AF026EF0AF088EF0AF0DF
:10145000000EAC250001686F000E0101AD210001F6
:10146000696F800E0101AE2100016A6FC00E01019B
:10147000AF2100016B6F01015451000168116C6FC5
:1014800001015551000169116D6F010156510001B3
:101490006A116E6F0101575100016B116F6F6C5132
:1014A0006D116E116F11D8A458EF0AF05AEF0AF0BF
:1014B0006AEF0AF0000E0001D96F210ED86FFF0EFF
:1014C0000101B46FFF0EB56FFF0EB66F7F0EB76FE1
:1014D00088EF0AF001015405551156115711D8A48F
:1014E00074EF0AF076EF0AF088EF0AF0B4C102F068
:1014F000B5C103F0B6C104F0B7C105F07AEC41F014
:1015000002C0B4F103C0B5F104C0B6F105C0B7F133
:10151000B4C160F0B5C161F0B6C162F0B7C163F0AB
:1015200091EF19F0000E646F000E656F000E666F8C
:10153000000E676F6BBFA1EF0AF09FEF0AF0C1EFDB
:101540000AF05451551156115711D8A4AAEF0AF0B8
:10155000ACEF0AF0AEEF0AF05AEF0AF0540555115D
:1015600056115711D8A4B7EF0AF0B9EF0AF0C1EF3E
:101570000AF0000E646F000E656F000E666F800E3D
:10158000676F97BFD0EF0AF09405000E9559000ED3
:1015900096594D0E9759D8A0D0EF0AF0D2EF0AF025
:1015A00096EF0CF0AFBFE4EF0AF0F80EAC5DFF0E63
:1015B000AD597F0EAE593F0EAF59D8B0E2EF0AF0E9
:1015C000E4EF0AF005EF0BF087BFEBEF0AF0E9EF6D
:1015D0000AF0FAEF0AF0000E01016411B46F000E78
:1015E0006511B56F800E6611B66F7F0E6711B76F0C
:1015F00088EF0AF0000E0001606F000E616F000EB0
:10160000626F000E636F91EF19F0AFBF15EF0BF033
:10161000080EAC5D000EAD59800EAE593F0EAF59AD
:10162000D8A015EF0BF017EF0BF033EF0BF087BFDF
:1016300024EF0BF087518611851108E18405D8A0AD
:1016400024EF0BF026EF0BF028EF0BF0EBEF0AF096
:10165000000E0001606F000E616F000E626F000EE1
:10166000636F91EF19F078C102F079C103F07AC18C
:1016700004F07BC105F0000E066E000E076E800EB2
:10168000086EBF0E096E68EC2BF002C0B0F103C00B
:10169000B1F104C0B2F105C0B3F1000E166E000E38
:1016A000176E800E186E3E0E196EB0C112F0B1C1E9
:1016B00013F0B2C114F0B3C115F0C8EC2DF012C094
:1016C00048F013C049F014C04AF015C04BF0AB0EFF
:1016D000446EAA0E456EAA0E466E3E0E476ED7ECBD
:1016E00040F044C048F145C049F146C04AF147C006
:1016F0004BF1B0C116F0B1C117F0B2C118F0B3C1CF
:1017000019F0B0C112F0B1C113F0B2C114F0B3C1FD
:1017100015F0C8EC2DF012C058F113C059F114C0E7
:101720005AF115C05BF1B0C116F0B1C117F0B2C1EA
:1017300018F0B3C119F048C112F049C113F04AC101
:1017400014F04BC115F0C8EC2DF012C048F013C0D6
:1017500049F014C04AF015C04BF0000E446E000E64
:10176000456E000E466E3F0E476ED7EC40F044C00B
:101770004CF145C04DF146C04EF147C04FF158C144
:1017800012F059C113F05AC114F05BC115F04CC1ED
:1017900016F04DC117F04EC118F04FC119F0C8EC4A
:1017A0002DF012C044F113C045F114C046F115C02C
:1017B00047F1B0C112F0B1C113F0B2C114F0B3C11E
:1017C00015F0000E166EAA0E176EB80E186E3F0EAC
:1017D000196EC8EC2DF012C07CF113C07DF114C05D
:1017E0007EF115C07FF1700E166EA50E176EEC0E11
:1017F000186E360E196EB0C112F0B1C113F0B2C13D
:1018000014F0B3C115F0C8EC2DF012C044F013C0B1
:1018100045F014C046F015C047F03B0E166EAA0EF8
:10182000176EB80E186E3F0E196E44C112F045C106
:1018300013F046C114F047C115F0C8EC2DF012C0EA
:1018400048F013C049F014C04AF015C04BF0D7EC73
:1018500040F044C080F145C081F146C082F147C0EC
:1018600083F17CC102F07DC103F07EC104F07FC131
:1018700005F080C106F081C107F082C108F083C184
:1018800009F068EC2BF002C08CF103C08DF104C0AC
:101890008EF105C08FF18CC198F18DC199F18EC187
:1018A0009AF18FC19BF1000E010198158C6FF00E1B
:1018B00099158D6FFF0E9A158E6FFF0E9B158F6F0A
:1018C0007CC148F07DC149F07EC14AF07FC14BF038
:1018D0008CC144F08DC145F08EC146F08FC147F0F8
:1018E000D7EC40F044C09CF145C09DF146C09EF14C
:1018F00047C09FF180C144F081C145F082C146F0EC
:1019000083C147F09CC148F09DC149F09EC14AF097
:101910009FC14BF0D7EC40F044C01CF145C01DF115
:1019200046C01EF147C01FF18AEF13F0000E886F0A
:10193000000E896F000E8A6F000E8B6FAFBFACEF89
:101940000CF0AF5107E1800EAE5DD8B0AAEF0CF0FD
:10195000ACEF0CF0D7EF0CF078C112F079C113F0B6
:101960007AC114F07BC115F0000E166E000E176ED2
:10197000800E186E4B0E196EC8EC2DF012C078F167
:1019800013C079F114C07AF115C07BF1E80E0101A2
:101990008827FF0E8923FF0E8A23FF0E8B2378C131
:1019A000ACF179C1ADF17AC1AEF17BC1AFF1170EE7
:1019B0000001686FACC169F0ADC16AF0AEC16BF0F7
:1019C000AFC16CF06867E7EF0CF0EFEF0CF06C352F
:1019D0006C336B336A336933682FE2EF0CF0810E9E
:1019E000000169256D6FFF0E6A216E6FFF0E6B217E
:1019F0006F6FFF0E6C21706F6D5101018827000120
:101A00006E510101892300016F5101018A230001F8
:101A1000705101018B23FF0EAC15A86FFF0EAD15A1
:101A2000A96F7F0EAE15AA6F000EAF15AB6F000E3B
:101A3000A46F000EA56F000EA66F000EA76F000E1C
:101A4000A811AC6F000EA911AD6F800EAA11AE6F78
:101A50003F0EAB11AF6FABBF3DEF0DF0AB510BE1E4
:101A6000720EA85DC40EA9591C0EAA59D8B03BEF3E
:101A70000DF03DEF0DF03FEF0DF069EF0DF0ABBF56
:101A800051EF0DF0AB510BE1D70EA85DB30EA95984
:101A90005D0EAA59D8B04FEF0DF051EF0DF05BEF8E
:101AA0000DF0010EA46F000EA56F000EA66F000EC4
:101AB000A76F69EF0DF0010E8827000E89238A2396
:101AC0008B23000EAC27000EAD23800EAE23FF0E3D
:101AD000AF23ACC178F1ADC179F1AEC17AF1AFC13C
:101AE0007BF178C144F079C145F07AC146F07BC101
:101AF00047F0A451040DF350110F0001686F68C046
:101B0000F6FF0E0EF76E000EF86E0900F5CF48F0E6
:101B10000900F5CF49F00900F5CF4AF00A00F5CFEA
:101B20004BF0D7EC40F044C07CF145C07DF146C09D
:101B30007EF147C07FF1000E2B6E000E2C6E800EE2
:101B40002D6E3F0E2E6E78C106F079C107F07AC176
:101B500008F07BC109F00101A451040DF350110FED
:101B60000001686F68C0F6FF0E0EF76E000EF86E8B
:101B70000900F5CF02F00900F5CF03F00900F5CF19
:101B800004F00A00F5CF05F068EC2BF002C02FF04E
:101B900003C030F004C031F005C032F0CCEC31F0BD
:101BA0002BC080F12CC081F12DC082F12EC083F1B9
:101BB0007CC112F07DC113F07EC114F07FC115F01D
:101BC00080C116F081C117F082C118F083C119F0ED
:101BD000C8EC2DF012C060F113C061F114C062F1C5
:101BE00015C063F160C174F161C175F162C176F134
:101BF00063C177F174C198F175C199F176C19AF119
:101C000077C19BF1000E01019815746FF00E9915C4
:101C1000756FFF0E9A15766FFF0E9B15776FACC12F
:101C200068F0ADC169F0AEC16AF0AFC16BF0000100
:101C30006B356B336A3369336833000E68156C6F2C
:101C4000F00E69156D6FFF0E6A156E6FFF0E6B1546
:101C50006F6F000E6C110101986F000E00016D1185
:101C60000101996F000E00016E1101019A6F200EA3
:101C700000016F1101019B6FA4C168F0A5C169F05B
:101C8000A6C16AF0A7C16BF0150ED89000016837A5
:101C900069376A376B37E82E45EF0EF0010198512E
:101CA000000168256C6F01019951000169216D6F78
:101CB00001019A5100016A216E6F01019B510001DF
:101CC0006B216F6F000E6C250101706F000E00011B
:101CD0006D210101716F400E00016E210101726FD3
:101CE000000E00016F210101736FA451040DF35028
:101CF000110F0001686F68C0F6FF0E0EF76E000E40
:101D0000F86E0900F5CF48F00900F5CF49F0090059
:101D1000F5CF4AF00A00F5CF4BF070C144F071C125
:101D200045F072C146F073C147F0D7EC40F044C0B3
:101D30009CF145C09DF146C09EF147C09FF178C11E
:101D400044F079C145F07AC146F07BC147F09CC1AF
:101D500048F09DC149F09EC14AF09FC14BF0D7ECBD
:101D600040F044C034F145C035F146C036F147C0BB
:101D700037F170C116F071C117F072C118F073C15C
:101D800019F074C112F075C113F076C114F077C167
:101D900015F0C8EC2DF012C048F013C049F014C083
:101DA0004AF015C04BF07CC144F07DC145F07EC1C6
:101DB00046F07FC147F0D7EC40F044C09CF145C0ED
:101DC0009DF146C09EF147C09FF134C116F035C168
:101DD00017F036C118F037C119F074C112F075C18F
:101DE00013F076C114F077C115F0C8EC2DF012C0D5
:101DF00048F013C049F014C04AF015C04BF09CC124
:101E000044F09DC145F09EC146F09FC147F0D7EC1C
:101E100040F044C058F145C059F146C05AF147C09E
:101E20005BF158C112F059C113F05AC114F05BC1F3
:101E300015F080C116F081C117F082C118F083C17E
:101E400019F0C8EC2DF012C030F113C031F114C0FC
:101E500032F115C033F160C112F061C113F062C1FB
:101E600014F063C115F060C116F061C117F062C1D2
:101E700018F063C119F0C8EC2DF012C090F113C036
:101E800091F114C092F115C093F1550E066E320E09
:101E9000076E6C0E086E3E0E096E420E166EF10E47
:101EA000176E530E186E3E0E196E90C112F091C14E
:101EB00013F092C114F093C115F0C8EC2DF012C0CC
:101EC00002F013C003F014C004F015C005F068EC74
:101ED0002BF002C048F103C049F104C04AF105C02B
:101EE0004BF1050E066EA30E076E8B0E086E3E0EAE
:101EF000096E90C116F091C117F092C118F093C10C
:101F000019F048C112F049C113F04AC114F04BC195
:101F100015F0C8EC2DF012C002F013C003F014C08D
:101F200004F015C005F068EC2BF002C058F103C0B6
:101F300059F104C05AF105C05BF1AB0E066EAA0E52
:101F4000076EAA0E086E3E0E096E90C116F091C182
:101F500017F092C118F093C119F058C112F059C18D
:101F600013F05AC114F05BC115F0C8EC2DF012C08B
:101F700002F013C003F014C004F015C005F068ECC3
:101F80002BF002C04CF103C04DF104C04EF105C06E
:101F90004FF1B70E066E6D0E076EDB0E086E3E0E2D
:101FA000096E90C116F091C117F092C118F093C15B
:101FB00019F04CC112F04DC113F04EC114F04FC1D5
:101FC00015F0C8EC2DF012C002F013C003F014C0DD
:101FD00004F015C005F068EC2BF002C038F103C026
:101FE00039F104C03AF105C03BF19A0E066E990E24
:101FF000076E190E086E3F0E096E90C116F091C162
:1020000017F092C118F093C119F038C112F039C11C
:1020100013F03AC114F03BC115F0C8EC2DF012C01A
:1020200002F013C003F014C004F015C005F068EC12
:102030002BF002C000F103C001F104C002F105C0A1
:1020400003F190C116F091C117F092C118F093C13D
:1020500019F090C112F091C113F092C114F093C124
:1020600015F0C8EC2DF012C004F113C005F114C036
:1020700006F115C007F100C112F001C113F002C151
:1020800014F003C115F004C116F005C117F006C124
:1020900018F007C119F0C8EC2DF012C050F113C0B0
:1020A00051F114C052F115C053F130C116F031C1D5
:1020B00017F032C118F033C119F060C106F061C1E8
:1020C00007F062C108F063C109F074C102F075C184
:1020D00003F076C104F077C105F068EC2BF002C084
:1020E00012F003C013F004C014F005C015F0C8ECE2
:1020F0002DF012C05CF113C05DF114C05EF115C08B
:102100005FF150C102F051C103F052C104F053C15C
:1021100005F05CC106F05DC107F05EC108F05FC16B
:1021200009F068EC2BF002C050F103C051F104C07B
:1021300052F105C053F174C112F075C113F076C1AC
:1021400014F077C115F074C116F075C117F076C19F
:1021500018F077C119F0C8EC2DF012C090F113C03F
:1021600091F114C092F115C093F1000E066E000EAD
:10217000076E400E086E400E096E90C102F091C1CC
:1021800003F092C104F093C105F068EC2BF002C09B
:102190005CF103C05DF104C05EF105C05FF15CC19C
:1021A00002F05DC103F05EC104F05FC105F050C1F3
:1021B00006F051C107F052C108F053C109F068ECB4
:1021C0002BF002C070F103C071F104C072F105C0C0
:1021D00073F170C198F171C199F172C19AF173C133
:1021E0009BF1000E01019815706FF00E9915716F3B
:1021F000FF0E9A15726FFF0E9B15736F000E066E21
:10220000000E076E400E086EC00E096E70C102F01F
:1022100071C103F072C104F073C105F068EC2BF0DA
:1022200002C03CF103C03DF104C03EF105C03FF1E6
:1022300090C148F091C149F092C14AF093C14BF06E
:102240003CC144F03DC145F03EC146F03FC147F0BE
:10225000D7EC40F044C040F145C041F146C042F1E6
:1022600047C043F150C144F051C145F052C146F05E
:1022700053C147F040C148F041C149F042C14AF062
:1022800043C14BF0D7EC40F044C034F145C035F1C8
:1022900046C036F147C037F174C112F075C113F072
:1022A00076C114F077C115F070C116F071C117F046
:1022B00072C118F073C119F0C8EC2DF012C07CF196
:1022C00013C07DF114C07EF115C07FF130C116F04E
:1022D00031C117F032C118F033C119F070C112F0DA
:1022E00071C113F072C114F073C115F0C8EC2DF078
:1022F00012C002F013C003F014C004F015C005F0C2
:1023000060C116F061C117F062C118F063C119F025
:1023100034C112F035C113F036C114F037C115F0D5
:10232000C8EC2DF012C006F013C007F014C008F07E
:1023300015C009F068EC2BF002C080F103C081F1F8
:1023400004C082F105C083F17CC102F07DC103F0BD
:102350007EC104F07FC105F080C106F081C107F0A5
:1023600082C108F083C109F068EC2BF002C0A0F133
:1023700003C0A1F104C0A2F105C0A3F1A0C198F16E
:10238000A1C199F1A2C19AF1A3C19BF1000E010173
:102390009815A06FF00E9915A16FFF0E9A15A26FF8
:1023A000FF0E9B15A36F7CC148F07DC149F07EC133
:1023B0004AF07FC14BF0A0C144F0A1C145F0A2C1D9
:1023C00046F0A3C147F0D7EC40F044C09CF145C0B3
:1023D0009DF146C09EF147C09FF180C144F081C18C
:1023E00045F082C146F083C147F09CC148F09DC1D1
:1023F00049F09EC14AF09FC14BF0D7EC40F044C079
:102400006CF145C06DF146C06EF147C06FF1A0C1DF
:1024100012F0A1C113F0A2C114F0A3C115F0000E77
:10242000166E400E176E760E186E3F0E196EC8ECC3
:102430002DF012C020F113C021F114C022F115C0FB
:1024400023F14F0E166E380E176E760E186E3F0E75
:10245000196E6CC112F06DC113F06EC114F06FC132
:1024600015F0C8EC2DF012C006F013C007F014C030
:1024700008F015C009F0C60E166E230E176EF60E84
:10248000186EB80E196EA0C112F0A1C113F0A2C14E
:1024900014F0A3C115F0C8EC2DF012C002F013C067
:1024A00003F014C004F015C005F068EC2BF002C076
:1024B0005CF103C05DF104C05EF105C05FF15CC179
:1024C00002F05DC103F05EC104F05FC105F00101DF
:1024D000A451040DF350010F0001686F68C0F6FFAE
:1024E0000E0EF76E000EF86E0900F5CF06F009002B
:1024F000F5CF07F00900F5CF08F00A00F5CF09F095
:1025000068EC2BF002C024F103C025F104C026F1D1
:1025100005C027F188C102F089C103F08AC104F027
:102520008BC105F0010EB0EC36F002C0B0F103C073
:10253000B1F104C0B2F105C0B3F124C106F025C168
:1025400007F026C108F027C109F020C102F021C11F
:1025500003F022C104F023C105F068EC2BF002C0A7
:102560005CF103C05DF104C05EF105C05FF10101E3
:10257000A451040DF350090F0001686F68C0F6FF05
:102580000E0EF76E000EF86E0900F5CF06F009008A
:10259000F5CF07F00900F5CF08F00A00F5CF09F0F4
:1025A0005CC102F05DC103F05EC104F05FC105F0E3
:1025B00068EC2BF002C008F103C009F104C00AF175
:1025C00005C00BF108C102F009C103F00AC104F013
:1025D0000BC105F0B0C106F0B1C107F0B2C108F0FF
:1025E000B3C109F068EC2BF002C08CF103C08DF18F
:1025F00004C08EF105C08FF18CC198F18DC199F1A5
:102600008EC19AF18FC19BF1000E010198158C6F5C
:10261000F00E99158D6FFF0E9A158E6FFF0E9B159C
:102620008F6FB0C148F0B1C149F0B2C14AF0B3C137
:102630004BF08CC144F08DC145F08EC146F08FC186
:1026400047F0D7EC40F044C09CF145C09DF146C036
:102650009EF147C09FF10101A451040DF350090FF1
:102660000001686F68C0F6FF0E0EF76E000EF86E80
:102670000900F5CF48F00900F5CF49F00900F5CF82
:102680004AF00A00F5CF4BF09CC144F09DC145F0E3
:102690009EC146F09FC147F0D7EC40F044C040F1E6
:1026A00045C041F146C042F147C043F120C148F066
:1026B00021C149F022C14AF023C14BF040C144F08E
:1026C00041C145F042C146F043C147F0D7EC40F06C
:1026D00044C00CF145C00DF146C00EF147C00FF1EA
:1026E00024C144F025C145F026C146F027C147F07A
:1026F0000CC148F00DC149F00EC14AF00FC14BF0BA
:10270000D7EC40F044C01CF145C01DF146C01EF19D
:1027100047C01FF164C098F165C099F166C09AF195
:1027200067C09BF1000E010198152C6FF00E9915F2
:102730002D6FFF0E9A152E6FFF0E9B152F6F8CC1FC
:1027400016F08DC117F08EC118F08FC119F02CC191
:1027500048F02DC149F02EC14AF02FC14BF064C0A2
:1027600044F065C045F066C046F067C047F0D7EC5E
:1027700040F044C012F045C013F046C014F047C00A
:1027800015F0C8EC2DF012C010F113C011F114C0F7
:1027900012F115C013F110C102F011C103F012C102
:1027A00004F013C105F01CC116F01DC117F01EC1C5
:1027B00018F01FC119F064C012F065C013F066C0B4
:1027C00014F067C015F0C8EC2DF012C006F013C06D
:1027D00007F014C008F015C009F068EC2BF002C037
:1027E0006CF103C06DF104C06EF105C06FF12CC136
:1027F00012F02DC113F02EC114F02FC115F08CC1B1
:1028000016F08DC117F08EC118F08FC119F0C8EC09
:102810002DF012C0A0F113C0A1F114C0A2F115C097
:10282000A3F1A0C102F0A1C103F0A2C104F0A3C1B1
:1028300005F06CC106F06DC107F06EC108F06FC104
:1028400009F068EC2BF002C0B4F103C0B5F104C08C
:10285000B6F105C0B7F1B4C1A8F1B5C1A9F1B6C1CF
:10286000AAF1B7C1ABF10101ABBF43EF14F0A8056A
:10287000000EA959000EAA59430EAB59D8A043EF38
:1028800014F045EF14F047EF14F0EBEF0AF0430EAD
:10289000AB19A811A911AA11D8A451EF14F053EF44
:1028A00014F092EF14F0A0C148F0A1C149F0A2C108
:1028B0004AF0A3C14BF0B4C144F0B5C145F0B6C174
:1028C00046F0B7C147F0D7EC40F044C04CF045C0EB
:1028D0004DF046C04EF047C04FF03C0E066EAA0EBB
:1028E000076E380E086E330E096E6CC102F06DC1B2
:1028F00003F06EC104F06FC105F068EC2BF002C06C
:1029000050F003C051F004C052F005C053F046EC43
:1029100039F0D8B08EEF14F090EF14F005EF15F009
:10292000EBEF0AF0FF0EA8150001686FFF0E010122
:10293000A9150001696FFF0E0101AA1500016A6F58
:102940007F0E0101AB1500016B6F6BBFB4EF14F08C
:102950006805000E6959160E6A59430E6B59D8A0C6
:10296000B4EF14F0B6EF14F0C0EF14F0000E606F87
:10297000000E616F000E626F000E636F91EF19F031
:10298000160E0101AA1909E1C30EAB19A811A9116C
:10299000D8A4CDEF14F0CFEF14F005EF15F0A0C1DF
:1029A00048F0A1C149F0A2C14AF0A3C14BF0B4C1A3
:1029B00044F0B5C145F0B6C146F0B7C147F0D7EC19
:1029C00040F044C04CF045C04DF046C04EF047C00A
:1029D0004FF06CC150F06DC151F06EC152F06FC13B
:1029E00053F046EC39F0D8A0F8EF14F0FAEF14F0F9
:1029F00005EF15F0000E0001606F000E616F000E14
:102A0000626F000E636F91EF19F0FF0E0101A815C0
:102A1000286FFF0EA915296FFF0EAA152A6F7F0ECA
:102A2000AB152B6F170E0001686F28C169F029C123
:102A30006AF02AC16BF02BC16CF0686722EF15F0C9
:102A40002AEF15F06C356C336B336A336933682FBA
:102A50001DEF15F0810E000169250101A46FFF0E25
:102A600000016A210101A56FFF0E00016B21010128
:102A7000A66FFF0E00016C210101A76F000E886F89
:102A8000000E896F000E8A6F000E8B6F2BBF55EF03
:102A900015F02805000E2959000E2A593F0E2B5912
:102AA000D8A055EF15F057EF15F053EF16F0A4C16D
:102AB00068F0010E00016827000E696F000E6A6F52
:102AC000800E6B6F000E6C6F686769EF15F071EF29
:102AD00015F06C356C336B336A336933682F64EFF0
:102AE00015F00101A851000169250101886FA95164
:102AF00000016A210101896FAA5100016B210101C6
:102B00008A6FAB5100016C2101018B6F810E0001B6
:102B1000686FFF0E696FFF0E6A6FFF0E6B6F170E07
:102B20006C6F88C16DF089C16EF08AC16FF08BC186
:102B300070F06C679EEF15F0A6EF15F070357033EE
:102B40006F336E336D336C2F99EF15F000016D51BB
:102B500068250101A46F000E000169210101A56F24
:102B6000000E00016A210101A66F000E00016B2119
:102B70000101A76FA4C168F0FF0E0001696FFF0E8D
:102B80006A6F7F0E6B6F000E6C6F6867CAEF15F08F
:102B9000D2EF15F06C356C336B336A336933682FC1
:102BA000C5EF15F00001691D6D6F6A1D6E6F6B1D1D
:102BB0006F6F6C1D706F0101885100016D1501016F
:102BC000B06F895100016E150101B16F8A5100018A
:102BD0006F150101B26F8B51000170150101B36FC8
:102BE000A45117080001686FFF0E0101881500014C
:102BF000696FFF0E0101891500016A6F7F0E0101E7
:102C00008A1500016B6F000E01018B1500016C6FBE
:102C1000000E69116D6F000E6A116E6F800E6B11E0
:102C20006F6F000E6C11706F686719EF16F021EF6F
:102C300016F0703570336F336E336D33682F14EFC9
:102C400016F06DC088F16EC089F16FC08AF170C056
:102C50008BF10101ABBF31EF16F02FEF16F039EF1A
:102C600016F08B1F8A1F891F886D000E89238A2307
:102C70008B23A0C144F0A1C145F0A2C146F0A3C17D
:102C800047F0B0C148F0B1C149F0B2C14AF0B3C198
:102C90004BF0D7EC40F044C0A0F145C0A1F146C0D4
:102CA000A2F147C0A3F1A0C102F0A1C103F0A2C1EB
:102CB00004F0A3C105F06CC106F06DC107F06EC150
:102CC00008F06FC109F068EC2BF002C0B0F103C04E
:102CD000B1F104C0B2F105C0B3F1B0C198F1B1C116
:102CE00099F1B2C19AF1B3C19BF1000E010198159F
:102CF000B06F800E9915B16FFF0E9A15B26FFF0E6F
:102D00009B15B36FB0C112F0B1C113F0B2C114F092
:102D1000B3C115F0000E166E720E176E310E186EDE
:102D20003F0E196EC8EC2DF012C07CF113C07DF17E
:102D300014C07EF115C07FF1A0C148F0A1C149F0D7
:102D4000A2C14AF0A3C14BF0B0C144F0B1C145F0FB
:102D5000B2C146F0B3C147F0D7EC40F044C09CF19B
:102D600045C09DF146C09EF147C09FF1180E166EFA
:102D7000720E176E310E186E3F0E196E9CC148F020
:102D80009DC149F09EC14AF09FC14BF06CC144F017
:102D90006DC145F06EC146F06FC147F0D7EC40F011
:102DA00044C012F045C013F046C014F047C015F0FF
:102DB000C8EC2DF012C014F113C015F114C016F1B7
:102DC00015C017F114C102F015C103F016C104F0CB
:102DD00017C105F08C0E166EBE0E176EBF0E186E64
:102DE000350E196EB0C112F0B1C113F0B2C114F0BA
:102DF000B3C115F0C8EC2DF012C006F013C007F0F7
:102E000014C008F015C009F068EC2BF002C080F186
:102E100003C081F104C082F105C083F17CC102F0DE
:102E20007DC103F07EC104F07FC105F080C106F0D2
:102E300081C107F082C108F083C109F068EC2BF072
:102E400002C0B4F103C0B5F104C0B6F105C0B7F1DA
:102E50007CC148F07DC149F07EC14AF07FC14BF092
:102E6000B4C144F0B5C145F0B6C146F0B7C147F0B2
:102E7000D7EC40F044C09CF145C09DF146C09EF1A6
:102E800047C09FF180C144F081C145F082C146F046
:102E900083C147F09CC148F09DC149F09EC14AF0F2
:102EA0009FC14BF0D7EC40F044C044F145C045F120
:102EB00046C046F147C047F1B4C112F0B5C113F0A6
:102EC000B6C114F0B7C115F0B4C116F0B5C117F012
:102ED000B6C118F0B7C119F0C8EC2DF012C0B0F1AE
:102EE00013C0B1F114C0B2F115C0B3F10E0E066EED
:102EF000EA0E076EDD0E086EB50E096E4C0E166EEC
:102F0000BB0E176E310E186E330E196EB0C112F073
:102F1000B1C113F0B2C114F0B3C115F0C8EC2DF07B
:102F200012C002F013C003F014C004F015C005F085
:102F300068EC2BF002C048F103C049F104C04AF12B
:102F400005C04BF1550E066EB30E076E8A0E086E65
:102F5000380E096EB0C116F0B1C117F0B2C118F049
:102F6000B3C119F048C112F049C113F04AC114F0BD
:102F70004BC115F0C8EC2DF012C002F013C003F0E5
:102F800014C004F015C005F068EC2BF002C058F135
:102F900003C059F104C05AF105C05BF1610E066E21
:102FA0000B0E076E360E086EBB0E096EB0C116F022
:102FB000B1C117F0B2C118F0B3C119F058C112F085
:102FC00059C113F05AC114F05BC115F0C8EC2DF0D3
:102FD00012C002F013C003F014C004F015C005F0D5
:102FE00068EC2BF002C04CF103C04DF104C04EF16F
:102FF00005C04FF1AB0E066EAA0E076E2A0E086EC4
:103000003E0E096EB0C116F0B1C117F0B2C118F092
:10301000B3C119F04CC112F04DC113F04EC114F000
:103020004FC115F0C8EC2DF012C002F013C003F030
:1030300014C004F015C005F068EC2BF002C038F1A4
:1030400003C039F104C03AF105C03BF1B4C144F00A
:10305000B5C145F0B6C146F0B7C147F0B0C116F0F2
:10306000B1C117F0B2C118F0B3C119F038C112F0F4
:1030700039C113F03AC114F03BC115F0C8EC2DF082
:1030800012C048F013C049F014C04AF015C04BF00C
:10309000D7EC40F044C08CF145C08DF146C08EF1B4
:1030A00047C08FF1000E066E000E076E000E086E10
:1030B000C00E096E8CC102F08DC103F08EC104F008
:1030C0008FC105F068EC2BF002C02FF003C030F088
:1030D00004C031F005C032F08CC116F08DC117F07C
:1030E0008EC118F08FC119F0B4C112F0B5C113F040
:1030F000B6C114F0B7C115F0C8EC2DF012C02BF01A
:1031000013C02CF014C02DF015C02EF0CCEC31F013
:103110002BC03CF12CC03DF12DC03EF12EC03FF143
:1031200044C106F045C107F046C108F047C109F0A7
:1031300044C116F045C117F046C118F047C119F057
:10314000B4C112F0B5C113F0B6C114F0B7C115F097
:10315000C8EC2DF012C002F013C003F014C004F04C
:1031600015C005F068EC2BF002C018F103C019F18E
:1031700004C01AF105C01BF13CC144F03DC145F04B
:103180003EC146F03FC147F018C148F019C149F0AF
:103190001AC14AF01BC14BF0D7EC40F044C050F1CB
:1031A00045C051F146C052F147C053F1B4C148F097
:1031B000B5C149F0B6C14AF0B7C14BF050C144F0B7
:1031C00051C145F052C146F053C147F0D7EC40F031
:1031D00044C09CF145C09DF146C09EF147C09FF19F
:1031E000000E446E000E456E800E466E3F0E476E1A
:1031F0009CC148F09DC149F09EC14AF09FC14BF06F
:10320000D7EC40F044C0B4F145C0B5F146C0B6F1CA
:1032100047C0B7F1B4C1A8F1B5C1A9F1B6C1AAF1CF
:10322000B7C1ABF188C168F089C169F08AC16AF0A1
:103230008BC16BF0170ED8900001683769376A3779
:103240006B37E82E1BEF19F068510101A827000128
:1032500069510101A92300016A510101AA2300015A
:103260006B510101AB23170E0001686FA8C169F013
:10327000A9C16AF0AAC16BF0ABC16CF0686743EFFB
:1032800019F04BEF19F06C356C336B336A336933DB
:10329000682F3EEF19F000016CBF5BEF19F06C5125
:1032A0006B116A1106E16905D8B059EF19F05BEFAF
:1032B00019F073EF19F0B4C12BF0B5C12CF0B6C101
:1032C0002DF0B7C12EF088C12FF089C130F099ECF4
:1032D00033F02BC0B4F12CC0B5F12DC0B6F12EC027
:1032E000B7F17BEF19F0A8C1B4F1A9C1B5F1AAC13A
:1032F000B6F1ABC1B7F10101B451B511B611B711B7
:10330000D8B485EF19F087EF19F088EF0AF064510F
:10331000B41B6551B51B6651B61B6751B71B88EFCF
:103320000AF01200140E0201546F020E556F280E9F
:10333000586F020E596F3C0E566F020E576FB2C097
:1033400002F0B3C003F0046A056A000EB0EC36F078
:1033500002C080F203C081F204C082F205C083F291
:10336000B4C002F0B5C003F0046A056A000EB0EC08
:1033700036F002C084F203C085F204C086F205C0B4
:1033800087F2B6C002F0B7C003F0046A056A000E07
:10339000B0EC36F002C088F203C089F204C08AF2B1
:1033A00005C08BF280C24CF081C24DF082C24EF05B
:1033B00083C24FF0000E506E800E516E260E526E7C
:1033C000440E536E46EC39F0D8B0E9EF19F0EBEF4C
:1033D00019F0F6EF19F0000E0201806F000E816FF8
:1033E000000E826F000E836F10EF1AF080C244F05F
:1033F00081C245F082C246F083C247F0000E486E9B
:10340000C00E496E2E0E4A6E440E4B6ED7EC40F045
:1034100044C080F245C081F246C082F247C083F2C8
:1034200084C24CF085C24DF086C24EF087C24FF088
:10343000000E506E000E516EDF0E526E430E536E34
:1034400046EC39F0D8B027EF1AF029EF1AF034EF34
:103450001AF0000E0201846F000E856F000E866F59
:10346000000E876F4EEF1AF084C244F085C245F01B
:1034700086C246F087C247F0000E486E800E496E45
:10348000DD0E4A6E430E4B6ED7EC40F044C084F222
:1034900045C085F246C086F247C087F288C24CF02C
:1034A00089C24DF08AC24EF08BC24FF0000E506EB2
:1034B000800E516E930E526E430E536E46EC39F0F1
:1034C000D8B065EF1AF067EF1AF072EF1AF0000E3D
:1034D0000201886F000E896F000E8A6F000E8B6FDD
:1034E0008CEF1AF088C244F089C245F08AC246F0D7
:1034F0008BC247F0000E486E800E496E9D0E4A6EDC
:10350000430E4B6ED7EC40F044C088F245C089F2C0
:1035100046C08AF247C08BF280C22BF081C22CF0E9
:1035200082C22DF083C22EF0000E2F6EA00E306EE0
:10353000CA0E316E440E326ECCEC31F02BC080F2EC
:103540002CC081F22DC082F22EC083F284C22BF0F7
:1035500085C22CF086C22DF087C22EF0000E2F6E91
:10356000E00E306E940E316E440E326ECCEC31F0C3
:103570002BC084F22CC085F22DC086F22EC087F2BB
:1035800088C22BF089C22CF08AC22DF08BC22EF09B
:10359000000E2F6E400E306E5D0E316E440E326E98
:1035A000CCEC31F02BC088F22CC089F22DC08AF20D
:1035B0002EC08BF284C206F085C207F086C208F0E6
:1035C00087C209F080C202F081C203F082C204F017
:1035D00083C205F068EC2BF002C050F203C051F238
:1035E00004C052F205C053F250C202F051C203F0BF
:1035F00052C204F053C205F088C206F089C207F037
:103600008AC208F08BC209F068EC2BF002C07BF292
:1036100003C07CF204C07DF205C07EF280C22BF0B4
:1036200081C22CF082C22DF083C22EF07BC22FF01B
:103630007CC230F07DC231F07EC232F0CCEC31F091
:103640002BC08CF22CC08DF22DC08EF22EC08FF2CA
:1036500084C22BF085C22CF086C22DF087C22EF0DA
:103660007BC22FF07CC230F07DC231F07EC232F0DE
:10367000CCEC31F02BC090F22CC091F22DC092F224
:103680002EC093F288C22BF089C22CF08AC22DF092
:103690008BC22EF07BC22FF07CC230F07DC231F0A5
:1036A0007EC232F0CCEC31F02BC094F22CC095F2FB
:1036B0002DC096F22EC097F2140E00019E6F020EDE
:1036C0009F6F8E0EA06F8CC2A1F08DC2A2F08EC231
:1036D000A3F08FC2A4F01BEC41F054C203F055C21A
:1036E00004F0AEEC41F0280E00019E6F020E9F6FB9
:1036F000710EA06F90C2A1F091C2A2F092C2A3F08D
:1037000093C2A4F01BEC41F058C203F059C204F07C
:10371000AEEC41F03C0E00019E6F020E9F6F800EDA
:10372000A06F94C2A1F095C2A2F096C2A3F097C276
:10373000A4F01BEC41F056C203F057C204F0AEEC0B
:1037400041F0730E066E680E076E910E086EBD0E88
:10375000096E90C202F091C203F092C204F093C2CB
:1037600005F068EC2BF002C098F203C099F204C097
:103770009AF205C09BF2640E066E3B0E076E3F0E7A
:10378000086EBF0E096E8CC202F08DC203F08EC2AD
:1037900004F08FC205F068EC2BF002C09CF203C06D
:1037A0009DF204C09EF205C09FF2000E0001646FFE
:1037B000000E656F000E666F400E676F98C260F076
:1037C00099C261F09AC262F09BC263F052EC07F0BA
:1037D00060C0A0F261C0A1F262C0A2F263C0A3F215
:1037E000000E0001646F000E656F000E666F400EE4
:1037F000676F9CC260F09DC261F09EC262F09FC282
:1038000063F052EC07F060C0A4F261C0A5F262C0A0
:10381000A6F263C0A7F2350E066E5E0E076E3A0E74
:10382000086EBE0E096E94C202F095C203F096C2F5
:1038300004F097C205F068EC2BF002C0A8F203C0B8
:10384000A9F204C0AAF205C0ABF2A0C206F0A1C260
:1038500007F0A2C208F0A3C209F0A4C202F0A5C2F8
:1038600003F0A6C204F0A7C205F068EC2BF002C07A
:10387000ACF203C0ADF204C0AEF205C0AFF2000E70
:103880000001646F000E656F000E666F400E676F7B
:10389000A8C260F0A9C261F0AAC262F0ABC263F034
:1038A00052EC07F060C0B0F261C0B1F262C0B2F297
:1038B00063C0B3F2ACC202F0ADC203F0AEC204F01A
:1038C000AFC205F0B0C206F0B1C207F0B2C208F054
:1038D000B3C209F068EC2BF002C012F003C013F081
:1038E00004C014F005C015F0DDEC2FF012C05AF240
:1038F00013C05BF214C05CF215C05DF2350E066EAB
:103900005E0E076EFA0E086EBE0E096E90C202F0D1
:1039100091C203F092C204F093C205F068EC2BF060
:1039200002C098F203C099F204C09AF205C09BF25B
:103930002B0E066E870E076E160E086EBE0E096EF3
:103940008CC202F08DC203F08EC204F08FC205F06B
:1039500068EC2BF002C09CF203C09DF204C09EF202
:1039600005C09FF2000E0001646F000E656F000E2F
:10397000666F400E676F98C260F099C261F09AC29C
:1039800062F09BC263F052EC07F060C0A0F261C02D
:10399000A1F262C0A2F263C0A3F2000E0001646F44
:1039A000000E656F000E666F400E676F9CC260F080
:1039B0009DC261F09EC262F09FC263F052EC07F0BC
:1039C00060C0A4F261C0A5F262C0A6F263C0A7F213
:1039D000230E066EDB0E076EB90E086EBE0E096E64
:1039E00094C202F095C203F096C204F097C205F0AB
:1039F00068EC2BF002C0A8F203C0A9F204C0AAF23E
:103A000005C0ABF2A0C206F0A1C207F0A2C208F046
:103A1000A3C209F0A4C202F0A5C203F0A6C204F03A
:103A2000A7C205F068EC2BF002C0ACF203C0ADF207
:103A300004C0AEF205C0AFF2000E0001646F000ECC
:103A4000656F000E666F400E676FA8C260F0A9C276
:103A500061F0AAC262F0ABC263F052EC07F060C042
:103A6000B0F261C0B1F262C0B2F263C0B3F2ACC2F4
:103A700002F0ADC203F0AEC204F0AFC205F0B0C2B6
:103A800006F0B1C207F0B2C208F0B3C209F068ECA8
:103A90002BF002C012F003C013F004C014F005C0F4
:103AA00015F0DDEC2FF012C05EF213C05FF214C00F
:103AB00060F215C061F2500E066E8D0E076ED70EC5
:103AC000086EBE0E096E90C202F091C203F092C25F
:103AD00004F093C205F068EC2BF002C098F203C02A
:103AE00099F204C09AF205C09BF2AE0E066E470E24
:103AF000076EE10E086EBD0E096E8CC202F08DC21B
:103B000003F08EC204F08FC205F068EC2BF002C007
:103B10009CF203C09DF204C09EF205C09FF2000E0D
:103B20000001646F000E656F000E666F400E676FD8
:103B300098C260F099C261F09AC262F09BC263F0D1
:103B400052EC07F060C0A0F261C0A1F262C0A2F224
:103B500063C0A3F2000E0001646F000E656F000EDB
:103B6000666F400E676F9CC260F09DC261F09EC29E
:103B700062F09FC263F052EC07F060C0A4F261C033
:103B8000A5F262C0A6F263C0A7F2C50E066E200EB3
:103B9000076EF00E086EBE0E096E94C202F095C25A
:103BA00003F096C204F097C205F068EC2BF002C057
:103BB000A8F203C0A9F204C0AAF205C0ABF2A0C2E9
:103BC00006F0A1C207F0A2C208F0A3C209F0A4C285
:103BD00002F0A5C203F0A6C204F0A7C205F068EC8B
:103BE0002BF002C0ACF203C0ADF204C0AEF205C0CF
:103BF000AFF2000E0001646F000E656F000E666F7D
:103C0000400E676FA8C260F0A9C261F0AAC262F05C
:103C1000ABC263F052EC07F060C0B0F261C0B1F229
:103C200062C0B2F263C0B3F2ACC202F0ADC203F044
:103C3000AEC204F0AFC205F0B0C206F0B1C207F0E8
:103C4000B2C208F0B3C209F068EC2BF002C012F067
:103C500003C013F004C014F005C015F0DDEC2FF024
:103C600012C062F213C063F214C064F215C065F2B0
:103C7000660E066E660E076EA60E086EBE0E096E06
:103C800090C202F091C203F092C204F093C205F018
:103C900068EC2BF002C098F203C099F204C09AF2CB
:103CA00005C09BF2750E066E930E076ED80E086E59
:103CB000BE0E096E8CC202F08DC203F08EC204F0FB
:103CC0008FC205F068EC2BF002C09CF203C09DF29D
:103CD00004C09EF205C09FF2000E0001646F000E4A
:103CE000656F000E666F400E676F98C260F099C2F4
:103CF00061F09AC262F09BC263F052EC07F060C0C0
:103D0000A0F261C0A1F262C0A2F263C0A3F2000EF1
:103D10000001646F000E656F000E666F400E676FE6
:103D20009CC260F09DC261F09EC262F09FC263F0CF
:103D300052EC07F060C0A4F261C0A5F262C0A6F226
:103D400063C0A7F2250E066E060E076E810E086E82
:103D5000BE0E096E94C202F095C203F096C204F042
:103D600097C205F068EC2BF002C0A8F203C0A9F2DC
:103D700004C0AAF205C0ABF2A0C206F0A1C207F0CF
:103D8000A2C208F0A3C209F0A4C202F0A5C203F0C7
:103D9000A6C204F0A7C205F068EC2BF002C0ACF29A
:103DA00003C0ADF204C0AEF205C0AFF2000E0001D8
:103DB000646F000E656F000E666F400E676FA8C2DD
:103DC00060F0A9C261F0AAC262F0ABC263F052EC2B
:103DD00007F060C0B0F261C0B1F262C0B2F263C07D
:103DE000B3F2ACC202F0ADC203F0AEC204F0AFC297
:103DF00005F0B0C206F0B1C207F0B2C208F0B3C21B
:103E000009F068EC2BF002C012F003C013F004C0FC
:103E100014F005C015F0DDEC2FF012C066F213C0EF
:103E200067F214C068F215C069F2F00E066EA70EB4
:103E3000076E860E086EBE0E096E90C202F091C229
:103E400003F092C204F093C205F068EC2BF002C0BC
:103E500098F203C099F204C09AF205C09BF2080ED2
:103E6000066EAC0E076EDC0E086EBE0E096E8CC2BE
:103E700002F08DC203F08EC204F08FC205F068EC30
:103E80002BF002C09CF203C09DF204C09EF205C05C
:103E90009FF2000E0001646F000E656F000E666FEA
:103EA000400E676F98C260F099C261F09AC262F0EA
:103EB0009BC263F052EC07F060C0A0F261C0A1F2B7
:103EC00062C0A2F263C0A3F2000E0001646F000E94
:103ED000656F000E666F400E676F9CC260F09DC2FA
:103EE00061F09EC262F09FC263F052EC07F060C0C6
:103EF000A4F261C0A5F262C0A6F263C0A7F2080EE8
:103F0000066EAC0E076E9C0E086EBE0E096E94C255
:103F100002F095C203F096C204F097C205F068EC77
:103F20002BF002C0A8F203C0A9F204C0AAF205C097
:103F3000ABF2A0C206F0A1C207F0A2C208F0A3C271
:103F400009F0A4C202F0A5C203F0A6C204F0A7C201
:103F500005F068EC2BF002C0ACF203C0ADF204C077
:103F6000AEF205C0AFF2000E0001646F000E656F87
:103F7000000E666F400E676FA8C260F0A9C261F0C4
:103F8000AAC262F0ABC263F052EC07F060C0B0F2BC
:103F900061C0B1F262C0B2F263C0B3F2ACC202F06F
:103FA000ADC203F0AEC204F0AFC205F0B0C206F07D
:103FB000B1C207F0B2C208F0B3C209F068EC2BF04E
:103FC00002C012F003C013F004C014F005C015F0D5
:103FD000DDEC2FF012C06AF213C06BF214C06CF269
:103FE00015C06DF2BA0E066E490E076E0C0E086E05
:103FF000BE0E096E90C202F091C203F092C204F0AC
:1040000093C205F068EC2BF002C098F203C099F25D
:1040100004C09AF205C09BF2E70E066EFB0E076E17
:10402000290E086EBF0E096E8CC202F08DC203F01D
:104030008EC204F08FC205F068EC2BF002C09CF237
:1040400003C09DF204C09EF205C09FF2000E000165
:10405000646F000E656F000E666F400E676F98C24A
:1040600060F099C261F09AC262F09BC263F052ECB8
:1040700007F060C0A0F261C0A1F262C0A2F263C00A
:10408000A3F2000E0001646F000E656F000E666FF4
:10409000400E676F9CC260F09DC261F09EC262F0EC
:1040A0009FC263F052EC07F060C0A4F261C0A5F2B9
:1040B00062C0A6F263C0A7F2830E066EC00E076E42
:1040C0004A0E086EBE0E096E94C202F095C203F04D
:1040D00096C204F097C205F068EC2BF002C0A8F27B
:1040E00003C0A9F204C0AAF205C0ABF2A0C206F058
:1040F000A1C207F0A2C208F0A3C209F0A4C202F054
:10410000A5C203F0A6C204F0A7C205F068EC2BF02C
:1041100002C0ACF203C0ADF204C0AEF205C0AFF213
:10412000000E0001646F000E656F000E666F400E9A
:10413000676FA8C260F0A9C261F0AAC262F0ABC208
:1041400063F052EC07F060C0B0F261C0B1F262C03F
:10415000B2F263C0B3F2ACC202F0ADC203F0AEC2C1
:1041600004F0AFC205F0B0C206F0B1C207F0B2C2AF
:1041700008F0B3C209F068EC2BF002C012F003C0E3
:1041800013F004C014F005C015F0DDEC2FF012C0E0
:104190006EF213C06FF214C070F215C071F25A0EB5
:1041A000066E640E076EBB0E086EBE0E096E90C2E0
:1041B00002F091C203F092C204F093C205F068ECE1
:1041C0002BF002C098F203C099F204C09AF205C025
:1041D0009BF2830E066EC00E076E8A0E086EBE0E30
:1041E000096E8CC202F08DC203F08EC204F08FC241
:1041F00005F068EC2BF002C09CF203C09DF204C0F5
:104200009EF205C09FF2000E0001646F000E656F04
:10421000000E666F400E676F98C260F099C261F041
:104220009AC262F09BC263F052EC07F060C0A0F249
:1042300061C0A1F262C0A2F263C0A3F2000E00014D
:10424000646F000E656F000E666F400E676F9CC254
:1042500060F09DC261F09EC262F09FC263F052ECBA
:1042600007F060C0A4F261C0A5F262C0A6F263C00C
:10427000A7F2230E066EDB0E076EB90E086EBE0E99
:10428000096E94C202F095C203F096C204F097C280
:1042900005F068EC2BF002C0A8F203C0A9F204C03C
:1042A000AAF205C0ABF2A0C206F0A1C207F0A2C2FA
:1042B00008F0A3C209F0A4C202F0A5C203F0A6C28E
:1042C00004F0A7C205F068EC2BF002C0ACF203C00A
:1042D000ADF204C0AEF205C0AFF2000E0001646F93
:1042E000000E656F000E666F400E676FA8C260F02B
:1042F000A9C261F0AAC262F0ABC263F052EC07F04F
:1043000060C0B0F261C0B1F262C0B2F263C0B3F299
:10431000ACC202F0ADC203F0AEC204F0AFC205F011
:10432000B0C206F0B1C207F0B2C208F0B3C209F0E1
:1043300068EC2BF002C012F003C013F004C014F0BC
:1043400005C015F0DDEC2FF012C072F213C073F24D
:1043500014C074F215C075F21F0E066E850E076E3E
:10436000AB0E086EBE0E096E90C202F091C203F051
:1043700092C204F093C205F068EC2BF002C098F2F0
:1043800003C099F204C09AF205C09BF2B00E066E0B
:10439000720E076EA80E086EBE0E096E8CC202F079
:1043A0008DC203F08EC204F08FC205F068EC2BF0D2
:1043B00002C09CF203C09DF204C09EF205C09FF2B1
:1043C000000E0001646F000E656F000E666F400EF8
:1043D000676F98C260F099C261F09AC262F09BC2A6
:1043E00063F052EC07F060C0A0F261C0A1F262C0BD
:1043F000A2F263C0A3F2000E0001646F000E656FAD
:10440000000E666F400E676F9CC260F09DC261F047
:104410009EC262F09FC263F052EC07F060C0A4F24B
:1044200061C0A5F262C0A6F263C0A7F21F0E066EBD
:10443000850E076EAB0E086EBE0E096E94C202F0BA
:1044400095C203F096C204F097C205F068EC2BF019
:1044500002C0A8F203C0A9F204C0AAF205C0ABF2E0
:10446000A0C206F0A1C207F0A2C208F0A3C209F0E0
:10447000A4C202F0A5C203F0A6C204F0A7C205F0D0
:1044800068EC2BF002C0ACF203C0ADF204C0AEF297
:1044900005C0AFF2000E0001646F000E656F000EE4
:1044A000666F400E676FA8C260F0A9C261F0AAC231
:1044B00062F0ABC263F052EC07F060C0B0F261C0D2
:1044C000B1F262C0B2F263C0B3F2ACC202F0ADC2EC
:1044D00003F0AEC204F0AFC205F0B0C206F0B1C244
:1044E00007F0B2C208F0B3C209F068EC2BF002C0CA
:1044F00012F003C013F004C014F005C015F0DDEC99
:104500002FF012C076F213C077F214C078F215C003
:1045100079F2000E02017A6F000E7F6F070E7F6541
:1045200094EF22F096EF22F098EF22F0C7EF22F0FE
:104530007F51040D5A0EF324D96E020EF420DA6E68
:10454000DECF4CF0DECF4DF0DECF4EF0DECF4FF0C1
:104550007A51040D5A0EF324D96E020EF420DA6E4D
:10456000DECF50F0DECF51F0DECF52F0DECF53F091
:1045700046EC39F0D8B0BFEF22F0C1EF22F0C3EF24
:1045800022F07FC27AF202017F2B8EEF22F0FF0E23
:10459000046E010E02EC42F0FF0E046E030E02ECFC
:1045A00042F002017A511200000E0001876F61C0D3
:1045B00088F062C089F063C08AF064C08BF08BBF62
:1045C000E6EF22F0E4EF22F0FAEF22F0010E876F1F
:1045D00088C002F089C003F08AC004F08BC005F0E7
:1045E0007AEC41F002C088F003C089F004C08AF080
:1045F00005C08BF0000E00018D6F000E8C6FDAC0CD
:1046000077F0DBC078F08751D8B409EF23F00BEFD7
:1046100023F01FEF23F08751D8A411EF23F013EFFD
:1046200023F019EF23F0000E6D6F2B0E6C6F1DEF52
:1046300023F0000E6D6F2D0E6C6F6CC087F088C07C
:1046400002F089C003F08AC004F08BC005F049EC89
:104650003AF002040310D8A430EF23F032EF23F035
:1046600061EF23F000018751D8B439EF23F03BEF1D
:1046700023F044EF23F087C000F47707D8A0780731
:10468000000E8D6F010E8C6F000E8C25026E040ED5
:104690008D21036E9B0E046E5BEC41F00001FD0E5C
:1046A0007727FF0E782360C010F0000E116E040E05
:1046B000126E77C013F078C014F036EC3FF0C7EFFD
:1046C00027F088C002F089C003F08AC004F08BC0D4
:1046D00005F049EC3AF002500310D8A472EF23F031
:1046E00074EF23F092EF23F000018751D8B47BEFF1
:1046F00023F07DEF23F086EF23F087C000F47707E7
:10470000D8A07807000E8D6F010E8C6F000E8C25DF
:10471000026E040E8D21036E9F0E046E5BEC41F061
:104720004EEF23F0000E00018E6F000E8F6F800E93
:10473000906F3F0E916F000E766F000E756F88C000
:1047400002F089C003F08AC004F08BC005F0000EAF
:10475000066E000E076E000E086E000E096ECEEC9F
:104760003DF0D8B0B6EF23F0B8EF23F097EF24F088
:10477000C5EF23F079C08EF07AC08FF07BC090F047
:104780007CC091F00001754B762B8EC012F08FC06B
:1047900013F090C014F091C015F0000E166E000ECC
:1047A000176E200E186E410E196EC8EC2DF012C057
:1047B00079F013C07AF014C07BF015C07CF00001D2
:1047C0007951885D026E7A518959036E7B518A59FD
:1047D000046E7C518B59056E9CEC3FF005BEFCEFDE
:1047E00023F005500410031009E1020E025CD8A06A
:1047F000FCEF23F0FEEF23F0BAEF23F079C04CF08A
:104800007AC04DF07BC04EF07CC04FF088C050F0B5
:1048100089C051F08AC052F08BC053F046EC39F099
:10482000D8A015EF24F017EF24F0BAEF23F0000121
:104830008E51885D026E8F518959036E90518A594D
:10484000046E91518B59056E9CEC3FF005BE36EF1E
:1048500024F005500410031007E1020E025CD8B0EA
:1048600034EF24F036EF24F07EEF24F08EC088F091
:104870008FC089F090C08AF091C08BF097EF24F040
:104880008EC02BF08FC02CF090C02DF091C02EF078
:10489000000E2F6E000E306E200E316E410E326E05
:1048A000CCEC31F02BC08EF02CC08FF02DC090F0EE
:1048B0002EC091F000017507D8A076078E51885D53
:1048C000026E8F518959036E90518A59046E91512D
:1048D0008B59056E9CEC3FF005BE7CEF24F0055033
:1048E0000410031007E1020E025CD8B07AEF24F046
:1048F0007CEF24F07EEF24F036EF24F088C04CF0FB
:1049000089C04DF08AC04EF08BC04FF08EC050F081
:104910008FC051F090C052F091C053F046EC39F086
:10492000D8A095EF24F097EF24F040EF24F065C075
:104930006FF06FC070F00001DDBFA1EF24F0A3EFB6
:1049400024F0A9EF24F0DCC068F0DDC069F0ADEF21
:1049500024F0000E696F060E686F68C073F069C0BE
:1049600074F0734B742B660E7019D8A4BAEF24F050
:10497000BCEF24F0DCEF24F076BFC3EF24F0C1EFEE
:1049800024F0CFEF24F0000E8E6F000E8F6F800E9C
:10499000906F3F0E916F000E766F000E756F670E71
:1049A0006F19D8B4D6EF24F0D8EF24F0DCEF24F060
:1049B0007551732776517423000E7E6F000E7D6F44
:1049C00088C07FF089C080F08AC081F08BC082F0FF
:1049D0008EC079F08FC07AF090C07BF091C07CF0EF
:1049E0006DEF25F07FC02BF080C02CF081C02DF042
:1049F00082C02EF08EC02FF08FC030F090C031F00A
:104A000091C032F0CCEC31F02BC044F02CC045F01A
:104A10002DC046F02EC047F0B3EC34F044C083F014
:104A200045C084F046C085F047C086F083C002F0E0
:104A300084C003F085C004F086C005F0C3EC38F0F4
:104A400002C071F003C072F07FC044F080C045F036
:104A500081C046F082C047F083C016F084C017F0D2
:104A600085C018F086C019F08EC012F08FC013F008
:104A700090C014F091C015F0C8EC2DF012C048F0B1
:104A800013C049F014C04AF015C04BF0D7EC40F009
:104A900044C07FF045C080F046C081F047C082F03E
:104AA0008EC02BF08FC02CF090C02DF091C02EF056
:104AB000000E2F6E000E306E200E316E410E326EE3
:104AC000CCEC31F02BC08EF02CC08FF02DC090F0CC
:104AD0002EC091F000017D4B7E2B73517D5D7E5188
:104AE000800A586E7451800A5858D8A07AEF25F081
:104AF0007CEF25F0F2EF24F08EC012F08FC013F09F
:104B000090C014F091C015F0000E166E000E176ED6
:104B1000A00E186E400E196EC8EC2DF012C083F076
:104B200013C084F014C085F015C086F07FC04CF02F
:104B300080C04DF081C04EF082C04FF083C050F075
:104B400084C051F085C052F086C053F046EC39F075
:104B5000D8B0ADEF25F0AFEF25F0BAEF25F0000E9D
:104B60000001836F000E846F000E856F000E866F4C
:104B7000E3EF25F07FC002F080C003F081C004F0B5
:104B800082C005F083C006F084C007F085C008F03D
:104B900086C009F0CEEC3DF0D8A0D1EF25F0D3EFE0
:104BA00025F0E3EF25F0000171B1D9EF25F0DBEF3F
:104BB00025F0E3EF25F0000E836F000E846F000EEA
:104BC000856F000E866F88C002F089C003F08AC02E
:104BD00004F08BC005F083C006F084C007F085C0E8
:104BE00008F086C009F068EC2BF002C07FF003C02B
:104BF00080F004C081F005C082F07FC04CF080C01E
:104C00004DF081C04EF082C04FF0000E166E000EC7
:104C1000176E200E186E410E196E79C012F07AC010
:104C200013F07BC014F07CC015F0C8EC2DF012C05E
:104C300050F013C051F014C052F015C053F046ECC0
:104C400039F0D8A026EF26F028EF26F051EF26F015
:104C50000001754B762B79C012F07AC013F07BC03F
:104C600014F07CC015F0000E166E000E176E200EAC
:104C7000186E410E196EC8EC2DF012C079F013C0F9
:104C80007AF014C07BF015C07CF0660E000170193C
:104C9000D8A44DEF26F04FEF26F051EF26F0734BDE
:104CA000742B79C08EF07AC08FF07BC090F07CC0FE
:104CB00091F075C066F076C067F0000E00016E6F6F
:104CC000000E6B6F000E6A6F000E7E6F000E7D6F20
:104CD0004FEF27F07FC02BF080C02CF081C02DF06B
:104CE00082C02EF08EC02FF08FC030F090C031F017
:104CF00091C032F0CCEC31F02BC044F02CC045F028
:104D00002DC046F02EC047F0B3EC34F044C083F021
:104D100045C084F046C085F047C086F083C002F0ED
:104D200084C003F085C004F086C005F0C3EC38F001
:104D300003BEA6EF26F0035007E10A0E025CD8B0CE
:104D4000A4EF26F0A6EF26F0B6EF26F083C002F01F
:104D500084C003F085C004F086C005F0C3EC38F0D1
:104D600002C071F003C072F0BBEF26F0000E00012C
:104D7000726F090E716F00016E51D8A4C2EF26F058
:104D8000C4EF26F0ECEF26F067BFCBEF26F0C9EFBB
:104D900026F0ECEF26F0000E8C25D96E040E8D2146
:104DA000DA6E2E0EDF6E8C4B8D2B7707D8A078072E
:104DB000010E6E6FECEF26F0000E8C25D96E040EFE
:104DC0008D21DA6E300EDF6E8C4B8D2B7707D8A0DD
:104DD00078076A07D8A06B076A516B11D8A4F3EF64
:104DE00026F0F5EF26F0DCEF26F0000E8C25D96ECC
:104DF000040E8D21DA6E7151300FDF6E8C4B8D2BCE
:104E00007707D8A078077FC044F080C045F081C004
:104E100046F082C047F083C016F084C017F085C00A
:104E200018F086C019F08EC012F08FC013F090C039
:104E300014F091C015F0C8EC2DF012C048F013C06A
:104E400049F014C04AF015C04BF0D7EC40F044C014
:104E50007FF045C080F046C081F047C082F08EC030
:104E60002BF08FC02CF090C02DF091C02EF0000ED2
:104E70002F6E000E306E200E316E410E326ECCEC75
:104E800031F02BC08EF02CC08FF02DC090F02EC0D2
:104E900091F000016607D8A067077D4B7E2B735108
:104EA0007D5D7E51800A586E7451800A5858D8B082
:104EB0005CEF27F05EEF27F06CEF27F08DBF6AEF15
:104EC00027F08D5109E14B0E8C5DD8A06AEF27F0D9
:104ED0006CEF27F06AEF26F0000E7E6F4F0E7D6FAD
:104EE000000E7D25D96E040E7E21DA6EDF6A000E7B
:104EF000586E040E596E8C51585E8D51595A7D5121
:104F00005824026E7E515920036E000E046E040E6A
:104F1000056E8CC006F08DC007F0C7EC3FF00001B5
:104F20008C517D5D8C6F8D517E598D6F8751D8A4CA
:104F30009CEF27F09FEF27F0010EA0EF27F0000E67
:104F40007D6F7E6B8751D8B4A8EF27F0AAEF27F0CA
:104F5000B5EF27F08C07D8A08D07000E8C25D96EF1
:104F6000040E8D21DA6E87C0DFFF7D51775F7E51A1
:104F7000785B60C010F0000E8C25116E040E8D2140
:104F8000126E77C013F078C014F036EC3FF01200C8
:104F900012EC42F040EC42F06BEC42F0C6EC41F017
:104FA0008FEC40F0000E036E630E026E23EC3EF0B9
:104FB00022EC42F069EC3FF08086889686840E01F0
:104FC000B495000E0301B46F010EB56F010EB66FFC
:104FD000AA0EB96F0F0EBA6FA60EBB6F0F0EBC6F85
:104FE000000EB86F630EB76F000EBD6F010EBE6F7F
:104FF000010EBF6F250EC26F0F0EC36F210EC46F5F
:105000000F0EC56F000EC16F630EC06FB40EC66F7A
:10501000030EC76FBD0EC86F030EC96F000EB06FD1
:10502000000EAB6F000EAA6FA30E0001B96F570EF2
:10503000B86F020EE82EFED7B82FFCD7B92FFAD7DB
:1050400000003FEC40F006C0AEF307C0AFF30A0E1D
:105050000301AE25A06F000EAF21A16F0301B05177
:10506000D8A435EF28F037EF28F046EF28F071ECA0
:1050700042F0C6C315F0C7C316F0C8C317F0C9C3C2
:1050800018F013EC3DF0010E0301B06F3FEC40F05F
:1050900006C0AEF307C0AFF30301AE51A05DAF5140
:1050A000A159D8B056EF28F058EF28F02EEF28F08D
:1050B00031EC42F002C0A8F303C0A9F3C6C315F057
:1050C000C7C316F0C8C317F0C9C318F074EC3EF09C
:1050D000150E0001B96F4B0EB86FBE0EE82EFED74D
:1050E000B82FFCD7B92FFAD700003FEC40F006C02C
:1050F000AEF307C0AFF30301AF5107E1500EAE5D51
:10510000D8B085EF28F087EF28F0A0EF28F0C6C3CD
:1051100019F0C7C31AF0C8C31BF0C9C31CF09EEC3A
:105120003CF0090E0001B96F1E0EB86FE40EE82EB8
:10513000FED7B82FFCD7B92FFAD7000075EF28F0AB
:10514000000EB06FD890AA35D96EAB35DA6E780EF6
:10515000D926030EDA22A8C3DEFFA9C3DDFFD50ED0
:10516000046E010E02EC42F0AB0E046E030E02EC74
:1051700042F0110E0001B96F3C0EB86FCB0EE82E55
:10518000FED7B82FFCD7B92FFAD7EFEC3FF006C007
:10519000A2F307C0A3F317EC40F006C0A4F307C0C6
:1051A000A5F367EC40F006C0A6F307C0A7F3A2C3BF
:1051B000B2F0A3C3B3F0A4C3B4F0A5C3B5F0A6C3C3
:1051C000B6F0A7C3B7F092EC19F00001B86FB85170
:1051D0000301B26FB36BD890AA35D96EAB35DA6ED6
:1051E000500ED926030EDA22B2C3DEFFB3C3DDFFB1
:1051F000AA4BAB2BB251B311D8A401EF29F003EFA6
:1052000029F019EF29F0C6C319F0C7C31AF0C8C3B3
:105210001BF0C9C31CF040EC38F0C6C319F0C7C37B
:105220001AF0C8C31BF0C9C31CF0B4EC3BF020EF6C
:105230002AF0B205B311D8A420EF29F022EF29F00B
:1052400038EF29F0C6C319F0C7C31AF0C8C31BF062
:10525000C9C31CF040EC38F0C6C319F0C7C31AF03C
:10526000C8C31BF0C9C31CF029EC3CF020EF2AF0A6
:10527000020EB219B311D8A440EF29F042EF29F081
:1052800062EF29F0C6C319F0C7C31AF0C8C31BF0F8
:10529000C9C31CF040EC38F0C6C319F0C7C31AF0FC
:1052A000C8C31BF0C9C31CF0B4EC3BF0C6C319F073
:1052B000C7C31AF0C8C31BF0C9C31CF0B4EC3BF061
:1052C00020EF2AF0030EB219B311D8A46AEF29F027
:1052D0006CEF29F08CEF29F0C6C319F0C7C31AF0A0
:1052E000C8C31BF0C9C31CF040EC38F0C6C319F0AA
:1052F000C7C31AF0C8C31BF0C9C31CF0C8EC39F00F
:10530000C6C319F0C7C31AF0C8C31BF0C9C31CF049
:10531000B4EC3BF020EF2AF0040EB219B311D8A47C
:1053200094EF29F096EF29F0B6EF29F0C6C319F0F3
:10533000C7C31AF0C8C31BF0C9C31CF040EC38F057
:10534000C6C319F0C7C31AF0C8C31BF0C9C31CF009
:10535000C8EC39F0C6C319F0C7C31AF0C8C31BF0B4
:10536000C9C31CF029EC3CF020EF2AF0050EB2195D
:10537000B311D8A4BEEF29F0C0EF29F0D6EF29F081
:10538000C6C319F0C7C31AF0C8C31BF0C9C31CF0C9
:1053900040EC38F0C6C319F0C7C31AF0C8C31BF0FD
:1053A000C9C31CF03EEC3BF020EF2AF0060EB21908
:1053B000B311D8A4DEEF29F0E0EF29F0F6EF29F0E1
:1053C000C6C319F0C7C31AF0C8C31BF0C9C31CF089
:1053D00040EC38F0C6C319F0C7C31AF0C8C31BF0BD
:1053E000C9C31CF0C8EC3AF020EF2AF0070EB2193E
:1053F000B311D8A4FEEF29F000EF2AF020EF2AF035
:10540000C6C319F0C7C31AF0C8C31BF0C9C31CF048
:1054100040EC38F0C6C319F0C7C31AF0C8C31BF07C
:10542000C9C31CF0B4EC3BF0C6C319F0C7C31AF0F3
:10543000C8C31BF0C9C31CF0B4EC3BF02BEF2AF03F
:10544000680E0001B86FE40EE82EFED7B82FFCD727
:1054500000002EEF28F0FE0E0301AA25AC6FFF0E10
:10546000AB21AD6F000EB06F000EB16F130EB165C2
:105470003CEF2AF03EEF2AF040EF2AF054EF2BF0F9
:10548000B151020D780EF324D96E030EF420DA6EBA
:10549000960EDE5E000EDD5A070EB16552EF2AF061
:1054A00054EF2AF060EF2AF0B151020D780EF32488
:1054B000D96E030EF420DA6E2C0EDE5E010EDD5A7C
:1054C000B12B130EB16567EF2AF069EF2AF040EFB8
:1054D0002AF054EF2BF0B051D8A471EF2AF073EFFB
:1054E0002AF082EF2AF071EC42F0C6C315F0C7C370
:1054F00016F0C8C317F0C9C318F013EC3DF0010E45
:105500000301B06F31EC42F002C0A8F303C0A9F36D
:10551000ACC3B8F0ADC3B9F0D8900001B837B93713
:10552000020EB827000EB923780EB825D96E030EE7
:10553000B921DA6E0301A851DE5CA951DE58D8B05A
:10554000A4EF2AF0A6EF2AF04BEF2BF0C6C315F01C
:10555000C7C316F0C8C317F0C9C318F074EC3EF007
:10556000000E0301B06FD890AC35D96EAD35DA6E50
:10557000500ED926030EDA22DF50C1EC3EF00001B6
:10558000B86FB8510301B26FB36BB251B311D8A465
:10559000CCEF2AF0CEEF2AF0DAEF2AF0C6C319F0EA
:1055A000C7C31AF0C8C31BF0C9C31CF0B4EC3BF06E
:1055B00047EF2BF0B205B311D8A4E1EF2AF0E3EFE7
:1055C0002AF0EFEF2AF0C6C319F0C7C31AF0C8C318
:1055D0001BF0C9C31CF029EC3CF047EF2BF0020E86
:1055E000B219B311D8A4F7EF2AF0F9EF2AF00FEFB0
:1055F0002BF0C6C319F0C7C31AF0C8C31BF0C9C348
:105600001CF0B4EC3BF0C6C319F0C7C31AF0C8C312
:105610001BF0C9C31CF0B4EC3BF047EF2BF0050EB8
:10562000B219B311D8A417EF2BF019EF2BF025EF17
:105630002BF0C6C319F0C7C31AF0C8C31BF0C9C307
:105640001CF0C8EC3AF047EF2BF0060EB219B3117C
:10565000D8A42DEF2BF02FEF2BF03BEF2BF0C6C390
:1056600019F0C7C31AF0C8C31BF0C9C31CF03EEC45
:105670003BF047EF2BF0080EB219B311D8A443EF5B
:105680002BF045EF2BF047EF2BF047EF2BF003010A
:10569000AC07D8A0AD07D00E0001B86FC90EE82E38
:1056A000FED7B82FFCD700D00301ADBF5CEF2BF0C5
:1056B0005AEF2BF06BEF2AF0C6C315F0C7C316F0F4
:1056C000C8C317F0C9C318F074EC3EF012EF00F035
:1056D0000550800B0E6E05500524106E04AE73EF5E
:1056E0002BF075EF2BF076EF2BF010801050D8B424
:1056F0007CEF2BF07EEF2BF093EF2BF01028D8A44B
:1057000084EF2BF086EF2BF08EEF2BF0000E026E65
:10571000000E036E000E046E000E056E048E000E69
:10572000056E9BEF2BF0000E026E000E036E000E56
:10573000046E000E056E0950800B0F6E0E500F1890
:10574000D8B4A5EF2BF0A7EF2BF0A8EF2BF00E8C21
:10575000095009240F6E08AEB0EF2BF0B2EF2BF01A
:10576000B3EF2BF00F800F50D8B4B9EF2BF0BBEF95
:105770002BF0D0EF2BF00F28D8A4C1EF2BF0C3EF04
:105780002BF0CBEF2BF0000E066E000E076E000E16
:10579000086E000E096E088E000E096ED8EF2BF011
:1057A000000E066E000E076E000E086E000E096EEB
:1057B00010500F5CD8B0DFEF2BF0E1EF2BF008EFCB
:1057C0002CF00EACE6EF2BF0E8EF2BF0EAEF2BF02D
:1057D000800E0E1A10C011F00FC010F011C00FF0A3
:1057E00002C011F006C002F011C006F003C011F0B3
:1057F00007C003F011C007F004C011F008C004F0A6
:1058000011C008F005C011F009C005F011C009F081
:10581000000E116E10500FC00AF00B6A0A5E000EE7
:105820000B5A0BBE1DEF2CF00B5009E11A0E0A5C4F
:10583000D8A01DEF2CF01FEF2CF056EF2CF00250EB
:10584000031004100510D8A428EF2CF02BEF2CF037
:10585000010E2CEF2CF0000E116E000E026E000EE9
:10586000036E000E046E000E056E0FC010F05FEFA9
:105870002CF011A03EEF2CF040EF2CF046EF2CF076
:10588000D89011300109116E48EF2CF0D8901132E8
:1058900002A04DEF2CF04FEF2CF050EF2CF0118EBA
:1058A00005340532043203320232102A0F50105CE4
:1058B000D8A05DEF2CF05FEF2CF039EF2CF00EBC90
:1058C00064EF2CF066EF2CF0A6EF2CF01050D8A46B
:1058D0006CEF2CF06EEF2CF078EF2CF0000E026ED7
:1058E000000E036E000E046E000E056EC7EF2DF065
:1058F00006500226075003220850042209500522B0
:1059000005A085EF2CF087EF2CF033EF2DF011A0E0
:105910008CEF2CF08EEF2CF094EF2CF0D89011300F
:105920000109116E96EF2CF0D890113202A09BEF76
:105930002CF09DEF2CF09EEF2CF0118E05340532EB
:10594000043203320232102A33EF2DF00650025C8B
:1059500007500358085004580550800A0A6E095031
:10596000800A0A58D8B0B7EF2CF0B9EF2CF0E4EF6A
:105970002CF00250065C0A6E035007580B6E045060
:1059800008580C6E055009580D6EFF0E0A24026E61
:10599000FF0E0B20036EFF0E0C20046EFF0E0D2079
:1059A000056E800E0E1A116C1150D8A4DAEF2CF08F
:1059B000DCEF2CF0ECEF2CF0010E0226000E03229F
:1059C00004220522ECEF2CF00650025E0750035A29
:1059D0000850045A0950055A0250031004100510CB
:1059E000D8A4F5EF2CF0F7EF2CF02CEF2DF01150A0
:1059F000D8A4FDEF2CF0FFEF2CF02CEF2DF0000ED3
:105A0000026E000E036E000E046E000E056EC7EFF0
:105A10002DF0D890023603360436053611AE13EF5A
:105A20002DF015EF2DF016EF2DF0028011A01BEFD9
:105A30002DF01DEF2DF021EF2DF0D880113623EF42
:105A40002DF0D89011361050D8B429EF2DF02BEF4F
:105A50002DF02CEF2DF0100604AE31EF2DF033EFCA
:105A60002DF009EF2DF0000E0F6E11AE3AEF2DF074
:105A70003CEF2DF054EF2DF011C00AF07F0E0A1606
:105A8000D8B445EF2DF047EF2DF04BEF2DF0010E80
:105A90000F6E54EF2DF002A050EF2DF052EF2DF0CD
:105AA00054EF2DF047EF2DF00F50D8B45AEF2DF0F2
:105AB0005CEF2DF087EF2DF0010E0226000E032281
:105AC0000422052205A067EF2DF069EF2DF087EF86
:105AD0002DF002C00AF003C00BF004C00CF005C0AA
:105AE0000DF00D340D320C320B320A320AC002F0C6
:105AF0000BC003F00CC004F00DC005F01028D8B4A2
:105B000084EF2DF086EF2DF087EF2DF0102A10286E
:105B1000D8B48DEF2DF08FEF2DF097EF2DF01050C2
:105B2000D8A495EF2DF097EF2DF0A9EF2DF0000EF2
:105B3000026E000E036E000E046E000E056E105015
:105B4000D8A4A5EF2DF0A7EF2DF0A9EF2DF0000EB2
:105B50000E6E10A0AEEF2DF0B0EF2DF0B3EF2DF0E4
:105B6000048EB4EF2DF0049ED8901030056E0EAE6A
:105B7000BCEF2DF0BEEF2DF0BFEF2DF0058E02C073
:105B800002F003C003F004C004F005C005F01200E9
:105B90001550800B1E6E15501524246E14AED3EFD5
:105BA0002DF0D5EF2DF0D6EF2DF024802450D8B471
:105BB000DCEF2DF0DEEF2DF0F1EF2DF02428D8A44E
:105BC000E4EF2DF0E6EF2DF0EEEF2DF0000E126E6B
:105BD000000E136E000E146E000E156E148EF9EF8B
:105BE0002DF0000E126E000E136E000E146E000EDD
:105BF000156E1950800B1E1A195019241F6E18AEFD
:105C000004EF2EF006EF2EF007EF2EF01F801F504E
:105C1000D8B40DEF2EF00FEF2EF022EF2EF01F284C
:105C2000D8A415EF2EF017EF2EF01FEF2EF0000E78
:105C3000166E000E176E000E186E000E196E188E7E
:105C40002AEF2EF0000E166E000E176E000E186E64
:105C5000000E196E1F50D8B430EF2EF032EF2EF038
:105C60003AEF2EF02450D8A438EF2EF03AEF2EF071
:105C700044EF2EF0000E126E000E136E000E146E26
:105C8000000E156EDCEF2FF018501202F3CF29F042
:105C9000F4CF2AF02950206E216A226A236A2A5002
:105CA000256E266A276A286A17501302F3CF29F057
:105CB000F4CF2AF029502026000E2122222223226E
:105CC0002A502526000E26222722282216501402AA
:105CD000F3CF29F0F4CF2AF029502026000E2122FC
:105CE000222223222A502526000E2622272228227D
:105CF00022C023F021C022F020C021F0206A1650DB
:105D00001302F3CF29F0F4CF2AF0295020262A508D
:105D10002122000E2222000E232217501202F3CF5E
:105D200029F0F4CF2AF0295020262A502122000EF3
:105D30002222000E232222C023F021C022F020C004
:105D400021F0206A16501202F3CF29F0F4CF2AF086
:105D5000295020262A502122000E2222000E232222
:105D600018501302F3CF29F0F4CF2AF0295025263A
:105D70002A502622000E2722000E28221750140235
:105D8000F3CF29F0F4CF2AF0295025262A502622D5
:105D9000000E2722000E282218501402F3CF29F0FB
:105DA000F4CF2AF029501A6E2A501B6E1C6A1D6A05
:105DB0001CC01DF01BC01CF01AC01BF01A6A1A5040
:105DC00025261B5026221C5027221D50282220C089
:105DD0001AF021C01BF022C01CF023C01DF0190EC8
:105DE000F7EF2EF0D8901D321C321B321A32E82EFB
:105DF000F2EF2EF01A5025261B5026221C50272287
:105E00001D50282222C023F021C022F020C021F002
:105E1000206A1F5024C01AF01B6A1A26000E1B228B
:105E2000820E1A24296EFF0E1B202A6E2DEF2FF0F2
:105E3000D890253626362736283623AE22EF2FF087
:105E400024EF2FF025EF2FF02580D8902036213633
:105E5000223623362906D8A02A0627AE32EF2FF0A5
:105E600034EF2FF018EF2FF0000E1F6E23AE3BEF34
:105E70002FF03DEF2FF061EF2FF0FF0E20141A6E80
:105E8000FF0E21141B6EFF0E22141C6E7F0E2314B6
:105E90001D6E1A501B101C101D10D8B452EF2FF09D
:105EA00054EF2FF058EF2FF0010E1F6E61EF2FF01F
:105EB00025A05DEF2FF05FEF2FF061EF2FF054EF93
:105EC0002FF01F50D8B467EF2FF069EF2FF08DEF50
:105ED0002FF0010E2526000E26222722282228A098
:105EE00074EF2FF076EF2FF08DEF2FF025C01AF022
:105EF00026C01BF027C01CF028C01DF01D341D3229
:105F00001C321B321A321AC025F01BC026F01CC0EE
:105F100027F01DC028F0294A2A2A2ABE98EF2FF020
:105F20002A5008E12928D8A098EF2FF09AEF2FF0F7
:105F3000A4EF2FF0000E256E000E266E800E276E49
:105F40007F0E286ED2EF2FF02ABEB1EF2FF02A502D
:105F500006E12904D8B0AFEF2FF0B1EF2FF0BDEF7D
:105F60002FF0000E256E000E266E000E276E000E1E
:105F7000286E000E1E6ED2EF2FF029C024F0FF0E07
:105F80002516FF0E26167F0E2716000E281624A0B3
:105F9000CCEF2FF0CEEF2FF0CFEF2FF0278ED89051
:105FA0002430286E1E50281225C012F026C013F08F
:105FB00027C014F028C015F0120012C033F013C02F
:105FC00034F014C035F015C036F0000E3314166EE0
:105FD000000E3414176E800E3514186E7F0E3614B2
:105FE000196E800E181809E17F0E19181610171077
:105FF000D8A4FDEF2FF0FFEF2FF02FEF30F0FF0EC2
:106000003314166EFF0E3414176E7F0E3514186E8F
:10601000000E3614196E1650171018101910D8A447
:1060200014EF30F016EF30F01DEF30F036BE1DEFFC
:1060300030F01BEF30F025EF30F0FF0E3312FF0E83
:1060400034127F0E3512000E361233C012F034C0F7
:1060500013F035C014F036C015F0CBEF31F036BE7A
:106060003EEF30F036503510341006E13304D8B02E
:106070003CEF30F03EEF30F075EF30F0FF0E3314B0
:10608000166EFF0E3414176EFF0E3514186E7F0E49
:106090003614196E1650171018101910D8A453EF93
:1060A00030F055EF30F05FEF30F0000E126E000E62
:1060B000136E000E146E000E156ECBEF31F036BE6F
:1060C00066EF30F064EF30F075EF30F0000E000155
:1060D000D96F210ED86FFF0E336EFF0E346EFF0E98
:1060E000356E7F0E366E25EF30F0170E166E33C00C
:1060F00017F034C018F035C019F036C01AF0166623
:1061000084EF30F08CEF30F01A341A321932183232
:106110001732162E7FEF30F017C02BF018C02CF07E
:1061200019C02DF01AC02EF02B502C102D102E104F
:10613000D8A49DEF30F09FEF30F0CFEF30F0000E9D
:106140001F6E000E206E000E216E000E226EB4EF48
:1061500030F0D8903336343635363636010E1F26B9
:10616000000E20222122222235AEB9EF30F0BBEF03
:1061700030F0A9EF30F0FF0E1F24166EFF0E202026
:10618000176EFF0E2120186EFF0E2220196E16507A
:106190002B5E17502C5A18502D5A19502E5A810E1A
:1061A0002B26FF0E2C22FF0E2D22FF0E2E22FF0E7D
:1061B0003314166EFF0E3414176E7F0E3514186EDE
:1061C000000E3614196E000E1610336E000E1710E6
:1061D000346E800E1810356E000E1910366E2BA01E
:1061E000F4EF30F0F6EF30F0FEEF30F033503326BE
:1061F0003450342235503522365036222E342E3249
:106200002D322C322B323350332634503422355039
:10621000352236503622000E1B6E000E1C6E000E0C
:106220001D6E000E1E6E1BC023F01CC024F01DC08E
:1062300025F01EC026F0000E2F6E000E306E000EF0
:10624000316E010E326E6DEF31F01B502F24276E30
:106250001C503020286E1D503120296E1E503220D7
:106260002A6E2750335C2850345829503558365000
:10627000800A166E2A50800A1658D8A042EF31F0D4
:1062800044EF31F060EF31F027502F241B6E28507F
:1062900030201C6E295031201D6E2A5032201E6E77
:1062A0002750335E2850345A2950355A2A50365ACE
:1062B0002F502326305024223150252232502622BE
:1062C000335033263450342235503522365036225E
:1062D000D8903232313230322F322F5030103110CC
:1062E0003210D8A476EF31F078EF31F025EF31F0AD
:1062F0003350341035103610D8B481EF31F083EFBD
:1063000031F097EF31F0010E2314166E000E2414B5
:10631000176E000E2514186E000E2614196E1650F6
:10632000232617502422185025221950262223C034
:1063300016F024C017F025C018F026C019F0193443
:106340001932183217321632000E1624336E000E30
:106350001720346E000E1820356E3F0E1920366E51
:106360002BC016F02CC017F02DC018F02EC019F05D
:10637000170ED8901636173618361936E82EB9EF9C
:1063800031F0165033261750342218503522195048
:10639000362225EF30F012002E50800B3B6E2E502F
:1063A0002E24426E2DAED7EF31F0D9EF31F0DAEF77
:1063B00031F042804250D8B4E0EF31F0E2EF31F0FA
:1063C000F7EF31F04228D8A4E8EF31F0EAEF31F0EE
:1063D000F2EF31F0000E2B6E000E2C6E000E2D6EC3
:1063E000000E2E6E2D8E000E2E6EFFEF31F0000E81
:1063F0002B6E000E2C6E000E2D6E000E2E6E325087
:10640000800B3B1A32503224436E31AE0AEF32F029
:106410000CEF32F00DEF32F043804350D8B413EF5D
:1064200032F015EF32F02AEF32F04328D8A41BEFF8
:1064300032F01DEF32F025EF32F0000E2F6E000E1D
:10644000306E000E316E000E326E318E000E326EE6
:1064500032EF32F0000E2F6E000E306E000E316EF5
:10646000000E326E2F50301031103210D8A43BEF96
:1064700032F03DEF32F055EF32F0000E2B6E000E91
:106480002C6E000E2D6E000E2E6E800E2D127F0EC5
:106490002E123B502E122BC02BF02CC02CF02DC0F6
:1064A0002DF02EC02EF098EF33F04250D8A45BEFC1
:1064B00032F05DEF32F067EF32F0000E2B6E000E1F
:1064C0002C6E000E2D6E000E2E6E98EF33F04350A2
:1064D00042C033F0346A335E000E345A7F0E3324E8
:1064E0003C6E000E34203D6E2BC037F02CC038F0CF
:1064F0002DC039F02EC03AF0000E2B6E000E2C6E1F
:10650000000E2D6E000E2E6E000E3E6E000E3F6EC3
:10651000000E406E000E416E000E436EC8EF32F06A
:106520004350D8B496EF32F098EF32F0AFEF32F03C
:10653000D8903736383639363A36D8902B362C360E
:106540002D362E3641AEA7EF32F0A9EF32F0AAEF8A
:1065500032F02B80D8903E363F36403641362F50B1
:10656000375C305038583150395832503A58D8A0EA
:10657000BCEF32F0BEEF32F0C7EF32F0418C2F505B
:10658000375E3050385A3150395A32503A5A432ACD
:10659000190E4364CEEF32F0D0EF32F090EF32F0CC
:1065A0003750381039103A10D8B4D9EF32F0DBEF49
:1065B00032F0F3EF32F03E80F3EF32F0D8902B362A
:1065C0002C362D362E3641AEE8EF32F0EAEF32F0BF
:1065D000EBEF32F02B80D8903E363F3640364136D6
:1065E0003C06D8A03D062DAEF8EF32F0FAEF32F0BF
:1065F000DEEF32F0000E436E41AE01EF33F003EFF9
:1066000033F027EF33F0FF0E3E14336EFF0E3F14CE
:10661000346EFF0E4014356E7F0E4114366E3350CB
:10662000341035103610D8B418EF33F01AEF33F0B9
:106630001EEF33F0010E436E27EF33F02BA023EF54
:1066400033F025EF33F027EF33F01AEF33F04350F8
:10665000D8B42DEF33F02FEF33F053EF33F0010EBA
:106660002B26000E2C222D222E222EA03AEF33F0C4
:106670003CEF33F053EF33F02BC033F02CC034F049
:106680002DC035F02EC036F0363436323532343245
:10669000333233C02BF034C02CF035C02DF036C06F
:1066A0002EF03C4A3D2A3DBE5EEF33F03D5008E1FE
:1066B0003C28D8A05EEF33F060EF33F06BEF33F09F
:1066C000000E3D6E3C68000E2B6E000E2C6E000E10
:1066D0002D6E000E2E6E3DBE78EF33F03D5006E17C
:1066E0003C04D8B076EF33F078EF33F086EF33F038
:1066F000000E3D6E000E3C6E000E2B6E000E2C6EDA
:10670000000E2D6E000E2E6E000E3B6E3CC042F051
:1067100042A08DEF33F08FEF33F092EF33F02D8EF8
:1067200093EF33F02D9ED89042302E6E49EF32F029
:1067300012002BC039F02CC03AF02DC03BF02EC017
:106740003CF030BEADEF33F0305009E1800E2F5CED
:10675000D8A0ADEF33F0AFEF33F00DEF34F039C028
:1067600012F03AC013F03BC014F03CC015F0000E1C
:10677000166E000E176E000E186E7F0E196EC8ECA6
:106780002DF012C039F013C03AF014C03BF015C020
:106790003CF0810E2F26FF0E302230BED9EF33F0B1
:1067A000305009E1800E2F5CD8A0D9EF33F0DBEF39
:1067B00033F077EF34F039C012F03AC013F03BC039
:1067C00014F03CC015F0000E166E000E176E000E91
:1067D000186E7F0E196EC8EC2DF012C039F013C080
:1067E0003AF014C03BF015C03CF0810E2F26FF0E8E
:1067F000302230BE05EF34F0305009E1800E2F5CBE
:10680000D8A005EF34F007EF34F077EF34F0000E46
:10681000306E7F0E2F6E77EF34F030AE19EF34F01C
:10682000820E2F5CFF0E3058D8B019EF34F01BEFFA
:1068300034F077EF34F039C012F03AC013F03BC0B7
:1068400014F03CC015F0000E166E000E176E800E90
:10685000186E0C0E196EC8EC2DF012C039F013C072
:106860003AF014C03BF015C03CF0660E2F26000E27
:10687000302230AE45EF34F0820E2F5CFF0E3058E0
:10688000D8B045EF34F047EF34F077EF34F039C04B
:1068900012F03AC013F03BC014F03CC015F0000EEB
:1068A000166E000E176E800E186E0C0E196EC8EC68
:1068B0002DF012C039F013C03AF014C03BF015C0EF
