:0400000012EF00F00B
:100008005D828AA00AEF00F00CEF00F010EF00F01C
:100018008096610E2FEC3BF05D92110032EF3AF0C2
:100E00000000000000DCCFD1350000000000C0155C
:100E10003F0000803F0000C03F70A5EC363BAAB801
:100E20003F4F38763F3CAA38338CBEBF3500723115
:100E30003F1872313F4CBB31330EEADDB555B38AF2
:100E400038610B36BBABAA2A3E42F1533E55326C99
:100E50003E05A38B3EABAAAA3EB76DDB3E9A99191D
:100E60003F0000804B00AAB83FC623F6B80040768A
:100E70003F616374696F6E203D202564200D0A0078
:010E80000071
:100E820060C068F161C069F162C06AF163C06BF170
:100E920064C084F165C085F166C086F167C087F1E0
:100EA200FF0E01016815AC6FFF0E6915AD6FFF0EE5
:100EB2006A15AE6F7F0E6B15AF6FFF0E8415946FC0
:100EC200FF0E8515956FFF0E8615966F7F0E87159F
:100ED200976F9451951196119711D8A473EF07F05B
:100EE20075EF07F080EF07F0000E0001606F000E53
:100EF200616F800E626F3F0E636F80EF19F0800E9C
:100F02006A1909E13F0E6B1968116911D8A48CEFB7
:100F120007F08EEF07F099EF07F0000E0001606F07
:100F2200000E616F800E626F3F0E636F80EF19F0EB
:100F3200AFBFAAEF07F0AC05000EAD59800EAE5957
:100F42007F0EAF59D8B0A8EF07F0AAEF07F0BBEFBA
:100F520007F097BFB9EF07F09405000E9559800E80
:100F620096597F0E9759D8A0B9EF07F0BBEF07F05B
:100F7200D7EF07F060C002F061C003F062C004F076
:100F820063C005F064C006F065C007F066C008F0F3
:100F920067C009F089EC26F002C060F003C061F07E
:100FA20004C062F005C063F080EF19F0000E546FC8
:100FB200000E556F000E566F000E576F6BBFE6EFB7
:100FC20007F0E4EF07F0B2EF08F097BFF2EF07F097
:100FD200800E965D4B0E9759D8A0F2EF07F0F4EF12
:100FE20007F0FEEF07F0020E546F000E556F000E71
:100FF200566F000E576FB2EF08F097BF0AEF08F076
:10100200800E965D3F0E9759D8A00AEF08F00CEFBC
:1010120008F0B2EF08F0170E0001686F94C169F092
:1010220095C16AF096C16BF097C16CF068671CEFCE
:1010320008F024EF08F06C356C336B336A33693394
:10104200682F17EF08F0810E000169250101A46FD6
:10105200FF0E00016A210101A56FFF0E00016B2145
:101062000101A66FFF0E00016C210101A76FA451BF
:1010720017080001686F94C169F095C16AF096C1C2
:101082006BF097C16CF0686749EF08F051EF08F018
:101092006C356C336B336A336933682F44EF08F075
:1010A20069C0A8F16AC0A9F16BC0AAF16CC0ABF12A
:1010B2000101A45117080001686FA8C169F0A9C114
:1010C2006AF0AAC16BF0ABC16CF0682B6EEF08F04E
:1010D200D89069376A376B376C37682F69EF08F039
:1010E200010194510001691913E1010195510001B7
:1010F2006A190EE10101965100016B1909E1010122
:10110200975100016C19D8A489EF08F08BEF08F011
:10111200B2EF08F0010E0101A8150001686F000E80
:101122000101A9150001696F000E0101AA15000154
:101132006A6F000E0101AB1500016B6F6851020866
:101142000101546F000E000169550101556F000E37
:1011520000016A550101566F000E00016B55010135
:10116200576F800E0101961909E17F0E97199411AC
:101172009511D8A4BFEF08F0C1EF08F02DEF09F0E8
:10118200800EAE1909E13F0EAF19AC11AD11D8A412
:10119200CDEF08F0CFEF08F0DAEF08F0000E000113
:1011A200606F000E616F800E626F3F0E636F80EFA3
:1011B20019F0AFBFE9EF08F0AC05000EAD59800E93
:1011C200AE593F0EAF59D8A0E9EF08F0EBEF08F0A7
:1011D20007EF09F087BFF2EF08F0F0EF08F0FDEF3C
:1011E20008F0000E0001606F000E616F000E626F6A
:1011F200000E636F80EF19F064C060F065C061F0AB
:1012020066C062F067C063F080EF19F087BF0EEF2F
:1012120009F00CEF09F022EF09F064C002F065C09A
:1012220003F066C004F067C005F04EEC3AF002C06D
:1012320060F003C061F004C062F005C063F080EFAB
:1012420019F0000E0001606F000E616F000E626FF8
:10125200000E636F80EF19F0800E961909E13F0EC0
:10126200971994119511D8A439EF09F03BEF09F0C1
:1012720068EF09F087BF42EF09F040EF09F05EEF37
:1012820009F0000E2B6E000E2C6E800E2D6E3F0E9E
:101292002E6E60C02FF061C030F062C031F063C0CA
:1012A20032F0EDEC2CF02BC060F02CC061F02DC0C0
:1012B20062F02EC063F080EF19F060C060F061C090
:1012C20061F062C062F063C063F080EF19F0400E1B
:1012D2008719841185118611D8A472EF09F074EF71
:1012E20009F090EF09F060C012F061C013F062C023
:1012F20014F063C015F060C016F061C017F062C050
:1013020018F063C019F0E9EC28F012C060F013C0C5
:1013120061F014C062F015C063F080EF19F03F0E67
:101322008719841185118611D8A49AEF09F09CEFD0
:1013320009F0B7EF09F06BBFA1EF09F0A3EF09F0D5
:10134200B7EF09F060C012F061C013F062C014F090
:1013520063C015F0FEEC2AF012C060F013C061F019
:1013620014C062F015C063F080EF19F0ACC178F1DF
:10137200ADC179F1AEC17AF1AFC17BF1800EAE1988
:101382000BE17F0EAF19AC11AD11D8B4CBEF09F060
:10139200CDEF09F0E6EF09F0AC51AD11AE11AF118E
:1013A200D8B4D6EF09F0D8EF09F0E6EF09F0800ED5
:1013B200AE1909E13F0EAF19AC11AD11D8A4E4EF9B
:1013C20009F0E6EF09F081EF0AF078C1B4F179C1D2
:1013D200B5F17AC1B6F17BC1B7F187BFF5EF09F07C
:1013E200F3EF09F00FEF0AF0000E2B6E000E2C6ED9
:1013F200800E2D6E3F0E2E6EB4C12FF0B5C130F0AF
:10140200B6C131F0B7C132F0EDEC2CF02BC0B4F123
:101412002CC0B5F12DC0B6F12EC0B7F101016BBFE2
:1014220017EF0AF015EF0AF077EF0AF0000EAC257D
:101432000001686F000E0101AD210001696F800E8D
:101442000101AE2100016A6FC00E0101AF2100014E
:101452006B6F01015451000168116C6F010155510C
:10146200000169116D6F0101565100016A116E6F21
:101472000101575100016B116F6F6C516D116E11AB
:101482006F11D8A447EF0AF049EF0AF059EF0AF0BA
:10149200000E0001EB6F210EEA6FFF0E0101B46F27
:1014A200FF0EB56FFF0EB66F7F0EB76F77EF0AF0C4
:1014B20001015405551156115711D8A463EF0AF0D2
:1014C20065EF0AF077EF0AF0B4C102F0B5C103F09C
:1014D200B6C104F0B7C105F04EEC3AF002C0B4F167
:1014E20003C0B5F104C0B6F105C0B7F1B4C160F0F4
:1014F200B5C161F0B6C162F0B7C163F080EF19F017
:10150200000E646F000E656F000E666F000E676F4F
:101512006BBF90EF0AF08EEF0AF0B0EF0AF0545171
:10152200551156115711D8A499EF0AF09BEF0AF002
:101532009DEF0AF049EF0AF0540555115611571163
:10154200D8A4A6EF0AF0A8EF0AF0B0EF0AF0000E56
:10155200646F000E656F000E666F800E676F97BF37
:10156200BFEF0AF09405000E9559000E96594D0EE4
:101572009759D8A0BFEF0AF0C1EF0AF085EF0CF03F
:10158200AFBFD3EF0AF0F80EAC5DFF0EAD597F0E80
:10159200AE593F0EAF59D8B0D1EF0AF0D3EF0AF0EF
:1015A200F4EF0AF087BFDAEF0AF0D8EF0AF0E9EFBA
:1015B2000AF0000E01016411B46F000E6511B56FDF
:1015C200800E6611B66F7F0E6711B76F77EF0AF064
:1015D200000E0001606F000E616F000E626F000E60
:1015E200636F80EF19F0AFBF04EF0BF0080EAC5D34
:1015F200000EAD59800EAE593F0EAF59D8A004EF80
:101602000BF006EF0BF022EF0BF087BF13EF0BF09E
:1016120087518611851108E18405D8A013EF0BF0DC
:1016220015EF0BF017EF0BF0DAEF0AF0000E0001E6
:10163200606F000E616F000E626F000E636F80EFCD
:1016420019F078C102F079C103F07AC104F07BC1CC
:1016520005F0000E066E000E076E800E086EBF0EBD
:10166200096E89EC26F002C0B0F103C0B1F104C0EA
:10167200B2F105C0B3F1000E166E000E176E800EA9
:10168200186E3E0E196EB0C112F0B1C113F0B2C1A4
:1016920014F0B3C115F0E9EC28F012C048F013C001
:1016A20049F014C04AF015C04BF0AB0E446EAA0EBE
:1016B200456EAA0E466E3E0E476EAFEC39F044C040
:1016C20048F145C049F146C04AF147C04BF1B0C1AB
:1016D20016F0B1C117F0B2C118F0B3C119F0B0C120
:1016E20012F0B1C113F0B2C114F0B3C115F0E9ECBC
:1016F20028F012C05CF113C05DF114C05EF115C098
:101702005FF1B0C116F0B1C117F0B2C118F0B3C1A8
:1017120019F048C112F049C113F04AC114F04BC18B
:1017220015F0E9EC28F012C048F013C049F014C0DB
:101732004AF015C04BF0000E446E000E456E000ECE
:10174200466E3F0E476EAFEC39F044C04CF145C0D7
:101752004DF146C04EF147C04FF15CC112F05DC180
:1017620013F05EC114F05FC115F04CC116F04DC10B
:1017720017F04EC118F04FC119F0E9EC28F012C071
:1017820044F113C045F114C046F115C047F1B0C190
:1017920012F0B1C113F0B2C114F0B3C115F0000ED2
:1017A200166EAA0E176EB80E186E3F0E196EE9EC81
:1017B20028F012C07CF113C07DF114C07EF115C077
:1017C2007FF1700E166EA50E176EEC0E186E360EA9
:1017D200196EB0C112F0B1C113F0B2C114F0B3C1AD
:1017E20015F0E9EC28F012C044F013C045F014C023
:1017F20046F015C047F03B0E166EAA0E176EB80ED5
:10180200186E3F0E196E44C112F045C113F046C165
:1018120014F047C115F0E9EC28F012C048F013C0EB
:1018220049F014C04AF015C04BF0AFEC39F044C097
:1018320080F145C081F146C082F147C083F17CC18D
:1018420002F07DC103F07EC104F07FC105F080C1CA
:1018520006F081C107F082C108F083C109F089EC6A
:1018620026F002C08CF103C08DF104C08EF105C0D8
:101872008FF18CC198F18DC199F18EC19AF18FC10E
:101882009BF1000E010198158C6FF00E99158D6F6A
:10189200FF0E9A158E6FFF0E9B158F6F7CC148F05D
:1018A2007DC149F07EC14AF07FC14BF08CC144F04A
:1018B2008DC145F08EC146F08FC147F0AFEC39F0D3
:1018C20044C09CF145C09DF146C09EF147C09FF1C6
:1018D20080C144F081C145F082C146F083C147F026
:1018E2009CC148F09DC149F09EC14AF09FC14BF096
:1018F200AFEC39F044C01CF145C01DF146C01EF1E9
:1019020047C01FF179EF13F0000E886F000E896F48
:10191200000E8A6F000E8B6FAFBF9BEF0CF0AF51C2
:1019220007E1800EAE5DD8B099EF0CF09BEF0CF0A2
:10193200C6EF0CF078C112F079C113F07AC114F03D
:101942007BC115F0000E166E000E176E800E186E1B
:101952004B0E196EE9EC28F012C078F113C079F140
:1019620014C07AF115C07BF1E80E01018827FF0E41
:101972008923FF0E8A23FF0E8B2378C1ACF179C134
:10198200ADF17AC1AEF17BC1AFF1170E0001686F04
:10199200ACC169F0ADC16AF0AEC16BF0AFC16CF021
:1019A2006867D6EF0CF0DEEF0CF06C356C336B33FE
:1019B2006A336933682FD1EF0CF0810E000169257B
:1019C2006D6FFF0E6A216E6FFF0E6B216F6FFF0E40
:1019D2006C21706F6D510101882700016E51010168
:1019E200892300016F5101018A2300017051010115
:1019F2008B23FF0EAC15A86FFF0EAD15A96F7F0EDE
:101A0200AE15AA6F000EAF15AB6F000EA46F000EDD
:101A1200A56F000EA66F000EA76F000EA811AC6F87
:101A2200000EA911AD6F800EAA11AE6F3F0EAB1161
:101A3200AF6FABBF2CEF0DF0AB510BE1720EA85D97
:101A4200C40EA9591C0EAA59D8B02AEF0DF02CEFDA
:101A52000DF02EEF0DF058EF0DF0ABBF40EF0DF093
:101A6200AB510BE1D70EA85DB30EA9595D0EAA5971
:101A7200D8B03EEF0DF040EF0DF04AEF0DF0010E41
:101A8200A46F000EA56F000EA66F000EA76F58EF91
:101A92000DF0010E8827000E89238A238B23000E66
:101AA200AC27000EAD23800EAE23FF0EAF23ACC1D8
:101AB20078F1ADC179F1AEC17AF1AFC17BF178C1F4
:101AC20044F079C145F07AC146F07BC147F0A45198
:101AD200040DF350110F0001686F68C0F6FF0E0E7F
:101AE200F76E000EF86E0900F5CF48F00900F5CF49
:101AF20049F00900F5CF4AF00A00F5CF4BF0AFEC00
:101B020039F044C07CF145C07DF146C07EF147C04A
:101B12007FF1000E2B6E000E2C6E800E2D6E3F0E8E
:101B22002E6E78C106F079C107F07AC108F07BC148
:101B320009F00101A451040DF350110F0001686F67
:101B420068C0F6FF0E0EF76E000EF86E0900F5CFB4
:101B520002F00900F5CF03F00900F5CF04F00A0006
:101B6200F5CF05F089EC26F002C02FF003C030F06B
:101B720004C031F005C032F0EDEC2CF02BC080F146
:101B82002CC081F12DC082F12EC083F17CC112F0F4
:101B92007DC113F07EC114F07FC115F080C116F033
:101BA20081C117F082C118F083C119F0E9EC28F065
:101BB20012C058F113C059F114C05AF115C05BF1AB
:101BC20058C174F159C175F15AC176F15BC177F10F
:101BD20074C198F175C199F176C19AF177C19BF1FF
:101BE200000E01019815746FF00E9915756FFF0EB6
:101BF2009A15766FFF0E9B15776FACC168F0ADC179
:101C020069F0AEC16AF0AFC16BF000016B356B33A6
:101C12006A3369336833000E68156C6FF00E69150C
:101C22006D6FFF0E6A156E6FFF0E6B156F6F000EF4
:101C32006C110101986F000E00016D110101996F85
:101C4200000E00016E1101019A6F200E00016F114A
:101C520001019B6FA4C168F0A5C169F0A6C16AF039
:101C6200A7C16BF0150ED8900001683769376A3743
:101C72006B37E82E34EF0EF0010198510001682510
:101C82006C6F01019951000169216D6F01019A5137
:101C920000016A216E6F01019B5100016B216F6F80
:101CA200000E6C250101706F000E00016D21010113
:101CB200716F400E00016E210101726F000E000172
:101CC2006F210101736FA451040DF350110F000134
:101CD200686F68C0F6FF0E0EF76E000EF86E090010
:101CE200F5CF48F00900F5CF49F00900F5CF4AF0E9
:101CF2000A00F5CF4BF070C144F071C145F072C1DA
:101D020046F073C147F0AFEC39F044C09CF145C0D6
:101D12009DF146C09EF147C09FF178C144F079C160
:101D220045F07AC146F07BC147F09CC148F09DC1A5
:101D320049F09EC14AF09FC14BF0AFEC39F044C06C
:101D420034F145C035F146C036F147C037F170C1B4
:101D520016F071C117F072C118F073C119F074C195
:101D620012F075C113F076C114F077C115F0E9ECE9
:101D720028F012C048F013C049F014C04AF015C050
:101D82004BF07CC144F07DC145F07EC146F07FC17D
:101D920047F0AFEC39F044C09CF145C09DF146C01C
:101DA2009EF147C09FF134C116F035C117F036C11C
:101DB20018F037C119F074C112F075C113F076C171
:101DC20014F077C115F0E9EC28F012C048F013C006
:101DD20049F014C04AF015C04BF09CC144F09DC1BB
:101DE20045F09EC146F09FC147F0AFEC39F044C0C8
:101DF2005CF145C05DF146C05EF147C05FF15CC178
:101E020012F05DC113F05EC114F05FC115F080C124
:101E120016F081C117F082C118F083C119F0E9EC04
:101E220028F012C030F113C031F114C032F115C0E4
:101E320033F158C112F059C113F05AC114F05BC109
:101E420015F058C116F059C117F05AC118F05BC10C
:101E520019F0E9EC28F012C090F113C091F114C00E
:101E620092F115C093F1550E066E320E076E6C0E8E
:101E7200086E3E0E096E420E166EF10E176E530E6E
:101E8200186E3E0E196E90C112F091C113F092C1FC
:101E920014F093C115F0E9EC28F012C002F013C05F
:101EA20003F014C004F015C005F089EC26F002C05E
:101EB20048F103C049F104C04AF105C04BF1050ED7
:101EC200066EA30E076E8B0E086E3E0E096E90C153
:101ED20016F091C117F092C118F093C119F048C1E0
:101EE20012F049C113F04AC114F04BC115F0E9ECEC
:101EF20028F012C002F013C003F014C004F015C0A1
:101F020005F089EC26F002C05CF103C05DF104C06B
:101F12005EF105C05FF1AB0E066EAA0E076EAA0E49
:101F2200086E3E0E096E90C116F091C117F092C173
:101F320018F093C119F05CC112F05DC113F05EC1DB
:101F420014F05FC115F0E9EC28F012C002F013C0E2
:101F520003F014C004F015C005F089EC26F002C0AD
:101F62004CF103C04DF104C04EF105C04FF1B70E64
:101F7200066E6D0E076EDB0E086E3E0E096E90C188
:101F820016F091C117F092C118F093C119F04CC12B
:101F920012F04DC113F04EC114F04FC115F0E9EC2F
:101FA20028F012C002F013C003F014C004F015C0F0
:101FB20005F089EC26F002C038F103C039F104C003
:101FC2003AF105C03BF19A0E066E990E076E190E94
:101FD200086E3F0E096E90C116F091C117F092C1C2
:101FE20018F093C119F038C112F039C113F03AC197
:101FF20014F03BC115F0E9EC28F012C002F013C056
:1020020003F014C004F015C005F089EC26F002C0FC
:1020120000F103C001F104C002F105C003F190C157
:1020220016F091C117F092C118F093C119F090C146
:1020320012F091C113F092C114F093C115F0E9ECC2
:1020420028F012C004F113C005F114C006F115C046
:1020520007F100C112F001C113F002C114F003C173
:1020620015F004C116F005C117F006C118F007C13A
:1020720019F0E9EC28F012C050F113C051F114C06C
:1020820052F115C053F130C116F031C117F032C10F
:1020920018F033C119F058C106F059C107F05AC1FE
:1020A20008F05BC109F074C102F075C103F076C19A
:1020B20004F077C105F089EC26F002C012F003C0EB
:1020C20013F004C014F005C015F0E9EC28F012C0BA
:1020D20060F113C061F114C062F115C063F150C127
:1020E20002F051C103F052C104F053C105F060C1C6
:1020F20006F061C107F062C108F063C109F089EC22
:1021020026F002C050F103C051F104C052F105C0E3
:1021120053F174C112F075C113F076C114F077C196
:1021220015F074C116F075C117F076C118F077C1B9
:1021320019F0E9EC28F012C090F113C091F114C02B
:1021420092F115C093F1000E066E000E076E400E5E
:10215200086E400E096E90C102F091C103F092C167
:1021620004F093C105F089EC26F002C060F103C0CF
:1021720061F104C062F105C063F160C102F061C1A6
:1021820003F062C104F063C105F050C106F051C111
:1021920007F052C108F053C109F089EC26F002C0E1
:1021A20070F103C071F104C072F105C073F170C126
:1021B20098F171C199F172C19AF173C19BF1000E4C
:1021C20001019815706FF00E9915716FFF0E9A1537
:1021D200726FFF0E9B15736F000E066E000E076E78
:1021E200400E086EC00E096E70C102F071C103F09C
:1021F20072C104F073C105F089EC26F002C03CF113
:1022020003C03DF104C03EF105C03FF190C148F06A
:1022120091C149F092C14AF093C14BF03CC144F0E4
:102222003DC145F03EC146F03FC147F0AFEC39F049
:1022320044C040F145C041F146C042F147C043F1BC
:1022420050C144F051C145F052C146F053C147F06C
:1022520040C148F041C149F042C14AF043C14BF08C
:10226200AFEC39F044C034F145C035F146C036F127
:1022720047C037F174C112F075C113F076C114F082
:1022820077C115F070C116F071C117F072C118F064
:1022920073C119F0E9EC28F012C07CF113C07DF192
:1022A20014C07EF115C07FF130C116F031C117F0B4
:1022B20032C118F033C119F070C112F071C113F0BC
:1022C20072C114F073C115F0E9EC28F012C002F0EB
:1022D20013C003F014C004F015C005F058C116F085
:1022E20059C117F05AC118F05BC119F034C112F08C
:1022F20035C113F036C114F037C115F0E9EC28F0FE
:1023020012C006F013C007F014C008F015C009F09F
:1023120089EC26F002C080F103C081F104C082F191
:1023220005C083F17CC102F07DC103F07EC104F0DF
:102332007FC105F080C106F081C107F082C108F0BB
:1023420083C109F089EC26F002C0A0F103C0A1F11B
:1023520004C0A2F105C0A3F1A0C198F1A1C199F1F5
:10236200A2C19AF1A3C19BF1000E01019815A06FC1
:10237200F00E9915A16FFF0E9A15A26FFF0E9B1515
:10238200A36F7CC148F07DC149F07EC14AF07FC194
:102392004BF0A0C144F0A1C145F0A2C146F0A3C1D7
:1023A20047F0AFEC39F044C09CF145C09DF146C006
:1023B2009EF147C09FF180C144F081C145F082C1C6
:1023C20046F083C147F09CC148F09DC149F09EC1CF
:1023D2004AF09FC14BF0AFEC39F044C06CF145C0FC
:1023E2006DF146C06EF147C06FF1A0C112F0A1C1FC
:1023F20013F0A2C114F0A3C115F0000E166E400E28
:10240200176E760E186E3F0E196EE9EC28F012C0A8
:1024120020F113C021F114C022F115C023F14F0E97
:10242200166E380E176E760E186E3F0E196E6CC150
:1024320012F06DC113F06EC114F06FC115F0E9EC2A
:1024420028F012C006F013C007F014C008F015C03F
:1024520009F0C60E166E230E176EF60E186EB80E23
:10246200196EA0C112F0A1C113F0A2C114F0A3C150
:1024720015F0E9EC28F012C002F013C003F014C00A
:1024820004F015C005F089EC26F002C060F103C02B
:1024920061F104C062F105C063F160C102F061C183
:1024A20003F062C104F063C105F00101A451040DFF
:1024B200F350010F0001686F68C0F6FF0E0EF76E51
:1024C200000EF86E0900F5CF06F00900F5CF07F00F
:1024D2000900F5CF08F00A00F5CF09F089EC26F0E3
:1024E20002C024F103C025F104C026F105C027F182
:1024F20088C10DF089C10EF08AC10FF08BC110F0B6
:10250200010EBFEC30F00DC0B0F10EC0B1F10FC042
:10251200B2F110C0B3F124C106F025C107F026C103
:1025220008F027C109F020C102F021C103F022C145
:1025320004F023C105F089EC26F002C060F103C06B
:1025420061F104C062F105C063F10101A451040DFF
:10255200F350090F0001686F68C0F6FF0E0EF76EA8
:10256200000EF86E0900F5CF06F00900F5CF07F06E
:102572000900F5CF08F00A00F5CF09F060C102F0BA
:1025820061C103F062C104F063C105F089EC26F079
:1025920002C008F103C009F104C00AF105C00BF141
:1025A20008C102F009C103F00AC104F00BC105F031
:1025B200B0C106F0B1C107F0B2C108F0B3C109F071
:1025C20089EC26F002C08CF103C08DF104C08EF1BB
:1025D20005C08FF18CC198F18DC199F18EC19AF12C
:1025E2008FC19BF1000E010198158C6FF00E9915A9
:1025F2008D6FFF0E9A158E6FFF0E9B158F6FB0C1F8
:1026020048F0B1C149F0B2C14AF0B3C14BF08CC13C
:1026120044F08DC145F08EC146F08FC147F0AFEC5A
:1026220039F044C09CF145C09DF146C09EF147C0BF
:102632009FF10101A451040DF350090F0001686FCD
:1026420068C0F6FF0E0EF76E000EF86E0900F5CFA9
:1026520048F00900F5CF49F00900F5CF4AF00A0029
:10266200F5CF4BF09CC144F09DC145F09EC146F0B0
:102672009FC147F0AFEC39F044C040F145C041F191
:1026820046C042F147C043F120C148F021C149F0A0
:1026920022C14AF023C14BF040C144F041C145F090
:1026A20042C146F043C147F0AFEC39F044C00CF1EF
:1026B20045C00DF146C00EF147C00FF124C144F0F0
:1026C20025C145F026C146F027C147F00CC148F0AC
:1026D2000DC149F00EC14AF00FC14BF0AFEC39F019
:1026E20044C01CF145C01DF146C01EF147C01FF198
:1026F20064C098F165C099F166C09AF167C09BF118
:10270200000E010198152C6FF00E99152D6FFF0E1A
:102712009A152E6FFF0E9B152F6F8CC116F08DC16F
:1027220017F08EC118F08FC119F02CC148F02DC1DD
:1027320049F02EC14AF02FC14BF064C044F065C08D
:1027420045F066C046F067C047F0AFEC39F044C0D0
:1027520012F045C013F046C014F047C015F0E9EC82
:1027620028F012C010F113C011F114C012F115C0FB
:1027720013F110C102F011C103F012C104F013C130
:1027820005F01CC116F01DC117F01EC118F01FC1C3
:1027920019F064C012F065C013F066C014F067C08F
:1027A20015F0E9EC28F012C006F013C007F014C0CF
:1027B20008F015C009F089EC26F002C06CF103C0E4
:1027C2006DF104C06EF105C06FF12CC112F02DC184
:1027D20013F02EC114F02FC115F08CC116F08DC16B
:1027E20017F08EC118F08FC119F0E9EC28F012C071
:1027F200A0F113C0A1F114C0A2F115C0A3F1A0C1B0
:1028020002F0A1C103F0A2C104F0A3C105F06CC1A2
:1028120006F06DC107F06EC108F06FC109F089ECD6
:1028220026F002C0B4F103C0B5F104C0B6F105C090
:10283200B7F1B4C1A8F1B5C1A9F1B6C1AAF1B7C146
:10284200ABF10101ABBF32EF14F0A805000EA9599C
:10285200000EAA59430EAB59D8A032EF14F034EF50
:1028620014F036EF14F0DAEF0AF0430EAB19A811A8
:10287200A911AA11D8A440EF14F042EF14F081EF8D
:1028820014F0A0C148F0A1C149F0A2C14AF0A3C10D
:102892004BF0B4C144F0B5C145F0B6C146F0B7C182
:1028A20047F0AFEC39F044C04CF045C04DF046C0A3
:1028B2004EF047C04FF03C0E066EAA0E076E380E61
:1028C200086E330E096E6CC102F06DC103F06EC169
:1028D20004F06FC105F089EC26F002C050F003C08D
:1028E20051F004C052F005C053F054EC33F0D8B0AC
:1028F2007DEF14F07FEF14F0F4EF14F0DAEF0AF04A
:10290200FF0EA8150001686FFF0E0101A915000155
:10291200696FFF0E0101AA1500016A6F7F0E0101A6
:10292200AB1500016B6F6BBFA3EF14F06805000ECF
:102932006959160E6A59430E6B59D8A0A3EF14F0C9
:10294200A5EF14F0AFEF14F0000E606F000E616F90
:10295200000E626F000E636F80EF19F0160E010118
:10296200AA1909E1C30EAB19A811A911D8A4BCEF89
:1029720014F0BEEF14F0F4EF14F0A0C148F0A1C1BE
:1029820049F0A2C14AF0A3C14BF0B4C144F0B5C1B1
:1029920045F0B6C146F0B7C147F0AFEC39F044C0DC
:1029A2004CF045C04DF046C04EF047C04FF06CC1F0
:1029B20050F06DC151F06EC152F06FC153F054EC42
:1029C20033F0D8A0E7EF14F0E9EF14F0F4EF14F0CD
:1029D200000E0001606F000E616F000E626F000E4C
:1029E200636F80EF19F0FF0E0101A815286FFF0E2B
:1029F200A915296FFF0EAA152A6F7F0EAB152B6F33
:102A0200170E0001686F28C169F029C16AF02AC156
:102A12006BF02BC16CF0686711EF15F019EF15F030
:102A22006C356C336B336A336933682F0CEF15F0F6
:102A3200810E000169250101A46FFF0E00016A21C8
:102A42000101A56FFF0E00016B210101A66FFF0EB0
:102A520000016C210101A76F000E886F000E896FC3
:102A6200000E8A6F000E8B6F2BBF44EF15F0280506
:102A7200000E2959000E2A593F0E2B59D8A044EFB7
:102A820015F046EF15F042EF16F0A4C168F0010E02
:102A920000016827000E696F000E6A6F800E6B6F6F
:102AA200000E6C6F686758EF15F060EF15F06C352B
:102AB2006C336B336A336933682F53EF15F00101BE
:102AC200A851000169250101886FA95100016A21FD
:102AD2000101896FAA5100016B2101018A6FAB517B
:102AE20000016C2101018B6F810E0001686FFF0EE6
:102AF200696FFF0E6A6FFF0E6B6F170E6C6F88C1E6
:102B02006DF089C16EF08AC16FF08BC170F06C6795
:102B12008DEF15F095EF15F0703570336F336E331E
:102B22006D336C2F88EF15F000016D51682501019E
:102B3200A46F000E000169210101A56F000E0001C2
:102B42006A210101A66F000E00016B210101A76F2E
:102B5200A4C168F0FF0E0001696FFF0E6A6F7F0E5D
:102B62006B6F000E6C6F6867B9EF15F0C1EF15F06F
:102B72006C356C336B336A336933682FB4EF15F0FD
:102B82000001691D6D6F6A1D6E6F6B1D6F6F6C1D8D
:102B9200706F0101885100016D150101B06F8951FB
:102BA20000016E150101B16F8A5100016F1501011B
:102BB200B26F8B51000170150101B36FA451170858
:102BC2000001686FFF0E010188150001696FFF0E99
:102BD2000101891500016A6F7F0E01018A1500014A
:102BE2006B6F000E01018B1500016C6F000E6911F5
:102BF2006D6F000E6A116E6F800E6B116F6F000E9B
:102C02006C11706F686708EF16F010EF16F07035F0
:102C120070336F336E336D33682F03EF16F06DC070
:102C220088F16EC089F16FC08AF170C08BF1010129
:102C3200ABBF20EF16F01EEF16F028EF16F08B1F39
:102C42008A1F891F886D000E89238A238B23A0C1C6
:102C520044F0A1C145F0A2C146F0A3C147F0B0C102
:102C620048F0B1C149F0B2C14AF0B3C14BF0AFEC88
:102C720039F044C0A0F145C0A1F146C0A2F147C05D
:102C8200A3F1A0C102F0A1C103F0A2C104F0A3C14B
:102C920005F06CC106F06DC107F06EC108F06FC19E
:102CA20009F089EC26F002C0B0F103C0B1F104C012
:102CB200B2F105C0B3F1B0C198F1B1C199F1B2C19D
:102CC2009AF1B3C19BF1000E01019815B06F800E0D
:102CD2009915B16FFF0E9A15B26FFF0E9B15B36F68
:102CE200B0C112F0B1C113F0B2C114F0B3C115F00A
:102CF200000E166E720E176E310E186E3F0E196EA2
:102D0200E9EC28F012C07CF113C07DF114C07EF111
:102D120015C07FF1A0C148F0A1C149F0A2C14AF09B
:102D2200A3C14BF0B0C144F0B1C145F0B2C146F00D
:102D3200B3C147F0AFEC39F044C09CF145C09DF1FE
:102D420046C09EF147C09FF1180E166E720E176EA6
:102D5200310E186E3F0E196E9CC148F09DC149F0AC
:102D62009EC14AF09FC14BF06CC144F06DC145F069
:102D72006EC146F06FC147F0AFEC39F044C012F0BB
:102D820045C013F046C014F047C015F0E9EC28F036
:102D920012C014F113C015F114C016F115C017F1C9
:102DA20014C102F015C103F016C104F017C105F0F9
:102DB2008C0E166EBE0E176EBF0E186E350E196E85
:102DC200B0C112F0B1C113F0B2C114F0B3C115F029
:102DD200E9EC28F012C006F013C007F014C008F0A6
:102DE20015C009F089EC26F002C080F103C081F120
:102DF20004C082F105C083F17CC102F07DC103F001
:102E02007EC104F07FC105F080C106F081C107F0E8
:102E120082C108F083C109F089EC26F002C0B4F146
:102E220003C0B5F104C0B6F105C0B7F17CC148F0EA
:102E32007DC149F07EC14AF07FC14BF0B4C144F07C
:102E4200B5C145F0B6C146F0B7C147F0AFEC39F0B5
:102E520044C09CF145C09DF146C09EF147C09FF120
:102E620080C144F081C145F082C146F083C147F080
:102E72009CC148F09DC149F09EC14AF09FC14BF0F0
:102E8200AFEC39F044C044F145C045F146C046F1CB
:102E920047C047F1B4C112F0B5C113F0B6C114F086
:102EA200B7C115F0B4C116F0B5C117F0B6C118F02C
:102EB200B7C119F0E9EC28F012C0B0F113C0B1F1BA
:102EC20014C0B2F115C0B3F10E0E066EEA0E076E13
:102ED200DD0E086EB50E096E4C0E166EBB0E176E29
:102EE200310E186E330E196EB0C112F0B1C113F06B
:102EF200B2C114F0B3C115F0E9EC28F012C002F02F
:102F020013C003F014C004F015C005F089EC26F0DC
:102F120002C048F103C049F104C04AF105C04BF1B7
:102F2200550E066EB30E076E8A0E086E380E096EC7
:102F3200B0C116F0B1C117F0B2C118F0B3C119F0A7
:102F420048C112F049C113F04AC114F04BC115F047
:102F5200E9EC28F012C002F013C003F014C004F030
:102F620015C005F089EC26F002C05CF103C05DF1EA
:102F720004C05EF105C05FF1610E066E0B0E076EB6
:102F8200360E086EBB0E096EB0C116F0B1C117F055
:102F9200B2C118F0B3C119F05CC112F05DC113F0F7
:102FA2005EC114F05FC115F0E9EC28F012C002F026
:102FB20013C003F014C004F015C005F089EC26F02C
:102FC20002C04CF103C04DF104C04EF105C04FF1F7
:102FD200AB0E066EAA0E076E2A0E086E3E0E096E24
:102FE200B0C116F0B1C117F0B2C118F0B3C119F0F7
:102FF2004CC112F04DC113F04EC114F04FC115F087
:10300200E9EC28F012C002F013C003F014C004F07F
:1030120015C005F089EC26F002C038F103C039F181
:1030220004C03AF105C03BF1B4C144F0B5C145F06A
:10303200B6C146F0B7C147F0B0C116F0B1C117F042
:10304200B2C118F0B3C119F038C112F039C113F08E
:103052003AC114F03BC115F0E9EC28F012C048F077
:1030620013C049F014C04AF015C04BF0AFEC39F070
:1030720044C08CF145C08DF146C08EF147C08FF13E
:10308200000E066E000E076E000E086EC00E096E70
:103092008CC102F08DC103F08EC104F08FC105F026
:1030A20089EC26F002C02FF003C030F004C031F0EA
:1030B20005C032F08CC116F08DC117F08EC118F028
:1030C2008FC119F0B4C112F0B5C113F0B6C114F03A
:1030D200B7C115F0E9EC28F012C02BF013C02CF0A8
:1030E20014C02DF015C02EF0EDEC2CF02BC03CF1ED
:1030F2002CC03DF12DC03EF12EC03FF144C106F07F
:1031020045C107F046C108F047C109F044C116F0B5
:1031120045C117F046C118F047C119F0B4C112F009
:10312200B5C113F0B6C114F0B7C115F0E9EC28F03F
:1031320012C002F013C003F014C004F015C005F071
:1031420089EC26F002C018F103C019F104C01AF18B
:1031520005C01BF13CC144F03DC145F03EC146F003
:103162003FC147F018C148F019C149F01AC14AF0ED
:103172001BC14BF0AFEC39F044C050F145C051F1E6
:1031820046C052F147C053F1B4C148F0B5C149F04D
:10319200B6C14AF0B7C14BF050C144F051C145F03D
:1031A20052C146F053C147F0AFEC39F044C09CF134
:1031B20045C09DF146C09EF147C09FF1000E446E8E
:1031C200000E456E800E466E3F0E476E9CC148F063
:1031D2009DC149F09EC14AF09FC14BF0AFEC39F05E
:1031E20044C0B4F145C0B5F146C0B6F147C0B7F12D
:1031F200B4C1A8F1B5C1A9F1B6C1AAF1B7C1ABF189
:1032020088C168F089C169F08AC16AF08BC16BF02C
:10321200170ED8900001683769376A376B37E82E86
:103222000AEF19F068510101A82700016951010153
:10323200A92300016A510101AA2300016B51010176
:10324200AB23170E0001686FA8C169F0A9C16AF02B
:10325200AAC16BF0ABC16CF0686732EF19F03AEFBC
:1032620019F06C356C336B336A336933682F2DEF89
:1032720019F000016CBF4AEF19F06C516B116A1121
:1032820006E16905D8B048EF19F04AEF19F062EF8C
:1032920019F0B4C12BF0B5C12CF0B6C12DF0B7C1F5
:1032A2002EF088C12FF089C130F0BAEC2EF02BC07D
:1032B200B4F12CC0B5F12DC0B6F12EC0B7F16AEF52
:1032C20019F0A8C1B4F1A9C1B5F1AAC1B6F1ABC157
:1032D200B7F10101B451B511B611B711D8B474EFF9
:1032E20019F076EF19F077EF0AF06451B41B6551CB
:1032F200B51B6651B61B6751B71B77EF0AF0120078
:10330200D50E046E010ED8EC3AF0AB0E046E030E2D
:10331200D8EC3AF0110E0001726F3C0E716FCB0EB9
:10332200E82EFED7712FFCD7722FFAD7EAEC38F0CD
:1033320006C00DF007C00EF00F6A106A000EBFEC57
:1033420030F00DC09DF00EC09EF00FC09FF010C077
:10335200A0F012EC39F006C00DF007C00EF00F6AB3
:10336200106A000EBFEC30F00DC0A1F00EC0A2F04A
:103372000FC0A3F010C0A4F03AEC39F006C00DF073
:1033820007C00EF00F6A106A000EBFEC30F00DC0DD
:10339200A5F00EC0A6F00FC0A7F010C0A8F0FF0E57
:1033A200046E010ED8EC3AF0FF0E046E030ED8EC58
:1033B2003AF09DC04CF09EC04DF09FC04EF0A0C0B0
:1033C2004FF0000E506E800E516E260E526E440E5D
:1033D200536E54EC33F0D8B0F1EF19F0F3EF19F06B
:1033E200FEEF19F0000E00019D6F000E9E6F000EA1
:1033F2009F6F000EA06F18EF1AF09DC044F09EC0A0
:1034020045F09FC046F0A0C047F0000E486EC00EC7
:10341200496E2E0E4A6E440E4B6EAFEC39F044C02C
:103422009DF045C09EF046C09FF047C0A0F0A1C0ED
:103432004CF0A2C04DF0A3C04EF0A4C04FF0000E5D
:10344200506E000E516EDF0E526E430E536E54ECF0
:1034520033F0D8B02FEF1AF031EF1AF03CEF1AF038
:10346200000E0001A16F000EA26F000EA36F000EEE
:10347200A46F56EF1AF0A1C044F0A2C045F0A3C059
:1034820046F0A4C047F0000E486E800E496EDD0E75
:103492004A6E430E4B6EAFEC39F044C0A1F045C00A
:1034A200A2F046C0A3F047C0A4F0A5C04CF0A6C04D
:1034B2004DF0A7C04EF0A8C04FF0000E506E800E27
:1034C200516E930E526E430E536E54EC33F0D8B0DD
:1034D2006DEF1AF06FEF1AF07AEF1AF0000E00019A
:1034E200A56F000EA66F000EA76F000EA86F94EFD7
:1034F2001AF0A5C044F0A6C045F0A7C046F0A8C087
:1035020047F0000E486E800E496E9D0E4A6E430EC5
:103512004B6EAFEC39F044C0A5F045C0A6F046C0F2
:10352200A7F047C0A8F09DC02BF09EC02CF09FC012
:103532002DF0A0C02EF0000E2F6EA00E306ECA0E1F
:10354200316E440E326EEDEC2CF02BC09DF02CC08F
:103552009EF02DC09FF02EC0A0F0A1C02BF0A2C003
:103562002CF0A3C02DF0A4C02EF0000E2F6EE00EA2
:10357200306E940E316E440E326EEDEC2CF02BC098
:10358200A1F02CC0A2F02DC0A3F02EC0A4F0A5C0C3
:103592002BF0A6C02CF0A7C02DF0A8C02EF0000E74
:1035A2002F6E400E306E5D0E316E440E326EEDECBB
:1035B2002CF02BC0A5F02CC0A6F02DC0A7F02EC079
:1035C200A8F0A1C006F0A2C007F0A3C008F0A4C0F2
:1035D20009F09DC002F09EC003F09FC004F0A0C09D
:1035E20005F089EC26F002C073F003C074F004C049
:1035F20075F005C076F073C002F074C003F075C0B8
:1036020004F076C005F0A5C006F0A6C007F0A7C07A
:1036120008F0A8C009F089EC26F002C098F003C0B7
:1036220099F004C09AF005C09BF09DC02BF09EC09B
:103632002CF09FC02DF0A0C02EF098C02FF099C0A2
:1036420030F09AC031F09BC032F0EDEC2CF02BC080
:10365200A9F02CC0AAF02DC0ABF02EC0ACF0A1C0D6
:103662002BF0A2C02CF0A3C02DF0A4C02EF098C065
:103672002FF099C030F09AC031F09BC032F0EDECDF
:103682002CF02BC0ADF02CC0AEF02DC0AFF02EC090
:10369200B0F0A5C02BF0A6C02CF0A7C02DF0A8C09A
:1036A2002EF098C02FF099C030F09AC031F09BC034
:1036B20032F0EDEC2CF02BC0B1F02CC0B2F02DC0EA
:1036C200B3F02EC0B4F0730E066E680E076E910E44
:1036D200086EBD0E096EADC002F0AEC003F0AFC001
:1036E20004F0B0C005F089EC26F002C0B5F003C0CA
:1036F200B6F004C0B7F005C0B8F0640E066E3B0E1B
:10370200076E3F0E086EBF0E096EA9C002F0AAC076
:1037120003F0ABC004F0ACC005F089EC26F002C0A7
:10372200B9F003C0BAF004C0BBF005C0BCF0000E93
:103732000001646F000E656F000E666F400E676FCA
:10374200B5C060F0B6C061F0B7C062F0B8C063F057
:1037520041EC07F060C0BDF061C0BEF062C0BFF0D6
:1037620063C0C0F0000E0001646F000E656F000EB2
:10377200666F400E676FB9C060F0BAC061F0BBC03F
:1037820062F0BCC063F041EC07F060C0C1F061C000
:10379200C2F062C0C3F063C0C4F08F0E066EC20EE8
:1037A200076EF50E086EBD0E096EB1C002F0B2C012
:1037B20003F0B3C004F0B4C005F089EC26F002C0F7
:1037C200C5F003C0C6F004C0C7F005C0C8F0BDC054
:1037D20006F0BEC007F0BFC008F0C0C009F0C1C00B
:1037E20002F0C2C003F0C3C004F0C4C005F089EC0B
:1037F20026F002C0C9F003C0CAF004C0CBF005C075
:10380200CCF0000E0001646F000E656F000E666F53
:10381200400E676FC5C060F0C6C061F0C7C062F0FD
:10382200C8C063F041EC07F060C0CDF061C0CEF0DB
:1038320062C0CFF063C0D0F0C9C002F0CAC003F0CA
:10384200CBC004F0CCC005F0CDC006F0CEC007F06E
:10385200CFC008F0D0C009F089EC26F002C012F007
:1038620003C013F004C014F005C015F0FEEC2AF0FA
:1038720012C077F013C078F014C079F015C07AF056
:10388200350E066E5E0E076EFA0E086EBE0E096EDD
:10389200ADC002F0AEC003F0AFC004F0B0C005F09E
:1038A20089EC26F002C0B5F003C0B6F004C0B7F050
:1038B20005C0B8F02B0E066E870E076E160E086E48
:1038C200BE0E096EA9C002F0AAC003F0ABC004F09C
:1038D200ACC005F089EC26F002C0B9F003C0BAF022
:1038E20004C0BBF005C0BCF0000E0001646F000E06
:1038F200656F000E666F400E676FB5C060F0B6C0B0
:1039020061F0B7C062F0B8C063F041EC07F060C08C
:10391200BDF061C0BEF062C0BFF063C0C0F0000E77
:103922000001646F000E656F000E666F400E676FD8
:10393200B9C060F0BAC061F0BBC062F0BCC063F055
:1039420041EC07F060C0C1F061C0C2F062C0C3F0D8
:1039520063C0C4F0230E066EDB0E076EB90E086E4E
:10396200BE0E096EB1C002F0B2C003F0B3C004F0E3
:10397200B4C005F089EC26F002C0C5F003C0C6F061
:1039820004C0C7F005C0C8F0BDC006F0BEC007F055
:10399200BFC008F0C0C009F0C1C002F0C2C003F04D
:1039A200C3C004F0C4C005F089EC26F002C0C9F01F
:1039B20003C0CAF004C0CBF005C0CCF0000E000179
:1039C200646F000E656F000E666F400E676FC5C0B4
:1039D20060F0C6C061F0C7C062F0C8C063F041ECDD
:1039E20007F060C0CDF061C0CEF062C0CFF063C01E
:1039F200D0F0C9C002F0CAC003F0CBC004F0CCC002
:103A020005F0CDC006F0CEC007F0CFC008F0D0C0A0
:103A120009F089EC26F002C012F003C013F004C0D2
:103A220014F005C015F0FEEC2AF012C07BF013C0B2
:103A32007CF014C07DF015C07EF0500E066E8D0E27
:103A4200076ED70E086EBE0E096EADC002F0AEC094
:103A520003F0AFC004F0B0C005F089EC26F002C05C
:103A6200B5F003C0B6F004C0B7F005C0B8F0AE0EB2
:103A7200066E470E076EE10E086EBD0E096EA9C0F6
:103A820002F0AAC003F0ABC004F0ACC005F089ECB0
:103A920026F002C0B9F003C0BAF004C0BBF005C002
:103AA200BCF0000E0001646F000E656F000E666FC1
:103AB200400E676FB5C060F0B6C061F0B7C062F08B
:103AC200B8C063F041EC07F060C0BDF061C0BEF069
:103AD20062C0BFF063C0C0F0000E0001646F000E50
:103AE200656F000E666F400E676FB9C060F0BAC0B6
:103AF20061F0BBC062F0BCC063F041EC07F060C093
:103B0200C1F061C0C2F062C0C3F063C0C4F0C50EB0
:103B1200066E200E076EF00E086EBE0E096EB1C064
:103B220002F0B2C003F0B3C004F0B4C005F089ECF7
:103B320026F002C0C5F003C0C6F004C0C7F005C03D
:103B4200C8F0BDC006F0BEC007F0BFC008F0C0C0DC
:103B520009F0C1C002F0C2C003F0C3C004F0C4C087
:103B620005F089EC26F002C0C9F003C0CAF004C017
:103B7200CBF005C0CCF0000E0001646F000E656F43
:103B8200000E666F400E676FC5C060F0C6C061F080
:103B9200C7C062F0C8C063F041EC07F060C0CDF06E
:103BA20061C0CEF062C0CFF063C0D0F0C9C002F0F5
:103BB200CAC003F0CBC004F0CCC005F0CDC006F003
:103BC200CEC007F0CFC008F0D0C009F089EC26F0D3
:103BD20002C012F003C013F004C014F005C015F0C7
:103BE200FEEC2AF012C07FF013C080F014C081F006
:103BF20015C082F0660E066E660E076EA60E086E81
:103C0200BE0E096EADC002F0AEC003F0AFC004F04C
:103C1200B0C005F089EC26F002C0B5F003C0B6F0E2
:103C220004C0B7F005C0B8F0750E066E930E076EAD
:103C3200D80E086EBE0E096EA9C002F0AAC003F02B
:103C4200ABC004F0ACC005F089EC26F002C0B9F0BC
:103C520003C0BAF004C0BBF005C0BCF0000E000106
:103C6200646F000E656F000E666F400E676FB5C021
:103C720060F0B6C061F0B7C062F0B8C063F041EC6A
:103C820007F060C0BDF061C0BEF062C0BFF063C0AB
:103C9200C0F0000E0001646F000E656F000E666FCB
:103CA200400E676FB9C060F0BAC061F0BBC062F08D
:103CB200BCC063F041EC07F060C0C1F061C0C2F06B
:103CC20062C0C3F063C0C4F0250E066E060E076E16
:103CD200810E086EBE0E096EB1C002F0B2C003F0D2
:103CE200B3C004F0B4C005F089EC26F002C0C5F000
:103CF20003C0C6F004C0C7F005C0C8F0BDC006F0DE
:103D0200BEC007F0BFC008F0C0C009F0C1C002F0D9
:103D1200C2C003F0C3C004F0C4C005F089EC26F0B1
:103D220002C0C9F003C0CAF004C0CBF005C0CCF099
:103D3200000E0001646F000E656F000E666F400E8C
:103D4200676FC5C060F0C6C061F0C7C062F0C8C08E
:103D520063F041EC07F060C0CDF061C0CEF062C00C
:103D6200CFF063C0D0F0C9C002F0CAC003F0CBC02C
:103D720004F0CCC005F0CDC006F0CEC007F0CFC035
:103D820008F0D0C009F089EC26F002C012F003C09E
:103D920013F004C014F005C015F0FEEC2AF012C0B6
:103DA20083F013C084F014C085F015C086F0F00EC5
:103DB200066EA70E076E860E086EBE0E096EADC0A9
:103DC20002F0AEC003F0AFC004F0B0C005F089EC61
:103DD20026F002C0B5F003C0B6F004C0B7F005C0CB
:103DE200B8F0080E066EAC0E076EDC0E086EBE0E44
:103DF200096EA9C002F0AAC003F0ABC004F0ACC0C7
:103E020005F089EC26F002C0B9F003C0BAF004C094
:103E1200BBF005C0BCF0000E0001646F000E656FC0
:103E2200000E666F400E676FB5C060F0B6C061F0FD
:103E3200B7C062F0B8C063F041EC07F060C0BDF0FB
:103E420061C0BEF062C0BFF063C0C0F0000E0001EE
:103E5200646F000E656F000E666F400E676FB9C02B
:103E620060F0BAC061F0BBC062F0BCC063F041EC6C
:103E720007F060C0C1F061C0C2F062C0C3F063C0AD
:103E8200C4F0080E066EAC0E076E9C0E086EBE0ED7
:103E9200096EB1C002F0B2C003F0B3C004F0B4C006
:103EA20005F089EC26F002C0C5F003C0C6F004C0DC
:103EB200C7F005C0C8F0BDC006F0BEC007F0BFC065
:103EC20008F0C0C009F0C1C002F0C2C003F0C3C014
:103ED20004F0C4C005F089EC26F002C0C9F003C0AA
:103EE200CAF004C0CBF005C0CCF0000E0001646F34
:103EF200000E656F000E666F400E676FC5C060F002
:103F0200C6C061F0C7C062F0C8C063F041EC07F000
:103F120060C0CDF061C0CEF062C0CFF063C0D0F01F
:103F2200C9C002F0CAC003F0CBC004F0CCC005F097
:103F3200CDC006F0CEC007F0CFC008F0D0C009F067
:103F420089EC26F002C012F003C013F004C014F092
:103F520005C015F0FEEC2AF012C087F013C088F0FD
:103F620014C089F015C08AF0AE0E066E470E076EB9
:103F7200E10E086EBD0E096EADC002F0AEC003F0D8
:103F8200AFC004F0B0C005F089EC26F002C0B5F075
:103F920003C0B6F004C0B7F005C0B8F0E70E066E75
:103FA200FB0E076E290E086EBF0E096EA9C002F045
:103FB200AAC003F0ABC004F0ACC005F089EC26F057
:103FC20002C0B9F003C0BAF004C0BBF005C0BCF037
:103FD200000E0001646F000E656F000E666F400EEA
:103FE200676FB5C060F0B6C061F0B7C062F0B8C02C
:103FF20063F041EC07F060C0BDF061C0BEF062C08A
:10400200BFF063C0C0F0000E0001646F000E656F68
:10401200000E666F400E676FB9C060F0BAC061F003
:10402200BBC062F0BCC063F041EC07F060C0C1F0FD
:1040320061C0C2F062C0C3F063C0C4F00A0E066E73
:10404200D70E076E230E086EBE0E096EB1C002F0C7
:10405200B2C003F0B3C004F0B4C005F089EC26F09E
:1040620002C0C5F003C0C6F004C0C7F005C0C8F066
:10407200BDC006F0BEC007F0BFC008F0C0C009F066
:10408200C1C002F0C2C003F0C3C004F0C4C005F056
:1040920089EC26F002C0C9F003C0CAF004C0CBF01C
:1040A20005C0CCF0000E0001646F000E656F000EBB
:1040B200666F400E676FC5C060F0C6C061F0C7C0D2
:1040C20062F0C8C063F041EC07F060C0CDF061C09F
:1040D200CEF062C0CFF063C0D0F0C9C002F0CAC057
:1040E20003F0CBC004F0CCC005F0CDC006F0CEC0CA
:1040F20007F0CFC008F0D0C009F089EC26F002C06A
:1041020012F003C013F004C014F005C015F0FEEC69
:104112002AF012C08BF013C08CF014C08DF015C0C1
:104122008EF05A0E066E640E076EBB0E086EBE0E41
:10413200096EADC002F0AEC003F0AFC004F0B0C073
:1041420005F089EC26F002C0B5F003C0B6F004C059
:10415200B7F005C0B8F0830E066EC00E076E8A0E69
:10416200086EBE0E096EA9C002F0AAC003F0ABC071
:1041720004F0ACC005F089EC26F002C0B9F003C02F
:10418200BAF004C0BBF005C0BCF0000E0001646FC1
:10419200000E656F000E666F400E676FB5C060F06F
:1041A200B6C061F0B7C062F0B8C063F041EC07F08E
:1041B20060C0BDF061C0BEF062C0BFF063C0C0F0BD
:1041C200000E0001646F000E656F000E666F400EF8
:1041D200676FB9C060F0BAC061F0BBC062F0BCC02A
:1041E20063F041EC07F060C0C1F061C0C2F062C090
:1041F200C3F063C0C4F0230E066EDB0E076EB90E69
:10420200086EBE0E096EB1C002F0B2C003F0B3C0B8
:1042120004F0B4C005F089EC26F002C0C5F003C07A
:10422200C6F004C0C7F005C0C8F0BDC006F0BEC0ED
:1042320007F0BFC008F0C0C009F0C1C002F0C2C0A0
:1042420003F0C3C004F0C4C005F089EC26F002C03C
:10425200C9F003C0CAF004C0CBF005C0CCF0000E18
:104262000001646F000E656F000E666F400E676F8F
:10427200C5C060F0C6C061F0C7C062F0C8C063F0DC
:1042820041EC07F060C0CDF061C0CEF062C0CFF06B
:1042920063C0D0F0C9C002F0CAC003F0CBC004F0C2
:1042A200CCC005F0CDC006F0CEC007F0CFC008F0FC
:1042B200D0C009F089EC26F002C012F003C013F05E
:1042C20004C014F005C015F0FEEC2AF012C08FF005
:1042D20013C090F014C091F015C092F01F0E066E3C
:1042E200850E076EAB0E086EBE0E096EADC002F0F3
:1042F200AEC003F0AFC004F0B0C005F089EC26F008
:1043020002C0B5F003C0B6F004C0B7F005C0B8F003
:10431200B00E066E720E076EA80E086EBE0E096E05
:10432200A9C002F0AAC003F0ABC004F0ACC005F013
:1043320089EC26F002C0B9F003C0BAF004C0BBF0A9
:1043420005C0BCF0000E0001646F000E656F000E28
:10435200666F400E676FB5C060F0B6C061F0B7C05F
:1043620062F0B8C063F041EC07F060C0BDF061C01C
:10437200BEF062C0BFF063C0C0F0000E0001646F07
:10438200000E656F000E666F400E676FB9C060F079
:10439200BAC061F0BBC062F0BCC063F041EC07F090
:1043A20060C0C1F061C0C2F062C0C3F063C0C4F0BB
:1043B2001F0E066E850E076EAB0E086EBE0E096EE0
:1043C200B1C002F0B2C003F0B3C004F0B4C005F053
:1043D20089EC26F002C0C5F003C0C6F004C0C7F0E5
:1043E20005C0C8F0BDC006F0BEC007F0BFC008F0EF
:1043F200C0C009F0C1C002F0C2C003F0C3C004F0E3
:10440200C4C005F089EC26F002C0C9F003C0CAF0AE
:1044120004C0CBF005C0CCF0000E0001646F000EAA
:10442200656F000E666F400E676FC5C060F0C6C054
:1044320061F0C7C062F0C8C063F041EC07F060C031
:10444200CDF061C0CEF062C0CFF063C0D0F0C9C081
:1044520002F0CAC003F0CBC004F0CCC005F0CDC05E
:1044620006F0CEC007F0CFC008F0D0C009F089EC4A
:1044720026F002C012F003C013F004C014F005C00D
:1044820015F0FEEC2AF012C093F013C094F014C0A1
:1044920095F015C096F0000E0001976F000E9C6F0C
:1044A200070E9C6557EF22F059EF22F05BEF22F0E6
:1044B20086EF22F09C51040DF350770FD96EDA6A21
:1044C200DECF4CF0DECF4DF0DECF4EF0DECF4FF040
:1044D2009751040DF350770FD96EDA6ADECF50F0A0
:1044E200DECF51F0DECF52F0DECF53F054EC33F09A
:1044F200D8B07EEF22F080EF22F082EF22F09CC053
:1045020097F000019C2B51EF22F097511200E8EC3A
:104512003AF016EC3BF041EC3BF09CEC3AF08AECC2
:1045220039F0000E036E630E026E95EC37F0F8EC74
:104532003AF0B7EC38F08086889686840E01B495FE
:10454200000E0201AE6F010EAF6F010EB06FAA0E28
:10455200B36F0F0EB46FA60EB56F0F0EB66F000ECF
:10456200B26F630EB16F000EB76F010EB86F010E1E
:10457200B96F250EBC6F0F0EBD6F210EBE6F0F0EF1
:10458200BF6F000EBB6F630EBA6FAE0EC26F020E2C
:10459200C36FB70EC46F020EC56F3C0EA06F020E42
:1045A200A16F000EAA6F000EAD6F000EAC6FA30ECE
:1045B2000001D26F570ED16F020EE82EFED7D12F17
:1045C200FCD7D22FFAD7000062EC39F006C0A8F26D
:1045D20007C0A9F20A0E0201A825A26F000EA921A6
:1045E200A36F000EA56F000EA46F0201AA51D8A4FA
:1045F200FDEF22F0FFEF22F00EEF23F047EC3BF04D
:10460200C2C215F0C3C216F0C4C217F0C5C218F078
:1046120082EC36F0010E0201AA6F62EC39F006C09C
:10462200A8F207C0A9F20201A851A25DA951A3599B
:10463200D8B01EEF23F020EF23F0F6EF22F007ECC4
:104642003BF002C0A6F203C0A7F2C2C215F0C3C279
:1046520016F0C4C217F0C5C218F0E6EC37F0150E1A
:104662000001D26F4B0ED16FBE0EE82EFED7D12FB6
:10467200FCD7D22FFAD7000062EC39F006C0A8F2BC
:1046820007C0A9F20201A95107E1410EA85DD8B005
:104692004DEF23F04FEF23F079EF23F0C2C219F070
:1046A200C3C21AF0C4C21BF0C5C21CF0ABEC35F099
:1046B2000201A44BA52B090E0001D26F1E0ED16F71
:1046C200E40EE82EFED7D12FFCD7D22FFAD7000066
:1046D2000201A55109E1100EA45DD8A073EF23F0E9
:1046E20075EF23F03DEF23F0000EC16F070EC06F90
:1046F200000EAA6FD890AC35D96EAD35DA6E780E51
:10470200D926020EDA22A6C2DEFFA7C2DDFF070EFD
:10471200C019C111D8B490EF23F092EF23F09EEFAD
:1047220023F081EC19F00001D16FD1510201C06F69
:10473200C16B000EA56F000EA46FD890AC35D96E78
:10474200AD35DA6E500ED926020EDA22C0C2DEFF75
:10475200C1C2DDFFAC4BAD2BC051C111D8A4B4EF27
:1047620023F0B6EF23F0CCEF23F0C2C219F0C3C29C
:104772001AF0C4C21BF0C5C21CF04FEC32F0C2C228
:1047820019F0C3C21AF0C4C21BF0C5C21CF04CEC33
:1047920034F0EDEF24F0C005C111D8A4D3EF23F01B
:1047A200D5EF23F0EBEF23F0C2C219F0C3C21AF027
:1047B200C4C21BF0C5C21CF04FEC32F0C2C219F0E9
:1047C200C3C21AF0C4C21BF0C5C21CF0C1EC34F063
:1047D200EDEF24F0020EC019C111D8A4F3EF23F0BB
:1047E200F5EF23F022EF24F0C2C219F0C3C21AF08F
:1047F200C4C21BF0C5C21CF04FEC32F0C2C219F0A9
:10480200C3C21AF0C4C21BF0C5C21CF04CEC34F097
:10481200150E0001D26F4B0ED16FBE0EE82EFED7E1
:10482200D12FFCD7D22FFAD70000C2C219F0C3C2CF
:104832001AF0C4C21BF0C5C21CF04CEC34F0EDEF10
:1048420024F0030EC019C111D8A42AEF24F02CEFD2
:1048520024F04CEF24F0C2C219F0C3C21AF0C4C251
:104862001BF0C5C21CF04FEC32F0C2C219F0C3C239
:104872001AF0C4C21BF0C5C21CF0D2EC32F0C2C2A4
:1048820019F0C3C21AF0C4C21BF0C5C21CF04CEC32
:1048920034F0EDEF24F0040EC019C111D8A454EF86
:1048A20024F056EF24F076EF24F0C2C219F0C3C20E
:1048B2001AF0C4C21BF0C5C21CF04FEC32F0C2C2E7
:1048C20019F0C3C21AF0C4C21BF0C5C21CF0D2EC6C
:1048D20032F0C2C219F0C3C21AF0C4C21BF0C5C280
:1048E2001CF0C1EC34F0EDEF24F0050EC019C1113B
:1048F200D8A47EEF24F080EF24F096EF24F0C2C219
:1049020019F0C3C21AF0C4C21BF0C5C21CF04FECAE
:1049120032F0C2C219F0C3C21AF0C4C21BF0C5C23F
:104922001CF0D6EC33F0EDEF24F0060EC019C111E5
:10493200D8A49EEF24F0A0EF24F0B6EF24F0C2C278
:1049420019F0C3C21AF0C4C21BF0C5C21CF04FEC6E
:1049520032F0C2C219F0C3C21AF0C4C21BF0C5C2FF
:104962001CF036EC35F0EDEF24F0070EC019C11142
:10497200D8A4BEEF24F0C0EF24F0EDEF24F0C2C2C1
:1049820019F0C3C21AF0C4C21BF0C5C21CF04FEC2E
:1049920032F0C2C219F0C3C21AF0C4C21BF0C5C2BF
:1049A2001CF04CEC34F0150E0001D26F4B0ED16F9F
:1049B200BE0EE82EFED7D12FFCD7D22FFAD7000099
:1049C200C2C219F0C3C21AF0C4C21BF0C5C21CF0A5
:1049D2004CEC34F005EF25F0150E0001D26F4B0EB2
:1049E200D16FBE0EE82EFED7D12FFCD7D22FFAD729
:1049F2000000680E0001D16FE40EE82EFED7D12F21
:104A0200FCD70000F6EF22F00201AC07D8A0AD07F8
:104A1200000EAA6F000EAB6F130EAB6513EF25F0FD
:104A220015EF25F017EF25F053EF26F0AB51020DED
:104A3200780EF324D96E020EF420DA6E7D0EDE5E5D
:104A4200000EDD5A070EAB6529EF25F02BEF25F09E
:104A520037EF25F0AB51020D780EF324D96E020E1A
:104A6200F420DA6E260EDE5E020EDD5AAB2B0DEF5F
:104A720025F0AA51D8A440EF25F042EF25F051EFDE
:104A820025F047EC3BF0C2C215F0C3C216F0C4C217
:104A920017F0C5C218F082EC36F0010E0201AA6FBF
:104AA20007EC3BF002C0A6F203C0A7F2D8900201C5
:104AB200AC35D96EAD35DA6E780ED926020EDA2211
:104AC200A651DE5CA751DE58D8B06AEF25F06CEF34
:104AD20025F04AEF26F0C2C215F0C3C216F0C4C2D6
:104AE20017F0C5C218F0E6EC37F0000E0201AA6F0B
:104AF200ACC2D1F0ADC2D2F0D8900001D137D237DA
:104B0200FE0ED125D36FFF0ED221D46F500ED325C6
:104B1200D96E020ED421DA6EDF5033EC38F0000188
:104B2200D56FD5510201C06FC16BC051C111D8A45C
:104B32009DEF25F09FEF25F0ABEF25F0C2C219F0F3
:104B4200C3C21AF0C4C21BF0C5C21CF04CEC34F054
:104B520027EF26F0C005C111D8A4B2EF25F0B4EFBB
:104B620025F0C0EF25F0C2C219F0C3C21AF0C4C2C8
:104B72001BF0C5C21CF0C1EC34F027EF26F0020E88
:104B8200C019C111D8A4C8EF25F0CAEF25F0E3EF90
:104B920025F0C2C219F0C3C21AF0C4C21BF0C5C2CA
:104BA2001CF04CEC34F0150E0001D26F4B0ED16F9D
:104BB200BE0EE82EFED7D12FFCD7D22FFAD7000097
:104BC2009FEF25F0050EC019C111D8A4EBEF25F017
:104BD200EDEF25F0F9EF25F0C2C219F0C3C21AF0C9
:104BE200C4C21BF0C5C21CF0D6EC33F027EF26F08E
:104BF200060EC019C111D8A401EF26F003EF26F06A
:104C02000FEF26F0C2C219F0C3C21AF0C4C21BF0E1
:104C1200C5C21CF036EC35F027EF26F0080EC0199D
:104C2200C111D8A417EF26F019EF26F01BEF26F0DA
:104C3200B4EF25F0090EC019C111D8A423EF26F054
:104C420025EF26F027EF26F09FEF25F0150E000145
:104C5200D26F4B0ED16FBE0EE82EFED7D12FFCD7EE
:104C6200D22FFAD700003C0E1B6E020E1C6E710E84
:104C72001D6EC0C21EF0C1C21FF014EC3AF0A0C2F9
:104C820003F0A1C204F084EC3AF00201AC07D8A010
:104C9200AD07D00E0001D16FC90EE82EFED7D12F7D
:104CA200FCD700D00201ADBF5BEF26F059EF26F032
:104CB2003AEF25F0C2C215F0C3C216F0C4C217F013
:104CC200C5C218F0E6EC37F080A66AEF26F06FEF67
:104CD20026F00001D16BD12B71EF26F00001D16BD0
:104CE200D147D147D1478050D119F70BD119806EE6
:104CF200290E0001D26F960ED16F7F0EE82EFED7DD
:104D0200D12FFCD7D22FFAD765EF26F012EF00F0A1
:104D12000550800B0E6E05500524106E04AE94EF04
:104D220026F096EF26F097EF26F010801050D8B4B8
:104D32009DEF26F09FEF26F0B4EF26F01028D8A4BE
:104D4200A5EF26F0A7EF26F0AFEF26F0000E026ED9
:104D5200000E036E000E046E000E056E048E000E31
:104D6200056EBCEF26F0000E026E000E036E000E02
:104D7200046E000E056E0950800B0F6E0E500F1858
:104D8200D8B4C6EF26F0C8EF26F0C9EF26F00E8C95
:104D9200095009240F6E08AED1EF26F0D3EF26F0AA
:104DA200D4EF26F00F800F50D8B4DAEF26F0DCEF04
:104DB20026F0F1EF26F00F28D8A4E2EF26F0E4EF78
:104DC20026F0ECEF26F0000E066E000E076E000EC7
:104DD200086E000E096E088E000E096EF9EF26F0BD
:104DE200000E066E000E076E000E086E000E096EB3
:104DF20010500F5CD8B000EF27F002EF27F029EF38
:104E020027F00EAC07EF27F009EF27F00BEF27F0A2
:104E1200800E0E1A10C011F00FC010F011C00FF06A
:104E220002C011F006C002F011C006F003C011F07A
:104E320007C003F011C007F004C011F008C004F06D
:104E420011C008F005C011F009C005F011C009F049
:104E5200000E116E10500FC00AF00B6A0A5E000EAF
:104E62000B5A0BBE3EEF27F00B5009E11A0E0A5CFB
:104E7200D8A03EEF27F040EF27F077EF27F002505F
:104E8200031004100510D8A449EF27F04CEF27F0C7
:104E9200010E4DEF27F0000E116E000E026E000E95
:104EA200036E000E046E000E056E0FC010F080EF50
:104EB20027F011A05FEF27F061EF27F067EF27F0EF
:104EC200D89011300109116E69EF27F0D890113294
:104ED20002A06EEF27F070EF27F071EF27F0118E2E
:104EE20005340532043203320232102A0F50105CAC
:104EF200D8A07EEF27F080EF27F05AEF27F00EBC04
:104F020085EF27F087EF27F0C7EF27F01050D8A4DE
:104F12008DEF27F08FEF27F099EF27F0000E026E4A
:104F2200000E036E000E046E000E056EE8EF28F010
:104F32000650022607500322085004220950052277
:104F420005A0A6EF27F0A8EF27F054EF28F011A054
:104F5200ADEF27F0AFEF27F0B5EF27F0D890113083
:104F62000109116EB7EF27F0D890113202A0BCEF01
:104F720027F0BEEF27F0BFEF27F0118E0534053280
:104F8200043203320232102A54EF28F00650025C37
:104F920007500358085004580550800A0A6E0950F9
:104FA200800A0A58D8B0D8EF27F0DAEF27F005EFD9
:104FB20028F00250065C0A6E035007580B6E04502C
:104FC20008580C6E055009580D6EFF0E0A24026E29
:104FD200FF0E0B20036EFF0E0C20046EFF0E0D2041
:104FE200056E800E0E1A116C1150D8A4FBEF27F03B
:104FF200FDEF27F00DEF28F0010E0226000E03222E
:10500200042205220DEF28F00650025E0750035AD3
:105012000850045A0950055A025003100410051092
:10502200D8A416EF28F018EF28F04DEF28F0115011
:10503200D8A41EEF28F020EF28F04DEF28F0000E44
:10504200026E000E036E000E046E000E056EE8EF97
:1050520028F0D890023603360436053611AE34EF06
:1050620028F036EF28F037EF28F0028011A03CEF4D
:1050720028F03EEF28F042EF28F0D880113644EFB6
:1050820028F0D89011361050D8B44AEF28F04CEFDF
:1050920028F04DEF28F0100604AE52EF28F054EF3E
:1050A20028F02AEF28F0000E0F6E11AE5BEF28F009
:1050B2005DEF28F075EF28F011C00AF07F0E0A1696
:1050C200D8B466EF28F068EF28F06CEF28F0010EF4
:1050D2000F6E75EF28F002A071EF28F073EF28F041
:1050E20075EF28F068EF28F00F50D8B47BEF28F066
:1050F2007DEF28F0A8EF28F0010E0226000E032211
:105102000422052205A088EF28F08AEF28F0A8EFF4
:1051120028F002C00AF003C00BF004C00CF005C076
:105122000DF00D340D320C320B320A320AC002F08D
:105132000BC003F00CC004F00DC005F01028D8B469
:10514200A5EF28F0A7EF28F0A8EF28F0102A1028E2
:10515200D8B4AEEF28F0B0EF28F0B8EF28F0105036
:10516200D8A4B6EF28F0B8EF28F0CAEF28F0000E66
:10517200026E000E036E000E046E000E056E1050DD
:10518200D8A4C6EF28F0C8EF28F0CAEF28F0000E26
:105192000E6E10A0CFEF28F0D1EF28F0D4EF28F058
:1051A200048ED5EF28F0049ED8901030056E0EAE16
:1051B200DDEF28F0DFEF28F0E0EF28F0058E02C0E7
:1051C20002F003C003F004C004F005C005F01200B1
:1051D2001550800B1E6E15501524246E14AEF4EF7C
:1051E20028F0F6EF28F0F7EF28F024802450D8B406
:1051F200FDEF28F0FFEF28F012EF29F02428D8A4C1
:1052020005EF29F007EF29F00FEF29F0000E126EDB
:10521200000E136E000E146E000E156E148E1AEF31
:1052220029F0000E126E000E136E000E146E000EA8
:10523200156E1950800B1E1A19501924236E18AEC0
:1052420025EF29F027EF29F028EF29F023802350BA
:10525200D8B42EEF29F030EF29F043EF29F02328BC
:10526200D8A436EF29F038EF29F040EF29F0000EEC
:10527200166E000E176E000E186E000E196E188E46
:105282004BEF29F0000E166E000E176E000E186E10
:10529200000E196E2350D8B451EF29F053EF29F0C4
:1052A2005BEF29F02450D8A459EF29F05BEF29F0E5
:1052B20065EF29F0000E126E000E136E000E146ED2
:1052C200000E156EFDEF2AF018501202F3CF29F0EE
:1052D200F4CF2AF029501F6E206A216A226A2A50CE
:1052E200256E266A276A286A17501302F3CF29F01F
:1052F200F4CF2AF029501F26000E2022212222223A
:105302002A502526000E2622272228221650140271
:10531200F3CF29F0F4CF2AF029501F26000E2022C5
:10532200212222222A502526000E26222722282246
:1053320021C022F020C021F01FC020F01F6A1650A9
:105342001302F3CF29F0F4CF2AF029501F262A5056
:105352002022000E2122000E222217501202F3CF29
:1053620029F0F4CF2AF029501F262A502022000EBD
:105372002122000E222221C022F020C021F01FC0D3
:1053820020F01F6A16501202F3CF29F0F4CF2AF050
:1053920029501F262A502022000E2122000E2222EE
:1053A20018501302F3CF29F0F4CF2AF02950252602
:1053B2002A502622000E2722000E282217501402FD
:1053C200F3CF29F0F4CF2AF0295025262A5026229D
:1053D200000E2722000E282218501402F3CF29F0C3
:1053E200F4CF2AF029501A6E2A501B6E1C6A1D6ACD
:1053F2001CC01DF01BC01CF01AC01BF01A6A1A5008
:1054020025261B5026221C5027221D5028221FC051
:105412001AF020C01BF021C01CF022C01DF0190E92
:1054220018EF2AF0D8901D321C321B321A32E82EA5
:1054320013EF2AF01A5025261B5026221C50272231
:105442001D50282221C022F020C021F01FC020F0D0
:105452001F6A235024C01AF01B6A1A26000E1B2250
:10546200820E1A24296EFF0E1B202A6E4EEF2AF09E
:10547200D890253626362736283622AE43EF2AF034
:1054820045EF2AF046EF2AF02580D8901F362036C5
:10549200213622362906D8A02A0627AE53EF2AF053
:1054A20055EF2AF039EF2AF0000E236E22AE5CEFA0
:1054B2002AF05EEF2AF082EF2AF0FF0E1F141A6E16
:1054C200FF0E20141B6EFF0E21141C6E7F0E221481
:1054D2001D6E1A501B101C101D10D8B473EF2AF049
:1054E20075EF2AF079EF2AF0010E236E82EF2AF08F
:1054F20025A07EEF2AF080EF2AF082EF2AF075EFE6
:105502002AF02350D8B488EF2AF08AEF2AF0AEEFBF
:105512002AF0010E2526000E26222722282228A064
:1055220095EF2AF097EF2AF0AEEF2AF025C01AF095
:1055320026C01BF027C01CF028C01DF01D341D32F0
:105542001C321B321A321AC025F01BC026F01CC0B6
:1055520027F01DC028F0294A2A2A2ABEB9EF2AF0CC
:105562002A5008E12928D8A0B9EF2AF0BBEF2AF087
:10557200C5EF2AF0000E256E000E266E800E276EF5
:105582007F0E286EF3EF2AF02ABED2EF2AF02A50BD
:1055920006E12904D8B0D0EF2AF0D2EF2AF0DEEFEC
:1055A2002AF0000E256E000E266E000E276E000EEB
:1055B200286E000E1E6EF3EF2AF029C024F0FF0EB3
:1055C2002516FF0E26167F0E2716000E281624A07B
:1055D200EDEF2AF0EFEF2AF0F0EF2AF0278ED890C5
:1055E2002430286E1E50281225C012F026C013F057
:1055F20027C014F028C015F0120012C033F013C0F7
:1056020034F014C035F015C036F0000E3314166EA7
:10561200000E3414176E800E3514186E7F0E361479
:10562200196E800E181809E17F0E1918161017103E
:10563200D8A41EEF2BF020EF2BF050EF2BF0FF0E33
:105642003314166EFF0E3414176E7F0E3514186E57
:10565200000E3614196E1650171018101910D8A40F
:1056620035EF2BF037EF2BF03EEF2BF036BE3EEF4F
:105672002BF03CEF2BF046EF2BF0FF0E3312FF0E18
:1056820034127F0E3512000E361233C012F034C0BF
:1056920013F035C014F036C015F0ECEF2CF036BE26
:1056A2005FEF2BF036503510341006E13304D8B0DA
:1056B2005DEF2BF05FEF2BF096EF2BF0FF0E331424
:1056C200166EFF0E3414176EFF0E3514186E7F0E11
:1056D2003614196E1650171018101910D8A474EF3A
:1056E2002BF076EF2BF080EF2BF0000E126E000EF7
:1056F200136E000E146E000E156EECEF2CF036BE1B
:1057020087EF2BF085EF2BF096EF2BF0000E0001C8
:10571200EB6F210EEA6FFF0E336EFF0E346EFF0E3B
:10572200356E7F0E366E46EF2BF0170E166E33C0B7
:1057320017F034C018F035C019F036C01AF01666EA
:10574200A5EF2BF0ADEF2BF01A341A3219321832C2
:105752001732162EA0EF2BF017C02BF018C02CF02A
:1057620019C02DF01AC02EF02B502C102D102E1017
:10577200D8A4BEEF2BF0C0EF2BF0F0EF2BF0000E11
:105782001F6E000E206E000E216E000E226ED5EFEF
:105792002BF0D8903336343635363636010E1F2686
:1057A200000E20222122222235AEDAEF2BF0DCEF8E
:1057B2002BF0CAEF2BF0FF0E1F24166EFF0E2020D7
:1057C200176EFF0E2120186EFF0E2220196E165042
:1057D2002B5E17502C5A18502D5A19502E5A810EE2
:1057E2002B26FF0E2C22FF0E2D22FF0E2E22FF0E45
:1057F2003314166EFF0E3414176E7F0E3514186EA6
:10580200000E3614196E000E1610336E000E1710AD
:10581200346E800E1810356E000E1910366E2BA0E5
:1058220015EF2CF017EF2CF01FEF2CF0335033262E
:105832003450342235503522365036222E342E3210
:105842002D322C322B323350332634503422355001
:10585200352236503622000E1B6E000E1C6E000ED4
:105862001D6E000E1E6E1BC023F01CC024F01DC056
:1058720025F01EC026F0000E2F6E000E306E000EB8
:10588200316E010E326E8EEF2CF01B502F24276EDC
:105892001C503020286E1D503120296E1E5032209F
:1058A2002A6E2750335C28503458295035583650C8
:1058B200800A166E2A50800A1658D8A063EF2CF080
:1058C20065EF2CF081EF2CF027502F241B6E28500F
:1058D20030201C6E295031201D6E2A5032201E6E3F
:1058E2002750335E2850345A2950355A2A50365A96
:1058F2002F50232630502422315025223250262286
:105902003350332634503422355035223650362225
:10591200D8903232313230322F322F503010311093
:105922003210D8A497EF2CF099EF2CF046EF2CF020
:105932003350341035103610D8B4A2EF2CF0A4EF47
:105942002CF0B8EF2CF0010E2314166E000E241466
:10595200176E000E2514186E000E2614196E1650BE
:10596200232617502422185025221950262223C0FC
:1059720016F024C017F025C018F026C019F019340B
:105982001932183217321632000E1624336E000EF8
:105992001720346E000E1820356E3F0E1920366E19
:1059A2002BC016F02CC017F02DC018F02EC019F025
:1059B200170ED8901636173618361936E82EDAEF43
:1059C2002CF0165033261750342218503522195015
:1059D200362246EF2BF012002E50800B3B6E2E50DB
:1059E2002E24426E2DAEF8EF2CF0FAEF2CF0FBEFE6
:1059F2002CF042804250D8B401EF2DF003EF2DF08D
:105A020018EF2DF04228D8A409EF2DF00BEF2DF05E
:105A120013EF2DF0000E2B6E000E2C6E000E2D6E6D
:105A2200000E2E6E2D8E000E2E6E20EF2DF0000E2B
:105A32002B6E000E2C6E000E2D6E000E2E6E32504E
:105A4200800B3B1A32503224436E31AE2BEF2DF0D5
:105A52002DEF2DF02EEF2DF043804350D8B434EFCC
:105A62002DF036EF2DF04BEF2DF04328D8A43CEF6C
:105A72002DF03EEF2DF046EF2DF0000E2F6E000EB2
:105A8200306E000E316E000E326E318E000E326EAE
:105A920053EF2DF0000E2F6E000E306E000E316EA1
:105AA200000E326E2F50301031103210D8A45CEF3D
:105AB2002DF05EEF2DF076EF2DF0000E2B6E000E26
:105AC2002C6E000E2D6E000E2E6E800E2D127F0E8D
:105AD2002E123B502E122BC02BF02CC02CF02DC0BE
:105AE2002DF02EC02EF0B9EF2EF04250D8A47CEF4C
:105AF2002DF07EEF2DF088EF2DF0000E2B6E000EB4
:105B02002C6E000E2D6E000E2E6EB9EF2EF043504D
:105B120042C033F0346A335E000E345A7F0E3324AF
:105B22003C6E000E34203D6E2BC037F02CC038F096
:105B32002DC039F02EC03AF0000E2B6E000E2C6EE6
:105B4200000E2D6E000E2E6E000E3E6E000E3F6E8B
:105B5200000E406E000E416E000E436EE9EF2DF016
:105B62004350D8B4B7EF2DF0B9EF2DF0D0EF2DF0B0
:105B7200D8903736383639363A36D8902B362C36D6
:105B82002D362E3641AEC8EF2DF0CAEF2DF0CBEFF9
:105B92002DF02B80D8903E363F36403641362F507E
:105BA200375C305038583150395832503A58D8A0B2
:105BB200DDEF2DF0DFEF2DF0E8EF2DF0418C2F50CF
:105BC200375E3050385A3150395A32503A5A432A95
:105BD200190E4364EFEF2DF0F1EF2DF0B1EF2DF040
:105BE2003750381039103A10D8B4FAEF2DF0FCEFD4
:105BF2002DF014EF2EF03E8014EF2EF0D8902B36BD
:105C02002C362D362E3641AE09EF2EF00BEF2EF04C
:105C12000CEF2EF02B80D8903E363F364036413680
:105C22003C06D8A03D062DAE19EF2EF01BEF2EF04C
:105C3200FFEF2DF0000E436E41AE22EF2EF024EF67
:105C42002EF048EF2EF0FF0E3E14336EFF0E3F147F
:105C5200346EFF0E4014356E7F0E4114366E335093
:105C6200341035103610D8B439EF2EF03BEF2EF049
:105C72003FEF2EF0010E436E48EF2EF02BA044EFC3
:105C82002EF046EF2EF048EF2EF03BEF2EF0435071
:105C9200D8B44EEF2EF050EF2EF074EF2EF0010E2E
:105CA2002B26000E2C222D222E222EA05BEF2EF070
:105CB2005DEF2EF074EF2EF02BC033F02CC034F0D9
:105CC2002DC035F02EC036F036343632353234320D
:105CD200333233C02BF034C02CF035C02DF036C037
:105CE2002EF03C4A3D2A3DBE7FEF2EF03D5008E1AA
:105CF2003C28D8A07FEF2EF081EF2EF08CEF2EF013
:105D0200000E3D6E3C68000E2B6E000E2C6E000ED7
:105D12002D6E000E2E6E3DBE99EF2EF03D5006E127
:105D22003C04D8B097EF2EF099EF2EF0A7EF2EF0AB
:105D3200000E3D6E000E3C6E000E2B6E000E2C6EA1
:105D4200000E2D6E000E2E6E000E3B6E3CC042F019
:105D520042A0AEEF2EF0B0EF2EF0B3EF2EF02D8E6C
:105D6200B4EF2EF02D9ED89042302E6E6AEF2DF0B9
:105D720012002BC039F02CC03AF02DC03BF02EC0DF
:105D82003CF030BECEEF2EF0305009E1800E2F5C99
:105D9200D8A0CEEF2EF0D0EF2EF02EEF2FF039C09C
:105DA20012F03AC013F03BC014F03CC015F0000EE4
:105DB200166E000E176E000E186E7F0E196EE9EC4D
:105DC20028F012C039F013C03AF014C03BF015C0ED
:105DD2003CF0810E2F26FF0E302230BEFAEF2EF05D
:105DE200305009E1800E2F5CD8A0FAEF2EF0FCEFC4
:105DF2002EF098EF2FF039C012F03AC013F03BC0EA
:105E020014F03CC015F0000E166E000E176E000E58
:105E1200186E7F0E196EE9EC28F012C039F013C02B
:105E22003AF014C03BF015C03CF0810E2F26FF0E55
:105E3200302230BE26EF2FF0305009E1800E2F5C69
:105E4200D8A026EF2FF028EF2FF098EF2FF0000EBA
:105E5200306E7F0E2F6E98EF2FF030AE3AEF2FF0AC
:105E6200820E2F5CFF0E3058D8B03AEF2FF03CEF85
:105E72002FF098EF2FF039C012F03AC013F03BC068
:105E820014F03CC015F0000E166E000E176E800E58
:105E9200186E0C0E196EE9EC28F012C039F013C01E
:105EA2003AF014C03BF015C03CF0660E2F26000EEF
:105EB200302230AE66EF2FF0820E2F5CFF0E30588C
:105EC200D8B066EF2FF068EF2FF098EF2FF039C0BF
:105ED20012F03AC013F03BC014F03CC015F0000EB3
:105EE200166E000E176E800E186E0C0E196EE9EC0F
:105EF20028F012C039F013C03AF014C03BF015C0BC
:105F02003CF0660E2F26000E302230AE92EF2FF0BC
:105F1200820E2F5CFF0E3058D8B092EF2FF094EF24
:105F22002FF098EF2FF0FF0E306E820E2F6E7F0E45
:105F32002F24316E000E3020326E336A346A170E0F
:105F4200D8903136323633363436E82EA1EF2FF080
:105F520031C035F032C036F033C037F034C038F0DB
:105F620035C012F036C013F037C014F038C015F047
:105F720039C016F03AC017F03BC018F03CC019F017
:105F8200E9EC28F012C02BF013C02CF014C02DF055
:105F920015C02EF02BC02BF02CC02CF02DC02DF0F4
:105FA2002EC02EF012000D50D96EDA6ADFCFF6FF46
:105FB2000E0EF76E000EF86E0800F550250AD8A4F2
:105FC200E5EF2FF0E7EF2FF0ABEF30F00D50D96E89
:105FD200DA6ADF2A000E0001ED6F000EEC6FECC0F2
:105FE20058F0EE69EF690D50D96EDA6ADF50116E22
:105FF20011C0F6FF0E0EF76E000EF86E0800F55097
:10600200640AD8B407EF30F009EF30F019EF30F03E
:1060120011C0F6FF0E0EF76E000EF86E0800F55076
:10602200690AD8A417EF30F019EF30F0A5EF30F07D
:106032000E50D96EDA6A020EDF26DF5CD96EDA6A9A
:10604200DECF12F0DECF13F00D50D96EDA6A1128CE
:10605200DF6E200E166E13BE31EF30F034EF30F0EB
:10606200010E35EF30F0000E106E1606B80E162433
:10607200D96EDA6A010EDA2212C002F013C003F0FE
:10608200000E056E0A0E046E3DEC37F002C008F0F9
:1060920003C009F06AEC3AF00850300FDF6E12C00C
:1060A20002F013C003F0000E056E0A0E046E20EC1F
:1060B20036F002C012F003C013F012501310D8B41D
:1060C20065EF30F067EF30F06FEF30F01650D8A484
:1060D2006DEF30F06FEF30F036EF30F01650D8B48D
:1060E20075EF30F077EF30F09AEF30F01050D8B40F
:1060F2007DEF30F07FEF30F09AEF30F01606B80EF9
:106102001624D96EDA6A010EDA222D0EDF6E9AEFAC
:1061120030F0B80E1624D96EDA6A010EDA22DF5098
:106122000F6E0F50026E036A0CC004F0E0EC36F002
:10613200162A200E1618D8A4A1EF30F0A3EF30F0E3
:106142008AEF30F0BEEF30F00D50D96EDA6ADF2AF6
:10615200BEEF30F00D50D96EDA6ADFCFF6FF0E0EC9
:10616200F76E000EF86E0800F550026E036A0CC05E
:1061720004F0E0EC36F0A5EF30F01200156E155089
:10618200D8B4C6EF30F0C8EF30F0EAEF30F010BE0E
:10619200CFEF30F0CDEF30F0EAEF30F00DC011F07C
:1061A2000EC012F00FC013F010C014F0111E121E18
:1061B200131E141E112A000E12221322142211C0C1
:1061C20017F012C018F013C019F014C01AF0F2EF51
:1061D20030F00DC017F00EC018F00FC019F010C04B
:1061E2001AF00D500E100F101010D8A4FBEF30F063
:1061F200FDEF30F007EF31F0000E0D6E000E0E6E67
:10620200000E0F6E000E106E98EF31F0960E166EA5
:1062120011EF31F0162AD8901A3219321832173289
:10622200000E1714116E000E1814126E000E1914BF
:10623200136EFE0E1A14146E115012101310141055
:10624200D8A426EF31F028EF31F00BEF31F036EF22
:1062520031F0162A010E1726000E182219221A22D0
:10626200D8901A32193218321732000E1714116EE2
:10627200000E1814126E000E1914136EFF0E1A146B
:10628200146E1150121013101410D8A44BEF31F0E9
:106292004DEF31F02AEF31F055EF31F01606D8907C
:1062A2001736183619361A3619BE5AEF31F05CEF26
:1062B20031F064EF31F0020E166062EF31F064EFFC
:1062C20031F04FEF31F016B069EF31F06BEF31F092
:1062D2006CEF31F0199ED890163216C011F0126A86
:1062E200136A146A11C014F0136A126A116A115007
:1062F2001712125018121350191214501A12155064
:10630200D8B486EF31F088EF31F090EF31F010BE63
:106312008FEF31F08DEF31F090EF31F01A8E17C020
:106322000DF018C00EF019C00FF01AC010F01200D4
:1063320020EE02F00F50D9261050DA22DF50D8B4E6
:10634200A5EF31F0A7EF31F0DBEF31F00FC0D9FF4D
:1063520010C0DAFFDF50116E1150026E036A20EE98
:1063620003F00F50D9261050DA22DECF04F0DDCF31
:1063720005F0C5EC3AF002C008F003C009F0000EC7
:106382000B6E640E0A6E7DEC38F020EE03F00F50B7
:10639200D9261050DA22DF50126E0850125C136EAA
:1063A20020EE03F00F50D9261050DA22DF50146E7F
:1063B200FEEF31F0000E136E0FC0D9FF10C0DAFFEE
:1063C200DF50116E1150026E036A20EE03F00F507F
:1063D200D9261050DA22DECF04F0DDCF05F0C5EC6D
:1063E2003AF002C008F003C009F0000E0B6E640E12
:1063F2000A6E7DEC38F00850146E20EE01F00F505A
:10640200D9261050DA22DF50D8B40AEF32F00CEF5E
:1064120032F02EEF32F020EE05F00F50D926105058
:10642200DA22DECF11F0DDCF12F011C0D9FF12C097
:10643200DAFF13C0DFFF20EE07F00F50D92610500D
:10644200DA22DECF11F0DDCF12F011C0D9FF12C077
:10645200DAFF14C0DFFF4EEF32F020EE05F00F50EE
:10646200D9261050DA22DECF11F0DDCF12F011C0A2
:10647200D9FF12C0DAFF14C0DFFF20EE07F00F5081
:10648200D9261050DA22DECF11F0DDCF12F011C082
:10649200D9FF12C0DAFF13C0DFFF120020EE01F0B5
:1064A2001950D9261A50DA22010EDF6E20EE01F0C1
:1064B2001B50D9261C50DA22010EDF6E97EF32F004
:1064C20019C0D9FF1AC0DAFF460EDF606BEF32F057
:1064D2006DEF32F072EF32F019C0D9FF1AC0DAFF55
:1064E200DF2A1BC0D9FF1CC0DAFF460EDF607CEF3B
:1064F20032F07EEF32F083EF32F01BC0D9FF1CC0C6
:10650200DAFFDF2A19C00FF01AC010F099EC31F04F
:106512001BC00FF01CC010F099EC31F0150E1D6E6F
:10652200C60EE82EFED71D2EFCD700D019C0D9FF0B
:106532001AC0DAFF450EDF64A1EF32F0A3EF32F0AA
:1065420061EF32F01BC0D9FF1CC0DAFF450EDF64D9
:10655200ADEF32F0AFEF32F061EF32F01B0E1E6E94
:10656200CA0E1D6E100EE82EFED71D2EFCD71E2E53
:10657200FAD700D019C015F01AC016F01BC017F0D8
:106582001CC018F0E6EC37F0150E1E6E4B0E1D6E99
:10659200BE0EE82EFED71D2EFCD71E2EFAD700D037
:1065A200120020EE01F01950D9261A50DA22010EFB
:1065B200DF6E20EE01F01B50D9261C50DA22010EAC
:1065C200DF6E1AEF33F019C0D9FF1AC0DAFF460E98
:1065D200DF60EEEF32F0F0EF32F0F5EF32F019C09B
:1065E200D9FF1AC0DAFFDF2A1BC0D9FF1CC0DAFFAD
:1065F200460EDF60FFEF32F001EF33F006EF33F0CB
:106602001BC0D9FF1CC0DAFFDF2A19C00FF01AC065
:1066120010F099EC31F01BC00FF01CC010F099EC97
:1066220031F0150E1D6EC60EE82EFED71D2EFCD7BC
:1066320000D019C0D9FF1AC0DAFF450EDF6424EF7B
:1066420033F026EF33F0E4EF32F01BC0D9FF1CC069
:10665200DAFF450EDF6430EF33F032EF33F0E4EF70
:1066620032F06E0E1E6E940E1D6EA80EE82EFED730
:106672001D2EFCD71E2EFAD719C015F01AC016F01F
:106682001BC017F01CC018F0E6EC37F0150E1E6E9A
:106692004B0E1D6EBE0EE82EFED71D2EFCD71E2EF3
:1066A200FAD700D01200000E4C14546E000E4D1496
:1066B200556E800E4E14566E7F0E4F14576E545008
:1066C200551056105710D8A469EF33F06BEF33F022
:1066D20073EF33F0000E4C6E000E4D6E000E4E6ED8
:1066E200000E4F6E000E5014546E000E5114556E73
:1066F200800E5214566E7F0E5314576E545055101E
:1067020056105710D8A488EF33F08AEF33F092EF87
:1067120033F0000E506E000E516E000E526E000EDF
:10672200536E4FAE97EF33F099EF33F0A2EF33F0A1
:106732004C6C4D1ED8B04D2A4E1ED8B04E2A800E3B
:106742004F5653AEA7EF33F0A9EF33F0B2EF33F069
:10675200506C511ED8B0512A521ED8B0522A800E07
:106762005356000E4C1A000E4D1A000E4E1A800E91
:106772004F1A000E501A000E511A000E521A800EB5
:10678200531A50504C5C51504D5852504E58535021
:106792004F58D8B0CFEF33F0D1EF33F0D4EF33F01E
:1067A200D890D5EF33F0D880120020EE01F01950C6
:1067B200D9261A50DA22DF6A20EE01F01B50D926C0
:1067C2001C50DA22010EDF6E1DEF34F019C0D9FF22
:1067D2001AC0DAFF460EDF60F1EF33F0F3EF33F069
:1067E200F8EF33F019C0D9FF1AC0DAFFDF2A1BC055
:1067F200D9FF1CC0DAFF460EDF6002EF34F004EF6F
:1068020034F009EF34F01BC0D9FF1CC0DAFFDF2AD5
:1068120019C00FF01AC010F099EC31F01BC00FF044
:106822001CC010F099EC31F0150E1D6EC60EE82E4C
:10683200FED71D2EFCD700D019C0D9FF1AC0DAFF2F
:10684200450EDF6427EF34F029EF34F0E7EF33F041
:106852001BC0D9FF1CC0DAFF450EDF6433EF34F0F2
:1068620035EF34F0E7EF33F0340E1E6E230E1D6E5B
:10687200C40EE82EFED71D2EFCD71E2EFAD700D04E
:1068820019C015F01AC016F01BC017F01CC018F082
:10689200E6EC37F0120020EE01F01950D9261A501A
:1068A200DA22DF6A20EE01F01B50D9261C50DA22D0
