:0400000012EF00F00B
:100008005D828AA00AEF00F00CEF00F010EF00F01C
:100018008096610E23EC3BF05D92110026EF3AF0DA
:100E00000000000000DCCFD1350000000000C0155C
:100E10003F0000803F0000C03F70A5EC363BAAB801
:100E20003F4F38763F3CAA38338CBEBF3500723115
:100E30003F1872313F4CBB31330EEADDB555B38AF2
:100E400038610B36BBABAA2A3E42F1533E55326C99
:100E50003E05A38B3EABAAAA3EB76DDB3E9A99191D
:100E60003F0000804B00AAB83FC623F6B80040768A
:100E70003F616374696F6E203D202564200D0A0078
:010E80000071
:100E820060C068F161C069F162C06AF163C06BF170
:100E920064C084F165C085F166C086F167C087F1E0
:100EA200FF0E01016815AC6FFF0E6915AD6FFF0EE5
:100EB2006A15AE6F7F0E6B15AF6FFF0E8415946FC0
:100EC200FF0E8515956FFF0E8615966F7F0E87159F
:100ED200976F9451951196119711D8A473EF07F05B
:100EE20075EF07F080EF07F0000E0001606F000E53
:100EF200616F800E626F3F0E636F80EF19F0800E9C
:100F02006A1909E13F0E6B1968116911D8A48CEFB7
:100F120007F08EEF07F099EF07F0000E0001606F07
:100F2200000E616F800E626F3F0E636F80EF19F0EB
:100F3200AFBFAAEF07F0AC05000EAD59800EAE5957
:100F42007F0EAF59D8B0A8EF07F0AAEF07F0BBEFBA
:100F520007F097BFB9EF07F09405000E9559800E80
:100F620096597F0E9759D8A0B9EF07F0BBEF07F05B
:100F7200D7EF07F060C002F061C003F062C004F076
:100F820063C005F064C006F065C007F066C008F0F3
:100F920067C009F07CEC26F002C060F003C061F08B
:100FA20004C062F005C063F080EF19F0000E546FC8
:100FB200000E556F000E566F000E576F6BBFE6EFB7
:100FC20007F0E4EF07F0B2EF08F097BFF2EF07F097
:100FD200800E965D4B0E9759D8A0F2EF07F0F4EF12
:100FE20007F0FEEF07F0020E546F000E556F000E71
:100FF200566F000E576FB2EF08F097BF0AEF08F076
:10100200800E965D3F0E9759D8A00AEF08F00CEFBC
:1010120008F0B2EF08F0170E0001686F94C169F092
:1010220095C16AF096C16BF097C16CF068671CEFCE
:1010320008F024EF08F06C356C336B336A33693394
:10104200682F17EF08F0810E000169250101A46FD6
:10105200FF0E00016A210101A56FFF0E00016B2145
:101062000101A66FFF0E00016C210101A76FA451BF
:1010720017080001686F94C169F095C16AF096C1C2
:101082006BF097C16CF0686749EF08F051EF08F018
:101092006C356C336B336A336933682F44EF08F075
:1010A20069C0A8F16AC0A9F16BC0AAF16CC0ABF12A
:1010B2000101A45117080001686FA8C169F0A9C114
:1010C2006AF0AAC16BF0ABC16CF0682B6EEF08F04E
:1010D200D89069376A376B376C37682F69EF08F039
:1010E200010194510001691913E1010195510001B7
:1010F2006A190EE10101965100016B1909E1010122
:10110200975100016C19D8A489EF08F08BEF08F011
:10111200B2EF08F0010E0101A8150001686F000E80
:101122000101A9150001696F000E0101AA15000154
:101132006A6F000E0101AB1500016B6F6851020866
:101142000101546F000E000169550101556F000E37
:1011520000016A550101566F000E00016B55010135
:10116200576F800E0101961909E17F0E97199411AC
:101172009511D8A4BFEF08F0C1EF08F02DEF09F0E8
:10118200800EAE1909E13F0EAF19AC11AD11D8A412
:10119200CDEF08F0CFEF08F0DAEF08F0000E000113
:1011A200606F000E616F800E626F3F0E636F80EFA3
:1011B20019F0AFBFE9EF08F0AC05000EAD59800E93
:1011C200AE593F0EAF59D8A0E9EF08F0EBEF08F0A7
:1011D20007EF09F087BFF2EF08F0F0EF08F0FDEF3C
:1011E20008F0000E0001606F000E616F000E626F6A
:1011F200000E636F80EF19F064C060F065C061F0AB
:1012020066C062F067C063F080EF19F087BF0EEF2F
:1012120009F00CEF09F022EF09F064C002F065C09A
:1012220003F066C004F067C005F042EC3AF002C079
:1012320060F003C061F004C062F005C063F080EFAB
:1012420019F0000E0001606F000E616F000E626FF8
:10125200000E636F80EF19F0800E961909E13F0EC0
:10126200971994119511D8A439EF09F03BEF09F0C1
:1012720068EF09F087BF42EF09F040EF09F05EEF37
:1012820009F0000E2B6E000E2C6E800E2D6E3F0E9E
:101292002E6E60C02FF061C030F062C031F063C0CA
:1012A20032F0E0EC2CF02BC060F02CC061F02DC0CD
:1012B20062F02EC063F080EF19F060C060F061C090
:1012C20061F062C062F063C063F080EF19F0400E1B
:1012D2008719841185118611D8A472EF09F074EF71
:1012E20009F090EF09F060C012F061C013F062C023
:1012F20014F063C015F060C016F061C017F062C050
:1013020018F063C019F0DCEC28F012C060F013C0D2
:1013120061F014C062F015C063F080EF19F03F0E67
:101322008719841185118611D8A49AEF09F09CEFD0
:1013320009F0B7EF09F06BBFA1EF09F0A3EF09F0D5
:10134200B7EF09F060C012F061C013F062C014F090
:1013520063C015F0F1EC2AF012C060F013C061F026
:1013620014C062F015C063F080EF19F0ACC178F1DF
:10137200ADC179F1AEC17AF1AFC17BF1800EAE1988
:101382000BE17F0EAF19AC11AD11D8B4CBEF09F060
:10139200CDEF09F0E6EF09F0AC51AD11AE11AF118E
:1013A200D8B4D6EF09F0D8EF09F0E6EF09F0800ED5
:1013B200AE1909E13F0EAF19AC11AD11D8A4E4EF9B
:1013C20009F0E6EF09F081EF0AF078C1B4F179C1D2
:1013D200B5F17AC1B6F17BC1B7F187BFF5EF09F07C
:1013E200F3EF09F00FEF0AF0000E2B6E000E2C6ED9
:1013F200800E2D6E3F0E2E6EB4C12FF0B5C130F0AF
:10140200B6C131F0B7C132F0E0EC2CF02BC0B4F130
:101412002CC0B5F12DC0B6F12EC0B7F101016BBFE2
:1014220017EF0AF015EF0AF077EF0AF0000EAC257D
:101432000001686F000E0101AD210001696F800E8D
:101442000101AE2100016A6FC00E0101AF2100014E
:101452006B6F01015451000168116C6F010155510C
:10146200000169116D6F0101565100016A116E6F21
:101472000101575100016B116F6F6C516D116E11AB
:101482006F11D8A447EF0AF049EF0AF059EF0AF0BA
:10149200000E0001EB6F210EEA6FFF0E0101B46F27
:1014A200FF0EB56FFF0EB66F7F0EB76F77EF0AF0C4
:1014B20001015405551156115711D8A463EF0AF0D2
:1014C20065EF0AF077EF0AF0B4C102F0B5C103F09C
:1014D200B6C104F0B7C105F042EC3AF002C0B4F173
:1014E20003C0B5F104C0B6F105C0B7F1B4C160F0F4
:1014F200B5C161F0B6C162F0B7C163F080EF19F017
:10150200000E646F000E656F000E666F000E676F4F
:101512006BBF90EF0AF08EEF0AF0B0EF0AF0545171
:10152200551156115711D8A499EF0AF09BEF0AF002
:101532009DEF0AF049EF0AF0540555115611571163
:10154200D8A4A6EF0AF0A8EF0AF0B0EF0AF0000E56
:10155200646F000E656F000E666F800E676F97BF37
:10156200BFEF0AF09405000E9559000E96594D0EE4
:101572009759D8A0BFEF0AF0C1EF0AF085EF0CF03F
:10158200AFBFD3EF0AF0F80EAC5DFF0EAD597F0E80
:10159200AE593F0EAF59D8B0D1EF0AF0D3EF0AF0EF
:1015A200F4EF0AF087BFDAEF0AF0D8EF0AF0E9EFBA
:1015B2000AF0000E01016411B46F000E6511B56FDF
:1015C200800E6611B66F7F0E6711B76F77EF0AF064
:1015D200000E0001606F000E616F000E626F000E60
:1015E200636F80EF19F0AFBF04EF0BF0080EAC5D34
:1015F200000EAD59800EAE593F0EAF59D8A004EF80
:101602000BF006EF0BF022EF0BF087BF13EF0BF09E
:1016120087518611851108E18405D8A013EF0BF0DC
:1016220015EF0BF017EF0BF0DAEF0AF0000E0001E6
:10163200606F000E616F000E626F000E636F80EFCD
:1016420019F078C102F079C103F07AC104F07BC1CC
:1016520005F0000E066E000E076E800E086EBF0EBD
:10166200096E7CEC26F002C0B0F103C0B1F104C0F7
:10167200B2F105C0B3F1000E166E000E176E800EA9
:10168200186E3E0E196EB0C112F0B1C113F0B2C1A4
:1016920014F0B3C115F0DCEC28F012C048F013C00E
:1016A20049F014C04AF015C04BF0AB0E446EAA0EBE
:1016B200456EAA0E466E3E0E476EA3EC39F044C04C
:1016C20048F145C049F146C04AF147C04BF1B0C1AB
:1016D20016F0B1C117F0B2C118F0B3C119F0B0C120
:1016E20012F0B1C113F0B2C114F0B3C115F0DCECC9
:1016F20028F012C05CF113C05DF114C05EF115C098
:101702005FF1B0C116F0B1C117F0B2C118F0B3C1A8
:1017120019F048C112F049C113F04AC114F04BC18B
:1017220015F0DCEC28F012C048F013C049F014C0E8
:101732004AF015C04BF0000E446E000E456E000ECE
:10174200466E3F0E476EA3EC39F044C04CF145C0E3
:101752004DF146C04EF147C04FF15CC112F05DC180
:1017620013F05EC114F05FC115F04CC116F04DC10B
:1017720017F04EC118F04FC119F0DCEC28F012C07E
:1017820044F113C045F114C046F115C047F1B0C190
:1017920012F0B1C113F0B2C114F0B3C115F0000ED2
:1017A200166EAA0E176EB80E186E3F0E196EDCEC8E
:1017B20028F012C07CF113C07DF114C07EF115C077
:1017C2007FF1700E166EA50E176EEC0E186E360EA9
:1017D200196EB0C112F0B1C113F0B2C114F0B3C1AD
:1017E20015F0DCEC28F012C044F013C045F014C030
:1017F20046F015C047F03B0E166EAA0E176EB80ED5
:10180200186E3F0E196E44C112F045C113F046C165
:1018120014F047C115F0DCEC28F012C048F013C0F8
:1018220049F014C04AF015C04BF0A3EC39F044C0A3
:1018320080F145C081F146C082F147C083F17CC18D
:1018420002F07DC103F07EC104F07FC105F080C1CA
:1018520006F081C107F082C108F083C109F07CEC77
:1018620026F002C08CF103C08DF104C08EF105C0D8
:101872008FF18CC198F18DC199F18EC19AF18FC10E
:101882009BF1000E010198158C6FF00E99158D6F6A
:10189200FF0E9A158E6FFF0E9B158F6F7CC148F05D
:1018A2007DC149F07EC14AF07FC14BF08CC144F04A
:1018B2008DC145F08EC146F08FC147F0A3EC39F0DF
:1018C20044C09CF145C09DF146C09EF147C09FF1C6
:1018D20080C144F081C145F082C146F083C147F026
:1018E2009CC148F09DC149F09EC14AF09FC14BF096
:1018F200A3EC39F044C01CF145C01DF146C01EF1F5
:1019020047C01FF179EF13F0000E886F000E896F48
:10191200000E8A6F000E8B6FAFBF9BEF0CF0AF51C2
:1019220007E1800EAE5DD8B099EF0CF09BEF0CF0A2
:10193200C6EF0CF078C112F079C113F07AC114F03D
:101942007BC115F0000E166E000E176E800E186E1B
:101952004B0E196EDCEC28F012C078F113C079F14D
:1019620014C07AF115C07BF1E80E01018827FF0E41
:101972008923FF0E8A23FF0E8B2378C1ACF179C134
:10198200ADF17AC1AEF17BC1AFF1170E0001686F04
:10199200ACC169F0ADC16AF0AEC16BF0AFC16CF021
:1019A2006867D6EF0CF0DEEF0CF06C356C336B33FE
:1019B2006A336933682FD1EF0CF0810E000169257B
:1019C2006D6FFF0E6A216E6FFF0E6B216F6FFF0E40
:1019D2006C21706F6D510101882700016E51010168
:1019E200892300016F5101018A2300017051010115
:1019F2008B23FF0EAC15A86FFF0EAD15A96F7F0EDE
:101A0200AE15AA6F000EAF15AB6F000EA46F000EDD
:101A1200A56F000EA66F000EA76F000EA811AC6F87
:101A2200000EA911AD6F800EAA11AE6F3F0EAB1161
:101A3200AF6FABBF2CEF0DF0AB510BE1720EA85D97
:101A4200C40EA9591C0EAA59D8B02AEF0DF02CEFDA
:101A52000DF02EEF0DF058EF0DF0ABBF40EF0DF093
:101A6200AB510BE1D70EA85DB30EA9595D0EAA5971
:101A7200D8B03EEF0DF040EF0DF04AEF0DF0010E41
:101A8200A46F000EA56F000EA66F000EA76F58EF91
:101A92000DF0010E8827000E89238A238B23000E66
:101AA200AC27000EAD23800EAE23FF0EAF23ACC1D8
:101AB20078F1ADC179F1AEC17AF1AFC17BF178C1F4
:101AC20044F079C145F07AC146F07BC147F0A45198
:101AD200040DF350110F0001686F68C0F6FF0E0E7F
:101AE200F76E000EF86E0900F5CF48F00900F5CF49
:101AF20049F00900F5CF4AF00A00F5CF4BF0A3EC0C
:101B020039F044C07CF145C07DF146C07EF147C04A
:101B12007FF1000E2B6E000E2C6E800E2D6E3F0E8E
:101B22002E6E78C106F079C107F07AC108F07BC148
:101B320009F00101A451040DF350110F0001686F67
:101B420068C0F6FF0E0EF76E000EF86E0900F5CFB4
:101B520002F00900F5CF03F00900F5CF04F00A0006
:101B6200F5CF05F07CEC26F002C02FF003C030F078
:101B720004C031F005C032F0E0EC2CF02BC080F153
:101B82002CC081F12DC082F12EC083F17CC112F0F4
:101B92007DC113F07EC114F07FC115F080C116F033
:101BA20081C117F082C118F083C119F0DCEC28F072
:101BB20012C058F113C059F114C05AF115C05BF1AB
:101BC20058C174F159C175F15AC176F15BC177F10F
:101BD20074C198F175C199F176C19AF177C19BF1FF
:101BE200000E01019815746FF00E9915756FFF0EB6
:101BF2009A15766FFF0E9B15776FACC168F0ADC179
:101C020069F0AEC16AF0AFC16BF000016B356B33A6
:101C12006A3369336833000E68156C6FF00E69150C
:101C22006D6FFF0E6A156E6FFF0E6B156F6F000EF4
:101C32006C110101986F000E00016D110101996F85
:101C4200000E00016E1101019A6F200E00016F114A
:101C520001019B6FA4C168F0A5C169F0A6C16AF039
:101C6200A7C16BF0150ED8900001683769376A3743
:101C72006B37E82E34EF0EF0010198510001682510
:101C82006C6F01019951000169216D6F01019A5137
:101C920000016A216E6F01019B5100016B216F6F80
:101CA200000E6C250101706F000E00016D21010113
:101CB200716F400E00016E210101726F000E000172
:101CC2006F210101736FA451040DF350110F000134
:101CD200686F68C0F6FF0E0EF76E000EF86E090010
:101CE200F5CF48F00900F5CF49F00900F5CF4AF0E9
:101CF2000A00F5CF4BF070C144F071C145F072C1DA
:101D020046F073C147F0A3EC39F044C09CF145C0E2
:101D12009DF146C09EF147C09FF178C144F079C160
:101D220045F07AC146F07BC147F09CC148F09DC1A5
:101D320049F09EC14AF09FC14BF0A3EC39F044C078
:101D420034F145C035F146C036F147C037F170C1B4
:101D520016F071C117F072C118F073C119F074C195
:101D620012F075C113F076C114F077C115F0DCECF6
:101D720028F012C048F013C049F014C04AF015C050
:101D82004BF07CC144F07DC145F07EC146F07FC17D
:101D920047F0A3EC39F044C09CF145C09DF146C028
:101DA2009EF147C09FF134C116F035C117F036C11C
:101DB20018F037C119F074C112F075C113F076C171
:101DC20014F077C115F0DCEC28F012C048F013C013
:101DD20049F014C04AF015C04BF09CC144F09DC1BB
:101DE20045F09EC146F09FC147F0A3EC39F044C0D4
:101DF2005CF145C05DF146C05EF147C05FF15CC178
:101E020012F05DC113F05EC114F05FC115F080C124
:101E120016F081C117F082C118F083C119F0DCEC11
:101E220028F012C030F113C031F114C032F115C0E4
:101E320033F158C112F059C113F05AC114F05BC109
:101E420015F058C116F059C117F05AC118F05BC10C
:101E520019F0DCEC28F012C090F113C091F114C01B
:101E620092F115C093F1550E066E320E076E6C0E8E
:101E7200086E3E0E096E420E166EF10E176E530E6E
:101E8200186E3E0E196E90C112F091C113F092C1FC
:101E920014F093C115F0DCEC28F012C002F013C06C
:101EA20003F014C004F015C005F07CEC26F002C06B
:101EB20048F103C049F104C04AF105C04BF1050ED7
:101EC200066EA30E076E8B0E086E3E0E096E90C153
:101ED20016F091C117F092C118F093C119F048C1E0
:101EE20012F049C113F04AC114F04BC115F0DCECF9
:101EF20028F012C002F013C003F014C004F015C0A1
:101F020005F07CEC26F002C05CF103C05DF104C078
:101F12005EF105C05FF1AB0E066EAA0E076EAA0E49
:101F2200086E3E0E096E90C116F091C117F092C173
:101F320018F093C119F05CC112F05DC113F05EC1DB
:101F420014F05FC115F0DCEC28F012C002F013C0EF
:101F520003F014C004F015C005F07CEC26F002C0BA
:101F62004CF103C04DF104C04EF105C04FF1B70E64
:101F7200066E6D0E076EDB0E086E3E0E096E90C188
:101F820016F091C117F092C118F093C119F04CC12B
:101F920012F04DC113F04EC114F04FC115F0DCEC3C
:101FA20028F012C002F013C003F014C004F015C0F0
:101FB20005F07CEC26F002C038F103C039F104C010
:101FC2003AF105C03BF19A0E066E990E076E190E94
:101FD200086E3F0E096E90C116F091C117F092C1C2
:101FE20018F093C119F038C112F039C113F03AC197
:101FF20014F03BC115F0DCEC28F012C002F013C063
:1020020003F014C004F015C005F07CEC26F002C009
:1020120000F103C001F104C002F105C003F190C157
:1020220016F091C117F092C118F093C119F090C146
:1020320012F091C113F092C114F093C115F0DCECCF
:1020420028F012C004F113C005F114C006F115C046
:1020520007F100C112F001C113F002C114F003C173
:1020620015F004C116F005C117F006C118F007C13A
:1020720019F0DCEC28F012C050F113C051F114C079
:1020820052F115C053F130C116F031C117F032C10F
:1020920018F033C119F058C106F059C107F05AC1FE
:1020A20008F05BC109F074C102F075C103F076C19A
:1020B20004F077C105F07CEC26F002C012F003C0F8
:1020C20013F004C014F005C015F0DCEC28F012C0C7
:1020D20060F113C061F114C062F115C063F150C127
:1020E20002F051C103F052C104F053C105F060C1C6
:1020F20006F061C107F062C108F063C109F07CEC2F
:1021020026F002C050F103C051F104C052F105C0E3
:1021120053F174C112F075C113F076C114F077C196
:1021220015F074C116F075C117F076C118F077C1B9
:1021320019F0DCEC28F012C090F113C091F114C038
:1021420092F115C093F1000E066E000E076E400E5E
:10215200086E400E096E90C102F091C103F092C167
:1021620004F093C105F07CEC26F002C060F103C0DC
:1021720061F104C062F105C063F160C102F061C1A6
:1021820003F062C104F063C105F050C106F051C111
:1021920007F052C108F053C109F07CEC26F002C0EE
:1021A20070F103C071F104C072F105C073F170C126
:1021B20098F171C199F172C19AF173C19BF1000E4C
:1021C20001019815706FF00E9915716FFF0E9A1537
:1021D200726FFF0E9B15736F000E066E000E076E78
:1021E200400E086EC00E096E70C102F071C103F09C
:1021F20072C104F073C105F07CEC26F002C03CF120
:1022020003C03DF104C03EF105C03FF190C148F06A
:1022120091C149F092C14AF093C14BF03CC144F0E4
:102222003DC145F03EC146F03FC147F0A3EC39F055
:1022320044C040F145C041F146C042F147C043F1BC
:1022420050C144F051C145F052C146F053C147F06C
:1022520040C148F041C149F042C14AF043C14BF08C
:10226200A3EC39F044C034F145C035F146C036F133
:1022720047C037F174C112F075C113F076C114F082
:1022820077C115F070C116F071C117F072C118F064
:1022920073C119F0DCEC28F012C07CF113C07DF19F
:1022A20014C07EF115C07FF130C116F031C117F0B4
:1022B20032C118F033C119F070C112F071C113F0BC
:1022C20072C114F073C115F0DCEC28F012C002F0F8
:1022D20013C003F014C004F015C005F058C116F085
:1022E20059C117F05AC118F05BC119F034C112F08C
:1022F20035C113F036C114F037C115F0DCEC28F00B
:1023020012C006F013C007F014C008F015C009F09F
:102312007CEC26F002C080F103C081F104C082F19E
:1023220005C083F17CC102F07DC103F07EC104F0DF
:102332007FC105F080C106F081C107F082C108F0BB
:1023420083C109F07CEC26F002C0A0F103C0A1F128
:1023520004C0A2F105C0A3F1A0C198F1A1C199F1F5
:10236200A2C19AF1A3C19BF1000E01019815A06FC1
:10237200F00E9915A16FFF0E9A15A26FFF0E9B1515
:10238200A36F7CC148F07DC149F07EC14AF07FC194
:102392004BF0A0C144F0A1C145F0A2C146F0A3C1D7
:1023A20047F0A3EC39F044C09CF145C09DF146C012
:1023B2009EF147C09FF180C144F081C145F082C1C6
:1023C20046F083C147F09CC148F09DC149F09EC1CF
:1023D2004AF09FC14BF0A3EC39F044C06CF145C008
:1023E2006DF146C06EF147C06FF1A0C112F0A1C1FC
:1023F20013F0A2C114F0A3C115F0000E166E400E28
:10240200176E760E186E3F0E196EDCEC28F012C0B5
:1024120020F113C021F114C022F115C023F14F0E97
:10242200166E380E176E760E186E3F0E196E6CC150
:1024320012F06DC113F06EC114F06FC115F0DCEC37
:1024420028F012C006F013C007F014C008F015C03F
:1024520009F0C60E166E230E176EF60E186EB80E23
:10246200196EA0C112F0A1C113F0A2C114F0A3C150
:1024720015F0DCEC28F012C002F013C003F014C017
:1024820004F015C005F07CEC26F002C060F103C038
:1024920061F104C062F105C063F160C102F061C183
:1024A20003F062C104F063C105F00101A451040DFF
:1024B200F350010F0001686F68C0F6FF0E0EF76E51
:1024C200000EF86E0900F5CF06F00900F5CF07F00F
:1024D2000900F5CF08F00A00F5CF09F07CEC26F0F0
:1024E20002C024F103C025F104C026F105C027F182
:1024F20088C10DF089C10EF08AC10FF08BC110F0B6
:10250200010EB2EC30F00DC0B0F10EC0B1F10FC04F
:10251200B2F110C0B3F124C106F025C107F026C103
:1025220008F027C109F020C102F021C103F022C145
:1025320004F023C105F07CEC26F002C060F103C078
:1025420061F104C062F105C063F10101A451040DFF
:10255200F350090F0001686F68C0F6FF0E0EF76EA8
:10256200000EF86E0900F5CF06F00900F5CF07F06E
:102572000900F5CF08F00A00F5CF09F060C102F0BA
:1025820061C103F062C104F063C105F07CEC26F086
:1025920002C008F103C009F104C00AF105C00BF141
:1025A20008C102F009C103F00AC104F00BC105F031
:1025B200B0C106F0B1C107F0B2C108F0B3C109F071
:1025C2007CEC26F002C08CF103C08DF104C08EF1C8
:1025D20005C08FF18CC198F18DC199F18EC19AF12C
:1025E2008FC19BF1000E010198158C6FF00E9915A9
:1025F2008D6FFF0E9A158E6FFF0E9B158F6FB0C1F8
:1026020048F0B1C149F0B2C14AF0B3C14BF08CC13C
:1026120044F08DC145F08EC146F08FC147F0A3EC66
:1026220039F044C09CF145C09DF146C09EF147C0BF
:102632009FF10101A451040DF350090F0001686FCD
:1026420068C0F6FF0E0EF76E000EF86E0900F5CFA9
:1026520048F00900F5CF49F00900F5CF4AF00A0029
:10266200F5CF4BF09CC144F09DC145F09EC146F0B0
:102672009FC147F0A3EC39F044C040F145C041F19D
:1026820046C042F147C043F120C148F021C149F0A0
:1026920022C14AF023C14BF040C144F041C145F090
:1026A20042C146F043C147F0A3EC39F044C00CF1FB
:1026B20045C00DF146C00EF147C00FF124C144F0F0
:1026C20025C145F026C146F027C147F00CC148F0AC
:1026D2000DC149F00EC14AF00FC14BF0A3EC39F025
:1026E20044C01CF145C01DF146C01EF147C01FF198
:1026F20064C098F165C099F166C09AF167C09BF118
:10270200000E010198152C6FF00E99152D6FFF0E1A
:102712009A152E6FFF0E9B152F6F8CC116F08DC16F
:1027220017F08EC118F08FC119F02CC148F02DC1DD
:1027320049F02EC14AF02FC14BF064C044F065C08D
:1027420045F066C046F067C047F0A3EC39F044C0DC
:1027520012F045C013F046C014F047C015F0DCEC8F
:1027620028F012C010F113C011F114C012F115C0FB
:1027720013F110C102F011C103F012C104F013C130
:1027820005F01CC116F01DC117F01EC118F01FC1C3
:1027920019F064C012F065C013F066C014F067C08F
:1027A20015F0DCEC28F012C006F013C007F014C0DC
:1027B20008F015C009F07CEC26F002C06CF103C0F1
:1027C2006DF104C06EF105C06FF12CC112F02DC184
:1027D20013F02EC114F02FC115F08CC116F08DC16B
:1027E20017F08EC118F08FC119F0DCEC28F012C07E
:1027F200A0F113C0A1F114C0A2F115C0A3F1A0C1B0
:1028020002F0A1C103F0A2C104F0A3C105F06CC1A2
:1028120006F06DC107F06EC108F06FC109F07CECE3
:1028220026F002C0B4F103C0B5F104C0B6F105C090
:10283200B7F1B4C1A8F1B5C1A9F1B6C1AAF1B7C146
:10284200ABF10101ABBF32EF14F0A805000EA9599C
:10285200000EAA59430EAB59D8A032EF14F034EF50
:1028620014F036EF14F0DAEF0AF0430EAB19A811A8
:10287200A911AA11D8A440EF14F042EF14F081EF8D
:1028820014F0A0C148F0A1C149F0A2C14AF0A3C10D
:102892004BF0B4C144F0B5C145F0B6C146F0B7C182
:1028A20047F0A3EC39F044C04CF045C04DF046C0AF
:1028B2004EF047C04FF03C0E066EAA0E076E380E61
:1028C200086E330E096E6CC102F06DC103F06EC169
:1028D20004F06FC105F07CEC26F002C050F003C09A
:1028E20051F004C052F005C053F047EC33F0D8B0B9
:1028F2007DEF14F07FEF14F0F4EF14F0DAEF0AF04A
:10290200FF0EA8150001686FFF0E0101A915000155
:10291200696FFF0E0101AA1500016A6F7F0E0101A6
:10292200AB1500016B6F6BBFA3EF14F06805000ECF
:102932006959160E6A59430E6B59D8A0A3EF14F0C9
:10294200A5EF14F0AFEF14F0000E606F000E616F90
:10295200000E626F000E636F80EF19F0160E010118
:10296200AA1909E1C30EAB19A811A911D8A4BCEF89
:1029720014F0BEEF14F0F4EF14F0A0C148F0A1C1BE
:1029820049F0A2C14AF0A3C14BF0B4C144F0B5C1B1
:1029920045F0B6C146F0B7C147F0A3EC39F044C0E8
:1029A2004CF045C04DF046C04EF047C04FF06CC1F0
:1029B20050F06DC151F06EC152F06FC153F047EC4F
:1029C20033F0D8A0E7EF14F0E9EF14F0F4EF14F0CD
:1029D200000E0001606F000E616F000E626F000E4C
:1029E200636F80EF19F0FF0E0101A815286FFF0E2B
:1029F200A915296FFF0EAA152A6F7F0EAB152B6F33
:102A0200170E0001686F28C169F029C16AF02AC156
:102A12006BF02BC16CF0686711EF15F019EF15F030
:102A22006C356C336B336A336933682F0CEF15F0F6
:102A3200810E000169250101A46FFF0E00016A21C8
:102A42000101A56FFF0E00016B210101A66FFF0EB0
:102A520000016C210101A76F000E886F000E896FC3
:102A6200000E8A6F000E8B6F2BBF44EF15F0280506
:102A7200000E2959000E2A593F0E2B59D8A044EFB7
:102A820015F046EF15F042EF16F0A4C168F0010E02
:102A920000016827000E696F000E6A6F800E6B6F6F
:102AA200000E6C6F686758EF15F060EF15F06C352B
:102AB2006C336B336A336933682F53EF15F00101BE
:102AC200A851000169250101886FA95100016A21FD
:102AD2000101896FAA5100016B2101018A6FAB517B
:102AE20000016C2101018B6F810E0001686FFF0EE6
:102AF200696FFF0E6A6FFF0E6B6F170E6C6F88C1E6
:102B02006DF089C16EF08AC16FF08BC170F06C6795
:102B12008DEF15F095EF15F0703570336F336E331E
:102B22006D336C2F88EF15F000016D51682501019E
:102B3200A46F000E000169210101A56F000E0001C2
:102B42006A210101A66F000E00016B210101A76F2E
:102B5200A4C168F0FF0E0001696FFF0E6A6F7F0E5D
:102B62006B6F000E6C6F6867B9EF15F0C1EF15F06F
:102B72006C356C336B336A336933682FB4EF15F0FD
:102B82000001691D6D6F6A1D6E6F6B1D6F6F6C1D8D
:102B9200706F0101885100016D150101B06F8951FB
:102BA20000016E150101B16F8A5100016F1501011B
:102BB200B26F8B51000170150101B36FA451170858
:102BC2000001686FFF0E010188150001696FFF0E99
:102BD2000101891500016A6F7F0E01018A1500014A
:102BE2006B6F000E01018B1500016C6F000E6911F5
:102BF2006D6F000E6A116E6F800E6B116F6F000E9B
:102C02006C11706F686708EF16F010EF16F07035F0
:102C120070336F336E336D33682F03EF16F06DC070
:102C220088F16EC089F16FC08AF170C08BF1010129
:102C3200ABBF20EF16F01EEF16F028EF16F08B1F39
:102C42008A1F891F886D000E89238A238B23A0C1C6
:102C520044F0A1C145F0A2C146F0A3C147F0B0C102
:102C620048F0B1C149F0B2C14AF0B3C14BF0A3EC94
:102C720039F044C0A0F145C0A1F146C0A2F147C05D
:102C8200A3F1A0C102F0A1C103F0A2C104F0A3C14B
:102C920005F06CC106F06DC107F06EC108F06FC19E
:102CA20009F07CEC26F002C0B0F103C0B1F104C01F
:102CB200B2F105C0B3F1B0C198F1B1C199F1B2C19D
:102CC2009AF1B3C19BF1000E01019815B06F800E0D
:102CD2009915B16FFF0E9A15B26FFF0E9B15B36F68
:102CE200B0C112F0B1C113F0B2C114F0B3C115F00A
:102CF200000E166E720E176E310E186E3F0E196EA2
:102D0200DCEC28F012C07CF113C07DF114C07EF11E
:102D120015C07FF1A0C148F0A1C149F0A2C14AF09B
:102D2200A3C14BF0B0C144F0B1C145F0B2C146F00D
:102D3200B3C147F0A3EC39F044C09CF145C09DF10A
:102D420046C09EF147C09FF1180E166E720E176EA6
:102D5200310E186E3F0E196E9CC148F09DC149F0AC
:102D62009EC14AF09FC14BF06CC144F06DC145F069
:102D72006EC146F06FC147F0A3EC39F044C012F0C7
:102D820045C013F046C014F047C015F0DCEC28F043
:102D920012C014F113C015F114C016F115C017F1C9
:102DA20014C102F015C103F016C104F017C105F0F9
:102DB2008C0E166EBE0E176EBF0E186E350E196E85
:102DC200B0C112F0B1C113F0B2C114F0B3C115F029
:102DD200DCEC28F012C006F013C007F014C008F0B3
:102DE20015C009F07CEC26F002C080F103C081F12D
:102DF20004C082F105C083F17CC102F07DC103F001
:102E02007EC104F07FC105F080C106F081C107F0E8
:102E120082C108F083C109F07CEC26F002C0B4F153
:102E220003C0B5F104C0B6F105C0B7F17CC148F0EA
:102E32007DC149F07EC14AF07FC14BF0B4C144F07C
:102E4200B5C145F0B6C146F0B7C147F0A3EC39F0C1
:102E520044C09CF145C09DF146C09EF147C09FF120
:102E620080C144F081C145F082C146F083C147F080
:102E72009CC148F09DC149F09EC14AF09FC14BF0F0
:102E8200A3EC39F044C044F145C045F146C046F1D7
:102E920047C047F1B4C112F0B5C113F0B6C114F086
:102EA200B7C115F0B4C116F0B5C117F0B6C118F02C
:102EB200B7C119F0DCEC28F012C0B0F113C0B1F1C7
:102EC20014C0B2F115C0B3F10E0E066EEA0E076E13
:102ED200DD0E086EB50E096E4C0E166EBB0E176E29
:102EE200310E186E330E196EB0C112F0B1C113F06B
:102EF200B2C114F0B3C115F0DCEC28F012C002F03C
:102F020013C003F014C004F015C005F07CEC26F0E9
:102F120002C048F103C049F104C04AF105C04BF1B7
:102F2200550E066EB30E076E8A0E086E380E096EC7
:102F3200B0C116F0B1C117F0B2C118F0B3C119F0A7
:102F420048C112F049C113F04AC114F04BC115F047
:102F5200DCEC28F012C002F013C003F014C004F03D
:102F620015C005F07CEC26F002C05CF103C05DF1F7
:102F720004C05EF105C05FF1610E066E0B0E076EB6
:102F8200360E086EBB0E096EB0C116F0B1C117F055
:102F9200B2C118F0B3C119F05CC112F05DC113F0F7
:102FA2005EC114F05FC115F0DCEC28F012C002F033
:102FB20013C003F014C004F015C005F07CEC26F039
:102FC20002C04CF103C04DF104C04EF105C04FF1F7
:102FD200AB0E066EAA0E076E2A0E086E3E0E096E24
:102FE200B0C116F0B1C117F0B2C118F0B3C119F0F7
:102FF2004CC112F04DC113F04EC114F04FC115F087
:10300200DCEC28F012C002F013C003F014C004F08C
:1030120015C005F07CEC26F002C038F103C039F18E
:1030220004C03AF105C03BF1B4C144F0B5C145F06A
:10303200B6C146F0B7C147F0B0C116F0B1C117F042
:10304200B2C118F0B3C119F038C112F039C113F08E
:103052003AC114F03BC115F0DCEC28F012C048F084
:1030620013C049F014C04AF015C04BF0A3EC39F07C
:1030720044C08CF145C08DF146C08EF147C08FF13E
:10308200000E066E000E076E000E086EC00E096E70
:103092008CC102F08DC103F08EC104F08FC105F026
:1030A2007CEC26F002C02FF003C030F004C031F0F7
:1030B20005C032F08CC116F08DC117F08EC118F028
:1030C2008FC119F0B4C112F0B5C113F0B6C114F03A
:1030D200B7C115F0DCEC28F012C02BF013C02CF0B5
:1030E20014C02DF015C02EF0E0EC2CF02BC03CF1FA
:1030F2002CC03DF12DC03EF12EC03FF144C106F07F
:1031020045C107F046C108F047C109F044C116F0B5
:1031120045C117F046C118F047C119F0B4C112F009
:10312200B5C113F0B6C114F0B7C115F0DCEC28F04C
:1031320012C002F013C003F014C004F015C005F071
:103142007CEC26F002C018F103C019F104C01AF198
:1031520005C01BF13CC144F03DC145F03EC146F003
:103162003FC147F018C148F019C149F01AC14AF0ED
:103172001BC14BF0A3EC39F044C050F145C051F1F2
:1031820046C052F147C053F1B4C148F0B5C149F04D
:10319200B6C14AF0B7C14BF050C144F051C145F03D
:1031A20052C146F053C147F0A3EC39F044C09CF140
:1031B20045C09DF146C09EF147C09FF1000E446E8E
:1031C200000E456E800E466E3F0E476E9CC148F063
:1031D2009DC149F09EC14AF09FC14BF0A3EC39F06A
:1031E20044C0B4F145C0B5F146C0B6F147C0B7F12D
:1031F200B4C1A8F1B5C1A9F1B6C1AAF1B7C1ABF189
:1032020088C168F089C169F08AC16AF08BC16BF02C
:10321200170ED8900001683769376A376B37E82E86
:103222000AEF19F068510101A82700016951010153
:10323200A92300016A510101AA2300016B51010176
:10324200AB23170E0001686FA8C169F0A9C16AF02B
:10325200AAC16BF0ABC16CF0686732EF19F03AEFBC
:1032620019F06C356C336B336A336933682F2DEF89
:1032720019F000016CBF4AEF19F06C516B116A1121
:1032820006E16905D8B048EF19F04AEF19F062EF8C
:1032920019F0B4C12BF0B5C12CF0B6C12DF0B7C1F5
:1032A2002EF088C12FF089C130F0ADEC2EF02BC08A
:1032B200B4F12CC0B5F12DC0B6F12EC0B7F16AEF52
:1032C20019F0A8C1B4F1A9C1B5F1AAC1B6F1ABC157
:1032D200B7F10101B451B511B611B711D8B474EFF9
:1032E20019F076EF19F077EF0AF06451B41B6551CB
:1032F200B51B6651B61B6751B71B77EF0AF0120078
:10330200D50E046E010ECCEC3AF0AB0E046E030E39
:10331200CCEC3AF0110E0001726F3C0E716FCB0EC5
:10332200E82EFED7712FFCD7722FFAD7DEEC38F0D9
:1033320006C00DF007C00EF00F6A106A000EB2EC64
:1033420030F00DC09DF00EC09EF00FC09FF010C077
:10335200A0F006EC39F006C00DF007C00EF00F6ABF
:10336200106A000EB2EC30F00DC0A1F00EC0A2F057
:103372000FC0A3F010C0A4F02EEC39F006C00DF07F
:1033820007C00EF00F6A106A000EB2EC30F00DC0EA
:10339200A5F00EC0A6F00FC0A7F010C0A8F0FF0E57
:1033A200046E010ECCEC3AF0FF0E046E030ECCEC70
:1033B2003AF09DC04CF09EC04DF09FC04EF0A0C0B0
:1033C2004FF0000E506E800E516E260E526E440E5D
:1033D200536E47EC33F0D8B0F1EF19F0F3EF19F078
:1033E200FEEF19F0000E00019D6F000E9E6F000EA1
:1033F2009F6F000EA06F18EF1AF09DC044F09EC0A0
:1034020045F09FC046F0A0C047F0000E486EC00EC7
:10341200496E2E0E4A6E440E4B6EA3EC39F044C038
:103422009DF045C09EF046C09FF047C0A0F0A1C0ED
:103432004CF0A2C04DF0A3C04EF0A4C04FF0000E5D
:10344200506E000E516EDF0E526E430E536E47ECFD
:1034520033F0D8B02FEF1AF031EF1AF03CEF1AF038
:10346200000E0001A16F000EA26F000EA36F000EEE
:10347200A46F56EF1AF0A1C044F0A2C045F0A3C059
:1034820046F0A4C047F0000E486E800E496EDD0E75
:103492004A6E430E4B6EA3EC39F044C0A1F045C016
:1034A200A2F046C0A3F047C0A4F0A5C04CF0A6C04D
:1034B2004DF0A7C04EF0A8C04FF0000E506E800E27
:1034C200516E930E526E430E536E47EC33F0D8B0EA
:1034D2006DEF1AF06FEF1AF07AEF1AF0000E00019A
:1034E200A56F000EA66F000EA76F000EA86F94EFD7
:1034F2001AF0A5C044F0A6C045F0A7C046F0A8C087
:1035020047F0000E486E800E496E9D0E4A6E430EC5
:103512004B6EA3EC39F044C0A5F045C0A6F046C0FE
:10352200A7F047C0A8F09DC02BF09EC02CF09FC012
:103532002DF0A0C02EF0000E2F6EA00E306ECA0E1F
:10354200316E440E326EE0EC2CF02BC09DF02CC09C
:103552009EF02DC09FF02EC0A0F0A1C02BF0A2C003
:103562002CF0A3C02DF0A4C02EF0000E2F6EE00EA2
:10357200306E940E316E440E326EE0EC2CF02BC0A5
:10358200A1F02CC0A2F02DC0A3F02EC0A4F0A5C0C3
:103592002BF0A6C02CF0A7C02DF0A8C02EF0000E74
:1035A2002F6E400E306E5D0E316E440E326EE0ECC8
:1035B2002CF02BC0A5F02CC0A6F02DC0A7F02EC079
:1035C200A8F0A1C006F0A2C007F0A3C008F0A4C0F2
:1035D20009F09DC002F09EC003F09FC004F0A0C09D
:1035E20005F07CEC26F002C073F003C074F004C056
:1035F20075F005C076F073C002F074C003F075C0B8
:1036020004F076C005F0A5C006F0A6C007F0A7C07A
:1036120008F0A8C009F07CEC26F002C098F003C0C4
:1036220099F004C09AF005C09BF09DC02BF09EC09B
:103632002CF09FC02DF0A0C02EF098C02FF099C0A2
:1036420030F09AC031F09BC032F0E0EC2CF02BC08D
:10365200A9F02CC0AAF02DC0ABF02EC0ACF0A1C0D6
:103662002BF0A2C02CF0A3C02DF0A4C02EF098C065
:103672002FF099C030F09AC031F09BC032F0E0ECEC
:103682002CF02BC0ADF02CC0AEF02DC0AFF02EC090
:10369200B0F0A5C02BF0A6C02CF0A7C02DF0A8C09A
:1036A2002EF098C02FF099C030F09AC031F09BC034
:1036B20032F0E0EC2CF02BC0B1F02CC0B2F02DC0F7
:1036C200B3F02EC0B4F0730E066E680E076E910E44
:1036D200086EBD0E096EADC002F0AEC003F0AFC001
:1036E20004F0B0C005F07CEC26F002C0B5F003C0D7
:1036F200B6F004C0B7F005C0B8F0640E066E3B0E1B
:10370200076E3F0E086EBF0E096EA9C002F0AAC076
:1037120003F0ABC004F0ACC005F07CEC26F002C0B4
:10372200B9F003C0BAF004C0BBF005C0BCF0000E93
:103732000001646F000E656F000E666F400E676FCA
:10374200B5C060F0B6C061F0B7C062F0B8C063F057
:1037520041EC07F060C0BDF061C0BEF062C0BFF0D6
:1037620063C0C0F0000E0001646F000E656F000EB2
:10377200666F400E676FB9C060F0BAC061F0BBC03F
:1037820062F0BCC063F041EC07F060C0C1F061C000
:10379200C2F062C0C3F063C0C4F0350E066E5E0EA6
:1037A200076E3A0E086EBE0E096EB1C002F0B2C0CC
:1037B20003F0B3C004F0B4C005F07CEC26F002C004
:1037C200C5F003C0C6F004C0C7F005C0C8F0BDC054
:1037D20006F0BEC007F0BFC008F0C0C009F0C1C00B
:1037E20002F0C2C003F0C3C004F0C4C005F07CEC18
:1037F20026F002C0C9F003C0CAF004C0CBF005C075
:10380200CCF0000E0001646F000E656F000E666F53
:10381200400E676FC5C060F0C6C061F0C7C062F0FD
:10382200C8C063F041EC07F060C0CDF061C0CEF0DB
:1038320062C0CFF063C0D0F0C9C002F0CAC003F0CA
:10384200CBC004F0CCC005F0CDC006F0CEC007F06E
:10385200CFC008F0D0C009F07CEC26F002C012F014
:1038620003C013F004C014F005C015F0F1EC2AF007
:1038720012C077F013C078F014C079F015C07AF056
:10388200350E066E5E0E076EFA0E086EBE0E096EDD
:10389200ADC002F0AEC003F0AFC004F0B0C005F09E
:1038A2007CEC26F002C0B5F003C0B6F004C0B7F05D
:1038B20005C0B8F02B0E066E870E076E160E086E48
:1038C200BE0E096EA9C002F0AAC003F0ABC004F09C
:1038D200ACC005F07CEC26F002C0B9F003C0BAF02F
:1038E20004C0BBF005C0BCF0000E0001646F000E06
:1038F200656F000E666F400E676FB5C060F0B6C0B0
:1039020061F0B7C062F0B8C063F041EC07F060C08C
:10391200BDF061C0BEF062C0BFF063C0C0F0000E77
:103922000001646F000E656F000E666F400E676FD8
:10393200B9C060F0BAC061F0BBC062F0BCC063F055
:1039420041EC07F060C0C1F061C0C2F062C0C3F0D8
:1039520063C0C4F0230E066EDB0E076EB90E086E4E
:10396200BE0E096EB1C002F0B2C003F0B3C004F0E3
:10397200B4C005F07CEC26F002C0C5F003C0C6F06E
:1039820004C0C7F005C0C8F0BDC006F0BEC007F055
:10399200BFC008F0C0C009F0C1C002F0C2C003F04D
:1039A200C3C004F0C4C005F07CEC26F002C0C9F02C
:1039B20003C0CAF004C0CBF005C0CCF0000E000179
:1039C200646F000E656F000E666F400E676FC5C0B4
:1039D20060F0C6C061F0C7C062F0C8C063F041ECDD
:1039E20007F060C0CDF061C0CEF062C0CFF063C01E
:1039F200D0F0C9C002F0CAC003F0CBC004F0CCC002
:103A020005F0CDC006F0CEC007F0CFC008F0D0C0A0
:103A120009F07CEC26F002C012F003C013F004C0DF
:103A220014F005C015F0F1EC2AF012C07BF013C0BF
:103A32007CF014C07DF015C07EF0500E066E8D0E27
:103A4200076ED70E086EBE0E096EADC002F0AEC094
:103A520003F0AFC004F0B0C005F07CEC26F002C069
:103A6200B5F003C0B6F004C0B7F005C0B8F0AE0EB2
:103A7200066E470E076EE10E086EBD0E096EA9C0F6
:103A820002F0AAC003F0ABC004F0ACC005F07CECBD
:103A920026F002C0B9F003C0BAF004C0BBF005C002
:103AA200BCF0000E0001646F000E656F000E666FC1
:103AB200400E676FB5C060F0B6C061F0B7C062F08B
:103AC200B8C063F041EC07F060C0BDF061C0BEF069
:103AD20062C0BFF063C0C0F0000E0001646F000E50
:103AE200656F000E666F400E676FB9C060F0BAC0B6
:103AF20061F0BBC062F0BCC063F041EC07F060C093
:103B0200C1F061C0C2F062C0C3F063C0C4F0C50EB0
:103B1200066E200E076EF00E086EBE0E096EB1C064
:103B220002F0B2C003F0B3C004F0B4C005F07CEC04
:103B320026F002C0C5F003C0C6F004C0C7F005C03D
:103B4200C8F0BDC006F0BEC007F0BFC008F0C0C0DC
:103B520009F0C1C002F0C2C003F0C3C004F0C4C087
:103B620005F07CEC26F002C0C9F003C0CAF004C024
:103B7200CBF005C0CCF0000E0001646F000E656F43
:103B8200000E666F400E676FC5C060F0C6C061F080
:103B9200C7C062F0C8C063F041EC07F060C0CDF06E
:103BA20061C0CEF062C0CFF063C0D0F0C9C002F0F5
:103BB200CAC003F0CBC004F0CCC005F0CDC006F003
:103BC200CEC007F0CFC008F0D0C009F07CEC26F0E0
:103BD20002C012F003C013F004C014F005C015F0C7
:103BE200F1EC2AF012C07FF013C080F014C081F013
:103BF20015C082F0660E066E660E076EA60E086E81
:103C0200BE0E096EADC002F0AEC003F0AFC004F04C
:103C1200B0C005F07CEC26F002C0B5F003C0B6F0EF
:103C220004C0B7F005C0B8F0750E066E930E076EAD
:103C3200D80E086EBE0E096EA9C002F0AAC003F02B
:103C4200ABC004F0ACC005F07CEC26F002C0B9F0C9
:103C520003C0BAF004C0BBF005C0BCF0000E000106
:103C6200646F000E656F000E666F400E676FB5C021
:103C720060F0B6C061F0B7C062F0B8C063F041EC6A
:103C820007F060C0BDF061C0BEF062C0BFF063C0AB
:103C9200C0F0000E0001646F000E656F000E666FCB
:103CA200400E676FB9C060F0BAC061F0BBC062F08D
:103CB200BCC063F041EC07F060C0C1F061C0C2F06B
:103CC20062C0C3F063C0C4F0250E066E060E076E16
:103CD200810E086EBE0E096EB1C002F0B2C003F0D2
:103CE200B3C004F0B4C005F07CEC26F002C0C5F00D
:103CF20003C0C6F004C0C7F005C0C8F0BDC006F0DE
:103D0200BEC007F0BFC008F0C0C009F0C1C002F0D9
:103D1200C2C003F0C3C004F0C4C005F07CEC26F0BE
:103D220002C0C9F003C0CAF004C0CBF005C0CCF099
:103D3200000E0001646F000E656F000E666F400E8C
:103D4200676FC5C060F0C6C061F0C7C062F0C8C08E
:103D520063F041EC07F060C0CDF061C0CEF062C00C
:103D6200CFF063C0D0F0C9C002F0CAC003F0CBC02C
:103D720004F0CCC005F0CDC006F0CEC007F0CFC035
:103D820008F0D0C009F07CEC26F002C012F003C0AB
:103D920013F004C014F005C015F0F1EC2AF012C0C3
:103DA20083F013C084F014C085F015C086F0F00EC5
:103DB200066EA70E076E860E086EBE0E096EADC0A9
:103DC20002F0AEC003F0AFC004F0B0C005F07CEC6E
:103DD20026F002C0B5F003C0B6F004C0B7F005C0CB
:103DE200B8F0080E066EAC0E076EDC0E086EBE0E44
:103DF200096EA9C002F0AAC003F0ABC004F0ACC0C7
:103E020005F07CEC26F002C0B9F003C0BAF004C0A1
:103E1200BBF005C0BCF0000E0001646F000E656FC0
:103E2200000E666F400E676FB5C060F0B6C061F0FD
:103E3200B7C062F0B8C063F041EC07F060C0BDF0FB
:103E420061C0BEF062C0BFF063C0C0F0000E0001EE
:103E5200646F000E656F000E666F400E676FB9C02B
:103E620060F0BAC061F0BBC062F0BCC063F041EC6C
:103E720007F060C0C1F061C0C2F062C0C3F063C0AD
:103E8200C4F0080E066EAC0E076E9C0E086EBE0ED7
:103E9200096EB1C002F0B2C003F0B3C004F0B4C006
:103EA20005F07CEC26F002C0C5F003C0C6F004C0E9
:103EB200C7F005C0C8F0BDC006F0BEC007F0BFC065
:103EC20008F0C0C009F0C1C002F0C2C003F0C3C014
:103ED20004F0C4C005F07CEC26F002C0C9F003C0B7
:103EE200CAF004C0CBF005C0CCF0000E0001646F34
:103EF200000E656F000E666F400E676FC5C060F002
:103F0200C6C061F0C7C062F0C8C063F041EC07F000
:103F120060C0CDF061C0CEF062C0CFF063C0D0F01F
:103F2200C9C002F0CAC003F0CBC004F0CCC005F097
:103F3200CDC006F0CEC007F0CFC008F0D0C009F067
:103F42007CEC26F002C012F003C013F004C014F09F
:103F520005C015F0F1EC2AF012C087F013C088F00A
:103F620014C089F015C08AF0BA0E066E490E076EAB
:103F72000C0E086EBE0E096EADC002F0AEC003F0AC
:103F8200AFC004F0B0C005F07CEC26F002C0B5F082
:103F920003C0B6F004C0B7F005C0B8F0E70E066E75
:103FA200FB0E076E290E086EBF0E096EA9C002F045
:103FB200AAC003F0ABC004F0ACC005F07CEC26F064
:103FC20002C0B9F003C0BAF004C0BBF005C0BCF037
:103FD200000E0001646F000E656F000E666F400EEA
:103FE200676FB5C060F0B6C061F0B7C062F0B8C02C
:103FF20063F041EC07F060C0BDF061C0BEF062C08A
:10400200BFF063C0C0F0000E0001646F000E656F68
:10401200000E666F400E676FB9C060F0BAC061F003
:10402200BBC062F0BCC063F041EC07F060C0C1F0FD
:1040320061C0C2F062C0C3F063C0C4F0830E066EFA
:10404200C00E076E4A0E086EBE0E096EB1C002F0B7
:10405200B2C003F0B3C004F0B4C005F07CEC26F0AB
:1040620002C0C5F003C0C6F004C0C7F005C0C8F066
:10407200BDC006F0BEC007F0BFC008F0C0C009F066
:10408200C1C002F0C2C003F0C3C004F0C4C005F056
:104092007CEC26F002C0C9F003C0CAF004C0CBF029
:1040A20005C0CCF0000E0001646F000E656F000EBB
:1040B200666F400E676FC5C060F0C6C061F0C7C0D2
:1040C20062F0C8C063F041EC07F060C0CDF061C09F
:1040D200CEF062C0CFF063C0D0F0C9C002F0CAC057
:1040E20003F0CBC004F0CCC005F0CDC006F0CEC0CA
:1040F20007F0CFC008F0D0C009F07CEC26F002C077
:1041020012F003C013F004C014F005C015F0F1EC76
:104112002AF012C08BF013C08CF014C08DF015C0C1
:104122008EF05A0E066E640E076EBB0E086EBE0E41
:10413200096EADC002F0AEC003F0AFC004F0B0C073
:1041420005F07CEC26F002C0B5F003C0B6F004C066
:10415200B7F005C0B8F0830E066EC00E076E8A0E69
:10416200086EBE0E096EA9C002F0AAC003F0ABC071
:1041720004F0ACC005F07CEC26F002C0B9F003C03C
:10418200BAF004C0BBF005C0BCF0000E0001646FC1
:10419200000E656F000E666F400E676FB5C060F06F
:1041A200B6C061F0B7C062F0B8C063F041EC07F08E
:1041B20060C0BDF061C0BEF062C0BFF063C0C0F0BD
:1041C200000E0001646F000E656F000E666F400EF8
:1041D200676FB9C060F0BAC061F0BBC062F0BCC02A
:1041E20063F041EC07F060C0C1F061C0C2F062C090
:1041F200C3F063C0C4F0230E066EDB0E076EB90E69
:10420200086EBE0E096EB1C002F0B2C003F0B3C0B8
:1042120004F0B4C005F07CEC26F002C0C5F003C087
:10422200C6F004C0C7F005C0C8F0BDC006F0BEC0ED
:1042320007F0BFC008F0C0C009F0C1C002F0C2C0A0
:1042420003F0C3C004F0C4C005F07CEC26F002C049
:10425200C9F003C0CAF004C0CBF005C0CCF0000E18
:104262000001646F000E656F000E666F400E676F8F
:10427200C5C060F0C6C061F0C7C062F0C8C063F0DC
:1042820041EC07F060C0CDF061C0CEF062C0CFF06B
:1042920063C0D0F0C9C002F0CAC003F0CBC004F0C2
:1042A200CCC005F0CDC006F0CEC007F0CFC008F0FC
:1042B200D0C009F07CEC26F002C012F003C013F06B
:1042C20004C014F005C015F0F1EC2AF012C08FF012
:1042D20013C090F014C091F015C092F01F0E066E3C
:1042E200850E076EAB0E086EBE0E096EADC002F0F3
:1042F200AEC003F0AFC004F0B0C005F07CEC26F015
:1043020002C0B5F003C0B6F004C0B7F005C0B8F003
:10431200B00E066E720E076EA80E086EBE0E096E05
:10432200A9C002F0AAC003F0ABC004F0ACC005F013
:104332007CEC26F002C0B9F003C0BAF004C0BBF0B6
:1043420005C0BCF0000E0001646F000E656F000E28
:10435200666F400E676FB5C060F0B6C061F0B7C05F
:1043620062F0B8C063F041EC07F060C0BDF061C01C
:10437200BEF062C0BFF063C0C0F0000E0001646F07
:10438200000E656F000E666F400E676FB9C060F079
:10439200BAC061F0BBC062F0BCC063F041EC07F090
:1043A20060C0C1F061C0C2F062C0C3F063C0C4F0BB
:1043B2001F0E066E850E076EAB0E086EBE0E096EE0
:1043C200B1C002F0B2C003F0B3C004F0B4C005F053
:1043D2007CEC26F002C0C5F003C0C6F004C0C7F0F2
:1043E20005C0C8F0BDC006F0BEC007F0BFC008F0EF
:1043F200C0C009F0C1C002F0C2C003F0C3C004F0E3
:10440200C4C005F07CEC26F002C0C9F003C0CAF0BB
:1044120004C0CBF005C0CCF0000E0001646F000EAA
:10442200656F000E666F400E676FC5C060F0C6C054
:1044320061F0C7C062F0C8C063F041EC07F060C031
:10444200CDF061C0CEF062C0CFF063C0D0F0C9C081
:1044520002F0CAC003F0CBC004F0CCC005F0CDC05E
:1044620006F0CEC007F0CFC008F0D0C009F07CEC57
:1044720026F002C012F003C013F004C014F005C00D
:1044820015F0F1EC2AF012C093F013C094F014C0AE
:1044920095F015C096F0000E0001976F000E9C6F0C
:1044A200070E9C6557EF22F059EF22F05BEF22F0E6
:1044B20086EF22F09C51040DF350770FD96EDA6A21
:1044C200DECF4CF0DECF4DF0DECF4EF0DECF4FF040
:1044D2009751040DF350770FD96EDA6ADECF50F0A0
:1044E200DECF51F0DECF52F0DECF53F047EC33F0A7
:1044F200D8B07EEF22F080EF22F082EF22F09CC053
:1045020097F000019C2B51EF22F097511200DCEC46
:104512003AF00AEC3BF035EC3BF090EC3AF07EECF2
:1045220039F0000E036E630E026E89EC37F0ECEC8C
:104532003AF0ABEC38F08086889686840E01B4950A
:10454200000E0201AE6F010EAF6F010EB06FAA0E28
:10455200B36F0F0EB46FA60EB56F0F0EB66F000ECF
:10456200B26F630EB16F000EB76F010EB86F010E1E
:10457200B96F250EBC6F0F0EBD6F210EBE6F0F0EF1
:10458200BF6F000EBB6F630EBA6FAE0EC26F020E2C
:10459200C36FB70EC46F020EC56F3C0EA06F020E42
:1045A200A16F000EAA6F000EAD6F000EAC6FA30ECE
:1045B2000001D26F570ED16F020EE82EFED7D12F17
:1045C200FCD7D22FFAD7000056EC39F006C0A8F279
:1045D20007C0A9F20A0E0201A825A26F000EA921A6
:1045E200A36F000EA56F000EA46F0201AA51D8A4FA
:1045F200FDEF22F0FFEF22F00EEF23F03BEC3BF059
:10460200C2C215F0C3C216F0C4C217F0C5C218F078
:1046120076EC36F0010E0201AA6F56EC39F006C0B4
:10462200A8F207C0A9F20201A851A25DA951A3599B
:10463200D8B01EEF23F020EF23F0F6EF22F0FBECD0
:104642003AF002C0A6F203C0A7F2C2C215F0C3C27A
:1046520016F0C4C217F0C5C218F0DAEC37F0150E26
:104662000001D26F4B0ED16FBE0EE82EFED7D12FB6
:10467200FCD7D22FFAD7000056EC39F006C0A8F2C8
:1046820007C0A9F20201A95107E1500EA85DD8B0F6
:104692004DEF23F04FEF23F079EF23F0C2C219F070
:1046A200C3C21AF0C4C21BF0C5C21CF09FEC35F0A5
:1046B2000201A44BA52B090E0001D26F1E0ED16F71
:1046C200E40EE82EFED7D12FFCD7D22FFAD7000066
:1046D2000201A55109E1100EA45DD8A073EF23F0E9
:1046E20075EF23F03DEF23F0000EC16F070EC06F90
:1046F200000EAA6FD890AC35D96EAD35DA6E780E51
:10470200D926020EDA22A6C2DEFFA7C2DDFF070EFD
:10471200C019C111D8B490EF23F092EF23F09EEFAD
:1047220023F081EC19F00001D16FD1510201C06F69
:10473200C16B000EA56F000EA46FD890AC35D96E78
:10474200AD35DA6E500ED926020EDA22C0C2DEFF75
:10475200C1C2DDFFAC4BAD2BC051C111D8A4B4EF27
:1047620023F0B6EF23F0CCEF23F0C2C219F0C3C29C
:104772001AF0C4C21BF0C5C21CF042EC32F0C2C235
:1047820019F0C3C21AF0C4C21BF0C5C21CF0B5ECCA
:1047920034F0E0EF24F0C005C111D8A4D3EF23F028
:1047A200D5EF23F0EBEF23F0C2C219F0C3C21AF027
:1047B200C4C21BF0C5C21CF042EC32F0C2C219F0F6
:1047C200C3C21AF0C4C21BF0C5C21CF02AEC35F0F9
:1047D200E0EF24F0020EC019C111D8A4F3EF23F0C8
:1047E200F5EF23F015EF24F0C2C219F0C3C21AF09C
:1047F200C4C21BF0C5C21CF042EC32F0C2C219F0B6
:10480200C3C21AF0C4C21BF0C5C21CF0B5EC34F02E
:10481200C2C219F0C3C21AF0C4C21BF0C5C21CF056
:10482200B5EC34F0E0EF24F0030EC019C111D8A4A6
:104832001DEF24F01FEF24F03FEF24F0C2C219F065
:10484200C3C21AF0C4C21BF0C5C21CF042EC32F063
:10485200C2C219F0C3C21AF0C4C21BF0C5C21CF016
:10486200C5EC32F0C2C219F0C3C21AF0C4C21BF0C6
:10487200C5C21CF0B5EC34F0E0EF24F0040EC01910
:10488200C111D8A447EF24F049EF24F069EF24F0D6
:10489200C2C219F0C3C21AF0C4C21BF0C5C21CF0D6
:1048A20042EC32F0C2C219F0C3C21AF0C4C21BF009
:1048B200C5C21CF0C5EC32F0C2C219F0C3C21AF074
:1048C200C4C21BF0C5C21CF02AEC35F0E0EF24F0A4
:1048D200050EC019C111D8A471EF24F073EF24F0B2
:1048E20089EF24F0C2C219F0C3C21AF0C4C21BF08D
:1048F200C5C21CF042EC32F0C2C219F0C3C21AF0B7
:10490200C4C21BF0C5C21CF03FEC34F0E0EF24F04F
:10491200060EC019C111D8A491EF24F093EF24F030
:10492200A9EF24F0C2C219F0C3C21AF0C4C21BF02C
:10493200C5C21CF042EC32F0C2C219F0C3C21AF076
:10494200C4C21BF0C5C21CF0C9EC33F0E0EF24F086
:10495200070EC019C111D8A4B1EF24F0B3EF24F0AF
:10496200E0EF24F0C2C219F0C3C21AF0C4C21BF0B5
:10497200C5C21CF042EC32F0C2C219F0C3C21AF036
:10498200C4C21BF0C5C21CF0B5EC34F0150E000118
:10499200D26F4B0ED16FBE0EE82EFED7D12FFCD7B1
:1049A200D22FFAD70000C2C219F0C3C21AF0C4C291
:1049B2001BF0C5C21CF0B5EC34F0F8EF24F0150E74
:1049C2000001D26F4B0ED16FBE0EE82EFED7D12F53
:1049D200FCD7D22FFAD70000680E0001D16FE40E87
:1049E200E82EFED7D12FFCD70000F6EF22F002010D
:1049F200AC07D8A0AD07000EAA6F000EAB6F130E66
:104A0200AB6506EF25F008EF25F00AEF25F046EF3B
:104A120026F0AB51020D780EF324D96E020EF4206B
:104A2200DA6E870EDE5E000EDD5A070EAB651CEFF6
:104A320025F01EEF25F02AEF25F0AB51020D780E7E
:104A4200F324D96E020EF420DA6E180EDE5E010E29
:104A5200DD5AAB2B00EF25F0AA51D8A433EF25F095
:104A620035EF25F044EF25F03BEC3BF0C2C215F0E8
:104A7200C3C216F0C4C217F0C5C218F076EC36F005
:104A8200010E0201AA6FFBEC3AF002C0A6F203C0CB
:104A9200A7F2D8900201AC35D96EAD35DA6E780E38
:104AA200D926020EDA22A651DE5CA751DE58D8B012
:104AB2005DEF25F05FEF25F03DEF26F0C2C215F065
:104AC200C3C216F0C4C217F0C5C218F0DAEC37F050
:104AD200000E0201AA6FACC2D1F0ADC2D2F0D890E2
:104AE2000001D137D237FE0ED125D36FFF0ED2216E
:104AF200D46F500ED325D96E020ED421DA6EDF5058
:104B020027EC38F00001D56FD5510201C06FC16B9F
:104B1200C051C111D8A490EF25F092EF25F09EEF7D
:104B220025F0C2C219F0C3C21AF0C4C21BF0C5C23A
:104B32001CF0B5EC34F01AEF26F0C005C111D8A470
:104B4200A5EF25F0A7EF25F0B3EF25F0C2C219F0CB
:104B5200C3C21AF0C4C21BF0C5C21CF02AEC35F065
:104B62001AEF26F0020EC019C111D8A4BBEF25F02E
:104B7200BDEF25F0D6EF25F0C2C219F0C3C21AF07C
:104B8200C4C21BF0C5C21CF0B5EC34F0150E000116
:104B9200D26F4B0ED16FBE0EE82EFED7D12FFCD7AF
:104BA200D22FFAD7000092EF25F0050EC019C111DD
:104BB200D8A4DEEF25F0E0EF25F0ECEF25F0C2C23D
:104BC20019F0C3C21AF0C4C21BF0C5C21CF0C9EC72
:104BD20033F01AEF26F0060EC019C111D8A4F4EF73
:104BE20025F0F6EF25F002EF26F0C2C219F0C3C29B
:104BF2001AF0C4C21BF0C5C21CF03FEC34F01AEF2D
:104C020026F0080EC019C111D8A40AEF26F00CEF45
:104C120026F00EEF26F0A7EF25F0090EC019C111FC
:104C2200D8A416EF26F018EF26F01AEF26F092EF2E
:104C320025F0150E0001D26F4B0ED16FBE0EE82E7D
:104C4200FED7D12FFCD7D22FFAD700003C0E1B6E15
:104C5200020E1C6E710E1D6EC0C21EF0C1C21FF08C
:104C620008EC3AF0A0C203F0A1C204F078EC3AF0EA
:104C72000201AC07D8A0AD07D00E0001D16FC90E5A
:104C8200E82EFED7D12FFCD700D00201ADBF4EEFE8
:104C920026F04CEF26F02DEF25F0C2C215F0C3C26C
:104CA20016F0C4C217F0C5C218F0DAEC37F080A6CD
:104CB2005DEF26F062EF26F00001D16BD12B64EF9D
:104CC20026F00001D16BD147D147D1478050D1198D
:104CD200F70BD119806E290E0001D26F960ED16F9B
:104CE2007F0EE82EFED7D12FFCD7D22FFAD758EF5E
:104CF20026F012EF00F00550800B0E6E05500524D1
:104D0200106E04AE87EF26F089EF26F08AEF26F0C8
:104D120010801050D8B490EF26F092EF26F0A7EF53
:104D220026F01028D8A498EF26F09AEF26F0A2EFEA
:104D320026F0000E026E000E036E000E046E000ED0
:104D4200056E048E000E056EAFEF26F0000E026EA9
:104D5200000E036E000E046E000E056E0950800BED
:104D62000F6E0E500F18D8B4B9EF26F0BBEF26F035
:104D7200BCEF26F00E8C095009240F6E08AEC4EF6A
:104D820026F0C6EF26F0C7EF26F00F800F50D8B4FA
:104D9200CDEF26F0CFEF26F0E4EF26F00F28D8A4CF
:104DA200D5EF26F0D7EF26F0DFEF26F0000E066EE5
:104DB200000E076E000E086E000E096E088E000EC1
:104DC200096EECEF26F0000E066E000E076E000E66
:104DD200086E000E096E10500F5CD8B0F3EF26F08B
:104DE200F5EF26F01CEF27F00EACFAEF26F0FCEF01
:104DF20026F0FEEF26F0800E0E1A10C011F00FC042
:104E020010F011C00FF002C011F006C002F011C084
:104E120006F003C011F007C003F011C007F004C090
:104E220011F008C004F011C008F005C011F009C06B
:104E320005F011C009F0000E116E10500FC00AF0FB
:104E42000B6A0A5E000E0B5A0BBE31EF27F00B50B5
:104E520009E11A0E0A5CD8A031EF27F033EF27F0F0
:104E62006AEF27F00250031004100510D8A43CEF9B
:104E720027F03FEF27F0010E40EF27F0000E116EF2
:104E8200000E026E000E036E000E046E000E056E22
:104E92000FC010F073EF27F011A052EF27F054EF7C
:104EA20027F05AEF27F0D89011300109116E5CEF0C
:104EB20027F0D890113202A061EF27F063EF27F0BC
:104EC20064EF27F0118E05340532043203320232C8
:104ED200102A0F50105CD8A071EF27F073EF27F063
:104EE2004DEF27F00EBC78EF27F07AEF27F0BAEFFC
:104EF20027F01050D8A480EF27F082EF27F08CEF34
:104F020027F0000E026E000E036E000E046E000EFD
:104F1200056EDBEF28F006500226075003220850E8
:104F220004220950052205A099EF27F09BEF27F0F4
:104F320047EF28F011A0A0EF27F0A2EF27F0A8EF8B
:104F420027F0D89011300109116EAAEF27F0D890FE
:104F5200113202A0AFEF27F0B1EF27F0B2EF27F046
:104F6200118E05340532043203320232102A47EF21
:104F720028F00650025C07500358085004580550A8
:104F8200800A0A6E0950800A0A58D8B0CBEF27F07F
:104F9200CDEF27F0F8EF27F00250065C0A6E0350BF
:104FA20007580B6E045008580C6E055009580D6EC8
:104FB200FF0E0A24026EFF0E0B20036EFF0E0C2062
:104FC200046EFF0E0D20056E800E0E1A116C11502C
:104FD200D8A4EEEF27F0F0EF27F000EF28F0010E53
:104FE2000226000E03220422052200EF28F00650BA
:104FF200025E0750035A0850045A0950055A0250DB
:10500200031004100510D8A409EF28F00BEF28F0C4
:1050120040EF28F01150D8A411EF28F013EF28F038
:1050220040EF28F0000E026E000E036E000E046EBA
:10503200000E056EDBEF28F0D890023603360436F8
:10504200053611AE27EF28F029EF28F02AEF28F0D5
:10505200028011A02FEF28F031EF28F035EF28F071
:10506200D880113637EF28F0D89011361050D8B4C6
:105072003DEF28F03FEF28F040EF28F0100604AE95
:1050820045EF28F047EF28F01DEF28F0000E0F6ED5
:1050920011AE4EEF28F050EF28F068EF28F011C063
:1050A2000AF07F0E0A16D8B459EF28F05BEF28F009
:1050B2005FEF28F0010E0F6E68EF28F002A064EF98
:1050C20028F066EF28F068EF28F05BEF28F00F5029
:1050D200D8B46EEF28F070EF28F09BEF28F0010EA5
:1050E2000226000E03220422052205A07BEF28F0EF
:1050F2007DEF28F09BEF28F002C00AF003C00BF00E
:1051020004C00CF005C00DF00D340D320C320B3220
:105112000A320AC002F00BC003F00CC004F00DC04A
:1051220005F01028D8B498EF28F09AEF28F09BEFFA
:1051320028F0102A1028D8B4A1EF28F0A3EF28F005
:10514200ABEF28F01050D8A4A9EF28F0ABEF28F06D
:10515200BDEF28F0000E026E000E036E000E046E0C
:10516200000E056E1050D8A4B9EF28F0BBEF28F05E
:10517200BDEF28F0000E0E6E10A0C2EF28F0C4EFB3
:1051820028F0C7EF28F0048EC8EF28F0049ED890CC
:105192001030056E0EAED0EF28F0D2EF28F0D3EF2C
:1051A20028F0058E02C002F003C003F004C004F030
:1051B20005C005F012001550800B1E6E1550152407
:1051C200246E14AEE7EF28F0E9EF28F0EAEF28F0BA
:1051D20024802450D8B4F0EF28F0F2EF28F005EF45
:1051E20029F02428D8A4F8EF28F0FAEF28F002EFEB
:1051F20029F0000E126E000E136E000E146E000ED9
:10520200156E148E0DEF29F0000E126E000E136E45
:10521200000E146E000E156E1950800B1E1A1950D6
:105222001924236E18AE18EF29F01AEF29F01BEF9C
:1052320029F023802350D8B421EF29F023EF29F05D
:1052420036EF29F02328D8A429EF29F02BEF29F0F3
:1052520033EF29F0000E166E000E176E000E186E58
:10526200000E196E188E3EEF29F0000E166E000E1B
:10527200176E000E186E000E196E2350D8B444EF4C
:1052820029F046EF29F04EEF29F02450D8A44CEF34
:1052920029F04EEF29F058EF29F0000E126E000EA1
:1052A200136E000E146E000E156EF0EF2AF01850F9
:1052B2001202F3CF29F0F4CF2AF029501F6E206A90
:1052C200216A226A2A50256E266A276A286A17509E
:1052D2001302F3CF29F0F4CF2AF029501F26000E33
:1052E2002022212222222A502526000E262227228F
:1052F200282216501402F3CF29F0F4CF2AF02950B5
:105302001F26000E2022212222222A502526000EAC
:1053120026222722282221C022F020C021F01FC0ED
:1053220020F01F6A16501302F3CF29F0F4CF2AF0AF
:1053320029501F262A502022000E2122000E22224E
:1053420017501202F3CF29F0F4CF2AF029501F266A
:105352002A502022000E2122000E222221C022F0F9
:1053620020C021F01FC020F01F6A16501202F3CF96
:1053720029F0F4CF2AF029501F262A502022000EAD
:105382002122000E222218501302F3CF29F0F4CF6B
:105392002AF0295025262A502622000E2722000E06
:1053A200282217501402F3CF29F0F4CF2AF0295003
:1053B20025262A502622000E2722000E28221850C7
:1053C2001402F3CF29F0F4CF2AF029501A6E2A5092
:1053D2001B6E1C6A1D6A1CC01DF01BC01CF01AC08B
:1053E2001BF01A6A1A5025261B5026221C5027220F
:1053F2001D5028221FC01AF020C01BF021C01CF033
:1054020022C01DF0190E0BEF2AF0D8901D321C326B
:105412001B321A32E82E06EF2AF01A5025261B50AC
:1054220026221C5027221D50282221C022F020C0F3
:1054320021F01FC020F01F6A235024C01AF01B6AFB
:105442001A26000E1B22820E1A24296EFF0E1B2022
:105452002A6E41EF2AF0D89025362636273628368E
:1054620022AE36EF2AF038EF2AF039EF2AF0258003
:10547200D8901F362036213622362906D8A02A0691
:1054820027AE46EF2AF048EF2AF02CEF2AF0000E62
:10549200236E22AE4FEF2AF051EF2AF075EF2AF079
:1054A200FF0E1F141A6EFF0E20141B6EFF0E211426
:1054B2001C6E7F0E22141D6E1A501B101C101D1024
:1054C200D8B466EF2AF068EF2AF06CEF2AF0010EEA
:1054D200236E75EF2AF025A071EF2AF073EF2AF000
:1054E20075EF2AF068EF2AF02350D8B47BEF2AF048
:1054F2007DEF2AF0A1EF2AF0010E2526000E2622CA
:105502002722282228A088EF2AF08AEF2AF0A1EF8A
:105512002AF025C01AF026C01BF027C01CF028C0B4
:105522001DF01D341D321C321B321A321AC025F0F6
:105532001BC026F01CC027F01DC028F0294A2A2AC9
:105542002ABEACEF2AF02A5008E12928D8A0ACEFF5
:105552002AF0AEEF2AF0B8EF2AF0000E256E000E08
:10556200266E800E276E7F0E286EE6EF2AF02ABE88
:10557200C5EF2AF02A5006E12904D8B0C3EF2AF079
:10558200C5EF2AF0D1EF2AF0000E256E000E266E2E
:10559200000E276E000E286E000E1E6EE6EF2AF039
:1055A20029C024F0FF0E2516FF0E26167F0E2716A1
:1055B200000E281624A0E0EF2AF0E2EF2AF0E3EF33
:1055C2002AF0278ED8902430286E1E50281225C02B
:1055D20012F026C013F027C014F028C015F01200F4
:1055E20012C033F013C034F014C035F015C036F0D9
:1055F200000E3314166E000E3414176E800E35141E
:10560200186E7F0E3614196E800E181809E17F0E7F
:10561200191816101710D8A411EF2BF013EF2BF056
:1056220043EF2BF0FF0E3314166EFF0E3414176E79
:105632007F0E3514186E000E3614196E16501710A0
:1056420018101910D8A428EF2BF02AEF2BF031EF05
:105652002BF036BE31EF2BF02FEF2BF039EF2BF082
:10566200FF0E3312FF0E34127F0E3512000E361269
:1056720033C012F034C013F035C014F036C015F048
:10568200DFEF2CF036BE52EF2BF0365035103410CF
:1056920006E13304D8B050EF2BF052EF2BF089EF34
:1056A2002BF0FF0E3314166EFF0E3414176EFF0E1E
:1056B2003514186E7F0E3614196E16501710181006
:1056C2001910D8A467EF2BF069EF2BF073EF2BF0D2
:1056D200000E126E000E136E000E146E000E156E8A
:1056E200DFEF2CF036BE7AEF2BF078EF2BF089EF5C
:1056F2002BF0000E0001EB6F210EEA6FFF0E336EEE
:10570200FF0E346EFF0E356E7F0E366E39EF2BF0C4
:10571200170E166E33C017F034C018F035C019F0EA
:1057220036C01AF0166698EF2BF0A0EF2BF01A3461
:105732001A32193218321732162E93EF2BF017C085
:105742002BF018C02CF019C02DF01AC02EF02B50DF
:105752002C102D102E10D8A4B1EF2BF0B3EF2BF09C
:10576200E3EF2BF0000E1F6E000E206E000E216E76
:10577200000E226EC8EF2BF0D89033363436353611
:105782003636010E1F26000E20222122222235AE9D
:10579200CDEF2BF0CFEF2BF0BDEF2BF0FF0E1F2440
:1057A200166EFF0E2020176EFF0E2120186EFF0EC0
:1057B2002220196E16502B5E17502C5A18502D5A53
:1057C20019502E5A810E2B26FF0E2C22FF0E2D224F
:1057D200FF0E2E22FF0E3314166EFF0E3414176EB8
:1057E2007F0E3514186E000E3614196E000E161048
:1057F200336E000E1710346E800E1810356E000EC8
:105802001910366E2BA008EF2CF00AEF2CF012EFD5
:105812002CF0335033263450342235503522365052
:1058220036222E342E322D322C322B323350332666
:10583200345034223550352236503622000E1B6E3B
:10584200000E1C6E000E1D6E000E1E6E1BC023F09D
:105852001CC024F01DC025F01EC026F0000E2F6EC5
:10586200000E306E000E316E010E326E81EF2CF0A2
:105872001B502F24276E1C503020286E1D503120C3
:10588200296E1E5032202A6E2750335C285034581D
:10589200295035583650800A166E2A50800A1658FA
:1058A200D8A056EF2CF058EF2CF074EF2CF02750C4
:1058B2002F241B6E285030201C6E295031201D6E63
:1058C2002A5032201E6E2750335E2850345A2950F7
:1058D200355A2A50365A2F5023263050242231501E
:1058E200252232502622335033263450342235506A
:1058F200352236503622D8903232313230322F327F
:105902002F50301031103210D8A48AEF2CF08CEFC7
:105912002CF039EF2CF03350341035103610D8B447
:1059220095EF2CF097EF2CF0ABEF2CF0010E231437
:10593200166E000E2414176E000E2514186E000E3B
:105942002614196E16502326175024221850252289
:105952001950262223C016F024C017F025C018F0D3
:1059620026C019F019341932183217321632000EC5
:105972001624336E000E1720346E000E1820356E7A
:105982003F0E1920366E2BC016F02CC017F02DC01A
:1059920018F02EC019F0170ED89016361736183692
:1059A2001936E82ECDEF2CF016503326175034223C
:1059B200185035221950362239EF2BF012002E5092
:1059C200800B3B6E2E502E24426E2DAEEBEF2CF050
:1059D200EDEF2CF0EEEF2CF042804250D8B4F4EF11
:1059E2002CF0F6EF2CF00BEF2DF04228D8A4FCEFB0
:1059F2002CF0FEEF2CF006EF2DF0000E2B6E000EB9
:105A02002C6E000E2D6E000E2E6E2D8E000E2E6E42
:105A120013EF2DF0000E2B6E000E2C6E000E2D6E6D
:105A2200000E2E6E3250800B3B1A32503224436EDF
:105A320031AE1EEF2DF020EF2DF021EF2DF043803F
:105A42004350D8B427EF2DF029EF2DF03EEF2DF083
:105A52004328D8A42FEF2DF031EF2DF039EF2DF0A0
:105A6200000E2F6E000E306E000E316E000E326E82
:105A7200318E000E326E46EF2DF0000E2F6E000EAC
:105A8200306E000E316E000E326E2F50301031101B
:105A92003210D8A44FEF2DF051EF2DF069EF2DF019
:105AA200000E2B6E000E2C6E000E2D6E000E2E6E52
:105AB200800E2D127F0E2E123B502E122BC02BF079
:105AC2002CC02CF02DC02DF02EC02EF0ACEF2EF0FD
:105AD2004250D8A46FEF2DF071EF2DF07BEF2DF037
:105AE200000E2B6E000E2C6E000E2D6E000E2E6E12
:105AF200ACEF2EF0435042C033F0346A335E000EF6
:105B0200345A7F0E33243C6E000E34203D6E2BC07F
:105B120037F02CC038F02DC039F02EC03AF0000E0C
:105B22002B6E000E2C6E000E2D6E000E2E6E000ED1
:105B32003E6E000E3F6E000E406E000E416E000E75
:105B4200436EDCEF2DF04350D8B4AAEF2DF0ACEF4A
:105B52002DF0C3EF2DF0D8903736383639363A3635
:105B6200D8902B362C362D362E3641AEBBEF2DF08B
:105B7200BDEF2DF0BEEF2DF02B80D8903E363F3694
:105B8200403641362F50375C3050385831503958F2
:105B920032503A58D8A0D0EF2DF0D2EF2DF0DBEFF3
:105BA2002DF0418C2F50375E3050385A3150395ACF
:105BB20032503A5A432A190E4364E2EF2DF0E4EFD1
:105BC2002DF0A4EF2DF03750381039103A10D8B418
:105BD200EDEF2DF0EFEF2DF007EF2EF03E8007EF07
:105BE2002EF0D8902B362C362D362E3641AEFCEFC9
:105BF2002DF0FEEF2DF0FFEF2DF02B80D8903E36EA
:105C02003F36403641363C06D8A03D062DAE0CEF5D
:105C12002EF00EEF2EF0F2EF2DF0000E436E41AE9D
:105C220015EF2EF017EF2EF03BEF2EF0FF0E3E1485
:105C3200336EFF0E3F14346EFF0E4014356E7F0E2E
:105C42004114366E3350341035103610D8B42CEF60
:105C52002EF02EEF2EF032EF2EF0010E436E3BEFC0
:105C62002EF02BA037EF2EF039EF2EF03BEF2EF077
:105C72002EEF2EF04350D8B441EF2EF043EF2EF02A
:105C820067EF2EF0010E2B26000E2C222D222E2243
:105C92002EA04EEF2EF050EF2EF067EF2EF02BC01D
:105CA20033F02CC034F02DC035F02EC036F036342F
:105CB200363235323432333233C02BF034C02CF02A
:105CC20035C02DF036C02EF03C4A3D2A3DBE72EF63
:105CD2002EF03D5008E13C28D8A072EF2EF074EF70
:105CE2002EF07FEF2EF0000E3D6E3C68000E2B6E04
:105CF200000E2C6E000E2D6E000E2E6E3DBE8CEF31
:105D02002EF03D5006E13C04D8B08AEF2EF08CEF25
:105D12002EF09AEF2EF0000E3D6E000E3C6E000E3D
:105D22002B6E000E2C6E000E2D6E000E2E6E000ECF
:105D32003B6E3CC042F042A0A1EF2EF0A3EF2EF04A
:105D4200A6EF2EF02D8EA7EF2EF02D9ED89042308A
:105D52002E6E5DEF2DF012002BC039F02CC03AF000
:105D62002DC03BF02EC03CF030BEC1EF2EF03050C3
:105D720009E1800E2F5CD8A0C1EF2EF0C3EF2EF008
:105D820021EF2FF039C012F03AC013F03BC014F0EB
:105D92003CC015F0000E166E000E176E000E186E47
:105DA2007F0E196EDCEC28F012C039F013C03AF005
:105DB20014C03BF015C03CF0810E2F26FF0E30229E
:105DC20030BEEDEF2EF0305009E1800E2F5CD8A0EE
:105DD200EDEF2EF0EFEF2EF08BEF2FF039C012F037
:105DE2003AC013F03BC014F03CC015F0000E166E22
:105DF200000E176E000E186E7F0E196EDCEC28F086
:105E020012C039F013C03AF014C03BF015C03CF098
:105E1200810E2F26FF0E302230BE19EF2FF03050A8
:105E220009E1800E2F5CD8A019EF2FF01BEF2FF0A5
:105E32008BEF2FF0000E306E7F0E2F6E8BEF2FF058
:105E420030AE2DEF2FF0820E2F5CFF0E3058D8B0FF
:105E52002DEF2FF02FEF2FF08BEF2FF039C012F034
:105E62003AC013F03BC014F03CC015F0000E166EA1
:105E7200000E176E800E186E0C0E196EDCEC28F0F8
:105E820012C039F013C03AF014C03BF015C03CF018
:105E9200660E2F26000E302230AE59EF2FF0820E02
:105EA2002F5CFF0E3058D8B059EF2FF05BEF2FF078
:105EB2008BEF2FF039C012F03AC013F03BC014F050
:105EC2003CC015F0000E166E000E176E800E186E96
:105ED2000C0E196EDCEC28F012C039F013C03AF047
:105EE20014C03BF015C03CF0660E2F26000E302287
:105EF20030AE85EF2FF0820E2F5CFF0E3058D8B0F7
:105F020085EF2FF087EF2FF08BEF2FF0FF0E306E23
:105F1200820E2F6E7F0E2F24316E000E3020326ED5
:105F2200336A346A170ED890313632363336343605
:105F3200E82E94EF2FF031C035F032C036F033C086
:105F420037F034C038F035C012F036C013F037C025
:105F520014F038C015F039C016F03AC017F03BC043
:105F620018F03CC019F0DCEC28F012C02BF013C082
:105F72002CF014C02DF015C02EF02BC02BF02CC02D
:105F82002CF02DC02DF02EC02EF012000D50D96E27
:105F9200DA6ADFCFF6FF0E0EF76E000EF86E08001B
:105FA200F550250AD8A4D8EF2FF0DAEF2FF09EEFA4
:105FB20030F00D50D96EDA6ADF2A000E0001ED6F63
:105FC200000EEC6FECC058F0EE69EF690D50D96E1F
:105FD200DA6ADF50116E11C0F6FF0E0EF76E000E78
:105FE200F86E0800F550640AD8B4FAEF2FF0FCEF0F
:105FF2002FF00CEF30F011C0F6FF0E0EF76E000E10
:10600200F86E0800F550690AD8A40AEF30F00CEFD8
:1060120030F098EF30F00E50D96EDA6A020EDF26B9
:10602200DF5CD96EDA6ADECF12F0DECF13F00D50EC
:10603200D96EDA6A1128DF6E200E166E13BE24EFB7
:1060420030F027EF30F0010E28EF30F0000E106E26
:106052001606B80E1624D96EDA6A010EDA2212C0BA
:1060620002F013C003F0000E056E0A0E046E31EC4E
:1060720037F002C008F003C009F05EEC3AF00850B5
:10608200300FDF6E12C002F013C003F0000E056E77
:106092000A0E046E14EC36F002C012F003C013F0C4
:1060A20012501310D8B458EF30F05AEF30F062EFBC
:1060B20030F01650D8A460EF30F062EF30F029EFE4
:1060C20030F01650D8B468EF30F06AEF30F08DEF50
:1060D20030F01050D8B470EF30F072EF30F08DEF36
:1060E20030F01606B80E1624D96EDA6A010EDA22DC
:1060F2002D0EDF6E8DEF30F0B80E1624D96EDA6AEF
:10610200010EDA22DF500F6E0F50026E036A0CC0CE
:1061120004F0D4EC36F0162A200E1618D8A494EF08
:1061220030F096EF30F07DEF30F0B1EF30F00D50FF
:10613200D96EDA6ADF2AB1EF30F00D50D96EDA6A21
:10614200DFCFF6FF0E0EF76E000EF86E0800F55068
:10615200026E036A0CC004F0D4EC36F098EF30F013
:106162001200156E1550D8B4B9EF30F0BBEF30F015
:10617200DDEF30F010BEC2EF30F0C0EF30F0DDEFF7
:1061820030F00DC011F00EC012F00FC013F010C0AD
:1061920014F0111E121E131E141E112A000E1222BA
:1061A2001322142211C017F012C018F013C019F0F4
:1061B20014C01AF0E5EF30F00DC017F00EC018F061
:1061C2000FC019F010C01AF00D500E100F10101061
:1061D200D8A4EEEF30F0F0EF30F0FAEF30F0000E2E
:1061E2000D6E000E0E6E000E0F6E000E106E8BEF17
:1061F20031F0960E166E04EF31F0162AD8901A324C
:10620200193218321732000E1714116E000E1814BC
:10621200126E000E1914136EFE0E1A14146E115023
:10622200121013101410D8A419EF31F01BEF31F033
:10623200FEEF30F029EF31F0162A010E1726000E7C
:10624200182219221A22D8901A3219321832173209
:10625200000E1714116E000E1814126E000E19148F
:10626200136EFF0E1A14146E115012101310141024
:10627200D8A43EEF31F040EF31F01DEF31F048EF9E
:1062820031F01606D8901736183619361A3619BE56
:106292004DEF31F04FEF31F057EF31F0020E166053
:1062A20055EF31F057EF31F042EF31F016B05CEFBD
:1062B20031F05EEF31F05FEF31F0199ED890163277
:1062C20016C011F0126A136A146A11C014F0136A2C
:1062D200126A116A11501712125018121350191221
:1062E20014501A121550D8B479EF31F07BEF31F017
:1062F20083EF31F010BE82EF31F080EF31F083EFA7
:1063020031F01A8E17C00DF018C00EF019C00FF040
:106312001AC010F0120020EE02F00F50D9261050D1
:10632200DA22DF50D8B498EF31F09AEF31F0CEEFA5
:1063320031F00FC0D9FF10C0DAFFDF50116E1150DB
:10634200026E036A20EE03F00F50D9261050DA22B3
:10635200DECF04F0DDCF05F0B9EC3AF002C008F070
:1063620003C009F0000E0B6E640E0A6E71EC38F079
:1063720020EE03F00F50D9261050DA22DF50126EB1
:106382000850125C136E20EE03F00F50D926105005
:10639200DA22DF50146EF1EF31F0000E136E0FC0EF
:1063A200D9FF10C0DAFFDF50116E1150026E036A7E
:1063B20020EE03F00F50D9261050DA22DECF04F07F
:1063C200DDCF05F0B9EC3AF002C008F003C009F0E5
:1063D200000E0B6E640E0A6E71EC38F00850146EEB
:1063E20020EE01F00F50D9261050DA22DF50D8B437
:1063F200FDEF31F0FFEF31F021EF32F020EE05F04A
:106402000F50D9261050DA22DECF11F0DDCF12F074
:1064120011C0D9FF12C0DAFF13C0DFFF20EE07F070
:106422000F50D9261050DA22DECF11F0DDCF12F054
:1064320011C0D9FF12C0DAFF14C0DFFF41EF32F002
:1064420020EE05F00F50D9261050DA22DECF11F0DF
:10645200DDCF12F011C0D9FF12C0DAFF14C0DFFF86
:1064620020EE07F00F50D9261050DA22DECF11F0BD
:10647200DDCF12F011C0D9FF12C0DAFF13C0DFFF67
:10648200120020EE01F01950D9261A50DA22010E1C
:10649200DF6E20EE01F01B50D9261C50DA22010ECD
:1064A200DF6E8AEF32F019C0D9FF1AC0DAFF460E4A
:1064B200DF605EEF32F060EF32F065EF32F019C06C
:1064C200D9FF1AC0DAFFDF2A1BC0D9FF1CC0DAFFCE
:1064D200460EDF606FEF32F071EF32F076EF32F09E
:1064E2001BC0D9FF1CC0DAFFDF2A19C00FF01AC087
:1064F20010F08CEC31F01BC00FF01CC010F08CECD3
:1065020031F0150E1D6EC60EE82EFED71D2EFCD7DD
:1065120000D019C0D9FF1AC0DAFF450EDF6494EF2C
:1065220032F096EF32F054EF32F01BC0D9FF1CC0AC
:10653200DAFF450EDF64A0EF32F0A2EF32F054EF43
:1065420032F0150E1E6E4B0E1D6EBE0EE82EFED7DD
:106552001D2EFCD71E2EFAD700D019C015F01AC076
:1065620016F01BC017F01CC018F0DAEC37F0150E4D
:106572001E6E4B0E1D6EBE0EE82EFED71D2EFCD7D4
:106582001E2EFAD700D0120020EE01F01950D926A3
:106592001A50DA22010EDF6E20EE01F01B50D926CE
:1065A2001C50DA22010EDF6E0DEF33F019C0D9FF55
:1065B2001AC0DAFF460EDF60E1EF32F0E3EF32F0AD
:1065C200E8EF32F019C0D9FF1AC0DAFFDF2A1BC088
:1065D200D9FF1CC0DAFF460EDF60F2EF32F0F4EFB3
:1065E20032F0F9EF32F01BC0D9FF1CC0DAFFDF2A0C
:1065F20019C00FF01AC010F08CEC31F01BC00FF074
:106602001CC010F08CEC31F0150E1D6EC60EE82E7B
:10661200FED71D2EFCD700D019C0D9FF1AC0DAFF51
:10662200450EDF6417EF33F019EF33F0D7EF32F096
:106632001BC0D9FF1CC0DAFF450EDF6423EF33F025
:1066420025EF33F0D7EF32F03D0E1E6EE10E1D6ED8
:10665200400EE82EFED71D2EFCD71E2EFAD719C0EB
:1066620015F01AC016F01BC017F01CC018F0DAECB7
:1066720037F0150E1E6E4B0E1D6EBE0EE82EFED7A7
:106682001D2EFCD71E2EFAD700D01200000E4C147D
:10669200546E000E4D14556E800E4E14566E7F0EC3
:1066A2004F14576E5450551056105710D8A45CEF23
:1066B20033F05EEF33F066EF33F0000E4C6E000EF7
:1066C2004D6E000E4E6E000E4F6E000E5014546E44
:1066D200000E5114556E800E5214566E7F0E5314D6
:1066E200576E5450551056105710D8A47BEF33F004
:1066F2007DEF33F085EF33F0000E506E000E516ED9
:10670200000E526E000E536E4FAE8AEF33F08CEFD6
:1067120033F095EF33F04C6C4D1ED8B04D2A4E1E1F
:10672200D8B04E2A800E4F5653AE9AEF33F09CEFFC
:1067320033F0A5EF33F0506C511ED8B0512A521EDF
:10674200D8B0522A800E5356000E4C1A000E4D1A23
:10675200000E4E1A800E4F1A000E501A000E511AD9
:10676200000E521A800E531A50504C5C51504D5824
:1067720052504E5853504F58D8B0C2EF33F0C4EF76
:1067820033F0C7EF33F0D890C8EF33F0D88012005F
:1067920020EE01F01950D9261A50DA22DF6A20EED3
:1067A20001F01B50D9261C50DA22010EDF6E10EFC9
:1067B20034F019C0D9FF1AC0DAFF460EDF60E4EFE9
:1067C20033F0E6EF33F0EBEF33F019C0D9FF1AC024
:1067D200DAFFDF2A1BC0D9FF1CC0DAFF460EDF60DA
:1067E200F5EF33F0F7EF33F0FCEF33F01BC0D9FFD6
:1067F2001CC0DAFFDF2A19C00FF01AC010F08CECAF
:1068020031F01BC00FF01CC010F08CEC31F0150EF3
:106812001D6EC60EE82EFED71D2EFCD700D019C065
:10682200D9FF1AC0DAFF450EDF641AEF34F01CEF0D
:1068320034F0DAEF33F01BC0D9FF1CC0DAFF450E8B
:10684200DF6426EF34F028EF34F0DAEF33F0390E5C
:106852001E6ED20E1D6E4C0EE82EFED71D2EFCD7DC
:106862001E2EFAD700D019C015F01AC016F01BC0A0
:1068720017F01CC018F0DAEC37F0120020EE01F02D
:106882001950D9261A50DA22010EDF6E20EE01F0DD
:106892001B50D9261C50DA22DF6A86EF34F019C069
:1068A200D9FF1AC0DAFF460EDF605AEF34F05CEF10
