:0400000012EF00F00B
:100008005D828AA00AEF00F00CEF00F010EF00F01C
:100018008096610EF6EC38F05D9211009AEF38F098
:100E00000000000000DCCFD1350000000000C0155C
:100E10003F0000803F0000C03F70A5EC363BAAB801
:100E20003F4F38763F3CAA38338CBEBF3500723115
:100E30003F1872313F4CBB31330EEADDB555B38AF2
:100E400038610B36BBABAA2A3E42F1533E55326C99
:100E50003E05A38B3EABAAAA3EB76DDB3E9A99191D
:100E60003F0000804B00AAB83FC623F6B80040768A
:100E70003F636C656172203D202564200D0A0D0AD8
:100E800000616374696F6E203D202564200D0A00A7
:100E9000626C7565203D202564200D0A0D0A0063F3
:100EA0006C656172203D202564200D0A0067726523
:100EB000656E203D202564200D0A00626C7565205A
:100EC0003D202564200D0A00726564203D202564C4
:050ED000200D0A0000E6
:100ED600D8C068F1D9C069F1DAC06AF1DBC06BF13C
:100EE600DCC084F1DDC085F1DEC086F1DFC087F1AC
:100EF600FF0E01016815AC6FFF0E6915AD6FFF0E91
:100F06006A15AE6F7F0E6B15AF6FFF0E8415946F6B
:100F1600FF0E8515956FFF0E8615966F7F0E87154A
:100F2600976F9451951196119711D8A49DEF07F0DC
:100F36009FEF07F0AAEF07F0000E0001D86F000E32
:100F4600D96F800EDA6F3F0EDB6F92EF19F0800ECD
:100F56006A1909E13F0E6B1968116911D8A4B6EF39
:100F660007F0B8EF07F0C3EF07F0000E0001D86FE7
:100F7600000ED96F800EDA6F3F0EDB6F92EF19F01D
:100F8600AFBFD4EF07F0AC05000EAD59800EAE59D9
:100F96007F0EAF59D8B0D2EF07F0D4EF07F0E5EFE8
:100FA60007F097BFE3EF07F09405000E9559800E02
:100FB60096597F0E9759D8A0E3EF07F0E5EF07F0B3
:100FC60001EF08F0D8C002F0D9C003F0DAC004F08F
:100FD600DBC005F0DCC006F0DDC007F0DEC008F0BF
:100FE600DFC009F0C2EC23F002C0D8F003C0D9F08C
:100FF60004C0DAF005C0DBF092EF19F0000E546F72
:10100600000E556F000E566F000E576F6BBF10EF38
:1010160008F00EEF08F0DCEF08F097BF1CEF08F0C1
:10102600800E965D4B0E9759D8A01CEF08F01EEF68
:1010360008F028EF08F0020E546F000E556F000EF0
:10104600566F000E576FDCEF08F097BF34EF08F0CD
:10105600800E965D3F0E9759D8A034EF08F036EF14
:1010660008F0DCEF08F0170E0001E06F94C1E1F024
:1010760095C1E2F096C1E3F097C1E4F0E06746EF70
:1010860008F04EEF08F0E435E433E333E233E133BE
:10109600E02F41EF08F0810E0001E1250101A46F68
:1010A600FF0E0001E2210101A56FFF0E0001E32101
:1010B6000101A66FFF0E0001E4210101A76FA451F3
:1010C60017080001E06F94C1E1F095C1E2F096C106
:1010D600E3F097C1E4F0E06773EF08F07BEF08F008
:1010E600E435E433E333E233E133E02F6EEF08F027
:1010F600E1C0A8F1E2C0A9F1E3C0AAF1E4C0ABF1F6
:101106000101A45117080001E06FA8C1E1F0A9C1CF
:10111600E2F0AAC1E3F0ABC1E4F0E02B98EF08F0EF
:10112600D890E137E237E337E437E02F93EF08F062
:10113600010194510001E11913E1010195510001EA
:10114600E2190EE1010196510001E31909E10101DD
:1011560097510001E419D8A4B3EF08F0B5EF08F0F1
:10116600DCEF08F0010E0101A8150001E06F000E8A
:101176000101A9150001E16F000E0101AA15000188
:10118600E26F000E0101AB150001E36FE0510208AA
:101196000101546F000E0001E1550101556F000E6B
:1011A6000001E2550101566F000E0001E3550101F1
:1011B600576F800E0101961909E17F0E9719941158
:1011C6009511D8A4E9EF08F0EBEF08F057EF09F016
:1011D600800EAE1909E13F0EAF19AC11AD11D8A4BE
:1011E600F7EF08F0F9EF08F004EF09F0000E000140
:1011F600D86F000ED96F800EDA6F3F0EDB6F92EF5D
:1012060019F0AFBF13EF09F0AC05000EAD59800E13
:10121600AE593F0EAF59D8A013EF09F015EF09F0FC
:1012260031EF09F087BF1CEF09F01AEF09F027EF3D
:1012360009F0000E0001D86F000ED96F000EDA6FAC
:10124600000EDB6F92EF19F0DCC0D8F0DDC0D9F0EC
:10125600DEC0DAF0DFC0DBF092EF19F087BF38EFBF
:1012660009F036EF09F04CEF09F0DCC002F0DDC002
:1012760003F0DEC004F0DFC005F010EC38F002C069
:10128600D8F003C0D9F004C0DAF005C0DBF092EF65
:1012960019F0000E0001D86F000ED96F000EDA6F3C
:1012A600000EDB6F92EF19F0800E961909E13F0EE2
:1012B600971994119511D8A463EF09F065EF09F019
:1012C60092EF09F087BF6CEF09F06AEF09F088EF3B
:1012D60009F0000E2B6E000E2C6E800E2D6E3F0E4A
:1012E6002E6ED8C02FF0D9C030F0DAC031F0DBC096
:1012F60032F026EC2AF02BC0D8F02CC0D9F02DC045
:10130600DAF02EC0DBF092EF19F0D8C0D8F0D9C0D1
:10131600D9F0DAC0DAF0DBC0DBF092EF19F0400E5C
:101326008719841185118611D8A49CEF09F09EEFC8
:1013360009F0BAEF09F0D8C012F0D9C013F0DAC03C
:1013460014F0DBC015F0D8C016F0D9C017F0DAC01B
:1013560018F0DBC019F022EC26F012C0D8F013C04A
:10136600D9F014C0DAF015C0DBF092EF19F03F0E99
:101376008719841185118611D8A4C4EF09F0C6EF28
:1013860009F0E1EF09F06BBFCBEF09F0CDEF09F003
:10139600E1EF09F0D8C012F0D9C013F0DAC014F0AA
:1013A600DBC015F037EC28F012C0D8F013C0D9F026
:1013B60014C0DAF015C0DBF092EF19F0ACC178F189
:1013C600ADC179F1AEC17AF1AFC17BF1800EAE1934
:1013D6000BE17F0EAF19AC11AD11D8B4F5EF09F0E2
:1013E600F7EF09F010EF0AF0AC51AD11AE11AF11E5
:1013F600D8B400EF0AF002EF0AF010EF0AF0800E00
:10140600AE1909E13F0EAF19AC11AD11D8A40EEF1C
:101416000AF010EF0AF0ABEF0AF078C1B4F179C127
:10142600B5F17AC1B6F17BC1B7F187BF1FEF0AF0FC
:101436001DEF0AF039EF0AF0000E2B6E000E2C6E2F
:10144600800E2D6E3F0E2E6EB4C12FF0B5C130F05A
:10145600B6C131F0B7C132F026EC2AF02BC0B4F198
:101466002CC0B5F12DC0B6F12EC0B7F101016BBF8E
:1014760041EF0AF03FEF0AF0A1EF0AF0000EAC25AB
:101486000001E06F000E0101AD210001E16F800E49
:101496000101AE210001E26FC00E0101AF21000182
:1014A600E36F010154510001E011E46F0101555150
:1014B6000001E111E56F010156510001E211E66FED
:1014C600010157510001E311E76FE451E511E611FF
:1014D600E711D8A471EF0AF073EF0AF083EF0AF070
:1014E600000E0001D16F210ED06FFF0E0101B46F07
:1014F600FF0EB56FFF0EB66F7F0EB76FA1EF0AF046
:1015060001015405551156115711D8A48DEF0AF053
:101516008FEF0AF0A1EF0AF0B4C102F0B5C103F0F3
:10152600B6C104F0B7C105F010EC38F002C0B4F152
:1015360003C0B5F104C0B6F105C0B7F1B4C1D8F027
:10154600B5C1D9F0B6C1DAF0B7C1DBF092EF19F048
:10155600000E646F000E656F000E666F000E676FFB
:101566006BBFBAEF0AF0B8EF0AF0DAEF0AF054519F
:10157600551156115711D8A4C3EF0AF0C5EF0AF05A
:10158600C7EF0AF073EF0AF05405551156115711BB
:10159600D8A4D0EF0AF0D2EF0AF0DAEF0AF0000E84
:1015A600646F000E656F000E666F800E676F97BFE3
:1015B600E9EF0AF09405000E9559000E96594D0E66
:1015C6009759D8A0E9EF0AF0EBEF0AF0AFEF0CF06D
:1015D600AFBFFDEF0AF0F80EAC5DFF0EAD597F0E02
:1015E600AE593F0EAF59D8B0FBEF0AF0FDEF0AF047
:1015F6001EEF0BF087BF04EF0BF002EF0BF013EFBB
:101606000BF0000E01016411B46F000E6511B56F89
:10161600800E6611B66F7F0E6711B76FA1EF0AF0E5
:10162600000E0001D86F000ED96F000EDA6F000EA3
:10163600DB6F92EF19F0AFBF2EEF0BF0080EAC5D2B
:10164600000EAD59800EAE593F0EAF59D8A02EEF01
:101656000BF030EF0BF04CEF0BF087BF3DEF0BF0CC
:1016660087518611851108E18405D8A03DEF0BF05E
:101676003FEF0BF041EF0BF004EF0BF0000E000113
:10168600D86F000ED96F000EDA6F000EDB6F92EF87
:1016960019F078C102F079C103F07AC104F07BC178
:1016A60005F0000E066E000E076E800E086EBF0E69
:1016B600096EC2EC23F002C0B0F103C0B1F104C060
:1016C600B2F105C0B3F1000E166E000E176E800E55
:1016D600186E3E0E196EB0C112F0B1C113F0B2C150
:1016E60014F0B3C115F022EC26F012C048F013C076
:1016F60049F014C04AF015C04BF0AB0E446EAA0E6A
:10170600456EAA0E466E3E0E476E91EC37F044C00B
:1017160048F145C049F146C04AF147C04BF1B0C156
:1017260016F0B1C117F0B2C118F0B3C119F0B0C1CB
:1017360012F0B1C113F0B2C114F0B3C115F022EC2E
:1017460026F012C05CF113C05DF114C05EF115C045
:101756005FF1B0C116F0B1C117F0B2C118F0B3C154
:1017660019F048C112F049C113F04AC114F04BC137
:1017760015F022EC26F012C048F013C049F014C050
:101786004AF015C04BF0000E446E000E456E000E7A
:10179600466E3F0E476E91EC37F044C04CF145C0A3
:1017A6004DF146C04EF147C04FF15CC112F05DC12C
:1017B60013F05EC114F05FC115F04CC116F04DC1B7
:1017C60017F04EC118F04FC119F022EC26F012C0E6
:1017D60044F113C045F114C046F115C047F1B0C13C
:1017E60012F0B1C113F0B2C114F0B3C115F0000E7E
:1017F600166EAA0E176EB80E186E3F0E196E22ECF4
:1018060026F012C07CF113C07DF114C07EF115C024
:101816007FF1700E166EA50E176EEC0E186E360E54
:10182600196EB0C112F0B1C113F0B2C114F0B3C158
:1018360015F022EC26F012C044F013C045F014C097
:1018460046F015C047F03B0E166EAA0E176EB80E80
:10185600186E3F0E196E44C112F045C113F046C111
:1018660014F047C115F022EC26F012C048F013C060
:1018760049F014C04AF015C04BF091EC37F044C063
:1018860080F145C081F146C082F147C083F17CC139
:1018960002F07DC103F07EC104F07FC105F080C176
:1018A60006F081C107F082C108F083C109F0C2ECDD
:1018B60023F002C08CF103C08DF104C08EF105C087
:1018C6008FF18CC198F18DC199F18EC19AF18FC1BA
:1018D6009BF1000E010198158C6FF00E99158D6F16
:1018E600FF0E9A158E6FFF0E9B158F6F7CC148F009
:1018F6007DC149F07EC14AF07FC14BF08CC144F0F6
:101906008DC145F08EC146F08FC147F091EC37F09E
:1019160044C09CF145C09DF146C09EF147C09FF171
:1019260080C144F081C145F082C146F083C147F0D1
:101936009CC148F09DC149F09EC14AF09FC14BF041
:1019460091EC37F044C01CF145C01DF146C01EF1B4
:1019560047C01FF18BEF13F0000E886F000E896FE2
:10196600000E8A6F000E8B6FAFBFC5EF0CF0AF5144
:1019760007E1800EAE5DD8B0C3EF0CF0C5EF0CF0FA
:10198600F0EF0CF078C112F079C113F07AC114F0BF
:101996007BC115F0000E166E000E176E800E186EC7
:1019A6004B0E196E22EC26F012C078F113C079F1B5
:1019B60014C07AF115C07BF1E80E01018827FF0EED
:1019C6008923FF0E8A23FF0E8B2378C1ACF179C1E0
:1019D600ADF17AC1AEF17BC1AFF1170E0001E06F38
:1019E600ACC1E1F0ADC1E2F0AEC1E3F0AFC1E4F0ED
:1019F600E06700EF0DF008EF0DF0E435E433E33374
:101A0600E233E133E02FFBEF0CF0810E0001E1251C
:101A1600E56FFF0EE221E66FFF0EE321E76FFF0E93
:101A2600E421E86FE551010188270001E651010133
:101A360089230001E75101018A230001E8510101D0
:101A46008B23FF0EAC15A86FFF0EAD15A96F7F0E89
:101A5600AE15AA6F000EAF15AB6F000EA46F000E89
:101A6600A56F000EA66F000EA76F000EA811AC6F33
:101A7600000EA911AD6F800EAA11AE6F3F0EAB110D
:101A8600AF6FABBF56EF0DF0AB510BE1720EA85D19
:101A9600C40EA9591C0EAA59D8B054EF0DF056EF32
:101AA6000DF058EF0DF082EF0DF0ABBF6AEF0DF0C1
:101AB600AB510BE1D70EA85DB30EA9595D0EAA591D
:101AC600D8B068EF0DF06AEF0DF074EF0DF0010E6F
:101AD600A46F000EA56F000EA66F000EA76F82EF13
:101AE6000DF0010E8827000E89238A238B23000E12
:101AF600AC27000EAD23800EAE23FF0EAF23ACC184
:101B060078F1ADC179F1AEC17AF1AFC17BF178C19F
:101B160044F079C145F07AC146F07BC147F0A45143
:101B2600040DF350110F0001E06FE0C0F6FF09004D
:101B3600F5CF48F00900F5CF49F00900F5CF4AF096
:101B46000A00F5CF4BF091EC37F044C07CF145C06C
:101B56007DF146C07EF147C07FF1000E2B6E000E70
:101B66002C6E800E2D6E3F0E2E6E78C106F079C15A
:101B760007F07AC108F07BC109F00101A451040DF8
:101B8600F350110F0001E06FE0C0F6FF0900F5CF3A
:101B960002F00900F5CF03F00900F5CF04F00A00C2
:101BA600F5CF05F0C2EC23F002C02FF003C030F0F1
:101BB60004C031F005C032F026EC2AF02BC080F1CB
:101BC6002CC081F12DC082F12EC083F17CC112F0B0
:101BD6007DC113F07EC114F07FC115F080C116F0EF
:101BE60081C117F082C118F083C119F022EC26F0EA
:101BF60012C058F113C059F114C05AF115C05BF167
:101C060058C174F159C175F15AC176F15BC177F1CA
:101C160074C198F175C199F176C19AF177C19BF1BA
:101C2600000E01019815746FF00E9915756FFF0E71
:101C36009A15766FFF0E9B15776FACC1E0F0ADC1BC
:101C4600E1F0AEC1E2F0AFC1E3F00001E335E3330A
:101C5600E233E133E033000EE015E46FF00EE115F8
:101C6600E56FFF0EE215E66FFF0EE315E76F000E58
:101C7600E4110101986F000E0001E5110101996F51
:101C8600000E0001E61101019A6F200E0001E71116
:101C960001019B6FA4C1E0F0A5C1E1F0A6C1E2F08D
:101CA600A7C1E3F0150ED8900001E037E137E2371F
:101CB600E337E82E56EF0EF0010198510001E025BA
:101CC600E46F010199510001E121E56F01019A518B
:101CD6000001E221E66F01019B510001E321E76F5C
:101CE600000EE4250101706F000E0001E5210101DF
:101CF600716F400E0001E6210101726F000E0001B6
:101D0600E7210101736FA451040DF350110F000177
:101D1600E06FE0C0F6FF0900F5CF48F00900F5CF07
:101D260049F00900F5CF4AF00A00F5CF4BF070C133
:101D360044F071C145F072C146F073C147F091ECB1
:101D460037F044C09CF145C09DF146C09EF147C0A6
:101D56009FF178C144F079C145F07AC146F07BC164
:101D660047F09CC148F09DC149F09EC14AF09FC111
:101D76004BF091EC37F044C034F145C035F146C024
:101D860036F147C037F170C116F071C117F072C154
:101D960018F073C119F074C112F075C113F076C151
:101DA60014F077C115F022EC26F012C048F013C0EB
:101DB60049F014C04AF015C04BF07CC144F07DC117
:101DC60045F07EC146F07FC147F091EC37F044C044
:101DD6009CF145C09DF146C09EF147C09FF134C1BC
:101DE60016F035C117F036C118F037C119F074C1B5
:101DF60012F075C113F076C114F077C115F022EC1C
:101E060026F012C048F013C049F014C04AF015C0BD
:101E16004BF09CC144F09DC145F09EC146F09FC168
:101E260047F091EC37F044C05CF145C05DF146C027
:101E36005EF147C05FF15CC112F05DC113F05EC197
:101E460014F05FC115F080C116F081C117F082C190
:101E560018F083C119F022EC26F012C030F113C03D
:101E660031F114C032F115C033F158C112F059C125
:101E760013F05AC114F05BC115F058C116F059C1E0
:101E860017F05AC118F05BC119F022EC26F012C007
:101E960090F113C091F114C092F115C093F1550E53
:101EA600066E320E076E6C0E086E3E0E096E420E00
:101EB600166EF10E176E530E186E3E0E196E90C109
:101EC60012F091C113F092C114F093C115F022ECF7
:101ED60026F012C002F013C003F014C004F015C0BF
:101EE60005F0C2EC23F002C048F103C049F104C07A
:101EF6004AF105C04BF1050E066EA30E076E8B0E5A
:101F0600086E3E0E096E90C116F091C117F092C18F
:101F160018F093C119F048C112F049C113F04AC133
:101F260014F04BC115F022EC26F012C002F013C0DB
:101F360003F014C004F015C005F0C2EC23F002C093
:101F46005CF103C05DF104C05EF105C05FF1AB0E4C
:101F5600066EAA0E076EAA0E086E3E0E096E90C198
:101F660016F091C117F092C118F093C119F05CC137
:101F760012F05DC113F05EC114F05FC115F022ECE2
:101F860026F012C002F013C003F014C004F015C00E
:101F960005F0C2EC23F002C04CF103C04DF104C0C1
:101FA6004EF105C04FF1B70E066E6D0E076EDB0ED5
:101FB600086E3E0E096E90C116F091C117F092C1DF
:101FC60018F093C119F04CC112F04DC113F04EC177
:101FD60014F04FC115F022EC26F012C002F013C027
:101FE60003F014C004F015C005F0C2EC23F002C0E3
:101FF60038F103C039F104C03AF105C03BF19A0E3D
:10200600066E990E076E190E086E3F0E096E90C188
:1020160016F091C117F092C118F093C119F038C1AA
:1020260012F039C113F03AC114F03BC115F022EC9D
:1020360026F012C002F013C003F014C004F015C05D
:1020460005F0C2EC23F002C000F103C001F104C0A8
:1020560002F105C003F190C116F091C117F092C1CB
:1020660018F093C119F090C112F091C113F092C10A
:1020760014F093C115F022EC26F012C004F113C03F
:1020860005F114C006F115C007F100C112F001C137
:1020960013F002C114F003C115F004C116F005C116
:1020A60017F006C118F007C119F022EC26F012C08D
:1020B60050F113C051F114C052F115C053F130C1A3
:1020C60016F031C117F032C118F033C119F058C1FA
:1020D60006F059C107F05AC108F05BC109F074C196
:1020E60002F075C103F076C104F077C105F0C2ECC9
:1020F60023F002C012F003C013F004C014F005C0B0
:1021060015F022EC26F012C060F113C061F114C084
:1021160062F115C063F150C102F051C103F052C122
:1021260004F053C105F060C106F061C107F062C159
:1021360008F063C109F0C2EC23F002C050F103C0FD
:1021460051F104C052F105C053F174C112F075C1CA
:1021560013F076C114F077C115F074C116F075C18D
:1021660017F076C118F077C119F022EC26F012C0EC
:1021760090F113C091F114C092F115C093F1000EC5
:10218600066E000E076E400E086E400E096E90C178
:1021960002F091C103F092C104F093C105F0C2ECC4
:1021A60023F002C060F103C061F104C062F105C012
:1021B60063F160C102F061C103F062C104F063C162
:1021C60005F050C106F051C107F052C108F053C1E5
:1021D60009F0C2EC23F002C070F103C071F104C033
:1021E60072F105C073F170C198F171C199F172C1B4
:1021F6009AF173C19BF1000E01019815706FF00EF4
:102206009915716FFF0E9A15726FFF0E9B15736FFE
:10221600000E066E000E076E400E086EC00E096EAA
:1022260070C102F071C103F072C104F073C105F010
:10223600C2EC23F002C03CF103C03DF104C03EF104
:1022460005C03FF190C148F091C149F092C14AF0F2
:1022560093C14BF03CC144F03DC145F03EC146F050
:102266003FC147F091EC37F044C040F145C041F121
:1022760046C042F147C043F150C144F051C145F058
:1022860052C146F053C147F040C148F041C149F040
:1022960042C14AF043C14BF091EC37F044C034F1EF
:1022A60045C035F146C036F147C037F174C112F06A
:1022B60075C113F076C114F077C115F070C116F030
:1022C60071C117F072C118F073C119F022EC26F033
:1022D60012C07CF113C07DF114C07EF115C07FF1F0
:1022E60030C116F031C117F032C118F033C119F000
:1022F60070C112F071C113F072C114F073C115F000
:1023060022EC26F012C002F013C003F014C004F051
:1023160015C005F058C116F059C117F05AC118F08A
:102326005BC119F034C112F035C113F036C114F097
:1023360037C115F022EC26F012C006F013C007F0E4
:1023460014C008F015C009F0C2EC23F002C080F1F9
:1023560003C081F104C082F105C083F17CC102F0A3
:102366007DC103F07EC104F07FC105F080C106F097
:1023760081C107F082C108F083C109F0C2EC23F0E5
:1023860002C0A0F103C0A1F104C0A2F105C0A3F1EF
:10239600A0C198F1A1C199F1A2C19AF1A3C19BF183
:1023A600000E01019815A06FF00E9915A16FFF0E92
:1023B6009A15A26FFF0E9B15A36F7CC148F07DC1D5
:1023C60049F07EC14AF07FC14BF0A0C144F0A1C1E3
:1023D60045F0A2C146F0A3C147F091EC37F044C0E6
:1023E6009CF145C09DF146C09EF147C09FF180C15A
:1023F60044F081C145F082C146F083C147F09CC1DB
:1024060048F09DC149F09EC14AF09FC14BF091EC46
:1024160037F044C06CF145C06DF146C06EF147C05F
:102426006FF1A0C112F0A1C113F0A2C114F0A3C1B3
:1024360015F0000E166E400E176E760E186E3F0ED5
:10244600196E22EC26F012C020F113C021F114C03F
:1024560022F115C023F14F0E166E380E176E760E4A
:10246600186E3F0E196E6CC112F06DC113F06EC17D
:1024760014F06FC115F022EC26F012C006F013C05E
:1024860007F014C008F015C009F0C60E166E230E2C
:10249600176EF60E186EB80E196EA0C112F0A1C115
:1024A60013F0A2C114F0A3C115F022EC26F012C05D
:1024B60002F013C003F014C004F015C005F0C2EC1E
:1024C60023F002C060F103C061F104C062F105C0EF
:1024D60063F160C102F061C103F062C104F063C13F
:1024E60005F00101A451040DF350010F0001E06F46
:1024F600E0C0F6FF0900F5CF06F00900F5CF07F0BA
:102506000900F5CF08F00A00F5CF09F0C2EC23F078
:1025160002C024F103C025F104C026F105C027F14D
:1025260088C10DF089C10EF08AC10FF08BC110F081
:10253600010E73EC2EF00DC0B0F10EC0B1F10FC05C
:10254600B2F110C0B3F124C106F025C107F026C1CF
:1025560008F027C109F020C102F021C103F022C111
:1025660004F023C105F0C2EC23F002C060F103C001
:1025760061F104C062F105C063F10101A451040DCB
:10258600F350090F0001E06FE0C0F6FF0900F5CF38
:1025960006F00900F5CF07F00900F5CF08F00A00AC
:1025A600F5CF09F060C102F061C103F062C104F029
:1025B60063C105F0C2EC23F002C008F103C009F1C3
:1025C60004C00AF105C00BF108C102F009C103F00D
:1025D6000AC104F00BC105F0B0C106F0B1C107F0A5
:1025E600B2C108F0B3C109F0C2EC23F002C08CF10D
:1025F60003C08DF104C08EF105C08FF18CC198F136
:102606008DC199F18EC19AF18FC19BF1000E010126
:1026160098158C6FF00E99158D6FFF0E9A158E6FAB
:10262600FF0E9B158F6FB0C148F0B1C149F0B2C122
:102636004AF0B3C14BF08CC144F08DC145F08EC158
:1026460046F08FC147F091EC37F044C09CF145C08D
:102656009DF146C09EF147C09FF10101A451040DB2
:10266600F350090F0001E06FE0C0F6FF0900F5CF57
:1026760048F00900F5CF49F00900F5CF4AF00A0005
:10268600F5CF4BF09CC144F09DC145F09EC146F08C
:102696009FC147F091EC37F044C040F145C041F18D
:1026A60046C042F147C043F120C148F021C149F07C
:1026B60022C14AF023C14BF040C144F041C145F06C
:1026C60042C146F043C147F091EC37F044C00CF1EB
:1026D60045C00DF146C00EF147C00FF124C144F0CC
:1026E60025C145F026C146F027C147F00CC148F088
:1026F6000DC149F00EC14AF00FC14BF091EC37F015
:1027060044C01CF145C01DF146C01EF147C01FF173
:10271600DCC098F1DDC099F1DEC09AF1DFC09BF113
:10272600000E010198152C6FF00E99152D6FFF0EF6
:102736009A152E6FFF0E9B152F6F8CC116F08DC14B
:1027460017F08EC118F08FC119F02CC148F02DC1B9
:1027560049F02EC14AF02FC14BF0DCC044F0DDC079
:1027660045F0DEC046F0DFC047F091EC37F044C0DC
:1027760012F045C013F046C014F047C015F022EC25
:1027860026F012C010F113C011F114C012F115C0D9
:1027960013F110C102F011C103F012C104F013C10C
:1027A60005F01CC116F01DC117F01EC118F01FC19F
:1027B60019F0DCC012F0DDC013F0DEC014F0DFC08B
:1027C60015F022EC26F012C006F013C007F014C074
:1027D60008F015C009F0C2EC23F002C06CF103C08A
:1027E6006DF104C06EF105C06FF12CC112F02DC160
:1027F60013F02EC114F02FC115F08CC116F08DC147
:1028060017F08EC118F08FC119F022EC26F012C015
:10281600A0F113C0A1F114C0A2F115C0A3F1A0C18B
:1028260002F0A1C103F0A2C104F0A3C105F06CC17E
:1028360006F06DC107F06EC108F06FC109F0C2EC79
:1028460023F002C0B4F103C0B5F104C0B6F105C06F
:10285600B7F1B4C1A8F1B5C1A9F1B6C1AAF1B7C122
:10286600ABF10101ABBF44EF14F0A805000EA95966
:10287600000EAA59430EAB59D8A044EF14F046EF08
:1028860014F048EF14F004EF0BF0430EAB19A81147
:10289600A911AA11D8A452EF14F054EF14F093EF33
:1028A60014F0A0C148F0A1C149F0A2C14AF0A3C1E9
:1028B6004BF0B4C144F0B5C145F0B6C146F0B7C15E
:1028C60047F091EC37F044C04CF045C04DF046C09F
:1028D6004EF047C04FF03C0E066EAA0E076E380E3D
:1028E600086E330E096E6CC102F06DC103F06EC145
:1028F60004F06FC105F0C2EC23F002C050F003C033
:1029060051F004C052F005C053F0D8EC30F0D8B006
:102916008FEF14F091EF14F006EF15F004EF0BF0C3
:10292600FF0EA8150001E06FFF0E0101A9150001B9
:10293600E16FFF0E0101AA150001E26F7F0E010192
:10294600AB150001E36FE3BFB5EF14F0E005000E31
:10295600E159160EE259430EE359D8A0B5EF14F02B
:10296600B7EF14F0C1EF14F0000ED86F000ED96F58
:10297600000EDA6F000EDB6F92EF19F0160E0101F2
:10298600AA1909E1C30EAB19A811A911D8A4CEEF53
:1029960014F0D0EF14F006EF15F0A0C148F0A1C175
:1029A60049F0A2C14AF0A3C14BF0B4C144F0B5C18D
:1029B60045F0B6C146F0B7C147F091EC37F044C0D8
:1029C6004CF045C04DF046C04EF047C04FF06CC1CC
:1029D60050F06DC151F06EC152F06FC153F0D8EC9A
:1029E60030F0D8A0F9EF14F0FBEF14F006EF15F075
:1029F600000E0001D86F000ED96F000EDA6F000EC0
:102A0600DB6F92EF19F0FF0E0101A815286FFF0E7C
:102A1600A915296FFF0EAA152A6F7F0EAB152B6F0E
:102A2600170E0001E06F28C1E1F029C1E2F02AC1CA
:102A3600E3F02BC1E4F0E06723EF15F02BEF15F080
:102A4600E435E433E333E233E133E02F1EEF15F0F0
:102A5600810E0001E1250101A46FFF0E0001E221B4
:102A66000101A56FFF0E0001E3210101A66FFF0E14
:102A76000001E4210101A76F000E886F000E896F27
:102A8600000E8A6F000E8B6F2BBF56EF15F02805D0
:102A9600000E2959000E2A593F0E2B59D8A056EF81
:102AA60015F058EF15F054EF16F0A4C1E0F0010E42
:102AB6000001E027000EE16F000EE26F800EE36F6B
:102AC600000EE46FE0676AEF15F072EF15F0E4357B
:102AD600E433E333E233E133E02F65EF15F0010130
:102AE600A8510001E1250101886FA9510001E221E9
:102AF6000101896FAA510001E32101018A6FAB51DF
:102B06000001E42101018B6F810E0001E06FFF0ED1
:102B1600E16FFF0EE26FFF0EE36F170EE46F88C1E1
:102B2600E5F089C1E6F08AC1E7F08BC1E8F0E46719
:102B36009FEF15F0A7EF15F0E835E833E733E633F6
:102B4600E533E42F9AEF15F00001E551E025010188
:102B5600A46F000E0001E1210101A56F000E000126
:102B6600E2210101A66F000E0001E3210101A76F1A
:102B7600A4C1E0F0FF0E0001E16FFF0EE26F7F0ED1
:102B8600E36F000EE46FE067CBEF15F0D3EF15F0BF
:102B9600E435E433E333E233E133E02FC6EF15F0F7
:102BA6000001E11DE56FE21DE66FE31DE76FE41D21
:102BB600E86F010188510001E5150101B06F8951E7
:102BC6000001E6150101B16F8A510001E715010107
:102BD600B26F8B510001E8150101B36FA4511708BC
:102BE6000001E06FFF0E010188150001E16FFF0E85
:102BF600010189150001E26F7F0E01018A150001AE
:102C0600E36F000E01018B150001E46F000EE11168
:102C1600E56F000EE211E66F800EE311E76F000E1E
:102C2600E411E86FE0671AEF16F022EF16F0E835C8
:102C3600E833E733E633E533E02F15EF16F0E5C06A
:102C460088F1E6C089F1E7C08AF1E8C08BF101019D
:102C5600ABBF32EF16F030EF16F03AEF16F08B1FDF
:102C66008A1F891F886D000E89238A238B23A0C1A2
:102C760044F0A1C145F0A2C146F0A3C147F0B0C1DE
:102C860048F0B1C149F0B2C14AF0B3C14BF091EC82
:102C960037F044C0A0F145C0A1F146C0A2F147C03B
:102CA600A3F1A0C102F0A1C103F0A2C104F0A3C127
:102CB60005F06CC106F06DC107F06EC108F06FC17A
:102CC60009F0C2EC23F002C0B0F103C0B1F104C0B8
:102CD600B2F105C0B3F1B0C198F1B1C199F1B2C179
:102CE6009AF1B3C19BF1000E01019815B06F800EE9
:102CF6009915B16FFF0E9A15B26FFF0E9B15B36F44
:102D0600B0C112F0B1C113F0B2C114F0B3C115F0E5
:102D1600000E166E720E176E310E186E3F0E196E7D
:102D260022EC26F012C07CF113C07DF114C07EF1B6
:102D360015C07FF1A0C148F0A1C149F0A2C14AF077
:102D4600A3C14BF0B0C144F0B1C145F0B2C146F0E9
:102D5600B3C147F091EC37F044C09CF145C09DF1FA
:102D660046C09EF147C09FF1180E166E720E176E82
:102D7600310E186E3F0E196E9CC148F09DC149F088
:102D86009EC14AF09FC14BF06CC144F06DC145F045
:102D96006EC146F06FC147F091EC37F044C012F0B7
:102DA60045C013F046C014F047C015F022EC26F0DB
:102DB60012C014F113C015F114C016F115C017F1A5
:102DC60014C102F015C103F016C104F017C105F0D5
:102DD6008C0E166EBE0E176EBF0E186E350E196E61
:102DE600B0C112F0B1C113F0B2C114F0B3C115F005
:102DF60022EC26F012C006F013C007F014C008F04B
:102E060015C009F0C2EC23F002C080F103C081F1C5
:102E160004C082F105C083F17CC102F07DC103F0DC
:102E26007EC104F07FC105F080C106F081C107F0C4
:102E360082C108F083C109F0C2EC23F002C0B4F1EC
:102E460003C0B5F104C0B6F105C0B7F17CC148F0C6
:102E56007DC149F07EC14AF07FC14BF0B4C144F058
:102E6600B5C145F0B6C146F0B7C147F091EC37F0B1
:102E760044C09CF145C09DF146C09EF147C09FF1FC
:102E860080C144F081C145F082C146F083C147F05C
:102E96009CC148F09DC149F09EC14AF09FC14BF0CC
:102EA60091EC37F044C044F145C045F146C046F1C7
:102EB60047C047F1B4C112F0B5C113F0B6C114F062
:102EC600B7C115F0B4C116F0B5C117F0B6C118F008
:102ED600B7C119F022EC26F012C0B0F113C0B1F15F
:102EE60014C0B2F115C0B3F10E0E066EEA0E076EEF
:102EF600DD0E086EB50E096E4C0E166EBB0E176E05
:102F0600310E186E330E196EB0C112F0B1C113F046
:102F1600B2C114F0B3C115F022EC26F012C002F0D3
:102F260013C003F014C004F015C005F0C2EC23F082
:102F360002C048F103C049F104C04AF105C04BF193
:102F4600550E066EB30E076E8A0E086E380E096EA3
:102F5600B0C116F0B1C117F0B2C118F0B3C119F083
:102F660048C112F049C113F04AC114F04BC115F023
:102F760022EC26F012C002F013C003F014C004F0D5
:102F860015C005F0C2EC23F002C05CF103C05DF190
:102F960004C05EF105C05FF1610E066E0B0E076E92
:102FA600360E086EBB0E096EB0C116F0B1C117F031
:102FB600B2C118F0B3C119F05CC112F05DC113F0D3
:102FC6005EC114F05FC115F022EC26F012C002F0CB
:102FD60013C003F014C004F015C005F0C2EC23F0D2
:102FE60002C04CF103C04DF104C04EF105C04FF1D3
:102FF600AB0E066EAA0E076E2A0E086E3E0E096E00
:10300600B0C116F0B1C117F0B2C118F0B3C119F0D2
:103016004CC112F04DC113F04EC114F04FC115F062
:1030260022EC26F012C002F013C003F014C004F024
:1030360015C005F0C2EC23F002C038F103C039F127
:1030460004C03AF105C03BF1B4C144F0B5C145F046
:10305600B6C146F0B7C147F0B0C116F0B1C117F01E
:10306600B2C118F0B3C119F038C112F039C113F06A
:103076003AC114F03BC115F022EC26F012C048F01C
:1030860013C049F014C04AF015C04BF091EC37F06C
:1030960044C08CF145C08DF146C08EF147C08FF11A
:1030A600000E066E000E076E000E086EC00E096E4C
:1030B6008CC102F08DC103F08EC104F08FC105F002
:1030C600C2EC23F002C02FF003C030F004C031F090
:1030D60005C032F08CC116F08DC117F08EC118F004
:1030E6008FC119F0B4C112F0B5C113F0B6C114F016
:1030F600B7C115F022EC26F012C02BF013C02CF04D
:1031060014C02DF015C02EF026EC2AF02BC03CF191
:103116002CC03DF12DC03EF12EC03FF144C106F05A
:1031260045C107F046C108F047C109F044C116F091
:1031360045C117F046C118F047C119F0B4C112F0E5
:10314600B5C113F0B6C114F0B7C115F022EC26F0E4
:1031560012C002F013C003F014C004F015C005F04D
:10316600C2EC23F002C018F103C019F104C01AF131
:1031760005C01BF13CC144F03DC145F03EC146F0DF
:103186003FC147F018C148F019C149F01AC14AF0C9
:103196001BC14BF091EC37F044C050F145C051F1E2
:1031A60046C052F147C053F1B4C148F0B5C149F029
:1031B600B6C14AF0B7C14BF050C144F051C145F019
:1031C60052C146F053C147F091EC37F044C09CF130
:1031D60045C09DF146C09EF147C09FF1000E446E6A
:1031E600000E456E800E466E3F0E476E9CC148F03F
:1031F6009DC149F09EC14AF09FC14BF091EC37F05A
:1032060044C0B4F145C0B5F146C0B6F147C0B7F108
:10321600B4C1A8F1B5C1A9F1B6C1AAF1B7C1ABF164
:1032260088C1E0F089C1E1F08AC1E2F08BC1E3F028
:10323600170ED8900001E037E137E237E337E82E82
:103246001CEF19F0E0510101A8270001E15101012D
:10325600A9230001E2510101AA230001E351010162
:10326600AB23170E0001E06FA8C1E1F0A9C1E2F09F
:10327600AAC1E3F0ABC1E4F0E06744EF19F04CEF0C
:1032860019F0E435E433E333E233E133E02F3FEF83
:1032960019F00001E4BF5CEF19F0E451E311E2110B
:1032A60006E1E105D8B05AEF19F05CEF19F074EFBA
:1032B60019F0B4C12BF0B5C12CF0B6C12DF0B7C1D1
:1032C6002EF088C12FF089C130F059EC2DF02BC0BB
:1032D600B4F12CC0B5F12DC0B6F12EC0B7F17CEF1C
:1032E60019F0A8C1B4F1A9C1B5F1AAC1B6F1ABC133
:1032F600B7F10101B451B511B611B711D8B486EFC3
:1033060019F088EF19F0A1EF0AF06451B41B65516A
:10331600B51B6651B61B6751B71BA1EF0AF0120029
:10332600140E0201716F020E726F280E756F020E77
:10333600766F3C0E736F020E746FD50E046E010E1F
:10334600ACEC38F0AB0E046E030EACEC38F0110E9C
:10335600596E3C0E586ECB0EE82EFED7582EFCD773
:10336600592EFAD70000CCEC36F006C00DF007C097
:103376000EF00F6A106A000E73EC2EF00DC0ACF260
:103386000EC0ADF20FC0AEF210C0AFF2F4EC36F0E4
:1033960006C00DF007C00EF00F6A106A000E73EC3F
:1033A6002EF00DC07CF20EC07DF20FC07EF210C072
:1033B6007FF244EC37F006C00DF007C00EF00F6A3E
:1033C600106A000E73EC2EF00DC080F20EC081F272
:1033D6000FC082F210C083F2140E1B6E020E1C6E1A
:1033E600C80E1D6EACC21EF0ADC21FF0AEC220F0FC
:1033F600AFC221F0D5EC37F071C203F072C204F00F
:1034060046EC38F0280E1B6E020E1C6EAD0E1D6EBD
:103416007CC21EF07DC21FF07EC220F07FC221F06A
:10342600D5EC37F075C203F076C204F046EC38F0FE
:103436003C0E1B6E020E1C6E900E1D6E80C21EF0A0
:1034460081C21FF082C220F083C221F0D5EC37F092
:1034560073C203F074C204F046EC38F0ACC24CF010
:10346600ADC24DF0AEC24EF0AFC24FF0000E506E80
:10347600800E516E260E526E440E536ED8EC30F00E
:10348600D8B048EF1AF04AEF1AF055EF1AF0000ECE
:103496000201AC6F000EAD6F000EAE6F000EAF6F87
:1034A6006FEF1AF0ACC244F0ADC245F0AEC246F0C2
:1034B600AFC247F0000E486E800E496E260E4A6E69
:1034C600440E4B6E91EC37F044C0ACF245C0ADF201
:1034D60046C0AEF247C0AFF27CC24CF07DC24DF0A2
:1034E6007EC24EF07FC24FF0000E506E000E516E3F
:1034F600DF0E526E430E536ED8EC30F0D8B086EF26
:103506001AF088EF1AF093EF1AF0000E02017C6FA2
:10351600000E7D6F000E7E6F000E7F6FADEF1AF00E
:10352600ACC244F0ADC245F0AEC246F0AFC247F001
:10353600000E486E000E496EDF0E4A6E430E4B6E4D
:1035460091EC37F044C0ACF245C0ADF246C0AEF2E5
:1035560047C0AFF280C24CF081C24DF082C24EF03D
:1035660083C24FF0000E506E800E516E930E526E57
:10357600430E536ED8EC30F0D8B0C4EF1AF0C6EF55
:103586001AF0D1EF1AF0000E0201806F000E816F63
:10359600000E826F000E836FEBEF1AF0ACC244F0A0
:1035A600ADC245F0AEC246F0AFC247F0000E486E5F
:1035B600800E496E930E4A6E430E4B6E91EC37F0B9
:1035C60044C0ACF245C0ADF246C0AEF247C0AFF261
:1035D600ACC22BF0ADC22CF0AEC22DF0AFC22EF0B5
:1035E600000E2F6EA00E306EA70E316E440E326E98
:1035F60026EC2AF02BC0ACF22CC0ADF22DC0AEF2F8
:103606002EC0AFF27CC22BF07DC22CF07EC22DF014
:103616007FC22EF0000E2F6EC00E306E460E316E3B
:10362600440E326E26EC2AF02BC07CF22CC07DF2C2
:103636002DC07EF22EC07FF280C22BF081C22CF00C
:1036460082C22DF083C22EF0000E2F6E000E306E59
:103656003D0E316E440E326E26EC2AF02BC080F2FF
:103666002CC081F22DC082F22EC083F2140E1B6E86
:10367600020E1C6EC80E1D6EACC21EF0ADC21FF04F
:10368600AEC220F0AFC221F0D5EC37F071C203F024
:1036960072C204F046EC38F0280E1B6E020E1C6E49
:1036A600AD0E1D6E7CC21EF07DC21FF07EC220F0E4
:1036B6007FC221F0D5EC37F075C203F076C204F074
:1036C60046EC38F03C0E1B6E020E1C6E900E1D6E04
:1036D60080C21EF081C21FF082C220F083C221F098
:1036E600D5EC37F073C203F074C204F046EC38F040
:1036F6007CC206F07DC207F07EC208F07FC209F0E8
:10370600ACC202F0ADC203F0AEC204F0AFC205F027
:10371600C2EC23F002C077F203C078F204C079F25B
:1037260005C07AF2ACC22BF0ADC22CF0AEC22DF0C1
:10373600AFC22EF080C206F081C207F082C208F046
:1037460083C209F077C202F078C203F079C204F0AE
:103756007AC205F0C2EC23F002C02FF003C030F0AD
:1037660004C031F005C032F026EC2AF02BC084F2FA
:103776002CC085F22DC086F22EC087F27CC206F0E0
:103786007DC207F07EC208F07FC209F0ACC202F02B
:10379600ADC203F0AEC204F0AFC205F0C2EC23F036
:1037A60002C077F203C078F204C079F205C07AF25B
:1037B6007CC22BF07DC22CF07EC22DF07FC22EF093
:1037C60080C206F081C207F082C208F083C209F007
:1037D60077C202F078C203F079C204F07AC205F02B
:1037E600C2EC23F002C02FF003C030F004C031F069
:1037F60005C032F026EC2AF02BC088F22CC089F2E4
:103806002DC08AF22EC08BF27CC206F07DC207F074
:103816007EC208F07FC209F0ACC202F0ADC203F06E
:10382600AEC204F0AFC205F0C2EC23F002C077F2DC
:1038360003C078F204C079F205C07AF280C22BF098
:1038460081C22CF082C22DF083C22EF080C206F017
:1038560081C207F082C208F083C209F077C202F083
:1038660078C203F079C204F07AC205F0C2EC23F004
:1038760002C02FF003C030F004C031F005C032F0B2
:1038860026EC2AF02BC08CF22CC08DF22DC08EF2C5
:103896002EC08FF2140E1B6E020E1C6EC80E1D6E0D
:1038A60084C21EF085C21FF086C220F087C221F0B6
:1038B600D5EC37F071C203F072C204F046EC38F072
:1038C600280E1B6E020E1C6EAD0E1D6E88C21EF0FB
:1038D60089C21FF08AC220F08BC221F0D5EC37F0E6
:1038E60075C203F076C204F046EC38F03C0E1B6E4F
:1038F600020E1C6E900E1D6E8CC21EF08DC21FF045
:103906008EC220F08FC221F0D5EC37F073C203F0DF
:1039160074C204F046EC38F0BC0E066E740E076EE8
:10392600130E086EBE0E096E88C202F089C203F03D
:103936008AC204F08BC205F0C2EC23F002C090F2FA
:1039460003C091F204C092F205C093F20C0E066E0B
:10395600020E076E2B0E086EBF0E096E84C202F0B1
:1039660085C203F086C204F087C205F0C2EC23F0DC
:1039760002C094F203C095F204C096F205C097F215
:10398600000E0001DC6F000EDD6F000EDE6F400ED4
:10399600DF6F90C2D8F091C2D9F092C2DAF093C22A
:1039A600DBF06BEC07F0D8C098F2D9C099F2DAC018
:1039B6009AF2DBC09BF2000E0001DC6F000EDD6F99
:1039C600000EDE6F400EDF6F94C2D8F095C2D9F0BC
:1039D60096C2DAF097C2DBF06BEC07F0D8C09CF227
:1039E600D9C09DF2DAC09EF2DBC09FF2120E066EBF
:1039F600830E076E400E086EBE0E096E8CC202F074
:103A06008DC203F08EC204F08FC205F0C2EC23F023
:103A160002C0A0F203C0A1F204C0A2F205C0A3F244
:103A260098C206F099C207F09AC208F09BC209F044
:103A36009CC202F09DC203F09EC204F09FC205F034
:103A4600C2EC23F002C0A4F203C0A5F204C0A6F2A1
:103A560005C0A7F2000E0001DC6F000EDD6F000E40
:103A6600DE6F400EDF6FA0C2D8F0A1C2D9F0A2C2AD
:103A7600DAF0A3C2DBF06BEC07F0D8C0A8F2D9C02D
:103A8600A9F2DAC0AAF2DBC0ABF2A4C202F0A5C268
:103A960003F0A6C204F0A7C205F0A8C206F0A9C2A8
:103AA60007F0AAC208F0ABC209F0C2EC23F002C0CC
:103AB60012F003C013F004C014F005C015F037EC83
:103AC60028F012C050F213C051F214C052F215C0C1
:103AD60053F2080E066EAC0E076E1C0E086EBF0E75
:103AE600096E88C202F089C203F08AC204F08BC252
:103AF60005F0C2EC23F002C090F203C091F204C0BC
:103B060092F205C093F2870E066E160E076ED90E58
:103B1600086EBD0E096E84C202F085C203F086C22D
:103B260004F087C205F0C2EC23F002C094F203C091
:103B360095F204C096F205C097F2000E0001DC6F04
:103B4600000EDD6F000EDE6F400EDF6F90C2D8F004
:103B560091C2D9F092C2DAF093C2DBF06BEC07F0B7
:103B6600D8C098F2D9C099F2DAC09AF2DBC09BF2BB
:103B7600000E0001DC6F000EDD6F000EDE6F400EE2
:103B8600DF6F94C2D8F095C2D9F096C2DAF097C228
:103B9600DBF06BEC07F0D8C09CF2D9C09DF2DAC01E
:103BA6009EF2DBC09FF23B0E066EDF0E076E8F0E97
:103BB600086EBE0E096E8CC202F08DC203F08EC274
:103BC60004F08FC205F0C2EC23F002C0A0F203C0DD
:103BD600A1F204C0A2F205C0A3F298C206F099C2EF
:103BE60007F09AC208F09BC209F09CC202F09DC27F
:103BF60003F09EC204F09FC205F0C2EC23F002C09F
:103C0600A4F203C0A5F204C0A6F205C0A7F2000EF6
:103C16000001DC6F000EDD6F000EDE6F400EDF6F01
:103C2600A0C2D8F0A1C2D9F0A2C2DAF0A3C2DBF0DA
:103C36006BEC07F0D8C0A8F2D9C0A9F2DAC0AAF294
:103C4600DBC0ABF2A4C202F0A5C203F0A6C204F028
:103C5600A7C205F0A8C206F0A9C207F0AAC208F0DA
:103C6600ABC209F0C2EC23F002C012F003C013F09D
:103C760004C014F005C015F037EC28F012C054F259
:103C860013C055F214C056F215C057F2D70E066E81
:103C9600A30E076EF00E086EBE0E096E88C202F005
:103CA60089C203F08AC204F08BC205F0C2EC23F08D
:103CB60002C090F203C091F204C092F205C093F2E2
:103CC600230E066EDB0E076E790E086EBD0E096EAC
:103CD60084C202F085C203F086C204F087C205F0F2
:103CE600C2EC23F002C094F203C095F204C096F22F
:103CF60005C097F2000E0001DC6F000EDD6F000EAE
:103D0600DE6F400EDF6F90C2D8F091C2D9F092C23A
:103D1600DAF093C2DBF06BEC07F0D8C098F2D9C0AA
:103D260099F2DAC09AF2DBC09BF2000E0001DC6F5A
:103D3600000EDD6F000EDE6F400EDF6F94C2D8F00E
:103D460095C2D9F096C2DAF097C2DBF06BEC07F0B9
:103D5600D8C09CF2D9C09DF2DAC09EF2DBC09FF2B9
:103D6600D70E066EA30E076EF00E086EBE0E096E17
:103D76008CC202F08DC203F08EC204F08FC205F031
:103D8600C2EC23F002C0A0F203C0A1F204C0A2F26A
:103D960005C0A3F298C206F099C207F09AC208F0CD
:103DA6009BC209F09CC202F09DC203F09EC204F0C1
:103DB6009FC205F0C2EC23F002C0A4F203C0A5F234
:103DC60004C0A6F205C0A7F2000E0001DC6F000ECB
:103DD600DD6F000EDE6F400EDF6FA0C2D8F0A1C20D
:103DE600D9F0A2C2DAF0A3C2DBF06BEC07F0D8C0C0
:103DF600A8F2D9C0A9F2DAC0AAF2DBC0ABF2A4C21B
:103E060002F0A5C203F0A6C204F0A7C205F0A8C23C
:103E160006F0A9C207F0AAC208F0ABC209F0C2ECCC
:103E260023F002C012F003C013F004C014F005C062
:103E360015F037EC28F012C058F213C059F214C02E
:103E46005AF215C05BF2D30E066E4D0E076EE20EE9
:103E5600086EBE0E096E88C202F089C203F08AC2DD
:103E660004F08BC205F0C2EC23F002C090F203C04E
:103E760091F204C092F205C093F2040E066E560E3D
:103E8600076ECE0E086EBE0E096E84C202F085C2A3
:103E960003F086C204F087C205F0C2EC23F002C02C
:103EA60094F203C095F204C096F205C097F2000E94
:103EB6000001DC6F000EDD6F000EDE6F400EDF6F5F
:103EC60090C2D8F091C2D9F092C2DAF093C2DBF078
:103ED6006BEC07F0D8C098F2D9C099F2DAC09AF222
:103EE600DBC09BF2000E0001DC6F000EDD6F000EE2
:103EF600DE6F400EDF6F94C2D8F095C2D9F096C23D
:103F0600DAF097C2DBF06BEC07F0D8C09CF2D9C0B0
:103F16009DF2DAC09EF2DBC09FF22D0E066EB20E47
:103F2600076E1D0E086EBE0E096E8CC202F08DC2A3
:103F360003F08EC204F08FC205F0C2EC23F002C07B
:103F4600A0F203C0A1F204C0A2F205C0A3F298C277
:103F560006F099C207F09AC208F09BC209F09CC20B
:103F660002F09DC203F09EC204F09FC205F0C2ECAF
:103F760023F002C0A4F203C0A5F204C0A6F205C055
:103F8600A7F2000E0001DC6F000EDD6F000EDE6F83
:103F9600400EDF6FA0C2D8F0A1C2D9F0A2C2DAF0FB
:103FA600A3C2DBF06BEC07F0D8C0A8F2D9C0A9F227
:103FB600DAC0AAF2DBC0ABF2A4C202F0A5C203F0DB
:103FC600A6C204F0A7C205F0A8C206F0A9C207F06F
:103FD600AAC208F0ABC209F0C2EC23F002C012F08C
:103FE60003C013F004C014F005C015F037EC28F038
:103FF60012C05CF213C05DF214C05EF215C05FF22F
:10400600580E066E390E076EB40E086EBD0E096E9A
:1040160088C202F089C203F08AC204F08BC205F09E
:10402600C2EC23F002C090F203C091F204C092F2F7
:1040360005C093F2E10E066E7A0E076E340E086E18
:10404600BF0E096E84C202F085C203F086C204F078
:1040560087C205F0C2EC23F002C094F203C095F2C9
:1040660004C096F205C097F2000E0001DC6F000E48
:10407600DD6F000EDE6F400EDF6F90C2D8F091C28A
:10408600D9F092C2DAF093C2DBF06BEC07F0D8C03D
:1040960098F2D9C099F2DAC09AF2DBC09BF2000E10
:1040A6000001DC6F000EDD6F000EDE6F400EDF6F6D
:1040B60094C2D8F095C2D9F096C2DAF097C2DBF076
:1040C6006BEC07F0D8C09CF2D9C09DF2DAC09EF224
:1040D600DBC09FF2CF0E066EF70E076E530E086E0C
:1040E600BE0E096E8CC202F08DC203F08EC204F0C1
:1040F6008FC205F0C2EC23F002C0A0F203C0A1F209
:1041060004C0A2F205C0A3F298C206F099C207F055
:104116009AC208F09BC209F09CC202F09DC203F04D
:104126009EC204F09FC205F0C2EC23F002C0A4F2C6
:1041360003C0A5F204C0A6F205C0A7F2000E000156
:10414600DC6F000EDD6F000EDE6F400EDF6FA0C26B
:10415600D8F0A1C2D9F0A2C2DAF0A3C2DBF06BECB0
:1041660007F0D8C0A8F2D9C0A9F2DAC0AAF2DBC01B
:10417600ABF2A4C202F0A5C203F0A6C204F0A7C225
:1041860005F0A8C206F0A9C207F0AAC208F0ABC2A1
:1041960009F0C2EC23F002C012F003C013F004C011
:1041A60014F005C015F037EC28F012C060F213C009
:1041B60061F214C062F215C063F24A0E066E0C0E6E
:1041C600076E020E086EBE0E096E88C202F089C224
:1041D60003F08AC204F08BC205F0C2EC23F002C0E1
:1041E60090F203C091F204C092F205C093F2190E48
:1041F600066E040E076E360E086EBF0E096E84C27A
:1042060002F085C203F086C204F087C205F0C2EC54
:1042160023F002C094F203C095F204C096F205C0E2
:1042260097F2000E0001DC6F000EDD6F000EDE6FF0
:10423600400EDF6F90C2D8F091C2D9F092C2DAF088
:1042460093C2DBF06BEC07F0D8C098F2D9C099F2B4
:10425600DAC09AF2DBC09BF2000E0001DC6F000EA2
:10426600DD6F000EDE6F400EDF6F94C2D8F095C290
:10427600D9F096C2DAF097C2DBF06BEC07F0D8C043
:104286009CF2D9C09DF2DAC09EF2DBC09FF2790E95
:10429600066EE90E076E260E086EBE0E096E8CC2FD
:1042A60002F08DC203F08EC204F08FC205F0C2EC9C
:1042B60023F002C0A0F203C0A1F204C0A2F205C01E
:1042C600A3F298C206F099C207F09AC208F09BC200
:1042D60009F09CC202F09DC203F09EC204F09FC288
:1042E60005F0C2EC23F002C0A4F203C0A5F204C09C
:1042F600A6F205C0A7F2000E0001DC6F000EDD6F0E
:10430600000EDE6F400EDF6FA0C2D8F0A1C2D9F05A
:10431600A2C2DAF0A3C2DBF06BEC07F0D8C0A8F2B9
:10432600D9C0A9F2DAC0AAF2DBC0ABF2A4C202F08D
:10433600A5C203F0A6C204F0A7C205F0A8C206F003
:10434600A9C207F0AAC208F0ABC209F0C2EC23F07A
:1043560002C012F003C013F004C014F005C015F03B
:1043660037EC28F012C064F213C065F214C066F28E
:1043760015C067F2E70E066EFB0E076EE90E086EB5
:10438600BE0E096E88C202F089C203F08AC204F02A
:104396008BC205F0C2EC23F002C090F203C091F28A
:1043A60004C092F205C093F2F00E066EA70E076ED9
:1043B600460E086EBE0E096E84C202F085C203F078
:1043C60086C204F087C205F0C2EC23F002C094F264
:1043D60003C095F204C096F205C097F2000E0001E4
:1043E600DC6F000EDD6F000EDE6F400EDF6F90C2D9
:1043F600D8F091C2D9F092C2DAF093C2DBF06BEC3E
:1044060007F0D8C098F2D9C099F2DAC09AF2DBC0A8
:104416009BF2000E0001DC6F000EDD6F000EDE6FFA
:10442600400EDF6F94C2D8F095C2D9F096C2DAF08A
:1044360097C2DBF06BEC07F0D8C09CF2D9C09DF2B6
:10444600DAC09EF2DBC09FF2210E066EB00E076E3A
:10445600B20E086EBE0E096E8CC202F08DC203F05B
:104466008EC204F08FC205F0C2EC23F002C0A0F2A7
:1044760003C0A1F204C0A2F205C0A3F298C206F0DE
:1044860099C207F09AC208F09BC209F09CC202F0DA
:104496009DC203F09EC204F09FC205F0C2EC23F059
:1044A60002C0A4F203C0A5F204C0A6F205C0A7F29A
:1044B600000E0001DC6F000EDD6F000EDE6F400E99
:1044C600DF6FA0C2D8F0A1C2D9F0A2C2DAF0A3C2AF
:1044D600DBF06BEC07F0D8C0A8F2D9C0A9F2DAC0BD
:1044E600AAF2DBC0ABF2A4C202F0A5C203F0A6C2D8
:1044F60004F0A7C205F0A8C206F0A9C207F0AAC236
:1045060008F0ABC209F0C2EC23F002C012F003C0FF
:1045160013F004C014F005C015F037EC28F012C0F3
:1045260068F213C069F214C06AF215C06BF2A80EE5
:10453600066EC60E076ECB0E086EBE0E096E88C2DC
:1045460002F089C203F08AC204F08BC205F0C2EC05
:1045560023F002C090F203C091F204C092F205C0AB
:1045660093F2F40E066EFD0E076E940E086EBE0EE6
:10457600096E84C202F085C203F086C204F087C2C7
:1045860005F0C2EC23F002C094F203C095F204C019
:1045960096F205C097F2000E0001DC6F000EDD6F8B
:1045A600000EDE6F400EDF6F90C2D8F091C2D9F0D8
:1045B60092C2DAF093C2DBF06BEC07F0D8C098F247
:1045C600D9C099F2DAC09AF2DBC09BF2000E000164
:1045D600DC6F000EDD6F000EDE6F400EDF6F94C2E3
:1045E600D8F095C2D9F096C2DAF097C2DBF06BEC40
:1045F60007F0D8C09CF2D9C09DF2DAC09EF2DBC0AB
:104606009FF2640E066E3B0E076E9F0E086EBE0E80
:10461600096E8CC202F08DC203F08EC204F08FC206
:1046260005F0C2EC23F002C0A0F203C0A1F204C060
:10463600A2F205C0A3F298C206F099C207F09AC288
:1046460008F09BC209F09CC202F09DC203F09EC214
:1046560004F09FC205F0C2EC23F002C0A4F203C02E
:10466600A5F204C0A6F205C0A7F2000E0001DC6F99
:10467600000EDD6F000EDE6F400EDF6FA0C2D8F0B9
:10468600A1C2D9F0A2C2DAF0A3C2DBF06BEC07F04C
:10469600D8C0A8F2D9C0A9F2DAC0AAF2DBC0ABF240
:1046A600A4C202F0A5C203F0A6C204F0A7C205F098
:1046B600A8C206F0A9C207F0AAC208F0ABC209F068
:1046C600C2EC23F002C012F003C013F004C014F0D1
:1046D60005C015F037EC28F012C06CF213C06DF26D
:1046E60014C06EF215C06FF2000E0201706F000E5C
:1046F6007B6F070E7B6582EF23F084EF23F086EF56
:1047060023F0B5EF23F07B51040D500EF324D96E40
:10471600020EF420DA6EDECF4CF0DECF4DF0DECFA7
:104726004EF0DECF4FF07051040D500EF324D96ECB
:10473600020EF420DA6EDECF50F0DECF51F0DECF7F
:1047460052F0DECF53F0D8EC30F0D8B0ADEF23F016
:10475600AFEF23F0B1EF23F07BC270F202017B2BA7
:104766007CEF23F0FF0E046E010EACEC38F0FF0E6A
:10477600046E030EACEC38F00201705112000550C5
:10478600800B0E6E05500524106E04AECDEF23F09F
:10479600CFEF23F0D0EF23F010801050D8B4D6EF2F
:1047A60023F0D8EF23F0EDEF23F01028D8A4DEEFA6
:1047B60023F0E0EF23F0E8EF23F0000E026E000E88
:1047C600036E000E046E000E056E048E000E056E5E
:1047D600F5EF23F0000E026E000E036E000E046E5F
:1047E600000E056E0950800B0F6E0E500F18D8B4D0
:1047F600FFEF23F001EF24F002EF24F00E8C0950B6
:1048060009240F6E08AE0AEF24F00CEF24F00DEF2A
:1048160024F00F800F50D8B413EF24F015EF24F0D6
:104826002AEF24F00F28D8A41BEF24F01DEF24F064
:1048360025EF24F0000E066E000E076E000E086EC1
:10484600000E096E088E000E096E32EF24F0000E7F
:10485600066E000E076E000E086E000E096E1050F2
:104866000F5CD8B039EF24F03BEF24F062EF24F070
:104876000EAC40EF24F042EF24F044EF24F0800E1B
:104886000E1A10C011F00FC010F011C00FF002C0C8
:1048960011F006C002F011C006F003C011F007C007
:1048A60003F011C007F004C011F008C004F011C0F5
:1048B60008F005C011F009C005F011C009F0000E9E
:1048C600116E10500FC00AF00B6A0A5E000E0B5AEA
:1048D6000BBE77EF24F00B5009E11A0E0A5CD8A044
:1048E60077EF24F079EF24F0B0EF24F002500310B4
:1048F60004100510D8A482EF24F085EF24F0010EF1
:1049060086EF24F0000E116E000E026E000E036E8E
:10491600000E046E000E056E0FC010F0B9EF24F005
:1049260011A098EF24F09AEF24F0A0EF24F0D8908D
:1049360011300109116EA2EF24F0D890113202A0B5
:10494600A7EF24F0A9EF24F0AAEF24F0118E053486
:104956000532043203320232102A0F50105CD8A0FE
:10496600B7EF24F0B9EF24F093EF24F00EBCBEEFBE
:1049760024F0C0EF24F000EF25F01050D8A4C6EFC5
:1049860024F0C8EF24F0D2EF24F0000E026E000EE1
:10499600036E000E046E000E056E21EF26F0065023
:1049A600022607500322085004220950052205A0BA
:1049B600DFEF24F0E1EF24F08DEF25F011A0E6EF14
:1049C60024F0E8EF24F0EEEF24F0D890113001093E
:1049D600116EF0EF24F0D890113202A0F5EF24F01A
:1049E600F7EF24F0F8EF24F0118E05340532043287
:1049F60003320232102A8DEF25F00650025C075072
:104A06000358085004580550800A0A6E0950800A57
:104A16000A58D8B011EF25F013EF25F03EEF25F038
:104A26000250065C0A6E035007580B6E0450085875
:104A36000C6E055009580D6EFF0E0A24026EFF0E0D
:104A46000B20036EFF0E0C20046EFF0E0D20056E6C
:104A5600800E0E1A116C1150D8A434EF25F036EFE3
:104A660025F046EF25F0010E0226000E0322042251
:104A7600052246EF25F00650025E0750035A0850FD
:104A8600045A0950055A0250031004100510D8A400
:104A96004FEF25F051EF25F086EF25F01150D8A401
:104AA60057EF25F059EF25F086EF25F0000E026E40
:104AB600000E036E000E046E000E056E21EF26F04A
:104AC600D890023603360436053611AE6DEF25F062
:104AD6006FEF25F070EF25F0028011A075EF25F03D
:104AE60077EF25F07BEF25F0D88011367DEF25F0A6
:104AF600D89011361050D8B483EF25F085EF25F005
:104B060086EF25F0100604AE8BEF25F08DEF25F02D
:104B160063EF25F0000E0F6E11AE94EF25F096EFC1
:104B260025F0AEEF25F011C00AF07F0E0A16D8B4B4
:104B36009FEF25F0A1EF25F0A5EF25F0010E0F6EF2
:104B4600AEEF25F002A0AAEF25F0ACEF25F0AEEF10
:104B560025F0A1EF25F00F50D8B4B4EF25F0B6EF4D
:104B660025F0E1EF25F0010E0226000E03220422B5
:104B7600052205A0C1EF25F0C3EF25F0E1EF25F0F2
:104B860002C00AF003C00BF004C00CF005C00DF023
:104B96000D340D320C320B320A320AC002F00BC051
:104BA60003F00CC004F00DC005F01028D8B4DEEFF9
:104BB60025F0E0EF25F0E1EF25F0102A1028D8B413
:104BC600E7EF25F0E9EF25F0F1EF25F01050D8A436
:104BD600EFEF25F0F1EF25F003EF26F0000E026E61
:104BE600000E036E000E046E000E056E1050D8A463
:104BF600FFEF25F001EF26F003EF26F0000E0E6E14
:104C060010A008EF26F00AEF26F00DEF26F0048E2E
:104C16000EEF26F0049ED8901030056E0EAE16EFFD
:104C260026F018EF26F019EF26F0058E02C002F0E6
:104C360003C003F004C004F005C005F012001550CF
:104C4600800B1E6E15501524246E14AE2DEF26F023
:104C56002FEF26F030EF26F024802450D8B436EF1C
:104C660026F038EF26F04BEF26F02428D8A43EEFA6
:104C760026F040EF26F048EF26F0000E126E000EEA
:104C8600136E000E146E000E156E148E53EF26F082
:104C9600000E126E000E136E000E146E000E156ED0
:104CA6001950800B1E1A19501924236E18AE5EEF88
:104CB60026F060EF26F061EF26F023802350D8B46B
:104CC60067EF26F069EF26F07CEF26F02328D8A4BC
:104CD6006FEF26F071EF26F079EF26F0000E166ED4
:104CE600000E176E000E186E000E196E188E84EFE9
:104CF60026F0000E166E000E176E000E186E000ED1
:104D0600196E2350D8B48AEF26F08CEF26F094EF74
:104D160026F02450D8A492EF26F094EF26F09EEFCA
:104D260026F0000E126E000E136E000E146E000EAC
:104D3600156E36EF28F018501202F3CF29F0F4CF93
:104D46002AF029501F6E206A216A226A2A50256E8F
:104D5600266A276A286A17501302F3CF29F0F4CF80
:104D66002AF029501F26000E2022212222222A5014
:104D76002526000E26222722282216501402F3CFBB
:104D860029F0F4CF2AF029501F26000E20222122D6
:104D960022222A502526000E26222722282221C03A
:104DA60022F020C021F01FC020F01F6A1650130207
:104DB600F3CF29F0F4CF2AF029501F262A502022BB
:104DC600000E2122000E222217501202F3CF29F0E4
:104DD600F4CF2AF029501F262A502022000E212225
:104DE600000E222221C022F020C021F01FC020F098
:104DF6001F6A16501202F3CF29F0F4CF2AF0295079
:104E06001F262A502022000E2122000E2222185090
:104E16001302F3CF29F0F4CF2AF0295025262A5081
:104E26002622000E2722000E282217501402F3CF46
:104E360029F0F4CF2AF0295025262A502622000EE2
:104E46002722000E282218501402F3CF29F0F4CF9F
:104E56002AF029501A6E2A501B6E1C6A1D6A1CC045
:104E66001DF01BC01CF01AC01BF01A6A1A5025262A
:104E76001B5026221C5027221D5028221FC01AF024
:104E860020C01BF021C01CF022C01DF0190E51EFEE
:104E960027F0D8901D321C321B321A32E82E4CEF06
:104EA60027F01A5025261B5026221C5027221D505B
:104EB600282221C022F020C021F01FC020F01F6A46
:104EC600235024C01AF01B6A1A26000E1B22820EDB
:104ED6001A24296EFF0E1B202A6E87EF27F0D89022
:104EE600253626362736283622AE7CEF27F07EEF8B
:104EF60027F07FEF27F02580D8901F362036213601
:104F060022362906D8A02A0627AE8CEF27F08EEF88
:104F160027F072EF27F0000E236E22AE95EF27F0F2
:104F260097EF27F0BBEF27F0FF0E1F141A6EFF0E48
:104F360020141B6EFF0E21141C6E7F0E22141D6E94
:104F46001A501B101C101D10D8B4ACEF27F0AEEF92
:104F560027F0B2EF27F0010E236EBBEF27F025A056
:104F6600B7EF27F0B9EF27F0BBEF27F0AEEF27F04A
:104F76002350D8B4C1EF27F0C3EF27F0E7EF27F0AF
:104F8600010E2526000E26222722282228A0CEEF53
:104F960027F0D0EF27F0E7EF27F025C01AF026C05C
:104FA6001BF027C01CF028C01DF01D341D321C321A
:104FB6001B321A321AC025F01BC026F01CC027F07F
:104FC6001DC028F0294A2A2A2ABEF2EF27F02A50C5
:104FD60008E12928D8A0F2EF27F0F4EF27F0FEEF3A
:104FE60027F0000E256E000E266E800E276E7F0EB1
:104FF600286E2CEF28F02ABE0BEF28F02A5006E187
:105006002904D8B009EF28F00BEF28F017EF28F0A5
:10501600000E256E000E266E000E276E000E286E00
:10502600000E1E6E2CEF28F029C024F0FF0E251668
:10503600FF0E26167F0E2716000E281624A026EF32
:1050460028F028EF28F029EF28F0278ED890243072
:10505600286E1E50281225C012F026C013F027C055
:1050660014F028C015F0120012C033F013C034F04B
:1050760014C035F015C036F0000E3314166E000E4F
:105086003414176E800E3514186E7F0E3614196E92
:10509600800E181809E17F0E191816101710D8A4DB
:1050A60057EF28F059EF28F089EF28F0FF0E331458
:1050B600166EFF0E3414176E7F0E3514186E000E22
:1050C6003614196E1650171018101910D8A46EEF52
:1050D60028F070EF28F077EF28F036BE77EF28F04B
:1050E60075EF28F07FEF28F0FF0E3312FF0E341213
:1050F6007F0E3512000E361233C012F034C013F094
:1051060035C014F036C015F025EF2AF036BE98EFFC
:1051160028F036503510341006E13304D8B096EF37
:1051260028F098EF28F0CFEF28F0FF0E3314166E14
:10513600FF0E3414176EFF0E3514186E7F0E3614DC
:10514600196E1650171018101910D8A4ADEF28F0C4
:10515600AFEF28F0B9EF28F0000E126E000E136EB6
:10516600000E146E000E156E25EF2AF036BEC0EF47
:1051760028F0BEEF28F0CFEF28F0000E0001D16F27
:10518600210ED06FFF0E336EFF0E346EFF0E356E9E
:105196007F0E366E7FEF28F0170E166E33C017F0AF
:1051A60034C018F035C019F036C01AF01666DEEFB6
:1051B60028F0E6EF28F01A341A321932183217326C
:1051C600162ED9EF28F017C02BF018C02CF019C0F6
:1051D6002DF01AC02EF02B502C102D102E10D8A406
:1051E600F7EF28F0F9EF28F029EF29F0000E1F6EEF
:1051F600000E206E000E216E000E226E0EEF29F0BC
:10520600D8903336343635363636010E1F26000E24
:1052160020222122222235AE13EF29F015EF29F0A4
:1052260003EF29F0FF0E1F24166EFF0E2020176EC7
:10523600FF0E2120186EFF0E2220196E16502B5ECF
:1052460017502C5A18502D5A19502E5A810E2B26AB
:10525600FF0E2C22FF0E2D22FF0E2E22FF0E3314E0
:10526600166EFF0E3414176E7F0E3514186E000E70
:105276003614196E000E1610336E000E1710346EAB
:10528600800E1810356E000E1910366E2BA04EEFDC
:1052960029F050EF29F058EF29F0335033263450D7
:1052A600342235503522365036222E342E322D32C7
:1052B6002C322B323350332634503422355035229B
:1052C60036503622000E1B6E000E1C6E000E1D6E32
:1052D600000E1E6E1BC023F01CC024F01DC025F05E
:1052E6001EC026F0000E2F6E000E306E000E316EC0
:1052F600010E326EC7EF29F01B502F24276E1C506B
:105306003020286E1D503120296E1E5032202A6E04
:105316002750335C28503458295035583650800A67
:10532600166E2A50800A1658D8A09CEF29F09EEFD8
:1053360029F0BAEF29F027502F241B6E2850302071
:105346001C6E295031201D6E2A5032201E6E2750A9
:10535600335E2850345A2950355A2A50365A2F501F
:105366002326305024223150252232502622335013
:105376003326345034223550352236503622D890D2
:105386003232313230322F322F503010311032104B
:10539600D8A4D0EF29F0D2EF29F07FEF29F03350CF
:1053A600341035103610D8B4DBEF29F0DDEF29F0D4
:1053B600F1EF29F0010E2314166E000E2414176E59
:1053C600000E2514186E000E2614196E165023268C
:1053D60017502422185025221950262223C016F0D1
:1053E60024C017F025C018F026C019F01934193258
:1053F600183217321632000E1624336E000E17209E
:10540600346E000E1820356E3F0E1920366E2BC0F6
:1054160016F02CC017F02DC018F02EC019F0170E7C
:10542600D8901636173618361936E82E13EF2AF0A6
:10543600165033261750342218503522195036226A
:105446007FEF28F012002E50800B3B6E2E502E243C
:10545600426E2DAE31EF2AF033EF2AF034EF2AF008
:1054660042804250D8B43AEF2AF03CEF2AF051EF8E
:105476002AF04228D8A442EF2AF044EF2AF04CEF53
:105486002AF0000E2B6E000E2C6E000E2D6E000EF6
:105496002E6E2D8E000E2E6E59EF2AF0000E2B6EFC
:1054A600000E2C6E000E2D6E000E2E6E3250800BEE
:1054B6003B1A32503224436E31AE64EF2AF066EF67
:1054C6002AF067EF2AF043804350D8B46DEF2AF0F4
:1054D6006FEF2AF084EF2AF04328D8A475EF2AF05C
:1054E60077EF2AF07FEF2AF0000E2F6E000E306E57
:1054F600000E316E000E326E318E000E326E8CEF63
:105506002AF0000E2F6E000E306E000E316E000E69
:10551600326E2F50301031103210D8A495EF2AF089
:1055260097EF2AF0AFEF2AF0000E2B6E000E2C6ECE
:10553600000E2D6E000E2E6E800E2D127F0E2E1278
:105546003B502E122BC02BF02CC02CF02DC02DF072
:105556002EC02EF0F2EF2BF04250D8A4B5EF2AF071
:10556600B7EF2AF0C1EF2AF0000E2B6E000E2C6E5C
:10557600000E2D6E000E2E6EF2EF2BF0435042C041
:1055860033F0346A335E000E345A7F0E33243C6E99
:10559600000E34203D6E2BC037F02CC038F02DC0E5
:1055A60039F02EC03AF0000E2B6E000E2C6E000E57
:1055B6002D6E000E2E6E000E3E6E000E3F6E000E1D
:1055C600406E000E416E000E436E22EF2BF04350EC
:1055D600D8B4F0EF2AF0F2EF2AF009EF2BF0D890CA
:1055E6003736383639363A36D8902B362C362D366D
:1055F6002E3641AE01EF2BF003EF2BF004EF2BF02C
:105606002B80D8903E363F36403641362F50375C99
:10561600305038583150395832503A58D8A016EFD1
:105626002BF018EF2BF021EF2BF0418C2F50375E2B
:105636003050385A3150395A32503A5A432A190E94
:10564600436428EF2BF02AEF2BF0EAEF2AF03750CD
:10565600381039103A10D8B433EF2BF035EF2BF061
:105666004DEF2BF03E804DEF2BF0D8902B362C369D
:105676002D362E3641AE42EF2BF044EF2BF045EFA0
:105686002BF02B80D8903E363F36403641363C06CE
:10569600D8A03D062DAE52EF2BF054EF2BF038EF8D
:1056A6002BF0000E436E41AE5BEF2BF05DEF2BF05F
:1056B60081EF2BF0FF0E3E14336EFF0E3F14346E57
:1056C600FF0E4014356E7F0E4114366E3350341083
:1056D60035103610D8B472EF2BF074EF2BF078EF4C
:1056E6002BF0010E436E81EF2BF02BA07DEF2BF0FC
:1056F6007FEF2BF081EF2BF074EF2BF04350D8B4F3
:1057060087EF2BF089EF2BF0ADEF2BF0010E2B2658
:10571600000E2C222D222E222EA094EF2BF096EF97
:105726002BF0ADEF2BF02BC033F02CC034F02DC096
:1057360035F02EC036F03634363235323432333226
:1057460033C02BF034C02CF035C02DF036C02EF00F
:105756003C4A3D2A3DBEB8EF2BF03D5008E13C28BF
:10576600D8A0B8EF2BF0BAEF2BF0C5EF2BF0000E58
:105776003D6E3C68000E2B6E000E2C6E000E2D6EDC
:10578600000E2E6E3DBED2EF2BF03D5006E13C04DE
:10579600D8B0D0EF2BF0D2EF2BF0E0EF2BF0000ECD
:1057A6003D6E000E3C6E000E2B6E000E2C6E000E33
:1057B6002D6E000E2E6E000E3B6E3CC042F042A0D7
:1057C600E7EF2BF0E9EF2BF0ECEF2BF02D8EEDEF62
:1057D6002BF02D9ED89042302E6EA3EF2AF01200A9
:1057E600BCEC38F008EC39F05EEC38F06CEC37F0D5
:1057F600000E036E630E026E92EC35F0CCEC38F0C0
:105806006AEC36F08086889686840E01B495000E82
:105816000301B96F010EBA6F010EBB6FAA0EBE6F00
:105826000F0EBF6FA60EC06F0F0EC16F000EBD6FBD
:10583600630EBC6F000EC26F010EC36F010EC46F04
:10584600250EC76F0F0EC86F210EC96F0F0ECA6FD8
:10585600000EC66F630EC56FB90ECB6F030ECC6F0D
:10586600C20ECD6F030ECE6F000EB16F000EB06F7D
:10587600000EB56F000EB46F000EB36F000EB26F60
:10588600000EB76F000EB66F280EA26F030EA36F41
:105896008C0EA86F030EA96F3C0EA66F030EA76FA2
:1058A600500EA46F030EA56F000EB86F000EAF6FFB
:1058B600000EAE6F0301B851D8A464EF2CF066EF6A
:1058C6002CF075EF2CF00EEC39F0CBC315F0CCC3F1
:1058D60016F0CDC317F0CEC318F07EEC34F0010EEF
:1058E6000301B86F1CEC37F006C0AAF307C0ABF390
:1058F6000301AB5109E11F0EAA5DD8A085EF2CF07C
:1059060087EF2CF05DEF2CF0DBEC38F002C0ACF347
:1059160003C0ADF3CBC315F0CCC316F0CDC317F05F
:10592600CEC318F0E3EC35F0000E0301B86F090E94
:105936000001EA6F1E0EE96FE40EE82EFED7E92F8E
:10594600FCD7EA2FFAD7000093EC19F00001E96FB3
:10595600E9510301A06FA16B8C0E1B6E030E1C6E2A
:10596600810E1D6EA0C31EF0A1C31FF0D5EC37F04B
:10597600A8C303F0A9C304F046EC38F0D50E046EB4
:10598600010EACEC38F0AB0E046E030EACEC38F046
:10599600110E0001EA6F3C0EE96FCB0EE82EFED722
:1059A600E92FFCD7EA2FFAD78C0E1B6E030E1C6E5E
:1059B600C80E1D6ECCEC36F006C01EF007C01FF0F8
:1059C600D5EC37F0A8C303F0A9C304F046EC38F0D1
:1059D6003C0E1B6E030E1C6EAD0E1D6EF4EC36F007
:1059E60006C01EF007C01FF0D5EC37F0A6C303F0C3
:1059F600A7C304F046EC38F0500E1B6E030E1C6E67
:105A0600BB0E1D6E44EC37F006C01EF007C01FF03B
:105A1600D5EC37F0A4C303F0A5C304F046EC38F088
:105A2600280E1B6E030E1C6E710E1D6E1CEC37F0DD
:105A360006C01EF007C01FF0D5EC37F0A2C303F076
:105A4600A3C304F046EC38F0F40E0001EA6F820EB0
:105A5600E96F050EE82EFED7E92FFCD7EA2FFAD715
:105A6600F40E0001EA6F820EE96F050EE82EFED7EE
:105A7600E92FFCD7EA2FFAD7F40E0001EA6F820E5F
:105A8600E96F050EE82EFED7E92FFCD7EA2FFAD7E5
:105A9600FF0E046E010EACEC38F0FF0E046E030E22
:105AA600ACEC38F05DEF2CF012EF00F02BC039F0C3
:105AB6002CC03AF02DC03BF02EC03CF030BE6DEF4E
:105AC6002DF0305009E1800E2F5CD8A06DEF2DF03F
:105AD6006FEF2DF0CDEF2DF039C012F03AC013F074
:105AE6003BC014F03CC015F0000E166E000E176E8B
:105AF600000E186E7F0E196E22EC26F012C039F0D9
:105B060013C03AF014C03BF015C03CF0810E2F26AE
:105B1600FF0E302230BE99EF2DF0305009E1800E95
:105B26002F5CD8A099EF2DF09BEF2DF037EF2EF0DC
:105B360039C012F03AC013F03BC014F03CC015F067
:105B4600000E166E000E176E000E186E7F0E196E82
:105B560022EC26F012C039F013C03AF014C03BF024
:105B660015C03CF0810E2F26FF0E302230BEC5EF49
:105B76002DF0305009E1800E2F5CD8A0C5EF2DF036
:105B8600C7EF2DF037EF2EF0000E306E7F0E2F6E22
:105B960037EF2EF030AED9EF2DF0820E2F5CFF0ED0
:105BA6003058D8B0D9EF2DF0DBEF2DF037EF2EF0CF
:105BB60039C012F03AC013F03BC014F03CC015F0E7
:105BC600000E166E000E176E800E186E0C0E196EF5
:105BD60022EC26F012C039F013C03AF014C03BF0A4
:105BE60015C03CF0660E2F26000E302230AE05EFB3
:105BF6002EF0820E2F5CFF0E3058D8B005EF2EF037
:105C060007EF2EF037EF2EF039C012F03AC013F03E
:105C16003BC014F03CC015F0000E166E000E176E59
:105C2600800E186E0C0E196E22EC26F012C039F09A
:105C360013C03AF014C03BF015C03CF0660E2F2698
:105C4600000E302230AE31EF2EF0820E2F5CFF0EAA
:105C56003058D8B031EF2EF033EF2EF037EF2EF06C
:105C6600FF0E306E820E2F6E7F0E2F24316E000EC9
:105C76003020326E336A346A170ED8903136323697
:105C860033363436E82E40EF2EF031C035F032C0D0
:105C960036F033C037F034C038F035C012F036C0B5
:105CA60013F037C014F038C015F039C016F03AC0FA
:105CB60017F03BC018F03CC019F022EC26F012C0D9
:105CC6002BF013C02CF014C02DF015C02EF02BC0F5
:105CD6002BF02CC02CF02DC02DF02EC02EF0120073
:105CE600156E1550D8B47AEF2EF07CEF2EF09EEF9D
:105CF6002EF010BE83EF2EF081EF2EF09EEF2EF0E9
:105D06000DC011F00EC012F00FC013F010C014F049
:105D1600111E121E131E141E112A000E1222132209
:105D2600142211C017F012C018F013C019F014C0D5
:105D36001AF0A6EF2EF00DC017F00EC018F00FC027
:105D460019F010C01AF00D500E100F101010D8A434
:105D5600AFEF2EF0B1EF2EF0BBEF2EF0000E0D6E72
:105D6600000E0E6E000E0F6E000E106E4CEF2FF032
:105D7600960E166EC5EF2EF0162AD8901A321932E4
:105D860018321732000E1714116E000E1814126E08
:105D9600000E1914136EFE0E1A14146E1150121002
:105DA60013101410D8A4DAEF2EF0DCEF2EF0BFEFAC
:105DB6002EF0EAEF2EF0162A010E1726000E1822F4
:105DC60019221A22D8901A32193218321732000EB6
:105DD6001714116E000E1814126E000E1914136E9D
:105DE600FF0E1A14146E1150121013101410D8A4AA
:105DF600FFEF2EF001EF2FF0DEEF2EF009EF2FF080
:105E06001606D8901736183619361A3619BE0EEFFA
:105E16002FF010EF2FF018EF2FF0020E166016EF8E
:105E26002FF018EF2FF003EF2FF016B01DEF2FF025
:105E36001FEF2FF020EF2FF0199ED890163216C0C4
:105E460011F0126A136A146A11C014F0136A126A06
:105E5600116A1150171212501812135019121450B9
:105E66001A121550D8B43AEF2FF03CEF2FF044EF4A
:105E76002FF010BE43EF2FF041EF2FF044EF2FF03D
:105E86001A8E17C00DF018C00EF019C00FF01AC008
:105E960010F012000D50D96EDA6ADFCFF6FF080057
:105EA600F550250AD8A45AEF2FF05CEF2FF012EF29
:105EB60030F00D50D96EDA6ADF2A000E0001D36F7A
:105EC600000ED26FD2C0D6F0D469D5690D50D96E06
:105ED600DA6ADF50116E11C0F6FF0800F550640A49
:105EE600D8B478EF2FF07AEF2FF086EF2FF011C0AD
:105EF600F6FF0800F550690AD8A484EF2FF086EF64
:105F06002FF00CEF30F00E50D96EDA6A020EDF2653
:105F1600DF5CD96EDA6ADECF12F0DECF13F00D50F9
:105F2600D96EDA6A1128DF6E200E166E13BE9EEF4A
:105F36002FF0A1EF2FF0010EA2EF2FF0000E106E42
:105F4600160616509C0FD96EDA6A12C002F013C0FC
:105F560003F0000E056E0A0E046E3AEC35F002C030
:105F660008F003C009F02CEC38F00850300FDF6E53
:105F760012C002F013C003F0000E056E0A0E046E86
:105F86001CEC34F002C012F003C013F012501310D0
:105F9600D8B4D0EF2FF0D2EF2FF0DAEF2FF0165063
:105FA600D8A4D8EF2FF0DAEF2FF0A3EF2FF016508A
:105FB600D8B4E0EF2FF0E2EF2FF001EF30F0105001
:105FC600D8B4E8EF2FF0EAEF2FF001EF30F0160625
:105FD60016509C0FD96EDA6A2D0EDF6E01EF30F087
:105FE60016509C0FD96EDA6ADF500F6E0F50026E94
:105FF600036A0CC004F0DDEC34F0162A200E1618E5
:10600600D8A408EF30F00AEF30F0F3EF2FF021EFCD
:1060160030F00D50D96EDA6ADF2A21EF30F00D50DC
:10602600D96EDA6ADFCFF6FF0800F550026E036A12
:106036000CC004F0DDEC34F00CEF30F0120020EE72
:1060460002F00F50D9261050DA22DF50D8B42EEFC6
:1060560030F030EF30F064EF30F00FC0D9FF10C0F1
:10606600DAFFDF50116E1150026E036A20EE03F064
:106076000F50D9261050DA22DECF04F0DDCF05F01E
:1060860087EC38F002C008F003C009F0000E0B6E72
:10609600640E0A6E30EC36F020EE03F00F50D9266F
:1060A6001050DA22DF50126E0850125C136E20EE8A
:1060B60003F00F50D9261050DA22DF50146E87EF06
:1060C60030F0000E136E0FC0D9FF10C0DAFFDF509C
:1060D600116E1150026E036A20EE03F00F50D9269E
:1060E6001050DA22DECF04F0DDCF05F087EC38F071
:1060F60002C008F003C009F0000E0B6E640E0A6EB3
:1061060030EC36F00850146E20EE01F00F50D92610
:106116001050DA22DF50D8B493EF30F095EF30F01C
:10612600B7EF30F020EE05F00F50D9261050DA22E6
:10613600DECF11F0DDCF12F011C0D9FF12C0DAFFA9
:1061460013C0DFFF20EE07F00F50D9261050DA22D9
:10615600DECF11F0DDCF12F011C0D9FF12C0DAFF89
:1061660014C0DFFFD7EF30F020EE05F00F50D92630
:106176001050DA22DECF11F0DDCF12F011C0D9FFB8
:1061860012C0DAFF14C0DFFF20EE07F00F50D92649
:106196001050DA22DECF11F0DDCF12F011C0D9FF98
:1061A60012C0DAFF13C0DFFF1200000E4C14546E4B
:1061B600000E4D14556E800E4E14566E7F0E4F1403
:1061C600576E5450551056105710D8A4EDEF30F0B6
:1061D600EFEF30F0F7EF30F0000E4C6E000E4D6E24
:1061E600000E4E6E000E4F6E000E5014546E000ED2
:1061F6005114556E800E5214566E7F0E5314576E00
:106206005450551056105710D8A40CEF31F00EEF1D
:1062160031F016EF31F0000E506E000E516E000E8A
:10622600526E000E536E4FAE1BEF31F01DEF31F084
:1062360026EF31F04C6C4D1ED8B04D2A4E1ED8B00C
:106246004E2A800E4F5653AE2BEF31F02DEF31F024
:1062560036EF31F0506C511ED8B0512A521ED8B0CC
:10626600522A800E5356000E4C1A000E4D1A000E7E
:106276004E1A800E4F1A000E501A000E511A000EBA
:10628600521A800E531A50504C5C51504D58525071
:106296004E5853504F58D8B053EF31F055EF31F0B8
:1062A60058EF31F0D89059EF31F0D880120020EE37
:1062B60001F01950D9261A50DA22010EDF6E20EEAF
:1062C60001F01B50D9261C50DA22DF6AA1EF31F00B
:1062D60019C0D9FF1AC0DAFF460EDF6075EF31F03C
:1062E60077EF31F07CEF31F019C0D9FF1AC0DAFF31
:1062F600DF2A1BC0D9FF1CC0DAFF460EDF6086EF1F
:1063060031F088EF31F08DEF31F01BC0D9FF1CC0A2
:10631600DAFFDF2A19C00FF01AC010F022EC30F0B5
:106326001BC00FF01CC010F022EC30F0150E1D6ED5
:10633600C60EE82EFED71D2EFCD700D019C0D9FFF9
:106346001AC0DAFF450EDF64ABEF31F0ADEF31F086
:106356006BEF31F01BC0D9FF1CC0DAFF450EDF64BE
:10636600B7EF31F0B9EF31F06BEF31F0130E1E6E6F
:10637600440E1D6E440EE82EFED71D2EFCD71E2E93
:10638600FAD700D019C015F01AC016F01BC017F0C6
:106396001CC018F0E3EC35F0120020EE01F01950A5
:1063A600D9261A50DA22010EDF6E20EE01F01B50BC
:1063B600D9261C50DA22DF6A17EF32F019C0D9FF4E
:1063C6001AC0DAFF460EDF60EBEF31F0EDEF31F089
:1063D600F2EF31F019C0D9FF1AC0DAFFDF2A1BC06D
:1063E600D9FF1CC0DAFF460EDF60FCEF31F0FEEF8E
:1063F60031F003EF32F01BC0D9FF1CC0DAFFDF2AF1
:1064060019C00FF01AC010F022EC30F01BC00FF0CC
:106416001CC010F022EC30F0150E1D6EC60EE82ED4
:10642600FED71D2EFCD700D019C0D9FF1AC0DAFF3F
:10643600450EDF6421EF32F023EF32F0E1EF31F069
:106446001BC0D9FF1CC0DAFF450EDF642DEF32F00A
:106456002FEF32F0E1EF31F0290E1E6E960E1D6E13
:106466007F0EE82EFED71D2EFCD71E2EFAD7000073
:1064760019C015F01AC016F01BC017F01CC018F092
:10648600E3EC35F0120020EE01F01950D9261A502F
:10649600DA22DF6A20EE01F01B50D9261C50DA22E0
:1064A600010EDF6E8DEF32F019C0D9FF1AC0DAFF88
:1064B600460EDF6061EF32F063EF32F068EF32F0E4
:1064C60019C0D9FF1AC0DAFFDF2A1BC0D9FF1CC0CA
:1064D600DAFF460EDF6072EF32F074EF32F079EFDA
:1064E60032F01BC0D9FF1CC0DAFFDF2A19C00FF03B
:1064F6001AC010F022EC30F01BC00FF01CC010F0D8
:1065060022EC30F0150E1D6EC60EE82EFED71D2E9F
:10651600FCD700D019C0D9FF1AC0DAFF450EDF64D8
:1065260097EF32F099EF32F057EF32F01BC0D9FFF8
:106536001CC0DAFF450EDF64A3EF32F0A5EF32F0A0
:1065460057EF32F0130E1E6E440E1D6E440EE82EEB
:10655600FED71D2EFCD71E2EFAD700D019C015F077
:106566001AC016F01BC017F01CC018F0E3EC35F08B
:10657600120020EE01F01950D9261A50DA22DF6AED
:1065860020EE01F01B50D9261C50DA22010EDF6ED8
:1065960003EF33F019C0D9FF1AC0DAFF460EDF60E9
:1065A600D7EF32F0D9EF32F0DEEF32F019C0D9FF73
:1065B6001AC0DAFFDF2A1BC0D9FF1CC0DAFF460E5D
:1065C600DF60E8EF32F0EAEF32F0EFEF32F01BC0B7
:1065D600D9FF1CC0DAFFDF2A19C00FF01AC010F06D
:1065E60022EC30F01BC00FF01CC010F022EC30F093
:1065F600150E1D6EC60EE82EFED71D2EFCD700D03A
:1066060019C0D9FF1AC0DAFF450EDF640DEF33F06B
:106616000FEF33F0CDEF32F01BC0D9FF1CC0DAFF0D
:10662600450EDF6419EF33F01BEF33F0CDEF32F098
:10663600290E1E6E960E1D6E7F0EE82EFED71D2E9F
:10664600FCD71E2EFAD7000019C015F01AC016F096
:106656001BC017F01CC018F0E3EC35F0120020EE5A
:1066660001F01950D9261A50DA22DF6A20EE01F01D
:106676001B50D9261C50DA22DF6A78EF33F019C096
:10668600D9FF1AC0DAFF460EDF604CEF33F04EEF4B
:1066960033F053EF33F019C0D9FF1AC0DAFFDF2AFF
:1066A6001BC0D9FF1CC0DAFF460EDF605DEF33F07A
:1066B6005FEF33F064EF33F01BC0D9FF1CC0DAFF85
:1066C600DF2A19C00FF01AC010F022EC30F01BC000
:1066D6000FF01CC010F022EC30F0150E1D6EC60E29
:1066E600E82EFED71D2EFCD700D019C0D9FF1AC040
:1066F600DAFF450EDF6482EF33F084EF33F042EFCA
:1067060033F01BC0D9FF1CC0DAFF450EDF648EEFE5
:1067160033F090EF33F042EF33F0290E1E6E960EF3
:106726001D6E7F0EE82EFED71D2EFCD71E2EFAD725
:10673600000019C015F01AC016F01BC017F01CC0D7
:1067460018F0E3EC35F0120020EE01F01950D926CE
:106756001A50DA22DF6A20EE01F01B50D9261C50AF
:10676600DA22DF6AEDEF33F019C0D9FF1AC0DAFF7B
:10677600460EDF60C1EF33F0C3EF33F0C8EF33F0FE
:1067860019C0D9FF1AC0DAFFDF2A1BC0D9FF1CC007
:10679600DAFF460EDF60D2EF33F0D4EF33F0D9EFF5
:1067A60033F01BC0D9FF1CC0DAFFDF2A19C00FF077
:1067B6001AC010F022EC30F01BC00FF01CC010F015
:1067C60022EC30F0150E1D6EC60EE82EFED71D2EDD
:1067D600FCD700D019C0D9FF1AC0DAFF450EDF6416
:1067E600F7EF33F0F9EF33F0B7EF33F01BC0D9FF13
:1067F6001CC0DAFF450EDF6403EF34F005EF34F01A
:10680600B7EF33F0090E1E6E1E0E1D6EE40EE82E57
:10681600FED71D2EFCD71E2EFAD700D019C015F0B4
:106826001AC016F01BC017F01CC018F0E3EC35F0C8
:106836001200000E076E05BE25EF34F023EF34F08C
:106846002BEF34F0046C051ED8B0052A010E076E36
:1068560003BE32EF34F030EF34F038EF34F0026C30
:10686600031ED8B0032A010E071A000E096E000E89
:10687600086E04500510D8B443EF34F045EF34F0F9
:106886006DEF34F0010E066E4DEF34F0D8900436FD
:106896000536062A05AE52EF34F054EF34F049EFD0
:1068A60034F0D890083609360450025C0550035877
