:0400000012EF00F00B
:100008004C828AA00AEF00F00CEF00F010EF00F02D
:100018008096610E70EC11F04C921100D5EF10F043
:100E000000677265656E203D202564200D0A006331
:100E10006C656172203D202564200D0A00626C75AE
:100E200065203D202564200D0A00726564203D2068
:070E30002564200D0A0000FB
:100E380036EC11F082EC11F0EAEC10F022EC10F034
:100E4800000E036E630E026E48EC0EF046EC11F0D5
:100E580020EC0FF08086889686840E01B495000EEB
:100E68000101B96F010EBA6F010EBB6FAA0EBE6FFA
:100E78000F0EBF6FA60EC06F0F0EC16F000EBD6FB5
:100E8800630EBC6F000EC26F010EC36F010EC46FFC
:100E9800250EC76F0F0EC86F210EC96F0F0ECA6FD0
:100EA800000EC66F630EC56FB90ECB6F010ECC6F07
:100EB800C20ECD6F010ECE6F000EB26F000EB16F75
:100EC800000EB66F000EB56F000EB46F000EB36F54
:100ED800000EB86F000EB76FB10EA86F010EA96FA4
:100EE800280EA06F010EA16F3C0EA26F010EA36F1A
:100EF800500EA66F010EA76F640EA46F010EA56FAA
:100F0800000EB06F000EAF6F000EAE6F0101B05152
:100F1800D8A491EF07F093EF07F0A2EF07F088EC61
:100F280011F0CBC115F0CCC116F0CDC117F0CEC170
:100F380018F034EC0DF0010E0101B06FD2EC0FF097
:100F480006C0AAF107C0ABF10101AB5109E11F0EC0
:100F5800AA5DD8A0B2EF07F0B4EF07F07AEF08F077
:100F680055EC11F002C0ACF103C0ADF1CBC115F0E6
:100F7800CCC116F0CDC117F0CEC118F099EC0EF027
:100F8800000E0101B06FD890AE35D96EAF35DA6E6C
:100F9800780ED926010EDA22ACC1DEFFADC1DDFF25
:100FA800A8C10DF0A9C10EF053EC0FF0290E2E6E5A
:100FB800960E2D6E7F0EE82EFED72D2EFCD72E2EE8
:100FC800FAD70000D50E046E010E26EC11F0AB0E18
:100FD800046E030E26EC11F0110E2E6E3C0E2D6ED3
:100FE800CB0EE82EFED72D2EFCD72E2EFAD70000DA
:100FF8003C0E1B6E010E1C6E2A0E1D6E82EC0FF04D
:1010080006C01EF007C01FF068EC10F0A2C103F084
:10101800A3C104F0BDEC10F0500E1B6E010E1C6E47
:10102800010E1D6EAAEC0FF006C01EF007C01FF0DF
:1010380068EC10F0A6C103F0A7C104F0BDEC10F0F5
:10104800640E1B6E010E1C6E1D0E1D6EFAEC0FF069
:1010580006C01EF007C01FF068EC10F0A4C103F032
:10106800A5C104F0BDEC10F0280E1B6E010E1C6E1D
:101078000F0E1D6ED2EC0FF006C01EF007C01FF059
:1010880068EC10F0A0C103F0A1C104F0BDEC10F0B1
:10109800F40E2E6E820E2D6E050EE82EFED72D2E26
:1010A800FCD72E2EFAD70000F40E2E6E820E2D6E6F
:1010B800050EE82EFED72D2EFCD72E2EFAD70000CF
:1010C800F40E2E6E820E2D6E050EE82EFED72D2EF6
:1010D800FCD72E2EFAD70000FF0E046E010E26EC68
:1010E80011F0FF0E046E030E26EC11F0150E2D6E96
:1010F800C60EE82EFED72D2EFCD700D08AEF07F0BB
:1011080012EF00F00D50D96EDA6ADFCFF6FF080053
:10111800F550250AD8A493EF08F095EF08F04AEFA8
:1011280009F00D50D96EDA6ADF2A000E446E000EFF
:10113800436E43C047F0456846680D50D96EDA6A79
:10114800DF50116E11C0F6FF0800F550640AD8B4DC
:10115800B0EF08F0B2EF08F0BEEF08F011C0F6FFEC
:101168000800F550690AD8A4BCEF08F0BEEF08F0F3
:1011780044EF09F00E50D96EDA6A020EDF26DF5C02
:10118800D96EDA6ADECF12F0DECF13F00D50D96EC9
:10119800DA6A1128DF6E200E166E13BED6EF08F03D
:1011A800D9EF08F0010EDAEF08F0000E106E1606FF
:1011B80016509C0FD96EDA6A12C002F013C003F001
:1011C800000E056E0A0E046EF0EC0DF002C008F079
:1011D80003C009F0A3EC10F00850300FDF6E12C006
:1011E80002F013C003F0000E056E0A0E046ED2EC76
:1011F8000CF002C012F003C013F012501310D8B450
:1012080008EF09F00AEF09F012EF09F01650D8A418
:1012180010EF09F012EF09F0DBEF08F01650D8B420
:1012280018EF09F01AEF09F039EF09F01050D8B4A7
:1012380020EF09F022EF09F039EF09F016061650F1
:101248009C0FD96EDA6A2D0EDF6E39EF09F0165051
:101258009C0FD96EDA6ADF500F6E0F50026E036A68
:101268000CC004F093EC0DF0162A200E1618D8A422
:1012780040EF09F042EF09F02BEF09F059EF09F0C0
:101288000D50D96EDA6ADF2A59EF09F00D50D96E80
:10129800DA6ADFCFF6FF0800F550026E036A0CC069
:1012A80004F093EC0DF044EF09F0120020EE02F088
:1012B8000F50D9261050DA22DF50D8B466EF09F063
:1012C80068EF09F09CEF09F00FC0D9FF10C0DAFFF2
:1012D800DF50116E1150026E036A20EE03F00F50BA
:1012E800D9261050DA22DECF04F0DDCF05F013EC5A
:1012F80011F002C008F003C009F0000E0B6E640E76
:101308000A6EE6EC0EF020EE03F00F50D9261050CE
:10131800DA22DF50126E0850125C136E20EE03F0D2
:101328000F50D9261050DA22DF50146EBFEF09F0A3
:10133800000E136E0FC0D9FF10C0DAFFDF50116E18
:101348001150026E036A20EE03F00F50D926105098
:10135800DA22DECF04F0DDCF05F013EC11F002C085
:1013680008F003C009F0000E0B6E640E0A6EE6EC7E
:101378000EF00850146E20EE01F00F50D9261050D0
:10138800DA22DF50D8B4CBEF09F0CDEF09F0EFEF58
:1013980009F020EE05F00F50D9261050DA22DECFE2
:1013A80011F0DDCF12F011C0D9FF12C0DAFF13C05F
:1013B800DFFF20EE07F00F50D9261050DA22DECFDB
:1013C80011F0DDCF12F011C0D9FF12C0DAFF14C03E
:1013D800DFFF0FEF0AF020EE05F00F50D92610506E
:1013E800DA22DECF11F0DDCF12F011C0D9FF12C022
:1013F800DAFF14C0DFFF20EE07F00F50D926105097
:10140800DA22DECF11F0DDCF12F011C0D9FF12C001
:10141800DAFF13C0DFFF120020EE01F01950D926C1
:101428001A50DA22010EDF6E20EE01F01B50D92689
:101438001C50DA22DF6A57EF0AF019C0D9FF1AC028
:10144800DAFF460EDF602BEF0AF02DEF0AF032EFDD
:101458000AF019C0D9FF1AC0DAFFDF2A1BC0D9FF6A
:101468001CC0DAFF460EDF603CEF0AF03EEF0AF0E0
:1014780043EF0AF01BC0D9FF1CC0DAFFDF2A19C0EE
:101488000FF01AC010F05AEC09F01BC00FF01CC086
:1014980010F05AEC09F0150E1D6EC60EE82EFED798
:1014A8001D2EFCD700D019C0D9FF1AC0DAFF450E8F
:1014B800DF6461EF0AF063EF0AF021EF0AF01BC066
:1014C800D9FF1CC0DAFF450EDF646DEF0AF06FEF3D
:1014D8000AF021EF0AF0130E1E6E440E1D6E440E24
:1014E800E82EFED71D2EFCD71E2EFAD700D019C025
:1014F80015F01AC016F01BC017F01CC018F099ECB4
:101508000EF0120020EE01F01950D9261A50DA22F6
:10151800010EDF6E20EE01F01B50D9261C50DA2296
:10152800DF6ACDEF0AF019C0D9FF1AC0DAFF460EFC
:10153800DF60A1EF0AF0A3EF0AF0A8EF0AF019C0E4
:10154800D9FF1AC0DAFFDF2A1BC0D9FF1CC0DAFF97
:10155800460EDF60B2EF0AF0B4EF0AF0B9EF0AF016
:101568001BC0D9FF1CC0DAFFDF2A19C00FF01AC050
:1015780010F05AEC09F01BC00FF01CC010F05AEC28
:1015880009F0150E1D6EC60EE82EFED71D2EFCD7CF
:1015980000D019C0D9FF1AC0DAFF450EDF64D7EFB3
:1015A8000AF0D9EF0AF097EF0AF01BC0D9FF1CC068
:1015B800DAFF450EDF64E3EF0AF0E5EF0AF097EF94
:1015C8000AF0290E1E6E960E1D6E7F0EE82EFED7AF
:1015D8001D2EFCD71E2EFAD7000019C015F01AC010
:1015E80016F01BC017F01CC018F099EC0EF0120092
:1015F80020EE01F01950D9261A50DA22DF6A20EEBF
:1016080001F01B50D9261C50DA22010EDF6E43EF81
:101618000BF019C0D9FF1AC0DAFF460EDF6017EFCA
:101628000BF019EF0BF01EEF0BF019C0D9FF1AC021
:10163800DAFFDF2A1BC0D9FF1CC0DAFF460EDF60C5
:1016480028EF0BF02AEF0BF02FEF0BF01BC0D9FFA0
:101658001CC0DAFFDF2A19C00FF01AC010F05AECCC
:1016680009F01BC00FF01CC010F05AEC09F0150E61
:101678001D6EC60EE82EFED71D2EFCD700D019C051
:10168800D9FF1AC0DAFF450EDF644DEF0BF04FEFBC
:101698000BF00DEF0BF01BC0D9FF1CC0DAFF450E95
:1016A800DF6459EF0BF05BEF0BF00DEF0BF0130E4F
:1016B8001E6E440E1D6E440EE82EFED71D2EFCD75E
:1016C8001E2EFAD700D019C015F01AC016F01BC08C
:1016D80017F01CC018F099EC0EF0120020EE01F083
:1016E8001950D9261A50DA22DF6A20EE01F01B5071
:1016F800D9261C50DA22010EDF6EB9EF0BF019C0A3
:10170800D9FF1AC0DAFF460EDF608DEF0BF08FEFBE
:101718000BF094EF0BF019C0D9FF1AC0DAFFDF2ADB
:101728001BC0D9FF1CC0DAFF460EDF609EEF0BF02E
:10173800A0EF0BF0A5EF0BF01BC0D9FF1CC0DAFF20
:10174800DF2A19C00FF01AC010F05AEC09F01BC0BC
:101758000FF01CC010F05AEC09F0150E1D6EC60EE5
:10176800E82EFED71D2EFCD700D019C0D9FF1AC00D
:10177800DAFF450EDF64C3EF0BF0C5EF0BF083EF24
:101788000BF01BC0D9FF1CC0DAFF450EDF64CFEF9A
:101798000BF0D1EF0BF083EF0BF0290E1E6E960EB7
:1017A8001D6E7F0EE82EFED71D2EFCD71E2EFAD7F3
:1017B800000019C015F01AC016F01BC017F01CC0A5
:1017C80018F099EC0EF0120020EE01F01950D9260D
:1017D8001A50DA22DF6A20EE01F01B50D9261C507D
:1017E800DA22DF6A2EEF0CF019C0D9FF1AC0DAFF2F
:1017F800460EDF6002EF0CF004EF0CF009EF0CF07E
:1018080019C0D9FF1AC0DAFFDF2A1BC0D9FF1CC0D4
:10181800DAFF460EDF6013EF0CF015EF0CF01AEF4D
:101828000CF01BC0D9FF1CC0DAFFDF2A19C00FF06B
:101838001AC010F05AEC09F01BC00FF01CC010F0D1
:101848005AEC09F0150E1D6EC60EE82EFED71D2E99
:10185800FCD700D019C0D9FF1AC0DAFF450EDF64E3
:1018680038EF0CF03AEF0CF0F8EF0BF01BC0D9FF93
:101878001CC0DAFF450EDF6444EF0CF046EF0CF0B5
:10188800F8EF0BF0290E1E6E960E1D6E7F0EE82ED9
:10189800FED71D2EFCD71E2EFAD7000019C015F052
:1018A8001AC016F01BC017F01CC018F099EC0EF007
:1018B800120020EE01F01950D9261A50DA22DF6AF8
:1018C80020EE01F01B50D9261C50DA22DF6AA3EF64
:1018D8000CF019C0D9FF1AC0DAFF460EDF6077EFA7
:1018E8000CF079EF0CF07EEF0CF019C0D9FF1AC09C
:1018F800DAFFDF2A1BC0D9FF1CC0DAFF460EDF6003
:1019080088EF0CF08AEF0CF08FEF0CF01BC0D9FFBA
:101918001CC0DAFFDF2A19C00FF01AC010F05AEC09
:1019280009F01BC00FF01CC010F05AEC09F0150E9E
:101938001D6EC60EE82EFED71D2EFCD700D019C08E
:10194800D9FF1AC0DAFF450EDF64ADEF0CF0AFEF38
:101958000CF06DEF0CF01BC0D9FF1CC0DAFF450E70
:10196800DF64B9EF0CF0BBEF0CF06DEF0CF0090E73
:101978001E6E1E0E1D6EE40EE82EFED71D2EFCD721
:101988001E2EFAD700D019C015F01AC016F01BC0C9
:1019980017F01CC018F099EC0EF01200000E076E3C
:1019A80005BEDBEF0CF0D9EF0CF0E1EF0CF0046CA6
:1019B800051ED8B0052A010E076E03BEE8EF0CF02D
:1019C800E6EF0CF0EEEF0CF0026C031ED8B0032A21
:1019D800010E071A000E096E000E086E045005105D
:1019E800D8B4F9EF0CF0FBEF0CF023EF0DF0010E7B
:1019F800066E03EF0DF0D89004360536062A05AEBC
:101A080008EF0DF00AEF0DF0FFEF0CF0D890083654
:101A180009360450025C05500358D8A016EF0DF0A3
:101A280018EF0DF01DEF0DF00450025E0550035A3B
:101A38000880D89005320432062E0AEF0DF00750C0
:101A4800D8B429EF0DF02BEF0DF02FEF0DF0086C47
:101A5800091ED8B0092A08C002F009C003F0120014
:101A680020EE01F01550D9261650DA22DF6A20EE52
:101A780001F01750D9261850DA22DF6A7AEF0DF0F4
:101A880015C0D9FF16C0DAFF640EDF604EEF0DF007
:101A980050EF0DF055EF0DF015C0D9FF16C0DAFF65
:101AA800DF2A17C0D9FF18C0DAFF640EDF605FEFC6
:101AB8000DF061EF0DF066EF0DF017C0D9FF18C0FB
:101AC800DAFFDF2A15C00FF016C010F05AEC09F043
:101AD80017C00FF018C010F05AEC09F0150E196E67
:101AE800C60EE82EFED7192EFCD700D015C0D9FF98
:101AF80016C0DAFF630EDF6484EF0DF086EF0DF099
:101B080044EF0DF017C0D9FF18C0DAFF630EDF6489
:101B180090EF0DF092EF0DF044EF0DF0120004502D
:101B2800D8B499EF0DF09BEF0DF0A3EF0DF0045032
:101B3800D8A4A1EF0DF0A3EF0DF0A8EF0DF002501F
:101B48009CEC11F0EFEF0DF00450D96EDA6A0A0E32
:101B5800D926DE50DE10D8B4B4EF0DF0B6EF0DF094
:101B6800CFEF0DF00450D96EDA6A0A0ED926045068
:101B7800E16EE26A030EE126DE50E65CE650800A7A
:101B8800096EDE50800A0958D8B0CDEF0DF0CFEFBE
:101B98000DF0EFEF0DF00450D96EDA6A030ED92676
:101BA800DECF05F0DDCF06F00450D96EDA6ADECF5D
:101BB80007F0DDCF08F005500724D96E065008203D
:101BC800DA6E02C0DFFF0450D96EDA6A030ED92636
:101BD800DE2A000EDD221200000E076E03BEF9EFAA
:101BE8000DF0F7EF0DF0FFEF0DF0026C031ED8B00B
:101BF800032A010E076E05BE06EF0EF004EF0EF085
:101C08000AEF0EF0046C051ED8B0052A0450051022
:101C1800D8B411EF0EF013EF0EF037EF0EF0010EFF
:101C2800066E1BEF0EF0D89004360536062A05AE70
:101C380020EF0EF022EF0EF017EF0EF00450025CCA
:101C480005500358D8A02BEF0EF02DEF0EF031EF12
:101C58000EF00450025E0550035AD8900532043243
:101C6800062E22EF0EF00750D8B43DEF0EF03FEFEE
:101C78000EF043EF0EF0026C031ED8B0032A02C028
:101C880002F003C003F01200050E0E01746F060E79
:101C9800766F070E696F080E886FBD508F0B40096D
:101CA800BD6EE00EBE16BF50F00B0109BF6E630E8D
:101CB800BC6EBD8E000EAA6E000EA66E000E0F0141
:101CC800256F000E216FFC0EAD16F30EAD16CF0E6C
:101CD800AD163F0EAD16AB88AB50F00B0C09AB6ED2
:101CE800AB8EA788A750F00B0C09A76EA78E268984
:101CF8002651F00B0C09266F268F22892251F00BF2
:101D08000C09226F228F050E0E01746F060E766F76
:101D1800070E696F080E886F85948598839E879C47
:101D28007D947B9E7D987F9C1200CDEF0EF015C0B0
:101D3800D9FF16C0DAFFDF50D8B4A5EF0EF0A7EF31
:101D48000EF0ACEF0EF015C0D9FF16C0DAFFDF06B3
:101D580017C0D9FF18C0DAFFDF50D8B4B6EF0EF0BD
:101D6800B8EF0EF0BDEF0EF017C0D9FF18C0DAFFBC
:101D7800DF0615C00FF016C010F05AEC09F017C0B6
:101D88000FF018C010F05AEC09F0850EE82EFED7B7
:101D9800000015C0D9FF16C0DAFFDF50D8A4D7EF6E
:101DA8000EF0D9EF0EF09BEF0EF017C0D9FF18C058
:101DB800DAFFDF50D8A4E3EF0EF0E5EF0EF09BEF6B
:101DC8000EF01200000E0D6E000E0C6E0A500B1075
:101DD800D8B4F1EF0EF0F3EF0EF01BEF0FF0010E99
:101DE8000E6EFBEF0EF0D8900A360B360E2A0BAEAD
:101DF80000EF0FF002EF0FF0F7EF0EF0D8900C366F
:101E08000D360A50085C0B500958D8A00EEF0FF099
:101E180010EF0FF015EF0FF00A50085E0B50095A3B
:101E28000C80D8900B320A320E2E02EF0FF00CC045
:101E380008F00DC009F012007FA025EF0FF029EF80
:101E48000FF0026A022A2AEF0FF0026A7F50021886
:101E5800FE0B02187F6E79A634EF0FF038EF0FF003
:101E6800026A022A39EF0FF0026A02460246024667
:101E780079500218F70B0218796E7DAE46EF0FF015
:101E88004AEF0FF0026A022A4BEF0FF0026A0232A1
:101E980002327D5002187F0B02187D6E120082EC10
:101EA8000FF00DC0D9FF0EC0DAFF06C0DEFF07C075
:101EB800DDFFAAEC0FF020EE02F00D50D9260E50EF
:101EC800DA2206C0DEFF07C0DDFFFAEC0FF020EED5
:101ED80004F00D50D9260E50DA2206C0DEFF07C0E6
:101EE800DDFFD2EC0FF020EE06F00D50D9260E5093
:101EF800DA2206C0DEFF07C0DDFF120097EC11F002
:101F0800520E7CEC11F0B60E7CEC11F08DEC11F059
:101F1800530E7CEC11F0010E47EC10F0086E0850DF
:101F28000B6E0C6A000E47EC10F0086E08500A6E33
:101F3800096A0B5009100B6E0C500A100C6E92ECCB
:101F480011F00BC006F00CC007F0120097EC11F06E
:101F5800520E7CEC11F0B80E7CEC11F08DEC11F007
:101F6800530E7CEC11F0010E47EC10F0086E08508F
:101F78000B6E0C6A000E47EC10F0086E08500A6EE3
:101F8800096A0B5009100B6E0C500A100C6E92EC7B
:101F980011F00BC006F00CC007F0120097EC11F01E
:101FA800520E7CEC11F0B40E7CEC11F08DEC11F0BB
:101FB800530E7CEC11F0010E47EC10F0086E08503F
:101FC8000B6E0C6A000E47EC10F0086E08500A6E93
:101FD800096A0B5009100B6E0C500A100C6E92EC2B
:101FE80011F00BC006F00CC007F0120097EC11F0CE
:101FF800520E7CEC11F0BA0E7CEC11F08DEC11F065
:10200800530E7CEC11F0010E47EC10F0086E0850EE
:102018000B6E0C6A000E47EC10F0086E08500A6E42
:10202800096A0B5009100B6E0C500A100C6E92ECDA
:1020380011F00BC006F00CC007F01200EAEC10F02B
:10204800010E046E000E26EC11F03F0E066E550EC2
:10205800E82EFED7062EFCD70000030E046E000EF5
:1020680026EC11F0FF0E046E010E26EC11F0FF0EA7
:10207800046E030E26EC11F07F9079967D9E879072
:102088008196859E1200046EFFEC10F00E01DA872F
:10209800FFEC10F0D5CE05F0FFEC10F00450D8B4EA
:1020A80058EF10F05CEF10F0036A032A5DEF10F0B0
:1020B800036A033A03460E01DA510318DF0B0318CB
:1020C800DA6FDA89055012001E0E206E1BC021F04F
:1020D8001CC022F0000E256E000E246E000E2C6E21
:1020E800000E2B6E210E176E1DC018F0200E196EF3
:1020F80086EC10F024501B24D96E25501C20DA6E73
:10210800DF6A120018C01AF092EF10F017C00CF036
:102118001A0E0D6E19C00EF086EC08F01AC0F6FF04
:102128000800F5500009D8A49CEF10F09EEF10F0BD
:102138008AEF10F0000E186E000E176E120009BE1E
:10214800A8EF10F0AAEF10F0B0EF10F008C008F0F8
:1021580009C009F0BCEF10F008C00AF009C00BF084
:102168000A1E0B1E0A4A0B2A0AC008F00BC009F007
:102178001200C8EF10F003C0D9FF04C0DAFFDF5027
:1021880064EC11F0034A042A03C0D9FF04C0DAFF43
:10219800DF50D8A4D2EF10F0D4EF10F0BFEF10F05A
:1021A800120000EE60F05C0EEE6AE806FDE100EE5B
:1021B8002FF01D0EEE6AE806FDE14C904C92000EE1
:1021C800F86E0E0EF76E00011CEF07F00E01D951E4
:1021D800F00B0809D96FD98B9F0ED66F848A848C2F
:1021E800A79BA79D1D0E1D6F1E0E1C6F1C0E6F6FEB
:1021F8001B0E706F12000E01D8B505EF11F007EF36
:1022080011F0FFEF10F0DACE02F01F0E0216D8A47C
:1022180010EF11F012EF11F0FFEF10F01200025062
:102228000402F3CF06F0F4CF07F002500502F35092
:10223800072603500402F350072606C002F007C021
:1022480003F01200056E97EC11F0520E7CEC11F0C1
:10225800055080097CEC11F004507CEC11F092ECF4
:1022680011F01200D6501F0B4009D66ED6880F0EFB
:10227800D612F00ED516D5880B0ED46EDB0ED36EA3
:10228800D58E1200120E0E01626F110E156FE997AE
:10229800E895330EE56F000EE66FE789E88BE78F68
:1022A8001200D3CF06F0076AD450056E046A0450B2
:1022B80006120550071206C002F007C003F012000C
:1022C800026E0E0137A56BEF11F06DEF11F065EF9F
:1022D80011F002C0E4FE1200016E0E0137A577EF7F
:1022E80011F079EF11F071EF11F001C0E4FE120066
:1022F800036EFFEC10F003C0D5FE1200F28C0E0145
:102308002B812989F28E1200000ED46E000ED36E36
:102318001200FFEC10F00E01DA831200FFEC10F04F
:102328000E01DA851200FFEC10F00E01DA811200BE
:02233800120091
:020000040030CA
:02000000AAFF55
:020004009FFF5C
:00000001FF
