:0400000012EF00F00B
:100008005E828AA00AEF00F00CEF00F010EF00F01B
:100018008096610E4CEC40F05E92110096EF3FF036
:100E00000000000000DCCFD1350000000000C0155C
:100E10003F0000803F0000C03F70A5EC363BAAB801
:100E20003F4F38763F3CAA38338CBEBF3500723115
:100E30003F1872313F4CBB31330EEADDB555B38AF2
:100E400038610B36BBABAA2A3E42F1533E55326C99
:100E50003E05A38B3EABAAAA3EB76DDB3E9A99191D
:100E60003F0000804B00AAB83FC623F6B80040768A
:100E70003F616374696F6E203D202564200D0A0078
:100E8000677265656E72203D202566200D0A00623E
:100E90006C756565203D202564200D0A006772652C
:100EA000656E203D202564200D0A00626C75657218
:100EB000203D202566200D0A0072656472203D20C9
:100EC0002566200D0A00726564203D202564200DF2
:0B0ED0000A00696E66006E616E000093
:100EDC0060C068F161C069F162C06AF163C06BF116
:100EEC0064C084F165C085F166C086F167C087F186
:100EFC00FF0E01016815AC6FFF0E6915AD6FFF0E8B
:100F0C006A15AE6F7F0E6B15AF6FFF0E8415946F65
:100F1C00FF0E8515956FFF0E8615966F7F0E871544
:100F2C00976F9451951196119711D8A4A0EF07F0D3
:100F3C00A2EF07F0ADEF07F0000E0001606F000E9E
:100F4C00616F800E626F3F0E636FADEF19F0800E14
:100F5C006A1909E13F0E6B1968116911D8A4B9EF30
:100F6C0007F0BBEF07F0C6EF07F0000E0001606F53
:100F7C00000E616F800E626F3F0E636FADEF19F064
:100F8C00AFBFD7EF07F0AC05000EAD59800EAE59D0
:100F9C007F0EAF59D8B0D5EF07F0D7EF07F0E8EFD9
:100FAC0007F097BFE6EF07F09405000E9559800EF9
:100FBC0096597F0E9759D8A0E6EF07F0E8EF07F0A7
:100FCC0004EF08F060C002F061C003F062C004F0EE
:100FDC0063C005F064C006F065C007F066C008F099
:100FEC0067C009F0E4EC27F002C060F003C061F0C8
:100FFC0004C062F005C063F0ADEF19F0000E546F41
:10100C00000E556F000E566F000E576F6BBF13EF2F
:10101C0008F011EF08F0DFEF08F097BF1FEF08F0B2
:10102C00800E965D4B0E9759D8A01FEF08F021EF5C
:10103C0008F02BEF08F0020E546F000E556F000EE7
:10104C00566F000E576FDFEF08F097BF37EF08F0C1
:10105C00800E965D3F0E9759D8A037EF08F039EF08
:10106C0008F0DFEF08F0170E0001686F94C169F00B
:10107C0095C16AF096C16BF097C16CF0686749EF47
:10108C0008F051EF08F06C356C336B336A3369330D
:10109C00682F44EF08F0810E000169250101A46F4F
:1010AC00FF0E00016A210101A56FFF0E00016B21EB
:1010BC000101A66FFF0E00016C210101A76FA45165
:1010CC0017080001686F94C169F095C16AF096C168
:1010DC006BF097C16CF0686776EF08F07EEF08F064
:1010EC006C356C336B336A336933682F71EF08F0EE
:1010FC0069C0A8F16AC0A9F16BC0AAF16CC0ABF1D0
:10110C000101A45117080001686FA8C169F0A9C1B9
:10111C006AF0AAC16BF0ABC16CF0682B9BEF08F0C6
:10112C00D89069376A376B376C37682F96EF08F0B1
:10113C00010194510001691913E10101955100015C
:10114C006A190EE10101965100016B1909E10101C7
:10115C00975100016C19D8A4B6EF08F0B8EF08F05D
:10116C00DFEF08F0010E0101A8150001686F000EF9
:10117C000101A9150001696F000E0101AA150001FA
:10118C006A6F000E0101AB1500016B6F685102080C
:10119C000101546F000E000169550101556F000EDD
:1011AC0000016A550101566F000E00016B550101DB
:1011BC00576F800E0101961909E17F0E9719941152
:1011CC009511D8A4ECEF08F0EEEF08F05AEF09F007
:1011DC00800EAE1909E13F0EAF19AC11AD11D8A4B8
:1011EC00FAEF08F0FCEF08F007EF09F0000E000131
:1011FC00606F000E616F800E626F3F0E636FADEF1C
:10120C0019F0AFBF16EF09F0AC05000EAD59800E0A
:10121C00AE593F0EAF59D8A016EF09F018EF09F0F0
:10122C0034EF09F087BF1FEF09F01DEF09F02AEF2B
:10123C0009F0000E0001606F000E616F000E626F0E
:10124C00000E636FADEF19F064C060F065C061F023
:10125C0066C062F067C063F0ADEF19F087BF3BEF7B
:10126C0009F039EF09F04FEF09F064C002F065C0E6
:10127C0003F066C004F067C005F060EC3FF002C0FC
:10128C0060F003C061F004C062F005C063F0ADEF24
:10129C0019F0000E0001606F000E616F000E626F9E
:1012AC00000E636FADEF19F0800E961909E13F0E39
:1012BC00971994119511D8A466EF09F068EF09F00D
:1012CC0095EF09F087BF6FEF09F06DEF09F08BEF29
:1012DC0009F0000E2B6E000E2C6E800E2D6E3F0E44
:1012EC002E6E60C02FF061C030F062C031F063C070
:1012FC0032F048EC2EF02BC060F02CC061F02DC009
:10130C0062F02EC063F0ADEF19F060C060F061C008
:10131C0061F062C062F063C063F0ADEF19F0400E93
:10132C008719841185118611D8A49FEF09F0A1EFBC
:10133C0009F0BDEF09F060C012F061C013F062C09B
:10134C0014F063C015F060C016F061C017F062C0F5
:10135C0018F063C019F044EC2AF012C060F013C00E
:10136C0061F014C062F015C063F0ADEF19F03F0EE0
:10137C008719841185118611D8A4C7EF09F0C9EF1C
:10138C0009F0E4EF09F06BBFCEEF09F0D0EF09F0F4
:10139C00E4EF09F060C012F061C013F062C014F009
:1013AC0063C015F059EC2CF012C060F013C061F062
:1013BC0014C062F015C063F0ADEF19F0ACC178F158
:1013CC00ADC179F1AEC17AF1AFC17BF1800EAE192E
:1013DC000BE17F0EAF19AC11AD11D8B4F8EF09F0D9
:1013EC00FAEF09F013EF0AF0AC51AD11AE11AF11D9
:1013FC00D8B403EF0AF005EF0AF013EF0AF0800EF1
:10140C00AE1909E13F0EAF19AC11AD11D8A411EF13
:10141C000AF013EF0AF0AEEF0AF078C1B4F179C11B
:10142C00B5F17AC1B6F17BC1B7F187BF22EF0AF0F3
:10143C0020EF0AF03CEF0AF0000E2B6E000E2C6E23
:10144C00800E2D6E3F0E2E6EB4C12FF0B5C130F054
:10145C00B6C131F0B7C132F048EC2EF02BC0B4F16C
:10146C002CC0B5F12DC0B6F12EC0B7F101016BBF88
:10147C0044EF0AF042EF0AF0A4EF0AF0000EAC259C
:10148C000001686F000E0101AD210001696F800E33
:10149C000101AE2100016A6FC00E0101AF210001F4
:1014AC006B6F01015451000168116C6F01015551B2
:1014BC00000169116D6F0101565100016A116E6FC7
:1014CC000101575100016B116F6F6C516D116E1151
:1014DC006F11D8A474EF0AF076EF0AF086EF0AF0D9
:1014EC00000E0001D86F210ED76FFF0E0101B46FF3
:1014FC00FF0EB56FFF0EB66F7F0EB76FA4EF0AF03D
:10150C0001015405551156115711D8A490EF0AF04A
:10151C0092EF0AF0A4EF0AF0B4C102F0B5C103F0E7
:10152C00B6C104F0B7C105F060EC3FF002C0B4F1F5
:10153C0003C0B5F104C0B6F105C0B7F1B4C160F099
:10154C00B5C161F0B6C162F0B7C163F0ADEF19F08F
:10155C00000E646F000E656F000E666F000E676FF5
:10156C006BBFBDEF0AF0BBEF0AF0DDEF0AF0545190
:10157C00551156115711D8A4C6EF0AF0C8EF0AF04E
:10158C00CAEF0AF076EF0AF05405551156115711AF
:10159C00D8A4D3EF0AF0D5EF0AF0DDEF0AF0000E75
:1015AC00646F000E656F000E666F800E676F97BFDD
:1015BC00ECEF0AF09405000E9559000E96594D0E5D
:1015CC009759D8A0ECEF0AF0EEEF0AF0B2EF0CF05E
:1015DC00AFBF00EF0BF0F80EAC5DFF0EAD597F0EF8
:1015EC00AE593F0EAF59D8B0FEEF0AF000EF0BF03A
:1015FC0021EF0BF087BF07EF0BF005EF0BF016EFA9
:10160C000BF0000E01016411B46F000E6511B56F83
:10161C00800E6611B66F7F0E6711B76FA4EF0AF0DC
:10162C00000E0001606F000E616F000E626F000E05
:10163C00636FADEF19F0AFBF31EF0BF0080EAC5D7F
:10164C00000EAD59800EAE593F0EAF59D8A031EFF8
:10165C000BF033EF0BF04FEF0BF087BF40EF0BF0BD
:10166C0087518611851108E18405D8A040EF0BF055
:10167C0042EF0BF044EF0BF007EF0BF0000E000104
:10168C00606F000E616F000E626F000E636FADEF46
:10169C0019F078C102F079C103F07AC104F07BC172
:1016AC0005F0000E066E000E076E800E086EBF0E63
:1016BC00096EE4EC27F002C0B0F103C0B1F104C034
:1016CC00B2F105C0B3F1000E166E000E176E800E4F
:1016DC00186E3E0E196EB0C112F0B1C113F0B2C14A
:1016EC0014F0B3C115F044EC2AF012C048F013C04A
:1016FC0049F014C04AF015C04BF0AB0E446EAA0E64
:10170C00456EAA0E466E3E0E476EBDEC3EF044C0D2
:10171C0048F145C049F146C04AF147C04BF1B0C150
:10172C0016F0B1C117F0B2C118F0B3C119F0B0C1C5
:10173C0012F0B1C113F0B2C114F0B3C115F044EC06
:10174C002AF012C058F113C059F114C05AF115C047
:10175C005BF1B0C116F0B1C117F0B2C118F0B3C152
:10176C0019F048C112F049C113F04AC114F04BC131
:10177C0015F044EC2AF012C048F013C049F014C024
:10178C004AF015C04BF0000E446E000E456E000E74
:10179C00466E3F0E476EBDEC3EF044C04CF145C06A
:1017AC004DF146C04EF147C04FF158C112F059C12E
:1017BC0013F05AC114F05BC115F04CC116F04DC1B9
:1017CC0017F04EC118F04FC119F044EC2AF012C0BA
:1017DC0044F113C045F114C046F115C047F1B0C136
:1017EC0012F0B1C113F0B2C114F0B3C115F0000E78
:1017FC00166EAA0E176EB80E186E3F0E196E44ECCC
:10180C002AF012C07CF113C07DF114C07EF115C01A
:10181C007FF1700E166EA50E176EEC0E186E360E4E
:10182C00196EB0C112F0B1C113F0B2C114F0B3C152
:10183C0015F044EC2AF012C044F013C045F014C06B
:10184C0046F015C047F03B0E166EAA0E176EB80E7A
:10185C00186E3F0E196E44C112F045C113F046C10B
:10186C0014F047C115F044EC2AF012C048F013C034
:10187C0049F014C04AF015C04BF0BDEC3EF044C02A
:10188C0080F145C081F146C082F147C083F17CC133
:10189C0002F07DC103F07EC104F07FC105F080C170
:1018AC0006F081C107F082C108F083C109F0E4ECB5
:1018BC0027F002C08CF103C08DF104C08EF105C07D
:1018CC008FF18CC198F18DC199F18EC19AF18FC1B4
:1018DC009BF1000E010198158C6FF00E99158D6F10
:1018EC00FF0E9A158E6FFF0E9B158F6F7CC148F003
:1018FC007DC149F07EC14AF07FC14BF08CC144F0F0
:10190C008DC145F08EC146F08FC147F0BDEC3EF065
:10191C0044C09CF145C09DF146C09EF147C09FF16B
:10192C0080C144F081C145F082C146F083C147F0CB
:10193C009CC148F09DC149F09EC14AF09FC14BF03B
:10194C00BDEC3EF044C01CF145C01DF146C01EF17B
:10195C0047C01FF1A6EF13F0000E886F000E896FC1
:10196C00000E8A6F000E8B6FAFBFC8EF0CF0AF513B
:10197C0007E1800EAE5DD8B0C6EF0CF0C8EF0CF0EE
:10198C00F3EF0CF078C112F079C113F07AC114F0B6
:10199C007BC115F0000E166E000E176E800E186EC1
:1019AC004B0E196E44EC2AF012C078F113C079F189
:1019BC0014C07AF115C07BF1E80E01018827FF0EE7
:1019CC008923FF0E8A23FF0E8B2378C1ACF179C1DA
:1019DC00ADF17AC1AEF17BC1AFF1170E0001686FAA
:1019EC00ACC169F0ADC16AF0AEC16BF0AFC16CF0C7
:1019FC00686703EF0DF00BEF0DF06C356C336B3348
:101A0C006A336933682FFEEF0CF0810E00016925F3
:101A1C006D6FFF0E6A216E6FFF0E6B216F6FFF0EE5
:101A2C006C21706F6D510101882700016E5101010D
:101A3C00892300016F5101018A23000170510101BA
:101A4C008B23FF0EAC15A86FFF0EAD15A96F7F0E83
:101A5C00AE15AA6F000EAF15AB6F000EA46F000E83
:101A6C00A56F000EA66F000EA76F000EA811AC6F2D
:101A7C00000EA911AD6F800EAA11AE6F3F0EAB1107
:101A8C00AF6FABBF59EF0DF0AB510BE1720EA85D10
:101A9C00C40EA9591C0EAA59D8B057EF0DF059EF26
:101AAC000DF05BEF0DF085EF0DF0ABBF6DEF0DF0B2
:101ABC00AB510BE1D70EA85DB30EA9595D0EAA5917
:101ACC00D8B06BEF0DF06DEF0DF077EF0DF0010E60
:101ADC00A46F000EA56F000EA66F000EA76F85EF0A
:101AEC000DF0010E8827000E89238A238B23000E0C
:101AFC00AC27000EAD23800EAE23FF0EAF23ACC17E
:101B0C0078F1ADC179F1AEC17AF1AFC17BF178C199
:101B1C0044F079C145F07AC146F07BC147F0A4513D
:101B2C00040DF350110F0001686F68C0F6FF0E0E24
:101B3C00F76E000EF86E0900F5CF48F00900F5CFEE
:101B4C0049F00900F5CF4AF00A00F5CF4BF0BDEC97
:101B5C003EF044C07CF145C07DF146C07EF147C0EB
:101B6C007FF1000E2B6E000E2C6E800E2D6E3F0E34
:101B7C002E6E78C106F079C107F07AC108F07BC1EE
:101B8C0009F00101A451040DF350110F0001686F0D
:101B9C0068C0F6FF0E0EF76E000EF86E0900F5CF5A
:101BAC0002F00900F5CF03F00900F5CF04F00A00AC
:101BBC00F5CF05F0E4EC27F002C02FF003C030F0B5
:101BCC0004C031F005C032F048EC2EF02BC080F18F
:101BDC002CC081F12DC082F12EC083F17CC112F09A
:101BEC007DC113F07EC114F07FC115F080C116F0D9
:101BFC0081C117F082C118F083C119F044EC2AF0AE
:101C0C0012C060F113C061F114C062F115C063F130
:101C1C0060C174F161C175F162C176F163C177F194
:101C2C0074C198F175C199F176C19AF177C19BF1A4
:101C3C00000E01019815746FF00E9915756FFF0E5B
:101C4C009A15766FFF0E9B15776FACC168F0ADC11E
:101C5C0069F0AEC16AF0AFC16BF000016B356B334C
:101C6C006A3369336833000E68156C6FF00E6915B2
:101C7C006D6FFF0E6A156E6FFF0E6B156F6F000E9A
:101C8C006C110101986F000E00016D110101996F2B
:101C9C00000E00016E1101019A6F200E00016F11F0
:101CAC0001019B6FA4C168F0A5C169F0A6C16AF0DF
:101CBC00A7C16BF0150ED8900001683769376A37E9
:101CCC006B37E82E61EF0EF0010198510001682589
:101CDC006C6F01019951000169216D6F01019A51DD
:101CEC0000016A216E6F01019B5100016B216F6F26
:101CFC00000E6C250101706F000E00016D210101B9
:101D0C00716F400E00016E210101726F000E000117
:101D1C006F210101736FA451040DF350110F0001D9
:101D2C00686F68C0F6FF0E0EF76E000EF86E0900B5
:101D3C00F5CF48F00900F5CF49F00900F5CF4AF08E
:101D4C000A00F5CF4BF070C144F071C145F072C17F
:101D5C0046F073C147F0BDEC3EF044C09CF145C069
:101D6C009DF146C09EF147C09FF178C144F079C106
:101D7C0045F07AC146F07BC147F09CC148F09DC14B
:101D8C0049F09EC14AF09FC14BF0BDEC3EF044C0FF
:101D9C0034F145C035F146C036F147C037F170C15A
:101DAC0016F071C117F072C118F073C119F074C13B
:101DBC0012F075C113F076C114F077C115F044EC34
:101DCC002AF012C048F013C049F014C04AF015C0F4
:101DDC004BF07CC144F07DC145F07EC146F07FC123
:101DEC0047F0BDEC3EF044C09CF145C09DF146C0AF
:101DFC009EF147C09FF134C116F035C117F036C1C2
:101E0C0018F037C119F074C112F075C113F076C116
:101E1C0014F077C115F044EC2AF012C048F013C04E
:101E2C0049F014C04AF015C04BF09CC144F09DC160
:101E3C0045F09EC146F09FC147F0BDEC3EF044C05A
:101E4C0058F145C059F146C05AF147C05BF158C131
:101E5C0012F059C113F05AC114F05BC115F080C1D6
:101E6C0016F081C117F082C118F083C119F044EC4F
:101E7C002AF012C030F113C031F114C032F115C088
:101E8C0033F160C112F061C113F062C114F063C18F
:101E9C0015F060C116F061C117F062C118F063C192
:101EAC0019F044EC2AF012C090F113C091F114C057
:101EBC0092F115C093F1550E066E320E076E6C0E34
:101ECC00086E3E0E096E420E166EF10E176E530E14
:101EDC00186E3E0E196E90C112F091C113F092C1A2
:101EEC0014F093C115F044EC2AF012C002F013C0A8
:101EFC0003F014C004F015C005F0E4EC27F002C0A8
:101F0C0048F103C049F104C04AF105C04BF1050E7C
:101F1C00066EA30E076E8B0E086E3E0E096E90C1F8
:101F2C0016F091C117F092C118F093C119F048C185
:101F3C0012F049C113F04AC114F04BC115F044EC36
:101F4C002AF012C002F013C003F014C004F015C044
:101F5C0005F0E4EC27F002C058F103C059F104C0BD
:101F6C005AF105C05BF1AB0E066EAA0E076EAA0EF7
:101F7C00086E3E0E096E90C116F091C117F092C119
:101F8C0018F093C119F058C112F059C113F05AC18D
:101F9C0014F05BC115F044EC2AF012C002F013C02F
:101FAC0003F014C004F015C005F0E4EC27F002C0F7
:101FBC004CF103C04DF104C04EF105C04FF1B70E0A
:101FCC00066E6D0E076EDB0E086E3E0E096E90C12E
:101FDC0016F091C117F092C118F093C119F04CC1D1
:101FEC0012F04DC113F04EC114F04FC115F044EC7A
:101FFC002AF012C002F013C003F014C004F015C094
:10200C0005F0E4EC27F002C038F103C039F104C04C
:10201C003AF105C03BF19A0E066E990E076E190E39
:10202C00086E3F0E096E90C116F091C117F092C167
:10203C0018F093C119F038C112F039C113F03AC13C
:10204C0014F03BC115F044EC2AF012C002F013C09E
:10205C0003F014C004F015C005F0E4EC27F002C046
:10206C0000F103C001F104C002F105C003F190C1FD
:10207C0016F091C117F092C118F093C119F090C1EC
:10208C0012F091C113F092C114F093C115F044EC0D
:10209C002AF012C004F113C005F114C006F115C0EA
:1020AC0007F100C112F001C113F002C114F003C119
:1020BC0015F004C116F005C117F006C118F007C1E0
:1020CC0019F044EC2AF012C050F113C051F114C0B5
:1020DC0052F115C053F130C116F031C117F032C1B5
:1020EC0018F033C119F060C106F061C107F062C18C
:1020FC0008F063C109F074C102F075C103F076C138
:10210C0004F077C105F0E4EC27F002C012F003C034
:10211C0013F004C014F005C015F044EC2AF012C002
:10212C005CF113C05DF114C05EF115C05FF150C1DC
:10213C0002F051C103F052C104F053C105F05CC16F
:10214C0006F05DC107F05EC108F05FC109F0E4EC78
:10215C0027F002C050F103C051F104C052F105C088
:10216C0053F174C112F075C113F076C114F077C13C
:10217C0015F074C116F075C117F076C118F077C15F
:10218C0019F044EC2AF012C090F113C091F114C074
:10219C0092F115C093F1000E066E000E076E400E04
:1021AC00086E400E096E90C102F091C103F092C10D
:1021BC0004F093C105F0E4EC27F002C05CF103C01D
:1021CC005DF104C05EF105C05FF15CC102F05DC160
:1021DC0003F05EC104F05FC105F050C106F051C1BF
:1021EC0007F052C108F053C109F0E4EC27F002C02B
:1021FC0070F103C071F104C072F105C073F170C1CC
:10220C0098F171C199F172C19AF173C19BF1000EF1
:10221C0001019815706FF00E9915716FFF0E9A15DC
:10222C00726FFF0E9B15736F000E066E000E076E1D
:10223C00400E086EC00E096E70C102F071C103F041
:10224C0072C104F073C105F0E4EC27F002C03CF15C
:10225C0003C03DF104C03EF105C03FF190C148F010
:10226C0091C149F092C14AF093C14BF03CC144F08A
:10227C003DC145F03EC146F03FC147F0BDEC3EF0DC
:10228C0044C040F145C041F146C042F147C043F162
:10229C0050C144F051C145F052C146F053C147F012
:1022AC0040C148F041C149F042C14AF043C14BF032
:1022BC00BDEC3EF044C034F145C035F146C036F1BA
:1022CC0047C037F174C112F075C113F076C114F028
:1022DC0077C115F070C116F071C117F072C118F00A
:1022EC0073C119F044EC2AF012C07CF113C07DF1DB
:1022FC0014C07EF115C07FF130C116F031C117F05A
:10230C0032C118F033C119F070C112F071C113F061
:10231C0072C114F073C115F044EC2AF012C002F033
:10232C0013C003F014C004F015C005F060C116F022
:10233C0061C117F062C118F063C119F034C112F019
:10234C0035C113F036C114F037C115F044EC2AF046
:10235C0012C006F013C007F014C008F015C009F045
:10236C00E4EC27F002C080F103C081F104C082F1DB
:10237C0005C083F17CC102F07DC103F07EC104F085
:10238C007FC105F080C106F081C107F082C108F061
:10239C0083C109F0E4EC27F002C0A0F103C0A1F165
:1023AC0004C0A2F105C0A3F1A0C198F1A1C199F19B
:1023BC00A2C19AF1A3C19BF1000E01019815A06F67
:1023CC00F00E9915A16FFF0E9A15A26FFF0E9B15BB
:1023DC00A36F7CC148F07DC149F07EC14AF07FC13A
:1023EC004BF0A0C144F0A1C145F0A2C146F0A3C17D
:1023FC0047F0BDEC3EF044C09CF145C09DF146C099
:10240C009EF147C09FF180C144F081C145F082C16B
:10241C0046F083C147F09CC148F09DC149F09EC174
:10242C004AF09FC14BF0BDEC3EF044C06CF145C08E
:10243C006DF146C06EF147C06FF1A0C112F0A1C1A1
:10244C0013F0A2C114F0A3C115F0000E166E400ECD
:10245C00176E760E186E3F0E196E44EC2AF012C0F1
:10246C0020F113C021F114C022F115C023F14F0E3D
:10247C00166E380E176E760E186E3F0E196E6CC1F6
:10248C0012F06DC113F06EC114F06FC115F044EC75
:10249C002AF012C006F013C007F014C008F015C0E3
:1024AC0009F0C60E166E230E176EF60E186EB80EC9
:1024BC00196EA0C112F0A1C113F0A2C114F0A3C1F6
:1024CC0015F044EC2AF012C002F013C003F014C053
:1024DC0004F015C005F0E4EC27F002C05CF103C079
:1024EC005DF104C05EF105C05FF15CC102F05DC13D
:1024FC0003F05EC104F05FC105F00101A451040DAD
:10250C00F350010F0001686F68C0F6FF0E0EF76EF6
:10251C00000EF86E0900F5CF06F00900F5CF07F0B4
:10252C000900F5CF08F00A00F5CF09F0E4EC27F02C
:10253C0002C024F103C025F104C026F105C027F127
:10254C0088C102F089C103F08AC104F08BC105F087
:10255C00010EDFEC33F002C0B0F103C0B1F104C0E6
:10256C00B2F105C0B3F124C106F025C107F026C1B4
:10257C0008F027C109F020C102F021C103F022C1EB
:10258C0004F023C105F0E4EC27F002C05CF103C0B9
:10259C005DF104C05EF105C05FF10101A451040DB1
:1025AC00F350090F0001686F68C0F6FF0E0EF76E4E
:1025BC00000EF86E0900F5CF06F00900F5CF07F014
:1025CC000900F5CF08F00A00F5CF09F05CC102F064
:1025DC005DC103F05EC104F05FC105F0E4EC27F0CF
:1025EC0002C008F103C009F104C00AF105C00BF1E7
:1025FC0008C102F009C103F00AC104F00BC105F0D7
:10260C00B0C106F0B1C107F0B2C108F0B3C109F016
:10261C00E4EC27F002C08CF103C08DF104C08EF104
:10262C0005C08FF18CC198F18DC199F18EC19AF1D1
:10263C008FC19BF1000E010198158C6FF00E99154E
:10264C008D6FFF0E9A158E6FFF0E9B158F6FB0C19D
:10265C0048F0B1C149F0B2C14AF0B3C14BF08CC1E2
:10266C0044F08DC145F08EC146F08FC147F0BDECF2
:10267C003EF044C09CF145C09DF146C09EF147C060
:10268C009FF10101A451040DF350090F0001686F73
:10269C0068C0F6FF0E0EF76E000EF86E0900F5CF4F
:1026AC0048F00900F5CF49F00900F5CF4AF00A00CF
:1026BC00F5CF4BF09CC144F09DC145F09EC146F056
:1026CC009FC147F0BDEC3EF044C040F145C041F124
:1026DC0046C042F147C043F120C148F021C149F046
:1026EC0022C14AF023C14BF040C144F041C145F036
:1026FC0042C146F043C147F0BDEC3EF044C00CF182
:10270C0045C00DF146C00EF147C00FF124C144F095
:10271C0025C145F026C146F027C147F00CC148F051
:10272C000DC149F00EC14AF00FC14BF0BDEC3EF0AB
:10273C0044C01CF145C01DF146C01EF147C01FF13D
:10274C0064C098F165C099F166C09AF167C09BF1BD
:10275C00000E010198152C6FF00E99152D6FFF0EC0
:10276C009A152E6FFF0E9B152F6F8CC116F08DC115
:10277C0017F08EC118F08FC119F02CC148F02DC183
:10278C0049F02EC14AF02FC14BF064C044F065C033
:10279C0045F066C046F067C047F0BDEC3EF044C063
:1027AC0012F045C013F046C014F047C015F044ECCD
:1027BC002AF012C010F113C011F114C012F115C09F
:1027CC0013F110C102F011C103F012C104F013C1D6
:1027DC0005F01CC116F01DC117F01EC118F01FC169
:1027EC0019F064C012F065C013F066C014F067C035
:1027FC0015F044EC2AF012C006F013C007F014C018
:10280C0008F015C009F0E4EC27F002C06CF103C02D
:10281C006DF104C06EF105C06FF12CC112F02DC129
:10282C0013F02EC114F02FC115F08CC116F08DC110
:10283C0017F08EC118F08FC119F044EC2AF012C0B9
:10284C00A0F113C0A1F114C0A2F115C0A3F1A0C155
:10285C0002F0A1C103F0A2C104F0A3C105F06CC148
:10286C0006F06DC107F06EC108F06FC109F0E4EC21
:10287C0027F002C0B4F103C0B5F104C0B6F105C035
:10288C00B7F1B4C1A8F1B5C1A9F1B6C1AAF1B7C1EC
:10289C00ABF10101ABBF5FEF14F0A805000EA95915
:1028AC00000EAA59430EAB59D8A05FEF14F061EF9C
:1028BC0014F063EF14F007EF0BF0430EAB19A811F3
:1028CC00A911AA11D8A46DEF14F06FEF14F0AEEFAC
:1028DC0014F0A0C148F0A1C149F0A2C14AF0A3C1B3
:1028EC004BF0B4C144F0B5C145F0B6C146F0B7C128
:1028FC0047F0BDEC3EF044C04CF045C04DF046C036
:10290C004EF047C04FF03C0E066EAA0E076E380E06
:10291C00086E330E096E6CC102F06DC103F06EC10E
:10292C0004F06FC105F0E4EC27F002C050F003C0D6
:10293C0051F004C052F005C053F075EC36F0D8B02D
:10294C00AAEF14F0ACEF14F021EF15F007EF0BF039
:10295C00FF0EA8150001686FFF0E0101A9150001FB
:10296C00696FFF0E0101AA1500016A6F7F0E01014C
:10297C00AB1500016B6F6BBFD0EF14F06805000E48
:10298C006959160E6A59430E6B59D8A0D0EF14F042
:10299C00D2EF14F0DCEF14F0000E606F000E616FDC
:1029AC00000E626F000E636FADEF19F0160E010191
:1029BC00AA1909E1C30EAB19A811A911D8A4E9EF02
:1029CC0014F0EBEF14F021EF15F0A0C148F0A1C109
:1029DC0049F0A2C14AF0A3C14BF0B4C144F0B5C157
:1029EC0045F0B6C146F0B7C147F0BDEC3EF044C06F
:1029FC004CF045C04DF046C04EF047C04FF06CC196
:102A0C0050F06DC151F06EC152F06FC153F075ECC6
:102A1C0036F0D8A014EF15F016EF15F021EF15F0E5
:102A2C00000E0001606F000E616F000E626F000EF1
:102A3C00636FADEF19F0FF0E0101A815286FFF0EA3
:102A4C00A915296FFF0EAA152A6F7F0EAB152B6FD8
:102A5C00170E0001686F28C169F029C16AF02AC1FC
:102A6C006BF02BC16CF068673EEF15F046EF15F07C
:102A7C006C356C336B336A336933682F39EF15F06F
:102A8C00810E000169250101A46FFF0E00016A216E
:102A9C000101A56FFF0E00016B210101A66FFF0E56
:102AAC0000016C210101A76F000E886F000E896F69
:102ABC00000E8A6F000E8B6F2BBF71EF15F028057F
:102ACC00000E2959000E2A593F0E2B59D8A071EF30
:102ADC0015F073EF15F06FEF16F0A4C168F0010E4E
:102AEC0000016827000E696F000E6A6F800E6B6F15
:102AFC00000E6C6F686785EF15F08DEF15F06C3577
:102B0C006C336B336A336933682F80EF15F0010136
:102B1C00A851000169250101886FA95100016A21A2
:102B2C000101896FAA5100016B2101018A6FAB5120
:102B3C0000016C2101018B6F810E0001686FFF0E8B
:102B4C00696FFF0E6A6FFF0E6B6F170E6C6F88C18B
:102B5C006DF089C16EF08AC16FF08BC170F06C673B
:102B6C00BAEF15F0C2EF15F0703570336F336E336A
:102B7C006D336C2FB5EF15F000016D516825010117
:102B8C00A46F000E000169210101A56F000E000168
:102B9C006A210101A66F000E00016B210101A76FD4
:102BAC00A4C168F0FF0E0001696FFF0E6A6F7F0E03
:102BBC006B6F000E6C6F6867E6EF15F0EEEF15F0BB
:102BCC006C356C336B336A336933682FE1EF15F076
:102BDC000001691D6D6F6A1D6E6F6B1D6F6F6C1D33
:102BEC00706F0101885100016D150101B06F8951A1
:102BFC0000016E150101B16F8A5100016F150101C1
:102C0C00B26F8B51000170150101B36FA4511708FD
:102C1C000001686FFF0E010188150001696FFF0E3E
:102C2C000101891500016A6F7F0E01018A150001EF
:102C3C006B6F000E01018B1500016C6F000E69119A
:102C4C006D6F000E6A116E6F800E6B116F6F000E40
:102C5C006C11706F686735EF16F03DEF16F070353C
:102C6C0070336F336E336D33682F30EF16F06DC0E9
:102C7C0088F16EC089F16FC08AF170C08BF10101CF
:102C8C00ABBF4DEF16F04BEF16F055EF16F08B1F58
:102C9C008A1F891F886D000E89238A238B23A0C16C
:102CAC0044F0A1C145F0A2C146F0A3C147F0B0C1A8
:102CBC0048F0B1C149F0B2C14AF0B3C14BF0BDEC20
:102CCC003EF044C0A0F145C0A1F146C0A2F147C0FE
:102CDC00A3F1A0C102F0A1C103F0A2C104F0A3C1F1
:102CEC0005F06CC106F06DC107F06EC108F06FC144
:102CFC0009F0E4EC27F002C0B0F103C0B1F104C05C
:102D0C00B2F105C0B3F1B0C198F1B1C199F1B2C142
:102D1C009AF1B3C19BF1000E01019815B06F800EB2
:102D2C009915B16FFF0E9A15B26FFF0E9B15B36F0D
:102D3C00B0C112F0B1C113F0B2C114F0B3C115F0AF
:102D4C00000E166E720E176E310E186E3F0E196E47
:102D5C0044EC2AF012C07CF113C07DF114C07EF15A
:102D6C0015C07FF1A0C148F0A1C149F0A2C14AF041
:102D7C00A3C14BF0B0C144F0B1C145F0B2C146F0B3
:102D8C00B3C147F0BDEC3EF044C09CF145C09DF191
:102D9C0046C09EF147C09FF1180E166E720E176E4C
:102DAC00310E186E3F0E196E9CC148F09DC149F052
:102DBC009EC14AF09FC14BF06CC144F06DC145F00F
:102DCC006EC146F06FC147F0BDEC3EF044C012F04E
:102DDC0045C013F046C014F047C015F044EC2AF07F
:102DEC0012C014F113C015F114C016F115C017F16F
:102DFC0014C102F015C103F016C104F017C105F09F
:102E0C008C0E166EBE0E176EBF0E186E350E196E2A
:102E1C00B0C112F0B1C113F0B2C114F0B3C115F0CE
:102E2C0044EC2AF012C006F013C007F014C008F0EE
:102E3C0015C009F0E4EC27F002C080F103C081F169
:102E4C0004C082F105C083F17CC102F07DC103F0A6
:102E5C007EC104F07FC105F080C106F081C107F08E
:102E6C0082C108F083C109F0E4EC27F002C0B4F190
:102E7C0003C0B5F104C0B6F105C0B7F17CC148F090
:102E8C007DC149F07EC14AF07FC14BF0B4C144F022
:102E9C00B5C145F0B6C146F0B7C147F0BDEC3EF048
:102EAC0044C09CF145C09DF146C09EF147C09FF1C6
:102EBC0080C144F081C145F082C146F083C147F026
:102ECC009CC148F09DC149F09EC14AF09FC14BF096
:102EDC00BDEC3EF044C044F145C045F146C046F15E
:102EEC0047C047F1B4C112F0B5C113F0B6C114F02C
:102EFC00B7C115F0B4C116F0B5C117F0B6C118F0D2
:102F0C00B7C119F044EC2AF012C0B0F113C0B1F102
:102F1C0014C0B2F115C0B3F10E0E066EEA0E076EB8
:102F2C00DD0E086EB50E096E4C0E166EBB0E176ECE
:102F3C00310E186E330E196EB0C112F0B1C113F010
:102F4C00B2C114F0B3C115F044EC2AF012C002F077
:102F5C0013C003F014C004F015C005F0E4EC27F026
:102F6C0002C048F103C049F104C04AF105C04BF15D
:102F7C00550E066EB30E076E8A0E086E380E096E6D
:102F8C00B0C116F0B1C117F0B2C118F0B3C119F04D
:102F9C0048C112F049C113F04AC114F04BC115F0ED
:102FAC0044EC2AF012C002F013C003F014C004F079
:102FBC0015C005F0E4EC27F002C058F103C059F13C
:102FCC0004C05AF105C05BF1610E066E0B0E076E64
:102FDC00360E086EBB0E096EB0C116F0B1C117F0FB
:102FEC00B2C118F0B3C119F058C112F059C113F0A5
:102FFC005AC114F05BC115F044EC2AF012C002F077
:10300C0013C003F014C004F015C005F0E4EC27F075
:10301C0002C04CF103C04DF104C04EF105C04FF19C
:10302C00AB0E066EAA0E076E2A0E086E3E0E096EC9
:10303C00B0C116F0B1C117F0B2C118F0B3C119F09C
:10304C004CC112F04DC113F04EC114F04FC115F02C
:10305C0044EC2AF012C002F013C003F014C004F0C8
:10306C0015C005F0E4EC27F002C038F103C039F1CB
:10307C0004C03AF105C03BF1B4C144F0B5C145F010
:10308C00B6C146F0B7C147F0B0C116F0B1C117F0E8
:10309C00B2C118F0B3C119F038C112F039C113F034
:1030AC003AC114F03BC115F044EC2AF012C048F0C0
:1030BC0013C049F014C04AF015C04BF0BDEC3EF003
:1030CC0044C08CF145C08DF146C08EF147C08FF1E4
:1030DC00000E066E000E076E000E086EC00E096E16
:1030EC008CC102F08DC103F08EC104F08FC105F0CC
:1030FC00E4EC27F002C02FF003C030F004C031F034
:10310C0005C032F08CC116F08DC117F08EC118F0CD
:10311C008FC119F0B4C112F0B5C113F0B6C114F0DF
:10312C00B7C115F044EC2AF012C02BF013C02CF0F0
:10313C0014C02DF015C02EF048EC2EF02BC03CF135
:10314C002CC03DF12DC03EF12EC03FF144C106F024
:10315C0045C107F046C108F047C109F044C116F05B
:10316C0045C117F046C118F047C119F0B4C112F0AF
:10317C00B5C113F0B6C114F0B7C115F044EC2AF088
:10318C0012C002F013C003F014C004F015C005F017
:10319C00E4EC27F002C018F103C019F104C01AF1D5
:1031AC0005C01BF13CC144F03DC145F03EC146F0A9
:1031BC003FC147F018C148F019C149F01AC14AF093
:1031CC001BC14BF0BDEC3EF044C050F145C051F179
:1031DC0046C052F147C053F1B4C148F0B5C149F0F3
:1031EC00B6C14AF0B7C14BF050C144F051C145F0E3
:1031FC0052C146F053C147F0BDEC3EF044C09CF1C7
:10320C0045C09DF146C09EF147C09FF1000E446E33
:10321C00000E456E800E466E3F0E476E9CC148F008
:10322C009DC149F09EC14AF09FC14BF0BDEC3EF0F0
:10323C0044C0B4F145C0B5F146C0B6F147C0B7F1D2
:10324C00B4C1A8F1B5C1A9F1B6C1AAF1B7C1ABF12E
:10325C0088C168F089C169F08AC16AF08BC16BF0D2
:10326C00170ED8900001683769376A376B37E82E2C
:10327C0037EF19F068510101A827000169510101CC
:10328C00A92300016A510101AA2300016B5101011C
:10329C00AB23170E0001686FA8C169F0A9C16AF0D1
:1032AC00AAC16BF0ABC16CF068675FEF19F067EF08
:1032BC0019F06C356C336B336A336933682F5AEF02
:1032CC0019F000016CBF77EF19F06C516B116A119A
:1032DC0006E16905D8B075EF19F077EF19F08FEFAB
:1032EC0019F0B4C12BF0B5C12CF0B6C12DF0B7C19B
:1032FC002EF088C12FF089C130F0BCEC31F02BC01E
:10330C00B4F12CC0B5F12DC0B6F12EC0B7F197EFCA
:10331C0019F0A8C1B4F1A9C1B5F1AAC1B6F1ABC1FC
:10332C00B7F10101B451B511B611B711D8B4A1EF71
:10333C0019F0A3EF19F0A4EF0AF06451B41B655116
:10334C00B51B6651B61B6751B71BA4EF0AF01200F0
:10335C00140E0201546F020E556F280E586F020E98
:10336C00596F3C0E566F020E576FB3C002F0B4C0CB
:10337C0003F0046A056A000EDFEC33F002C080F241
:10338C0003C081F204C082F205C083F2B5C002F022
:10339C00B6C003F0046A056A000EDFEC33F002C01D
:1033AC0084F203C085F204C086F205C087F2B7C070
:1033BC0002F0B8C003F0046A056A000EDFEC33F0CB
:1033CC0002C088F203C089F204C08AF205C08BF2F5
:1033DC0080C24CF081C24DF082C24EF083C24FF0DD
:1033EC00000E506E800E516E260E526E440E536EB1
:1033FC0075EC36F0D8B005EF1AF007EF1AF012EFB3
:10340C001AF0000E0201806F000E816F000E826FA9
:10341C00000E836F2CEF1AF080C244F081C245F08D
:10342C0082C246F083C247F0000E486E800E496E91
:10343C00260E4A6E440E4B6EBDEC3EF044C080F23C
:10344C0045C081F246C082F247C083F284C24CF080
:10345C0085C24DF086C24EF087C24FF0000E506E02
:10346C00000E516EDF0E526E430E536E75EC36F03D
:10347C00D8B043EF1AF045EF1AF050EF1AF0000EE7
:10348C000201846F000E856F000E866F000E876F31
:10349C006AEF1AF084C244F085C245F086C246F049
:1034AC0087C247F0000E486E000E496EDF0E4A6E62
:1034BC00430E4B6EBDEC3EF044C084F245C085F229
:1034CC0046C086F247C087F288C24CF089C24DF0E4
:1034DC008AC24EF08BC24FF0000E506E800E516EB1
:1034EC00930E526E430E536E75EC36F0D8B081EFDE
:1034FC001AF083EF1AF08EEF1AF0000E0201886FAB
:10350C00000E896F000E8A6F000E8B6FA8EF1AF0F9
:10351C0088C244F089C245F08AC246F08BC247F09B
:10352C00000E486E800E496E930E4A6E430E4B6E23
:10353C00BDEC3EF044C088F245C089F246C08AF228
:10354C0047C08BF280C22BF081C22CF082C22DF0CE
:10355C0083C22EF0000E2F6EA00E306EA70E316EB1
:10356C00440E326E48EC2EF02BC080F22CC081F24F
:10357C002DC082F22EC083F284C22BF085C22CF0B7
:10358C0086C22DF087C22EF0000E2F6EC00E306E4C
:10359C00460E316E440E326E48EC2EF02BC084F287
:1035AC002CC085F22DC086F22EC087F288C22BF07B
:1035BC0089C22CF08AC22DF08BC22EF0000E2F6E19
:1035CC00000E306E3D0E316E440E326E48EC2EF015
:1035DC002BC088F22CC089F22DC08AF22EC08BF23F
:1035EC0084C206F085C207F086C208F087C209F0D3
:1035FC0080C202F081C203F082C204F083C205F0E3
:10360C00E4EC27F002C050F203C051F204C052F2B5
:10361C0005C053F250C202F051C203F052C204F082
:10362C0053C205F088C206F089C207F08AC208F0BE
:10363C008BC209F0E4EC27F002C07BF203C07CF2F1
:10364C0004C07DF205C07EF280C22BF081C22CF04A
:10365C0082C22DF083C22EF07BC22FF07CC230F0E0
:10366C007DC231F07EC232F048EC2EF02BC08CF2D1
:10367C002CC08DF22DC08EF22EC08FF284C22BF096
:10368C0085C22CF086C22DF087C22EF07BC22FF0A3
:10369C007CC230F07DC231F07EC232F048EC2EF0AC
:1036AC002BC090F22CC091F22DC092F22EC093F24E
:1036BC0088C22BF089C22CF08AC22DF08BC22EF05E
:1036CC007BC22FF07CC230F07DC231F07EC232F072
:1036DC0048EC2EF02BC094F22CC095F22DC096F233
:1036EC002EC097F2140E00019F6F020EA06FB90E40
:1036FC00A16F8CC2A2F08DC2A3F08EC2A4F08FC2B7
:10370C00A5F001EC3FF054C203F055C204F0AEEC4E
:10371C003FF0280E00019F6F020EA06F800EA16F6C
:10372C0090C2A2F091C2A3F092C2A4F093C2A5F0F1
:10373C0001EC3FF058C203F059C204F0AEEC3FF07C
:10374C003C0E00019F6F020EA06FAB0EA16F94C2D6
:10375C00A2F095C2A3F096C2A4F097C2A5F001EC1A
:10376C003FF056C203F057C204F0AEEC3FF0BC0E73
:10377C00066E740E076E130E086EBE0E096E90C2A6
:10378C0002F091C203F092C204F093C205F0E4EC93
:10379C0027F002C098F203C099F204C09AF205C057
:1037AC009BF20C0E066E020E076E2B0E086EBF0EF1
:1037BC00096E8CC202F08DC203F08EC204F08FC26F
:1037CC0005F0E4EC27F002C09CF203C09DF204C0AB
:1037DC009EF205C09FF2000E0001646F000E656F33
:1037EC00000E666F400E676F98C260F099C261F070
:1037FC009AC262F09BC263F06EEC07F060C0A0F25C
:10380C0061C0A1F262C0A2F263C0A3F2000E00017B
:10381C00646F000E656F000E666F400E676F9CC282
:10382C0060F09DC261F09EC262F09FC263F06EECCC
:10383C0007F060C0A4F261C0A5F262C0A6F263C03A
:10384C00A7F2120E066E830E076E400E086EBE0EA9
:10385C00096E94C202F095C203F096C204F097C2AE
:10386C0005F0E4EC27F002C0A8F203C0A9F204C0F2
:10387C00AAF205C0ABF2A0C206F0A1C207F0A2C228
:10388C0008F0A3C209F0A4C202F0A5C203F0A6C2BC
:10389C0004F0A7C205F0E4EC27F002C0ACF203C0C0
:1038AC00ADF204C0AEF205C0AFF2000E0001646FC1
:1038BC00000E656F000E666F400E676FA8C260F059
:1038CC00A9C261F0AAC262F0ABC263F06EEC07F061
:1038DC0060C0B0F261C0B1F262C0B2F263C0B3F2C8
:1038EC00ACC202F0ADC203F0AEC204F0AFC205F040
:1038FC00B0C206F0B1C207F0B2C208F0B3C209F010
:10390C00E4EC27F002C012F003C013F004C014F072
:10391C0005C015F059EC2CF012C05AF213C05BF232
:10392C0014C05CF215C05DF2080E066EAC0E076E8C
:10393C001C0E086EBF0E096E90C202F091C203F00D
:10394C0092C204F093C205F0E4EC27F002C098F2A6
:10395C0003C099F204C09AF205C09BF2870E066E62
:10396C00160E076ED90E086EBD0E096E8CC202F0D3
:10397C008DC203F08EC204F08FC205F0E4EC27F088
:10398C0002C09CF203C09DF204C09EF205C09FF2DF
:10399C00000E0001646F000E656F000E666F400E26
:1039AC00676F98C260F099C261F09AC262F09BC2D4
:1039BC0063F06EEC07F060C0A0F261C0A1F262C0CF
:1039CC00A2F263C0A3F2000E0001646F000E656FDB
:1039DC00000E666F400E676F9CC260F09DC261F076
:1039EC009EC262F09FC263F06EEC07F060C0A4F25E
:1039FC0061C0A5F262C0A6F263C0A7F23B0E066ED0
:103A0C00DF0E076E8F0E086EBE0E096E94C202F0AA
:103A1C0095C203F096C204F097C205F0E4EC27F0CF
:103A2C0002C0A8F203C0A9F204C0AAF205C0ABF20E
:103A3C00A0C206F0A1C207F0A2C208F0A3C209F00E
:103A4C00A4C202F0A5C203F0A6C204F0A7C205F0FE
:103A5C00E4EC27F002C0ACF203C0ADF204C0AEF24D
:103A6C0005C0AFF2000E0001646F000E656F000E12
:103A7C00666F400E676FA8C260F0A9C261F0AAC25F
:103A8C0062F0ABC263F06EEC07F060C0B0F261C0E4
:103A9C00B1F262C0B2F263C0B3F2ACC202F0ADC21A
:103AAC0003F0AEC204F0AFC205F0B0C206F0B1C272
:103ABC0007F0B2C208F0B3C209F0E4EC27F002C080
:103ACC0012F003C013F004C014F005C015F059EC4B
:103ADC002CF012C05EF213C05FF214C060F215C07D
:103AEC0061F2D70E066EA30E076EF00E086EBE0EB8
:103AFC00096E90C202F091C203F092C204F093C21C
:103B0C0005F0E4EC27F002C098F203C099F204C06F
:103B1C009AF205C09BF2230E066EDB0E076E790E31
:103B2C00086EBD0E096E8CC202F08DC203F08EC2FF
:103B3C0004F08FC205F0E4EC27F002C09CF203C045
:103B4C009DF204C09EF205C09FF2000E0001646F4E
:103B5C00000E656F000E666F400E676F98C260F0C6
:103B6C0099C261F09AC262F09BC263F06EEC07F0EE
:103B7C0060C0A0F261C0A1F262C0A2F263C0A3F265
:103B8C00000E0001646F000E656F000E666F400E34
:103B9C00676F9CC260F09DC261F09EC262F09FC2D2
:103BAC0063F06EEC07F060C0A4F261C0A5F262C0D5
:103BBC00A6F263C0A7F2D70E066EA30E076EF00E28
:103BCC00086EBE0E096E94C202F095C203F096C246
:103BDC0004F097C205F0E4EC27F002C0A8F203C091
:103BEC00A9F204C0AAF205C0ABF2A0C206F0A1C2B1
:103BFC0007F0A2C208F0A3C209F0A4C202F0A5C249
:103C0C0003F0A6C204F0A7C205F0E4EC27F002C052
:103C1C00ACF203C0ADF204C0AEF205C0AFF2000EC0
:103C2C000001646F000E656F000E666F400E676FCB
:103C3C00A8C260F0A9C261F0AAC262F0ABC263F084
:103C4C006EEC07F060C0B0F261C0B1F262C0B2F2CB
:103C5C0063C0B3F2ACC202F0ADC203F0AEC204F06A
:103C6C00AFC205F0B0C206F0B1C207F0B2C208F0A4
:103C7C00B3C209F0E4EC27F002C012F003C013F059
:103C8C0004C014F005C015F059EC2CF012C062F20F
:103C9C0013C063F214C064F215C065F2D30E066E45
:103CAC004D0E076EE20E086EBE0E096E90C202F04B
:103CBC0091C203F092C204F093C205F0E4EC27F039
:103CCC0002C098F203C099F204C09AF205C09BF2AC
:103CDC00040E066E560E076ECE0E086EBE0E096EE4
:103CEC008CC202F08DC203F08EC204F08FC205F0BC
:103CFC00E4EC27F002C09CF203C09DF204C09EF2DB
:103D0C0005C09FF2000E0001646F000E656F000E7F
:103D1C00666F400E676F98C260F099C261F09AC2EC
:103D2C0062F09BC263F06EEC07F060C0A0F261C061
:103D3C00A1F262C0A2F263C0A3F2000E0001646F94
:103D4C00000E656F000E666F400E676F9CC260F0D0
:103D5C009DC261F09EC262F09FC263F06EEC07F0F0
:103D6C0060C0A4F261C0A5F262C0A6F263C0A7F263
:103D7C002D0E066EB20E076E1D0E086EBE0E096E6F
:103D8C0094C202F095C203F096C204F097C205F0FB
:103D9C00E4EC27F002C0A8F203C0A9F204C0AAF216
:103DAC0005C0ABF2A0C206F0A1C207F0A2C208F097
:103DBC00A3C209F0A4C202F0A5C203F0A6C204F08B
:103DCC00A7C205F0E4EC27F002C0ACF203C0ADF2E0
:103DDC0004C0AEF205C0AFF2000E0001646F000E1D
:103DEC00656F000E666F400E676FA8C260F0A9C2C7
:103DFC0061F0AAC262F0ABC263F06EEC07F060C077
:103E0C00B0F261C0B1F262C0B2F263C0B3F2ACC244
:103E1C0002F0ADC203F0AEC204F0AFC205F0B0C206
:103E2C0006F0B1C207F0B2C208F0B3C209F0E4EC7C
:103E3C0027F002C012F003C013F004C014F005C048
:103E4C0015F059EC2CF012C066F213C067F214C0D6
:103E5C0068F215C069F2580E066E390E076EB40E74
:103E6C00086EBD0E096E90C202F091C203F092C2B0
:103E7C0004F093C205F0E4EC27F002C098F203C002
:103E8C0099F204C09AF205C09BF2E10E066E7A0E0E
:103E9C00076E340E086EBF0E096E8CC202F08DC216
:103EAC0003F08EC204F08FC205F0E4EC27F002C0E0
:103EBC009CF203C09DF204C09EF205C09FF2000E5E
:103ECC000001646F000E656F000E666F400E676F29
:103EDC0098C260F099C261F09AC262F09BC263F022
:103EEC006EEC07F060C0A0F261C0A1F262C0A2F259
:103EFC0063C0A3F2000E0001646F000E656F000E2C
:103F0C00666F400E676F9CC260F09DC261F09EC2EE
:103F1C0062F09FC263F06EEC07F060C0A4F261C067
:103F2C00A5F262C0A6F263C0A7F2CF0E066EF70E22
:103F3C00076E530E086EBE0E096E94C202F095C247
:103F4C0003F096C204F097C205F0E4EC27F002C02F
:103F5C00A8F203C0A9F204C0AAF205C0ABF2A0C239
:103F6C0006F0A1C207F0A2C208F0A3C209F0A4C2D5
:103F7C0002F0A5C203F0A6C204F0A7C205F0E4EC5F
:103F8C0027F002C0ACF203C0ADF204C0AEF205C023
:103F9C00AFF2000E0001646F000E656F000E666FCD
:103FAC00400E676FA8C260F0A9C261F0AAC262F0AD
:103FBC00ABC263F06EEC07F060C0B0F261C0B1F25E
:103FCC0062C0B2F263C0B3F2ACC202F0ADC203F095
:103FDC00AEC204F0AFC205F0B0C206F0B1C207F039
:103FEC00B2C208F0B3C209F0E4EC27F002C012F040
:103FFC0003C013F004C014F005C015F059EC2CF0FC
:10400C0012C06AF213C06BF214C06CF215C06DF2E0
:10401C004A0E066E0C0E076E020E086EBE0E096E70
:10402C0090C202F091C203F092C204F093C205F068
:10403C00E4EC27F002C098F203C099F204C09AF2A3
:10404C0005C09BF2190E066E040E076E360E086E36
:10405C00BF0E096E8CC202F08DC203F08EC204F04A
:10406C008FC205F0E4EC27F002C09CF203C09DF275
:10407C0004C09EF205C09FF2000E0001646F000E9A
:10408C00656F000E666F400E676F98C260F099C244
:10409C0061F09AC262F09BC263F06EEC07F060C0F4
:1040AC00A0F261C0A1F262C0A2F263C0A3F2000E42
:1040BC000001646F000E656F000E666F400E676F37
:1040CC009CC260F09DC261F09EC262F09FC263F020
:1040DC006EEC07F060C0A4F261C0A5F262C0A6F25B
:1040EC0063C0A7F2790E066EE90E076E260E086EF7
:1040FC00BE0E096E94C202F095C203F096C204F093
:10410C0097C205F0E4EC27F002C0A8F203C0A9F2B4
:10411C0004C0AAF205C0ABF2A0C206F0A1C207F01F
:10412C00A2C208F0A3C209F0A4C202F0A5C203F017
:10413C00A6C204F0A7C205F0E4EC27F002C0ACF272
:10414C0003C0ADF204C0AEF205C0AFF2000E000128
:10415C00646F000E656F000E666F400E676FA8C22D
:10416C0060F0A9C261F0AAC262F0ABC263F06EEC5F
:10417C0007F060C0B0F261C0B1F262C0B2F263C0CD
:10418C00B3F2ACC202F0ADC203F0AEC204F0AFC2E7
:10419C0005F0B0C206F0B1C207F0B2C208F0B3C26B
:1041AC0009F0E4EC27F002C012F003C013F004C0D5
:1041BC0014F005C015F059EC2CF012C06EF213C0BF
:1041CC006FF214C070F215C071F2E70E066EFB0EA2
:1041DC00076EE90E086EBE0E096E90C202F091C217
:1041EC0003F092C204F093C205F0E4EC27F002C095
:1041FC0098F203C099F204C09AF205C09BF2F00E3B
:10420C00066EA70E076E460E086EBE0E096E8CC2A9
:10421C0002F08DC203F08EC204F08FC205F0E4EC04
:10422C0027F002C09CF203C09DF204C09EF205C0B0
:10423C009FF2000E0001646F000E656F000E666F3A
:10424C00400E676F98C260F099C261F09AC262F03A
:10425C009BC263F06EEC07F060C0A0F261C0A1F2EB
:10426C0062C0A2F263C0A3F2000E0001646F000EE4
:10427C00656F000E666F400E676F9CC260F09DC24A
:10428C0061F09EC262F09FC263F06EEC07F060C0FA
:10429C00A4F261C0A5F262C0A6F263C0A7F2210E1F
:1042AC00066EB00E076EB20E086EBE0E096E94C28C
:1042BC0002F095C203F096C204F097C205F0E4EC4C
:1042CC0027F002C0A8F203C0A9F204C0AAF205C0EC
:1042DC00ABF2A0C206F0A1C207F0A2C208F0A3C2C2
:1042EC0009F0A4C202F0A5C203F0A6C204F0A7C252
:1042FC0005F0E4EC27F002C0ACF203C0ADF204C050
:10430C00AEF205C0AFF2000E0001646F000E656FD7
:10431C00000E666F400E676FA8C260F0A9C261F014
:10432C00AAC262F0ABC263F06EEC07F060C0B0F2F0
:10433C0061C0B1F262C0B2F263C0B3F2ACC202F0BF
:10434C00ADC203F0AEC204F0AFC205F0B0C206F0CD
:10435C00B1C207F0B2C208F0B3C209F0E4EC27F026
:10436C0002C012F003C013F004C014F005C015F025
:10437C0059EC2CF012C072F213C073F214C074F228
:10438C0015C075F2A80E066EC60E076ECB0E086E23
:10439C00BE0E096E90C202F091C203F092C204F0FC
:1043AC0093C205F0E4EC27F002C098F203C099F236
:1043BC0004C09AF205C09BF2F40E066EFD0E076E59
:1043CC00940E086EBE0E096E8CC202F08DC203F004
:1043DC008EC204F08FC205F0E4EC27F002C09CF210
:1043EC0003C09DF204C09EF205C09FF2000E0001B6
:1043FC00646F000E656F000E666F400E676F98C29B
:10440C0060F099C261F09AC262F09BC263F06EECEC
:10441C0007F060C0A0F261C0A1F262C0A2F263C05A
:10442C00A3F2000E0001646F000E656F000E666F44
:10443C00400E676F9CC260F09DC261F09EC262F03C
:10444C009FC263F06EEC07F060C0A4F261C0A5F2ED
:10445C0062C0A6F263C0A7F2640E066E3B0E076E36
:10446C009F0E086EBE0E096E94C202F095C203F048
:10447C0096C204F097C205F0E4EC27F002C0A8F253
:10448C0003C0A9F204C0AAF205C0ABF2A0C206F0A8
:10449C00A1C207F0A2C208F0A3C209F0A4C202F0A4
:1044AC00A5C203F0A6C204F0A7C205F0E4EC27F005
:1044BC0002C0ACF203C0ADF204C0AEF205C0AFF264
:1044CC00000E0001646F000E656F000E666F400EEB
:1044DC00676FA8C260F0A9C261F0AAC262F0ABC259
:1044EC0063F06EEC07F060C0B0F261C0B1F262C074
:1044FC00B2F263C0B3F2ACC202F0ADC203F0AEC212
:10450C0004F0AFC205F0B0C206F0B1C207F0B2C2FF
:10451C0008F0B3C209F0E4EC27F002C012F003C0BB
:10452C0013F004C014F005C015F059EC2CF012C0B7
:10453C0076F213C077F214C078F215C079F2000E3F
:10454C0002017A6F000E7F6F070E7F65B0EF22F0CD
:10455C00B2EF22F0B4EF22F0E3EF22F07F51040D22
:10456C005A0EF324D96E020EF420DA6EDECF4CF024
:10457C00DECF4DF0DECF4EF0DECF4FF07A51040D92
:10458C005A0EF324D96E020EF420DA6EDECF50F000
:10459C00DECF51F0DECF52F0DECF53F075EC36F0BB
:1045AC00D8B0DBEF22F0DDEF22F0DFEF22F07FC29C
:1045BC007AF202017F2BAAEF22F0FF0E046E010E9D
:1045CC0002EC40F0FF0E046E030E02EC40F0020110
:1045DC007A511200000E0001876F61C088F062C032
:1045EC0089F063C08AF064C08BF08BBF02EF23F0BC
:1045FC0000EF23F016EF23F0010E876F88C002F056
:10460C0089C003F08AC004F08BC005F060EC3FF069
:10461C0002C088F003C089F004C08AF005C08BF09A
:10462C00000E00018D6F000E8C6FD9C077F0DAC0D0
:10463C0078F08751D8B425EF23F027EF23F03BEF28
:10464C0023F08751D8A42DEF23F02FEF23F035EF73
:10465C0023F0000E6D6F2B0E6C6F39EF23F0000EF4
:10466C006D6F2D0E6C6F6CC087F088C002F089C026
:10467C0003F08AC004F08BC005F078EC37F002042C
:10468C000310D8A44CEF23F04EEF23F07DEF23F072
:10469C0000018751D8B455EF23F057EF23F060EFAA
:1046AC0023F087C000F47707D8A07807000E8D6F31
:1046BC00010E8C6F000E8C25026E040E8D21036E84
:1046CC00D20E046E41EC3FF00001FD0E7727FF0E79
:1046DC00782360C010F0000E116E040E126E77C0BD
:1046EC0013F078C014F01CEC3DF0E3EF27F088C019
:1046FC0002F089C003F08AC004F08BC005F078EC9E
:10470C0037F002500310D8A48EEF23F090EF23F073
:10471C00AEEF23F000018751D8B497EF23F099EF57
:10472C0023F0A2EF23F087C000F47707D8A0780716
:10473C00000E8D6F010E8C6F000E8C25026E040E18
:10474C008D21036ED60E046E41EC3FF06AEF23F020
:10475C00000E00018E6F000E8F6F800E906F3F0E5B
:10476C00916F000E766F000E756F88C002F089C0D5
:10477C0003F08AC004F08BC005F0000E066E000E2C
:10478C00076E000E086E000E096EB4EC3BF0D8B04C
:10479C00D2EF23F0D4EF23F0B3EF24F0E1EF23F0CA
:1047AC0079C08EF07AC08FF07BC090F07CC091F015
:1047BC000001754B762B8EC012F08FC013F090C099
:1047CC0014F091C015F0000E166E000E176E200E30
:1047DC00186E410E196E44EC2AF012C079F013C019
:1047EC007AF014C07BF015C07CF000017951885D23
:1047FC00026E7A518959036E7B518A59046E7C5131
:10480C008B59056E82EC3DF005BE18EF24F0055077
:10481C000410031009E1020E025CD8A018EF24F07A
:10482C001AEF24F0D6EF23F079C04CF07AC04DF09B
:10483C007BC04EF07CC04FF088C050F089C051F066
:10484C008AC052F08BC053F075EC36F0D8A031EF23
:10485C0024F033EF24F0D6EF23F000018E51885D65
:10486C00026E8F518959036E90518A59046E915181
:10487C008B59056E82EC3DF005BE52EF24F00550CD
:10488C000410031007E1020E025CD8B050EF24F0C4
:10489C0052EF24F09AEF24F08EC088F08FC089F08C
:1048AC0090C08AF091C08BF0B3EF24F08EC02BF047
:1048BC008FC02CF090C02DF091C02EF0000E2F6EFA
:1048CC00000E306E200E316E410E326E48EC2EF022
:1048DC002BC08EF02CC08FF02DC090F02EC091F01C
:1048EC0000017507D8A076078E51885D026E8F5136
:1048FC008959036E90518A59046E91518B59056EEA
:10490C0082EC3DF005BE98EF24F005500410031026
:10491C0007E1020E025CD8B096EF24F098EF24F079
:10492C009AEF24F052EF24F088C04CF089C04DF07F
:10493C008AC04EF08BC04FF08EC050F08FC051F03B
:10494C0090C052F091C053F075EC36F0D8A0B1EF96
:10495C0024F0B3EF24F05CEF24F065C06FF06FC06F
:10496C0070F00001DCBFBDEF24F0BFEF24F0C5EF09
:10497C0024F0DBC068F0DCC069F0C9EF24F0000E55
:10498C00696F060E686F68C073F069C074F0734B82
:10499C00742B660E7019D8A4D6EF24F0D8EF24F03F
:1049AC00F8EF24F076BFDFEF24F0DDEF24F0EBEF2F
:1049BC0024F0000E8E6F000E8F6F800E906F3F0EE6
:1049CC00916F000E766F000E756F670E6F19D8B46D
:1049DC00F2EF24F0F4EF24F0F8EF24F07551732784
:1049EC0076517423000E7E6F000E7D6F88C07FF0B1
:1049FC0089C080F08AC081F08BC082F08EC079F0C3
:104A0C008FC07AF090C07BF091C07CF089EF25F0DC
:104A1C007FC02BF080C02CF081C02DF082C02EF016
:104A2C008EC02FF08FC030F090C031F091C032F0BA
:104A3C0048EC2EF02BC044F02CC045F02DC046F0B5
:104A4C002EC047F0D6EC32F044C083F045C084F061
:104A5C0046C085F047C086F083C002F084C003F0E6
:104A6C0085C004F086C005F0F2EC35F002C071F0A0
:104A7C0003C072F07FC044F080C045F081C046F0A6
:104A8C0082C047F083C016F084C017F085C018F0C0
:104A9C0086C019F08EC012F08FC013F090C014F0C5
:104AAC0091C015F044EC2AF012C048F013C049F044
:104ABC0014C04AF015C04BF0BDEC3EF044C07FF082
:104ACC0045C080F046C081F047C082F08EC02BF00C
:104ADC008FC02CF090C02DF091C02EF0000E2F6ED8
:104AEC00000E306E200E316E410E326E48EC2EF000
:104AFC002BC08EF02CC08FF02DC090F02EC091F0FA
:104B0C0000017D4B7E2B73517D5D7E51800A586E6A
:104B1C007451800A5858D8A096EF25F098EF25F0DC
:104B2C000EEF25F08EC012F08FC013F090C014F071
:104B3C0091C015F0000E166E000E176EA00E186EBA
:104B4C00400E196E44EC2AF012C083F013C084F0AE
:104B5C0014C085F015C086F07FC04CF080C04DF0BD
:104B6C0081C04EF082C04FF083C050F084C051F031
:104B7C0085C052F086C053F075EC36F0D8B0C9EF52
:104B8C0025F0CBEF25F0D6EF25F0000E0001836F5A
:104B9C00000E846F000E856F000E866FFFEF25F000
:104BAC007FC002F080C003F081C004F082C005F029
:104BBC0083C006F084C007F085C008F086C009F0F9
:104BCC00B4EC3BF0D8A0EDEF25F0EFEF25F0FFEFC4
:104BDC0025F0000171B1F5EF25F0F7EF25F0FFEFAF
:104BEC0025F0000E836F000E846F000E856F000E93
:104BFC00866F88C002F089C003F08AC004F08BC0B5
:104C0C0005F083C006F084C007F085C008F086C0AC
:104C1C0009F0E4EC27F002C07FF003C080F004C080
:104C2C0081F005C082F07FC04CF080C04DF081C097
:104C3C004EF082C04FF0000E166E000E176E200E56
:104C4C00186E410E196E79C012F07AC013F07BC049
:104C5C0014F07CC015F044EC2AF012C050F013C0D4
:104C6C0051F014C052F015C053F075EC36F0D8A0CA
:104C7C0042EF26F044EF26F06DEF26F00001754B65
:104C8C00762B79C012F07AC013F07BC014F07CC084
:104C9C0015F0000E166E000E176E200E186E410EDB
:104CAC00196E44EC2AF012C079F013C07AF014C0DB
:104CBC007BF015C07CF0660E00017019D8A469EF6A
:104CCC0026F06BEF26F06DEF26F0734B742B79C04A
:104CDC008EF07AC08FF07BC090F07CC091F075C0E4
:104CEC0066F076C067F0000E00016E6F000E6B6F01
:104CFC00000E6A6F000E7E6F000E7D6F6BEF27F05B
:104D0C007FC02BF080C02CF081C02DF082C02EF023
:104D1C008EC02FF08FC030F090C031F091C032F0C7
:104D2C0048EC2EF02BC044F02CC045F02DC046F0C2
:104D3C002EC047F0D6EC32F044C083F045C084F06E
:104D4C0046C085F047C086F083C002F084C003F0F3
:104D5C0085C004F086C005F0F2EC35F003BEC2EF5E
:104D6C0026F0035007E10A0E025CD8B0C0EF26F023
:104D7C00C2EF26F0D2EF26F083C002F084C003F01D
:104D8C0085C004F086C005F0F2EC35F002C071F07D
:104D9C0003C072F0D7EF26F0000E0001726F090EFF
:104DAC00716F00016E51D8A4DEEF26F0E0EF26F013
:104DBC0008EF27F067BFE7EF26F0E5EF26F008EFE6
:104DCC0027F0000E8C25D96E040E8D21DA6E2E0E76
:104DDC00DF6E8C4B8D2B7707D8A07807010E6E6F8A
:104DEC0008EF27F0000E8C25D96E040E8D21DA6E9B
:104DFC00300EDF6E8C4B8D2B7707D8A078076A07A7
:104E0C00D8A06B076A516B11D8A40FEF27F011EFE4
:104E1C0027F0F8EF26F0000E8C25D96E040E8D21AC
:104E2C00DA6E7151300FDF6E8C4B8D2B7707D8A05B
:104E3C0078077FC044F080C045F081C046F082C046
:104E4C0047F083C016F084C017F085C018F086C0F8
:104E5C0019F08EC012F08FC013F090C014F091C0F6
:104E6C0015F044EC2AF012C048F013C049F014C0FD
:104E7C004AF015C04BF0BDEC3EF044C07FF045C08D
:104E8C0080F046C081F047C082F08EC02BF08FC0FE
:104E9C002CF090C02DF091C02EF0000E2F6E000E55
:104EAC00306E200E316E410E326E48EC2EF02BC05F
:104EBC008EF02CC08FF02DC090F02EC091F0000120
:104ECC006607D8A067077D4B7E2B73517D5D7E51A5
:104EDC00800A586E7451800A5858D8B078EF27F071
:104EEC007AEF27F088EF27F08DBF86EF27F08D51F2
:104EFC0009E14B0E8C5DD8A086EF27F088EF27F0E8
:104F0C0086EF26F0000E7E6F4F0E7D6F000E7D2516
:104F1C00D96E040E7E21DA6EDF6A000E586E040E16
:104F2C00596E8C51585E8D51595A7D515824026ED0
:104F3C007E515920036E000E046E040E056E8CC05B
:104F4C0006F08DC007F0ADEC3DF000018C517D5D9D
:104F5C008C6F8D517E598D6F8751D8A4B8EF27F087
:104F6C00BBEF27F0010EBCEF27F0000E7D6F7E6BC0
:104F7C008751D8B4C4EF27F0C6EF27F0D1EF27F054
:104F8C008C07D8A08D07000E8C25D96E040E8D21B0
:104F9C00DA6E87C0DFFF7D51775F7E51785B60C032
:104FAC0010F0000E8C25116E040E8D21126E77C040
:104FBC0013F078C014F01CEC3DF012000550800B7F
:104FCC000E6E05500524106E04AEEFEF27F0F1EFD6
:104FDC0027F0F2EF27F010801050D8B4F8EF27F03C
:104FEC00FAEF27F00FEF28F01028D8A400EF28F0E4
:104FFC0002EF28F00AEF28F0000E026E000E036E8E
:10500C00000E046E000E056E048E000E056E17EF7A
:10501C0028F0000E026E000E036E000E046E000EE1
:10502C00056E0950800B0F6E0E500F18D8B421EF7F
:10503C0028F023EF28F024EF28F00E8C09500924D7
:10504C000F6E08AE2CEF28F02EEF28F02FEF28F083
:10505C000F800F50D8B435EF28F037EF28F04CEF15
:10506C0028F00F28D8A43DEF28F03FEF28F047EFA9
:10507C0028F0000E066E000E076E000E086E000E75
:10508C00096E088E000E096E54EF28F0000E066EA5
:10509C00000E076E000E086E000E096E10500F5CAD
:1050AC00D8B05BEF28F05DEF28F084EF28F00EAC61
:1050BC0062EF28F064EF28F066EF28F0800E0E1AED
:1050CC0010C011F00FC010F011C00FF002C011F0A1
:1050DC0006C002F011C006F003C011F007C003F0C7
:1050EC0011C007F004C011F008C004F011C008F0A2
:1050FC0005C011F009C005F011C009F0000E116EC9
:10510C0010500FC00AF00B6A0A5E000E0B5A0BBE51
:10511C0099EF28F00B5009E11A0E0A5CD8A099EF10
:10512C0028F09BEF28F0D2EF28F002500310041067
:10513C000510D8A4A4EF28F0A7EF28F0010EA8EFD3
:10514C0028F0000E116E000E026E000E036E000EA3
:10515C00046E000E056E0FC010F0DBEF28F011A0EE
:10516C00BAEF28F0BCEF28F0C2EF28F0D89011303D
:10517C000109116EC4EF28F0D890113202A0C9EFCA
:10518C0028F0CBEF28F0CCEF28F0118E0534053247
:10519C00043203320232102A0F50105CD8A0D9EF1F
:1051AC0028F0DBEF28F0B5EF28F00EBCE0EF28F08C
:1051BC00E2EF28F022EF29F01050D8A4E8EF28F005
:1051CC00EAEF28F0F4EF28F0000E026E000E036EEA
:1051DC00000E046E000E056E43EF2AF006500226F8
:1051EC0007500322085004220950052205A001EFA4
:1051FC0029F003EF29F0AFEF29F011A008EF29F007
:10520C000AEF29F010EF29F0D89011300109116E36
:10521C0012EF29F0D890113202A017EF29F019EFF4
:10522C0029F01AEF29F0118E0534053204320332BD
:10523C000232102AAFEF29F00650025C07500358D7
:10524C00085004580550800A0A6E0950800A0A5802
:10525C00D8B033EF29F035EF29F060EF29F0025088
:10526C00065C0A6E035007580B6E045008580C6EFF
:10527C00055009580D6EFF0E0A24026EFF0E0B200E
:10528C00036EFF0E0C20046EFF0E0D20056E800EBB
:10529C000E1A116C1150D8A456EF29F058EF29F0C2
:1052AC0068EF29F0010E0226000E032204220522CB
:1052BC0068EF29F00650025E0750035A0850045A52
:1052CC000950055A0250031004100510D8A471EFB0
:1052DC0029F073EF29F0A8EF29F01150D8A479EF39
:1052EC0029F07BEF29F0A8EF29F0000E026E000EDA
:1052FC00036E000E046E000E056E43EF2AF0D8907C
:10530C00023603360436053611AE8FEF29F091EFD5
:10531C0029F092EF29F0028011A097EF29F099EF74
:10532C0029F09DEF29F0D88011369FEF29F0D89005
:10533C0011361050D8B4A5EF29F0A7EF29F0A8EF3B
:10534C0029F0100604AEADEF29F0AFEF29F085EF90
:10535C0029F0000E0F6E11AEB6EF29F0B8EF29F060
:10536C00D0EF29F011C00AF07F0E0A16D8B4C1EFA5
:10537C0029F0C3EF29F0C7EF29F0010E0F6ED0EF23
:10538C0029F002A0CCEF29F0CEEF29F0D0EF29F0D4
:10539C00C3EF29F00F50D8B4D6EF29F0D8EF29F08D
:1053AC0003EF2AF0010E0226000E0322042205222E
:1053BC0005A0E3EF29F0E5EF29F003EF2AF002C096
:1053CC000AF003C00BF004C00CF005C00DF00D3456
:1053DC000D320C320B320A320AC002F00BC003F051
:1053EC000CC004F00DC005F01028D8B400EF2AF062
:1053FC0002EF2AF003EF2AF0102A1028D8B409EF94
:10540C002AF00BEF2AF013EF2AF01050D8A411EF6A
:10541C002AF013EF2AF025EF2AF0000E026E000E90
:10542C00036E000E046E000E056E1050D8A421EF12
:10543C002AF023EF2AF025EF2AF0000E0E6E10A0B2
:10544C002AEF2AF02CEF2AF02FEF2AF0048E30EFFF
:10545C002AF0049ED8901030056E0EAE38EF2AF06C
:10546C003AEF2AF03BEF2AF0058E02C002F003C09F
:10547C0003F004C004F005C005F012001550800BB9
:10548C001E6E15501524246E14AE4FEF2AF051EFFA
:10549C002AF052EF2AF024802450D8B458EF2AF086
:1054AC005AEF2AF06DEF2AF02428D8A460EF2AF0E6
:1054BC0062EF2AF06AEF2AF0000E126E000E136EE5
:1054CC00000E146E000E156E148E75EF2AF0000E81
:1054DC00126E000E136E000E146E000E156E195027
:1054EC00800B1E1A195019241F6E18AE80EF2AF06B
:1054FC0082EF2AF083EF2AF01F801F50D8B489EF77
:10550C002AF08BEF2AF09EEF2AF01F28D8A491EFF7
:10551C002AF093EF2AF09BEF2AF0000E166E000E85
:10552C00176E000E186E000E196E188EA6EF2AF06C
:10553C00000E166E000E176E000E186E000E196E11
:10554C001F50D8B4ACEF2AF0AEEF2AF0B6EF2AF029
:10555C002450D8A4B4EF2AF0B6EF2AF0C0EF2AF00A
:10556C00000E126E000E136E000E146E000E156EF1
:10557C0058EF2CF018501202F3CF29F0F4CF2AF088
:10558C002950206E216A226A236A2A50256E266AC7
:10559C00276A286A17501302F3CF29F0F4CF2AF0A8
:1055AC0029502026000E2122222223222A50252691
:1055BC00000E26222722282216501402F3CF29F09F
:1055CC00F4CF2AF029502026000E21222222232259
:1055DC002A502526000E26222722282222C023F01C
:1055EC0021C022F020C021F0206A16501302F3CF04
:1055FC0029F0F4CF2AF0295020262A502122000E1F
:10560C002222000E232217501202F3CF29F0F4CFDE
:10561C002AF0295020262A502122000E2222000E88
:10562C00232222C023F021C022F020C021F0206AC6
:10563C0016501202F3CF29F0F4CF2AF0295020266D
:10564C002A502122000E2222000E2322185013026F
:10565C00F3CF29F0F4CF2AF0295025262A50262200
:10566C00000E2722000E282217501402F3CF29F027
:10567C00F4CF2AF0295025262A502622000E272264
:10568C00000E282218501402F3CF29F0F4CF2AF080
:10569C0029501A6E2A501B6E1C6A1D6A1CC01DF004
:1056AC001BC01CF01AC01BF01A6A1A5025261B507E
:1056BC0026221C5027221D50282220C01AF021C05F
:1056CC001BF022C01CF023C01DF0190E73EF2BF041
:1056DC00D8901D321C321B321A32E82E6EEF2BF092
:1056EC001A5025261B5026221C5027221D502822DA
:1056FC0022C023F021C022F020C021F0206A1F50CC
:10570C0024C01AF01B6A1A26000E1B22820E1A24C1
:10571C00296EFF0E1B202A6EA9EF2BF0D890253690
:10572C0026362736283623AE9EEF2BF0A0EF2BF033
:10573C00A1EF2BF02580D890203621362236233647
:10574C002906D8A02A0627AEAEEF2BF0B0EF2BF02F
:10575C0094EF2BF0000E1F6E23AEB7EF2BF0B9EFCA
:10576C002BF0DDEF2BF0FF0E20141A6EFF0E211420
:10577C001B6EFF0E22141C6E7F0E23141D6E1A500E
:10578C001B101C101D10D8B4CEEF2BF0D0EF2BF04B
:10579C00D4EF2BF0010E1F6EDDEF2BF025A0D9EF0F
:1057AC002BF0DBEF2BF0DDEF2BF0D0EF2BF01F50BD
:1057BC00D8B4E3EF2BF0E5EF2BF009EF2CF0010E52
:1057CC002526000E26222722282228A0F0EF2BF0D7
:1057DC00F2EF2BF009EF2CF025C01AF026C01BF0CD
:1057EC0027C01CF028C01DF01D341D321C321B328A
:1057FC001A321AC025F01BC026F01CC027F01DC0A1
:10580C0028F0294A2A2A2ABE14EF2CF02A5008E143
:10581C002928D8A014EF2CF016EF2CF020EF2CF048
:10582C00000E256E000E266E800E276E7F0E286EE3
:10583C004EEF2CF02ABE2DEF2CF02A5006E1290455
:10584C00D8B02BEF2CF02DEF2CF039EF2CF0000E04
:10585C00256E000E266E000E276E000E286E000EB2
:10586C001E6E4EEF2CF029C024F0FF0E2516FF0EF5
:10587C0026167F0E2716000E281624A048EF2CF0B3
:10588C004AEF2CF04BEF2CF0278ED8902430286E5A
:10589C001E50281225C012F026C013F027C014F099
:1058AC0028C015F0120012C033F013C034F014C02D
:1058BC0035F015C036F0000E3314166E000E34148D
:1058CC00176E800E3514186E7F0E3614196E800EFE
:1058DC00181809E17F0E191816101710D8A479EFB3
:1058EC002CF07BEF2CF0ABEF2CF0FF0E3314166E7C
:1058FC00FF0E3414176E7F0E3514186E000E36140E
:10590C00196E1650171018101910D8A490EF2CF00F
:10591C0092EF2CF099EF2CF036BE99EF2CF097EF1C
:10592C002CF0A1EF2CF0FF0E3312FF0E34127F0E71
:10593C003512000E361233C012F034C013F035C0DD
:10594C0014F036C015F047EF2EF036BEBAEF2CF03F
:10595C0036503510341006E13304D8B0B8EF2CF0C3
:10596C00BAEF2CF0F1EF2CF0FF0E3314166EFF0E85
:10597C003414176EFF0E3514186E7F0E3614196E14
:10598C001650171018101910D8A4CFEF2CF0D1EF17
:10599C002CF0DBEF2CF0000E126E000E136E000ECE
:1059AC00146E000E156E47EF2EF036BEE2EF2CF0A3
:1059BC00E0EF2CF0F1EF2CF0000E0001D86F210E6F
:1059CC00D76FFF0E336EFF0E346EFF0E356E7F0EEB
:1059DC00366EA1EF2CF0170E166E33C017F034C0D4
:1059EC0018F035C019F036C01AF0166600EF2DF01D
:1059FC0008EF2DF01A341A32193218321732162ECB
:105A0C00FBEF2CF017C02BF018C02CF019C02DF0A8
:105A1C001AC02EF02B502C102D102E10D8A419EFCC
:105A2C002DF01BEF2DF04BEF2DF0000E1F6E000E26
:105A3C00206E000E216E000E226E30EF2DF0D890ED
:105A4C003336343635363636010E1F26000E2022FC
:105A5C002122222235AE35EF2DF037EF2DF025EF38
:105A6C002DF0FF0E1F24166EFF0E2020176EFF0E5A
:105A7C002120186EFF0E2220196E16502B5E175027
:105A8C002C5A18502D5A19502E5A810E2B26FF0EB7
:105A9C002C22FF0E2D22FF0E2E22FF0E3314166E1B
:105AAC00FF0E3414176E7F0E3514186E000E36145C
:105ABC00196E000E1610336E000E1710346E800E19
:105ACC001810356E000E1910366E2BA070EF2DF0DD
:105ADC0072EF2DF07AEF2DF0335033263450342200
:105AEC0035503522365036222E342E322D322C3271
:105AFC002B32335033263450342235503522365025
:105B0C003622000E1B6E000E1C6E000E1D6E000E5B
:105B1C001E6E1BC023F01CC024F01DC025F01EC03F
:105B2C0026F0000E2F6E000E306E000E316E010E40
:105B3C00326EE9EF2DF01B502F24276E1C503020B5
:105B4C00286E1D503120296E1E5032202A6E27508F
:105B5C00335C28503458295035583650800A166E0C
:105B6C002A50800A1658D8A0BEEF2DF0C0EF2DF0A9
:105B7C00DCEF2DF027502F241B6E285030201C6E8C
:105B8C00295031201D6E2A5032201E6E2750335E54
:105B9C002850345A2950355A2A50365A2F50232619
:105BAC0030502422315025223250262233503326B5
:105BBC00345034223550352236503622D890323279
:105BCC00313230322F322F50301031103210D8A4E5
:105BDC00F2EF2DF0F4EF2DF0A1EF2DF03350341047
:105BEC0035103610D8B4FDEF2DF0FFEF2DF013EF7C
:105BFC002EF0010E2314166E000E2414176E000ED8
:105C0C002514186E000E2614196E165023261750E4
:105C1C002422185025221950262223C016F024C005
:105C2C0017F025C018F026C019F0193419321832A3
:105C3C0017321632000E1624336E000E1720346EF7
:105C4C00000E1820356E3F0E1920366E2BC016F044
:105C5C002CC017F02DC018F02EC019F0170ED890CC
:105C6C001636173618361936E82E35EF2EF0165034
:105C7C003326175034221850352219503622A1EFF2
:105C8C002CF012002E50800B3B6E2E502E24426EA8
:105C9C002DAE53EF2EF055EF2EF056EF2EF0428036
:105CAC004250D8B45CEF2EF05EEF2EF073EF2EF076
:105CBC004228D8A464EF2EF066EF2EF06EEF2EF093
:105CCC00000E2B6E000E2C6E000E2D6E000E2E6E26
:105CDC002D8E000E2E6E7BEF2EF0000E2B6E000E16
:105CEC002C6E000E2D6E000E2E6E3250800B3B1A59
:105CFC0032503224436E31AE86EF2EF088EF2EF008
:105D0C0089EF2EF043804350D8B48FEF2EF091EFF3
:105D1C002EF0A6EF2EF04328D8A497EF2EF099EF93
:105D2C002EF0A1EF2EF0000E2F6E000E306E000E36
:105D3C00316E000E326E318E000E326EAEEF2EF0E2
:105D4C00000E2F6E000E306E000E316E000E326E95
:105D5C002F50301031103210D8A4B7EF2EF0B9EF0D
:105D6C002EF0D1EF2EF0000E2B6E000E2C6E000ECE
:105D7C002D6E000E2E6E800E2D127F0E2E123B50AD
:105D8C002E122BC02BF02CC02CF02DC02DF02EC0C1
:105D9C002EF014EF30F04250D8A4D7EF2EF0D9EFFC
:105DAC002EF0E3EF2EF0000E2B6E000E2C6E000E7C
:105DBC002D6E000E2E6E14EF30F0435042C033F0B7
:105DCC00346A335E000E345A7F0E33243C6E000E60
:105DDC0034203D6E2BC037F02CC038F02DC039F07C
:105DEC002EC03AF0000E2B6E000E2C6E000E2D6E97
:105DFC00000E2E6E000E3E6E000E3F6E000E406EBC
:105E0C00000E416E000E436E44EF2FF04350D8B499
:105E1C0012EF2FF014EF2FF02BEF2FF0D890373626
:105E2C00383639363A36D8902B362C362D362E3627
:105E3C0041AE23EF2FF025EF2FF026EF2FF02B8024
:105E4C00D8903E363F36403641362F50375C305076
:105E5C0038583150395832503A58D8A038EF2FF0C2
:105E6C003AEF2FF043EF2FF0418C2F50375E30502C
:105E7C00385A3150395A32503A5A432A190E43641F
:105E8C004AEF2FF04CEF2FF00CEF2FF0375038106B
:105E9C0039103A10D8B455EF2FF057EF2FF06FEFB1
:105EAC002FF03E806FEF2FF0D8902B362C362D36FE
:105EBC002E3641AE64EF2FF066EF2FF067EF2FF028
:105ECC002B80D8903E363F36403641363C06D8A023
:105EDC003D062DAE74EF2FF076EF2FF05AEF2FF02A
:105EEC00000E436E41AE7DEF2FF07FEF2FF0A3EF4E
:105EFC002FF0FF0E3E14336EFF0E3F14346EFF0E68
:105F0C004014356E7F0E4114366E335034103510FC
:105F1C003610D8B494EF2FF096EF2FF09AEF2FF0B5
:105F2C00010E436EA3EF2FF02BA09FEF2FF0A1EFEC
:105F3C002FF0A3EF2FF096EF2FF04350D8B4A9EF2A
:105F4C002FF0ABEF2FF0CFEF2FF0010E2B26000E22
:105F5C002C222D222E222EA0B6EF2FF0B8EF2FF0F0
:105F6C00CFEF2FF02BC033F02CC034F02DC035F018
:105F7C002EC036F03634363235323432333233C00A
:105F8C002BF034C02CF035C02DF036C02EF03C4A2E
:105F9C003D2A3DBEDAEF2FF03D5008E13C28D8A059
:105FAC00DAEF2FF0DCEF2FF0E7EF2FF0000E3D6E65
:105FBC003C68000E2B6E000E2C6E000E2D6E000E2B
:105FCC002E6E3DBEF4EF2FF03D5006E13C04D8B0F0
:105FDC00F2EF2FF0F4EF2FF002EF30F0000E3D6EE9
:105FEC00000E3C6E000E2B6E000E2C6E000E2D6EF5
:105FFC00000E2E6E000E3B6E3CC042F042A009EF2C
:10600C0030F00BEF30F00EEF30F02D8E0FEF30F054
:10601C002D9ED89042302E6EC5EF2EF0120000014E
:10602C009351D96EDA6ADFCFF6FF0E0EF76E000EC3
:10603C00F86E0800F550250AD8A427EF30F029EFA8
:10604C0030F0A8EF31F09351D96EDA6ADF2A000EE6
:10605C00DA6F000ED96FD9C0DDF0DB69DC699351C2
:10606C00D96EDA6ADF509A6F9AC0F6FF0E0EF76E91
:10607C00000EF86E0800F550640AD8B448EF30F002
:10608C004AEF30F05AEF30F09AC0F6FF0E0EF76E72
:10609C00000EF86E0800F550690AD8A458EF30F0DD
:1060AC005AEF30F0E8EF30F09451D96EDA6A020E04
:1060BC00DF26DF5CD96EDA6ADECF96F0DECF97F0A2
:1060CC009351D96EDA6A9A29DF6E500E9B6F97BF87
:1060DC0072EF30F075EF30F0010E76EF30F0000E0D
:1060EC00956F9B07000E9B25D96EDA6A040EDA2297
:1060FC0096C002F097C003F0000E056E0A0E046EF7
:10610C005CEC3BF002C008F003C009F07CEC3FF003
:10611C000850300FDF6E96C002F097C003F0000EEF
:10612C00056E0A0E046E3FEC3AF002C096F003C006
:10613C0097F0000196519711D8B4A7EF30F0A9EF62
:10614C0030F0B1EF30F09B51D8A4AFEF30F0B1EF9D
:10615C0030F077EF30F09B51D8B4B7EF30F0B9EFA7
:10616C0030F0DDEF30F09551D8B4BFEF30F0C1EF27
:10617C0030F0DDEF30F09B07000E9B25D96EDA6A0C
:10618C00040EDA222D0EDF6EDDEF30F0000E9B25B3
:10619C00D96EDA6A040EDA22DF505A6E5A50026E49
:1061AC00036A92C004F0FFEC3AF000019B2B500EF6
:1061BC009B19D8A4E4EF30F0E6EF30F0CCEF30F0E0
:1061CC00BBEF31F09351D96EDA6ADF509A6F9AC0F7
:1061DC00F6FF0E0EF76E000EF86E0800F5CF9BF072
:1061EC0003EF31F09A2B1CEF31F06C0E9B6F1CEF10
:1061FC0031F0000E9B6F1CEF31F09B515A6E5B6AB5
:10620C005B50000AD8B40DEF31F0FFEF30F05A506C
:10621C004C0AD8B4F8EF30F02A0AD8B4FBEF30F0BF
:10622C000A0AD8B4F8EF30F0FFEF30F09AC0F6FF5E
:10623C000E0EF76E000EF86E0800F550660AD8A424
:10624C002AEF31F02CEF31F0A1EF31F056EF31F0B5
:10625C009451D96EDA6ADFCF5AF0040EDF265A5009
:10626C00D96EDA6ADECF96F0DECF97F0DECF98F0FB
:10627C00DECF99F06BEF31F09451D96EDA6ADFCF43
:10628C005AF0040EDF265A50D96EDA6ADECF96F039
:10629C00DECF97F0DECF98F0DECF99F06BEF31F0D8
:1062AC009B515A6E5B6A5B50000AD8B460EF31F0B8
:1062BC006BEF31F05A504C0AD8B442EF31F0200A4F
:1062CC00D8B42EEF31F06BEF31F09351D96EDA6A0E
:1062DC009A29DF6E89EF31F092C060F096C061F0C0
:1062EC0097C062F098C063F099C064F09AC0F6FF52
:1062FC000E0EF76E000EF86E0800F5CF65F0F0ECA0
:10630C0022F0BBEF31F09AC0F6FF0E0EF76E000EC6
:10631C00F86E0800F5505A6E5B6A5B50000AD8B4F0
:10632C009AEF31F0A1EF31F05A50660AD8B472EFFF
:10633C0031F0A1EF31F000019351D96EDA6ADF2A06
:10634C00BBEF31F09351D96EDA6ADFCFF6FF0E0E48
:10635C00F76E000EF86E0800F550026E036A92C0DC
:10636C0004F0FFEC3AF0A1EF31F012002BC039F041
:10637C002CC03AF02DC03BF02EC03CF030BED0EF1C
:10638C0031F0305009E1800E2F5CD8A0D0EF31F005
:10639C00D2EF31F030EF32F039C012F03AC013F0D6
:1063AC003BC014F03CC015F0000E166E000E176EBC
:1063BC00000E186E7F0E196E44EC2AF012C039F0E4
:1063CC0013C03AF014C03BF015C03CF0810E2F26E0
:1063DC00FF0E302230BEFCEF31F0305009E1800E60
:1063EC002F5CD8A0FCEF31F0FEEF31F09AEF32F0D9
:1063FC0039C012F03AC013F03BC014F03CC015F099
:10640C00000E166E000E176E000E186E7F0E196EB3
:10641C0044EC2AF012C039F013C03AF014C03BF02F
:10642C0015C03CF0810E2F26FF0E302230BE28EF17
:10643C0032F0305009E1800E2F5CD8A028EF32F0FA
:10644C002AEF32F09AEF32F0000E306E7F0E2F6E84
:10645C009AEF32F030AE3CEF32F0820E2F5CFF0E32
:10646C003058D8B03CEF32F03EEF32F09AEF32F0C9
:10647C0039C012F03AC013F03BC014F03CC015F018
:10648C00000E166E000E176E800E186E0C0E196E26
:10649C0044EC2AF012C039F013C03AF014C03BF0AF
:1064AC0015C03CF0660E2F26000E302230AE68EF81
:1064BC0032F0820E2F5CFF0E3058D8B068EF32F0FD
:1064CC006AEF32F09AEF32F039C012F03AC013F0A2
:1064DC003BC014F03CC015F0000E166E000E176E8B
:1064EC00800E186E0C0E196E44EC2AF012C039F0A6
:1064FC0013C03AF014C03BF015C03CF0660E2F26CA
:10650C00000E302230AE94EF32F0820E2F5CFF0E74
:10651C003058D8B094EF32F096EF32F09AEF32F068
:10652C00FF0E306E820E2F6E7F0E2F24316E000EFA
:10653C003020326E336A346A170ED89031363236C8
:10654C0033363436E82EA3EF32F031C035F032C09A
:10655C0036F033C037F034C038F035C012F036C0E6
:10656C0013F037C014F038C015F039C016F03AC02B
:10657C0017F03BC018F03CC019F044EC2AF012C0E4
:10658C002BF013C02CF014C02DF015C02EF02BC026
:10659C002BF02CC02CF02DC02DF02EC02EF01200A4
:1065AC00CFC054F0D0C055F0D1C056F0D2C057F087
:1065BC0044C054F045C055F046C056F047C057F0A3
:1065CC00810E486EFF0E496E54C04AF055C04BF018
:1065DC0056C04CF057C04DF0180EFAEF32F0D89070
:1065EC004D324C324B324A32E82EF5EF32F04A50F3
:1065FC004824526E000E4920536E53BE0FEF33F0F9
:10660C00535009E1170E525CD8A00FEF33F011EF85
:10661C0033F01BEF33F044C044F045C045F046C0A6
:10662C0046F047C047F0DEEF33F053BE20EF33F0B7
:10663C0022EF33F092EF33F052C048F0FF0E496E68
:10664C00FF0E4A6E7F0E4B6E000E4C6E486631EF9D
:10665C0033F039EF33F04C344C324B324A3249324E
:10666C00482E2CEF33F049C04EF04AC04FF04BC0CF
:10667C0050F04CC051F04E505414486E4F505514BD
:10668C00496E505056144A6E515057144B6E485028
:10669C0049104A104B10D8A456EF33F058EF33F092
:1066AC005AEF33F011EF33F054C048F055C049F0B5
:1066BC0056C04AF057C04BF0200E6AEF33F0D8901A
:1066CC004B324A3249324832E82E65EF33F04850AB
:1066DC0049104A104B10D8B476EF33F078EF33F002
:1066EC0080EF33F04E5054264F50552250505622C6
:1066FC00515057224E1C486E4F1C496E501C4A6E0E
:10670C00511C4B6E48505416495055164A5056164B
:10671C004B505716D6EF33F054C048F055C049F0E3
:10672C0056C04AF057C04BF0200EA2EF33F0D89071
:10673C004B324A3249324832E82E9DEF33F0485002
:10674C0049104A104B10D8A4AEEF33F0B0EF33F031
:10675C00BAEF33F0000E546E000E556E000E566EEE
:10676C00000E576ED6EF33F0D8905434486E553433
:10677C00496E56344A6E57344B6E485049104A1085
:10678C004B10D8B4CCEF33F0CEEF33F0D6EF33F070
:10679C00000E546E000E556E800E566EBF0E576E68
:1067AC0054C044F055C045F056C046F057C047F0B1
:1067BC0012000A6E0A50D8B4E6EF33F0E8EF33F06B
:1067CC000AEF34F005BEEFEF33F0EDEF33F00AEFE4
:1067DC0034F002C006F003C007F004C008F005C096
:1067EC0009F0061E071E081E091E062A000E0722A7
:1067FC000822092206C00CF007C00DF008C00EF0EC
:10680C0009C00FF012EF34F002C00CF003C00DF011
:10681C0004C00EF005C00FF0025003100410051058
:10682C00D8A41BEF34F01DEF34F027EF34F0000E3A
:10683C00026E000E036E000E046E000E056EB8EFB5
:10684C0034F0960E0B6E31EF34F00B2AD8900F32D9
:10685C000E320D320C32000E0C14066E000E0D149E
:10686C00076E000E0E14086EFE0E0F14096E065005
:10687C00071008100910D8A446EF34F048EF34F094
:10688C002BEF34F056EF34F00B2A010E0C26000ED1
:10689C000D220E220F22D8900F320E320D320C32F6
:1068AC00000E0C14066E000E0D14076E000E0E1466
