:0400000030EF00F0ED
:100008005E820E0135A10BEF00F00DEF00F021EF3D
:1000180000F080A612EF00F016EF00F0016A012A46
:1000280017EF00F0016A01460146014680500118A9
:10003800F70B0118806E0E01359133AB26EF00F0F7
:1000480028EF00F02DEF00F00B0ED46EDB0ED36E10
:0C005800339B37515E9211007EEF0AF0DE
:100E000000726564203D202564200D0A00000D500D
:100E1000D96EDA6ADFCFF6FF0800F550250AD8A4AC
:100E200014EF07F016EF07F0CBEF07F00D50D96E77
:100E3000DA6ADF2A000E566E000E556E55C059F064
:100E4000576858680D50D96EDA6ADF50116E11C0BC
:100E5000F6FF0800F550640AD8B431EF07F033EF1D
:100E600007F03FEF07F011C0F6FF0800F550690AE0
:100E7000D8A43DEF07F03FEF07F0C5EF07F00E50A5
:100E8000D96EDA6A020EDF26DF5CD96EDA6ADECF4F
:100E900012F0DECF13F00D50D96EDA6A1128DF6E32
:100EA000200E166E13BE57EF07F05AEF07F0010E33
:100EB0005BEF07F0000E106E160616509C0FD96EF1
:100EC000DA6A12C002F013C003F0000E056E0A0EBB
:100ED000046E3DEC08F002C008F003C009F064ECB9
:100EE0000AF00850300FDF6E12C002F013C003F09A
:100EF000000E056E0A0E046EDBEC07F002C012F065
:100F000003C013F012501310D8B489EF07F08BEF21
:100F100007F093EF07F01650D8A491EF07F093EF86
:100F200007F05CEF07F01650D8B499EF07F09BEF8D
:100F300007F0BAEF07F01050D8B4A1EF07F0A3EF15
:100F400007F0BAEF07F0160616509C0FD96EDA6A52
:100F50002D0EDF6EBAEF07F016509C0FD96EDA6ACD
:100F6000DF500F6E0F50026E036A0CC004F0EBEC02
:100F700008F0162A200E1618D8A4C1EF07F0C3EF08
:100F800007F0ACEF07F0DAEF07F00D50D96EDA6A30
:100F9000DF2ADAEF07F00D50D96EDA6ADFCFF6FFFD
:100FA0000800F550026E036A0CC004F0EBEC08F088
:100FB000C5EF07F01200000E076E05BEE4EF07F064
:100FC000E2EF07F0EAEF07F0046C051ED8B0052A3F
:100FD000010E076E03BEF1EF07F0EFEF07F0F7EF3A
:100FE00007F0026C031ED8B0032A010E071A000E88
:100FF000096E000E086E04500510D8B402EF08F018
:1010000004EF08F02CEF08F0010E066E0CEF08F06C
:10101000D89004360536062A05AE11EF08F013EF16
:1010200008F008EF08F0D890083609360450025C42
:1010300005500358D8A01FEF08F021EF08F026EF65
:1010400008F00450025E0550035A0880D89005321B
:101050000432062E13EF08F00750D8B432EF08F030
:1010600034EF08F038EF08F0086C091ED8B0092AF0
:1010700008C002F009C003F01200000E076E03BEA4
:1010800046EF08F044EF08F04CEF08F0026C031E46
:10109000D8B0032A010E076E05BE53EF08F051EFDA
:1010A00008F057EF08F0046C051ED8B0052A04506C
:1010B0000510D8B45EEF08F060EF08F084EF08F098
:1010C000010E066E68EF08F0D89004360536062A41
:1010D00005AE6DEF08F06FEF08F064EF08F0045014
:1010E000025C05500358D8A078EF08F07AEF08F0BA
:1010F0007EEF08F00450025E0550035AD890053286
:101100000432062E6FEF08F00750D8B48AEF08F0CB
:101110008CEF08F090EF08F0026C031ED8B0032AA1
:1011200002C002F003C003F01200D1EC0AF0A8ECF8
:101130000AF00DEC0AF0000E036E630E026E40EC36
:1011400009F0F3EC0AF091EC09F0000E436E010E89
:10115000446E010E456EAA0E486E0F0E496EA60E25
:101160004A6E0F0E4B6E000E476E630E466E000EFB
:101170004C6E010E4D6E010E4E6E250E516E0F0E11
:10118000526E210E536E0F0E546E000E506E630E93
:101190004F6E2E0E426E2E0E1B6E010E1C6EC4EC98
:1011A00009F006C01DF007C01EF04AEC0AF042C06C
:1011B00003F093EC0AF0520E2D6E2B0E2C6E000EE7
:1011C000E82EFED72C2EFCD72D2EFAD700D0CBEF51
:1011D00008F030EF00F00450D8B4F1EF08F0F3EF6E
:1011E00008F0FBEF08F00450D8A4F9EF08F0FBEF8B
:1011F00008F000EF09F0025023EC0BF03FEF09F08C
:101200000450D96EDA6A0A0ED926DE50DE10D8B440
:101210000CEF09F00EEF09F027EF09F00450D96E3A
:10122000DA6A0A0ED9260450E16EE26A030EE1265C
:10123000DE50E65CE650800A096EDE50800A0958EE
:10124000D8B025EF09F027EF09F03FEF09F004507F
:10125000D96EDA6A030ED926DF50056E0450D96EB6
:10126000DA6ADF500524D96EDA6A02C0DFFF045063
:10127000D96EDA6A030ED926DE2A000EDD221200AC
:10128000050E0E01746F060E766F070E696F080E5D
:10129000886FBD508F0B4009BD6EE00EBE16BF506B
:1012A000F00B0109BF6E630EBC6EBD8E000EAA6E00
:1012B000000EA66E000E0F01256F000E216FFC0EB2
:1012C000AD16F30EAD16CF0EAD163F0EAD16AB88B4
:1012D000AB50F00B0C09AB6EAB8EA788A750F00B90
:1012E0000C09A76EA78E26892651F00B0C09266FD4
:1012F000268F22892251F00B0C09226F228F050EB6
:101300000E01746F060E766F070E696F080E886FF8
:1013100085948598839E879C7D947B9E7D987F9CF9
:1013200012007FA096EF09F09AEF09F0026A022AF4
:101330009BEF09F0026A7F500218FE0B02187F6EC5
:1013400079A6A5EF09F0A9EF09F0026A022AAAEF2F
:1013500009F0026A02460246024679500218F70B6B
:101360000218796E7DAEB7EF09F0BBEF09F0026AA3
:10137000022ABCEF09F0026A023202327D500218E2
:101380007F0B02187D6E12001EEC0BF0520E0EEC5D
:101390000BF0B60E0EEC0BF014EC0BF0530E0EEC43
:1013A0000BF0010EECEC09F0086E08500B6E0C6AA5
:1013B000000EECEC09F0086E08500A6E096A0B503A
:1013C00009100B6E0C500A100C6E19EC0BF00BC0D0
:1013D00006F00CC007F01200046EBDEC0AF00E011E
:1013E000DA87BDEC0AF0D5CE05F0BDEC0AF004506A
:1013F000D8B4FDEF09F001EF0AF0036A032A02EF07
:101400000AF0036A033A03460E01DA510318DF0BB0
:101410000318DA6FDA8905501200A8EC0AF0010E01
:10142000046E000EE3EC0AF03F0E066E550EE82E39
:10143000FED7062EFCD70000030E046E000EE3EC70
:101440000AF0D50E046E010EE3EC0AF07F90799657
:101450007D9E87908196859E120018C01AF039EF04
:101460000AF017C00CF01A0E0D6E19C00EF007EC42
:1014700007F01AC0F6FF0800F5500009D8A443EFA2
:101480000AF045EF0AF031EF0AF0000E186E000E78
:10149000176E12001D0E1F6E1BC020F0000E246E72
:1014A000000E236E000E2B6E000E2A6E200E176E9D
:1014B0001CC018F01F0E196E2DEC0AF01B502324CF
:1014C000D96EDA6ADF6A120009BE69EF0AF06BEFC3
:1014D0000AF071EF0AF008C008F009C009F07DEFCA
:1014E0000AF008C00AF009C00BF00A1E0B1E0A4AD7
:1014F0000B2A0AC008F00BC009F0120000EE60F0E1
:10150000700EEE6AE806FDE100EE55F0090EEE6A97
:10151000E806FDE15E905E92000EF86E0E0EF76E2C
:10152000000195EF08F09CEF0AF00350D96EDA6ADB
:10153000DF5002EC0BF0032A0350D96EDA6ADF5059
:10154000D8A4A5EF0AF0A7EF0AF095EF0AF0120071
:101550000E01D951F00B0809D96FD98B9F0ED66FA8
:10156000848A848CA79BA79D1D0E1D6F1E0E1C6F69
:101570001C0E6F6F1B0E706F12000E01D8B5C3EFFB
:101580000AF0C5EF0AF0BDEF0AF0DACE02F01F0E46
:101590000216D8A4CEEF0AF0D0EF0AF0BDEF0AF0A1
:1015A0001200D6501F0B4009D66ED688D650F00BCD
:1015B0000809D66EF00ED516D5880B0ED46EDB0E4C
:1015C000D36ED58E1200056E1EEC0BF0520E0EEC93
:1015D0000BF0055080090EEC0BF004500EEC0BF0F4
:1015E00019EC0BF01200120E0E01626F110E156F46
:1015F000E997E895330EE56F000EE66FE789E88B13
:10160000E78F1200026E0E0137A509EF0BF00BEF0A
:101610000BF003EF0BF002C0E4FE1200036EBDEC12
:101620000AF003C0D5FE1200BDEC0AF00E01DA8309
:101630001200BDEC0AF00E01DA851200BDEC0AF0D2
:081640000E01DA811200120014
:020000040030CA
:02000000AAFF55
:020004009FFF5C
:00000001FF
